{
	"Lock.sol": {
		"TokenTimeLock": {
			"abi": [
				{
					"anonymous": false,
					"inputs": [
						{
							"indexed": true,
							"internalType": "address",
							"name": "user",
							"type": "address"
						},
						{
							"indexed": true,
							"internalType": "address",
							"name": "token",
							"type": "address"
						},
						{
							"indexed": false,
							"internalType": "uint256",
							"name": "ID",
							"type": "uint256"
						}
					],
					"name": "Locked",
					"type": "event"
				},
				{
					"inputs": [
						{
							"components": [
								{
									"internalType": "address",
									"name": "Token",
									"type": "address"
								},
								{
									"internalType": "address",
									"name": "Beneficiary",
									"type": "address"
								},
								{
									"internalType": "uint256",
									"name": "amount",
									"type": "uint256"
								},
								{
									"internalType": "bool",
									"name": "liquidity",
									"type": "bool"
								},
								{
									"internalType": "uint256",
									"name": "FirstPercent",
									"type": "uint256"
								},
								{
									"internalType": "uint256",
									"name": "firstReleaseTime",
									"type": "uint256"
								},
								{
									"internalType": "uint256",
									"name": "cyclePercent",
									"type": "uint256"
								},
								{
									"internalType": "uint256",
									"name": "cyclereleaseTime",
									"type": "uint256"
								},
								{
									"internalType": "uint256",
									"name": "cycleCount",
									"type": "uint256"
								}
							],
							"internalType": "struct TokenTimeLock.inputs",
							"name": "Inputs",
							"type": "tuple"
						}
					],
					"name": "Lock",
					"outputs": [],
					"stateMutability": "nonpayable",
					"type": "function"
				},
				{
					"inputs": [
						{
							"internalType": "address",
							"name": "",
							"type": "address"
						},
						{
							"internalType": "uint256",
							"name": "",
							"type": "uint256"
						},
						{
							"internalType": "uint256",
							"name": "",
							"type": "uint256"
						}
					],
					"name": "LockedTokens",
					"outputs": [
						{
							"internalType": "address",
							"name": "owner",
							"type": "address"
						},
						{
							"internalType": "address",
							"name": "Token",
							"type": "address"
						},
						{
							"internalType": "address",
							"name": "Beneficiary",
							"type": "address"
						},
						{
							"internalType": "uint256",
							"name": "amount",
							"type": "uint256"
						},
						{
							"internalType": "uint256",
							"name": "releaseTime",
							"type": "uint256"
						},
						{
							"internalType": "bool",
							"name": "liquidity",
							"type": "bool"
						},
						{
							"internalType": "bool",
							"name": "Claimed",
							"type": "bool"
						}
					],
					"stateMutability": "view",
					"type": "function"
				},
				{
					"inputs": [
						{
							"internalType": "uint256",
							"name": "index",
							"type": "uint256"
						}
					],
					"name": "Release",
					"outputs": [],
					"stateMutability": "nonpayable",
					"type": "function"
				},
				{
					"inputs": [
						{
							"internalType": "uint256",
							"name": "index",
							"type": "uint256"
						}
					],
					"name": "_vestingClaim",
					"outputs": [],
					"stateMutability": "nonpayable",
					"type": "function"
				},
				{
					"inputs": [
						{
							"internalType": "address",
							"name": "owner_",
							"type": "address"
						},
						{
							"internalType": "uint256",
							"name": "Id",
							"type": "uint256"
						},
						{
							"internalType": "uint256",
							"name": "index",
							"type": "uint256"
						}
					],
					"name": "amount",
					"outputs": [
						{
							"internalType": "uint256",
							"name": "",
							"type": "uint256"
						}
					],
					"stateMutability": "view",
					"type": "function"
				},
				{
					"inputs": [
						{
							"internalType": "address",
							"name": "owner_",
							"type": "address"
						},
						{
							"internalType": "uint256",
							"name": "index",
							"type": "uint256"
						},
						{
							"internalType": "uint256",
							"name": "vIndex",
							"type": "uint256"
						}
					],
					"name": "beneficiary",
					"outputs": [
						{
							"internalType": "address",
							"name": "",
							"type": "address"
						}
					],
					"stateMutability": "view",
					"type": "function"
				},
				{
					"inputs": [
						{
							"internalType": "uint256",
							"name": "index",
							"type": "uint256"
						},
						{
							"internalType": "uint256",
							"name": "newTime",
							"type": "uint256"
						},
						{
							"internalType": "uint256",
							"name": "newCycleGap",
							"type": "uint256"
						},
						{
							"internalType": "uint256[]",
							"name": "newPercentages",
							"type": "uint256[]"
						},
						{
							"internalType": "uint256",
							"name": "additionalAmount",
							"type": "uint256"
						}
					],
					"name": "changeReleaseTimeAndSpread",
					"outputs": [],
					"stateMutability": "nonpayable",
					"type": "function"
				},
				{
					"inputs": [
						{
							"internalType": "address",
							"name": "",
							"type": "address"
						},
						{
							"internalType": "uint256",
							"name": "",
							"type": "uint256"
						}
					],
					"name": "cycleCountPerID",
					"outputs": [
						{
							"internalType": "uint256",
							"name": "",
							"type": "uint256"
						}
					],
					"stateMutability": "view",
					"type": "function"
				},
				{
					"inputs": [
						{
							"internalType": "address",
							"name": "owner_",
							"type": "address"
						},
						{
							"internalType": "uint256",
							"name": "index",
							"type": "uint256"
						},
						{
							"internalType": "uint256",
							"name": "vIndex",
							"type": "uint256"
						}
					],
					"name": "getClaimed",
					"outputs": [
						{
							"internalType": "bool",
							"name": "",
							"type": "bool"
						}
					],
					"stateMutability": "view",
					"type": "function"
				},
				{
					"inputs": [
						{
							"internalType": "address",
							"name": "owner",
							"type": "address"
						},
						{
							"internalType": "uint256",
							"name": "index",
							"type": "uint256"
						}
					],
					"name": "getLockCount",
					"outputs": [
						{
							"internalType": "uint256",
							"name": "",
							"type": "uint256"
						}
					],
					"stateMutability": "view",
					"type": "function"
				},
				{
					"inputs": [
						{
							"internalType": "address",
							"name": "owner_",
							"type": "address"
						},
						{
							"internalType": "uint256",
							"name": "index",
							"type": "uint256"
						},
						{
							"internalType": "uint256",
							"name": "vIndex",
							"type": "uint256"
						}
					],
					"name": "getTransaction",
					"outputs": [
						{
							"components": [
								{
									"internalType": "address",
									"name": "owner",
									"type": "address"
								},
								{
									"internalType": "address",
									"name": "Token",
									"type": "address"
								},
								{
									"internalType": "address",
									"name": "Beneficiary",
									"type": "address"
								},
								{
									"internalType": "uint256",
									"name": "amount",
									"type": "uint256"
								},
								{
									"internalType": "uint256",
									"name": "releaseTime",
									"type": "uint256"
								},
								{
									"internalType": "bool",
									"name": "liquidity",
									"type": "bool"
								},
								{
									"internalType": "bool",
									"name": "Claimed",
									"type": "bool"
								}
							],
							"internalType": "struct TokenTimeLock.Locks",
							"name": "",
							"type": "tuple"
						}
					],
					"stateMutability": "view",
					"type": "function"
				},
				{
					"inputs": [],
					"name": "id",
					"outputs": [
						{
							"internalType": "uint256",
							"name": "",
							"type": "uint256"
						}
					],
					"stateMutability": "view",
					"type": "function"
				},
				{
					"inputs": [
						{
							"internalType": "address",
							"name": "owner_",
							"type": "address"
						},
						{
							"internalType": "uint256",
							"name": "index",
							"type": "uint256"
						},
						{
							"internalType": "uint256",
							"name": "vIndex",
							"type": "uint256"
						}
					],
					"name": "isLiquidity",
					"outputs": [
						{
							"internalType": "bool",
							"name": "",
							"type": "bool"
						}
					],
					"stateMutability": "view",
					"type": "function"
				},
				{
					"inputs": [
						{
							"internalType": "address",
							"name": "owner",
							"type": "address"
						},
						{
							"internalType": "address",
							"name": "token_",
							"type": "address"
						},
						{
							"internalType": "address",
							"name": "beneficiary_",
							"type": "address"
						},
						{
							"internalType": "uint256",
							"name": "releaseTime_",
							"type": "uint256"
						},
						{
							"internalType": "uint256",
							"name": "amount_",
							"type": "uint256"
						},
						{
							"internalType": "bool",
							"name": "_liquidity",
							"type": "bool"
						}
					],
					"name": "launchLock",
					"outputs": [],
					"stateMutability": "nonpayable",
					"type": "function"
				},
				{
					"inputs": [
						{
							"internalType": "address",
							"name": "owner_",
							"type": "address"
						},
						{
							"internalType": "uint256",
							"name": "index",
							"type": "uint256"
						},
						{
							"internalType": "uint256",
							"name": "vIndex",
							"type": "uint256"
						}
					],
					"name": "releaseTime",
					"outputs": [
						{
							"internalType": "uint256",
							"name": "",
							"type": "uint256"
						}
					],
					"stateMutability": "view",
					"type": "function"
				},
				{
					"inputs": [
						{
							"internalType": "address",
							"name": "owner_",
							"type": "address"
						},
						{
							"internalType": "uint256",
							"name": "index",
							"type": "uint256"
						},
						{
							"internalType": "uint256",
							"name": "vIndex",
							"type": "uint256"
						}
					],
					"name": "token",
					"outputs": [
						{
							"internalType": "address",
							"name": "",
							"type": "address"
						}
					],
					"stateMutability": "view",
					"type": "function"
				},
				{
					"inputs": [
						{
							"internalType": "uint256",
							"name": "",
							"type": "uint256"
						},
						{
							"internalType": "address",
							"name": "",
							"type": "address"
						}
					],
					"name": "totalTokenAmount",
					"outputs": [
						{
							"internalType": "uint256",
							"name": "",
							"type": "uint256"
						}
					],
					"stateMutability": "view",
					"type": "function"
				}
			],
			"devdoc": {
				"author": "PurpleSale",
				"events": {
					"Locked(address,address,uint256)": {
						"details": "Emitted when a new lock is created.",
						"params": {
							"ID": "The ID of the lock.",
							"token": "The address of the token that was locked.",
							"user": "The address of the user who created the lock."
						}
					}
				},
				"kind": "dev",
				"methods": {
					"Lock((address,address,uint256,bool,uint256,uint256,uint256,uint256,uint256))": {
						"details": "This function transfers tokens from the sender to this contract, creates a new lock, and emits a Locked event.",
						"params": {
							"Inputs": "A struct containing the following fields: - `Token`: The address of the token to be locked. - `Beneficiary`: The address of the beneficiary of the lock. - `amount`: The amount of tokens to be locked. - `liquidity`: A boolean indicating whether the lock is a liquidity token. - `Vesting`: A boolean indicating whether the lock has vested cycles. - `FirstPercent`: The percentage of tokens to be released first. - `firstReleaseTime`: The unix timestamp when the first release can be made. - `cyclePercent`: The percentage of tokens to be released in each cycle. - `cyclereleaseTime`: The time interval between each release cycle. - `cycleCount`: The number of release cycles."
						}
					},
					"Release(uint256)": {
						"details": "This function checks the vesting schedule and calls the appropriate claim function.",
						"params": {
							"index": "The index of the lock."
						}
					},
					"_vestingClaim(uint256)": {
						"details": "This function checks the claim status and release time for each vesting cycle, then transfers the claimable tokens to the beneficiary.This function seems to fail when called if declared as internal, still unsure why",
						"params": {
							"index": "The index of the lock."
						}
					},
					"amount(address,uint256,uint256)": {
						"params": {
							"Id": "The ID of the lock.",
							"index": "The index of the lock.",
							"owner_": "The address of the owner of the lock."
						},
						"returns": {
							"_0": "The amount of tokens."
						}
					},
					"beneficiary(address,uint256,uint256)": {
						"params": {
							"index": "The ID of the lock.",
							"owner_": "The address of the owner of the lock.",
							"vIndex": "The index of the lock."
						},
						"returns": {
							"_0": "The beneficiary address."
						}
					},
					"changeReleaseTimeAndSpread(uint256,uint256,uint256,uint256[],uint256)": {
						"details": "This function changes the first release time, the time gap between each release cycle, and the amount of tokens for each cycle of a vesting lock based on the new time, time gap, and percentages provided. It does this by iterating over each cycle of the lock and setting the new release time and amount of tokens for that cycle based on the new time gap and percentages provided.",
						"params": {
							"index": "The index of the lock.",
							"newCycleGap": "The new time gap between each release cycle.",
							"newPercentages": "An array of new percentages for each cycle of the lock. The percentages are expressed as parts per 10,000 (i.e., a value of 10000 represents 100%).",
							"newTime": "The new first release time."
						}
					},
					"getClaimed(address,uint256,uint256)": {
						"params": {
							"index": "The ID of the lock.",
							"owner_": "The address of the owner of the lock.",
							"vIndex": "The index of the lock."
						},
						"returns": {
							"_0": "The claimed status."
						}
					},
					"getLockCount(address,uint256)": {
						"details": "This function returns the count of locks associated with the provided owner and index.",
						"params": {
							"index": "The index of the lock.",
							"owner": "The address of the owner of the lock."
						},
						"returns": {
							"_0": "The number of locks for the given owner and index."
						}
					},
					"getTransaction(address,uint256,uint256)": {
						"params": {
							"index": "The ID of the lock.",
							"owner_": "The address of the owner of the lock.",
							"vIndex": "The index of the lock."
						},
						"returns": {
							"_0": "The lock details."
						}
					},
					"isLiquidity(address,uint256,uint256)": {
						"params": {
							"index": "The ID of the lock.",
							"owner_": "The address of the owner of the lock.",
							"vIndex": "The index of the lock."
						},
						"returns": {
							"_0": "The liquidity status."
						}
					},
					"launchLock(address,address,address,uint256,uint256,bool)": {
						"details": "This function transfers tokens from the PurpleSale presale cpntract  to this contract, creates a new lock, and emits a Locked event.",
						"params": {
							"_liquidity": "A flag indicating if the token is a liquidity token or not.",
							"amount_": "The amount of tokens to be locked.",
							"beneficiary_": "The address of the beneficiary of the lock.",
							"owner": "The address of the user who will own the lock.",
							"releaseTime_": "The timestamp when the lock will be released.",
							"token_": "The address of the token to be locked."
						}
					},
					"releaseTime(address,uint256,uint256)": {
						"params": {
							"index": "The ID of the lock.",
							"owner_": "The address of the owner of the lock.",
							"vIndex": "The index of the lock."
						},
						"returns": {
							"_0": "The release time."
						}
					},
					"token(address,uint256,uint256)": {
						"params": {
							"index": "The ID of the lock.",
							"owner_": "The address of the owner of the lock.",
							"vIndex": "The index of the lock."
						},
						"returns": {
							"_0": "The token address."
						}
					}
				},
				"title": "TokenTimeLock",
				"version": 1
			},
			"evm": {
				"assembly": "    /* \"Lock.sol\":25598:47167  contract TokenTimeLock{... */\n  mstore(0x40, 0x80)\n  callvalue\n  dup1\n  iszero\n  tag_1\n  jumpi\n  0x00\n  dup1\n  revert\ntag_1:\n  pop\n  dataSize(sub_0)\n  dup1\n  dataOffset(sub_0)\n  0x00\n  codecopy\n  0x00\n  return\nstop\n\nsub_0: assembly {\n        /* \"Lock.sol\":25598:47167  contract TokenTimeLock{... */\n      mstore(0x40, 0x80)\n      callvalue\n      dup1\n      iszero\n      tag_1\n      jumpi\n      0x00\n      dup1\n      revert\n    tag_1:\n      pop\n      jumpi(tag_2, lt(calldatasize, 0x04))\n      shr(0xe0, calldataload(0x00))\n      dup1\n      0x8e6509c9\n      gt\n      tag_20\n      jumpi\n      dup1\n      0xcf95d1fe\n      gt\n      tag_21\n      jumpi\n      dup1\n      0xcf95d1fe\n      eq\n      tag_15\n      jumpi\n      dup1\n      0xe3c36941\n      eq\n      tag_16\n      jumpi\n      dup1\n      0xe5205906\n      eq\n      tag_17\n      jumpi\n      dup1\n      0xeaf60c8b\n      eq\n      tag_18\n      jumpi\n      dup1\n      0xfde8e727\n      eq\n      tag_19\n      jumpi\n      0x00\n      dup1\n      revert\n    tag_21:\n      dup1\n      0x8e6509c9\n      eq\n      tag_11\n      jumpi\n      dup1\n      0x96480d04\n      eq\n      tag_12\n      jumpi\n      dup1\n      0x9bc59d83\n      eq\n      tag_13\n      jumpi\n      dup1\n      0xaf640d0f\n      eq\n      tag_14\n      jumpi\n      0x00\n      dup1\n      revert\n    tag_20:\n      dup1\n      0x569511e3\n      gt\n      tag_22\n      jumpi\n      dup1\n      0x569511e3\n      eq\n      tag_7\n      jumpi\n      dup1\n      0x5f4455fb\n      eq\n      tag_8\n      jumpi\n      dup1\n      0x6cfa2d9a\n      eq\n      tag_9\n      jumpi\n      dup1\n      0x84abacb4\n      eq\n      tag_10\n      jumpi\n      0x00\n      dup1\n      revert\n    tag_22:\n      dup1\n      0x0a64cc6a\n      eq\n      tag_3\n      jumpi\n      dup1\n      0x1a38f4a7\n      eq\n      tag_4\n      jumpi\n      dup1\n      0x37d1bf92\n      eq\n      tag_5\n      jumpi\n      dup1\n      0x43edd3c5\n      eq\n      tag_6\n      jumpi\n    tag_2:\n      0x00\n      dup1\n      revert\n        /* \"Lock.sol\":34230:34394  function getTransaction(address owner_, uint index, uint256 vIndex) external view returns(Locks memory){... */\n    tag_3:\n      tag_23\n      tag_24\n      calldatasize\n      0x04\n      tag_25\n      jump\t// in\n    tag_24:\n      0x40\n      dup1\n      mload\n      0xe0\n      dup2\n      add\n      dup3\n      mstore\n      0x00\n      dup1\n      dup3\n      mstore\n      0x20\n      dup3\n      add\n      dup2\n      swap1\n      mstore\n      swap2\n      dup2\n      add\n      dup3\n      swap1\n      mstore\n      0x60\n      dup2\n      add\n      dup3\n      swap1\n      mstore\n      0x80\n      dup2\n      add\n      dup3\n      swap1\n      mstore\n      0xa0\n      dup2\n      add\n      dup3\n      swap1\n      mstore\n      0xc0\n      dup2\n      add\n      swap2\n      swap1\n      swap2\n      mstore\n      pop\n      sub(shl(0xa0, 0x01), 0x01)\n        /* \"Lock.sol\":34351:34371  LockedTokens[owner_] */\n      swap3\n      dup4\n      and\n      0x00\n      swap1\n      dup2\n      mstore\n        /* \"Lock.sol\":34351:34363  LockedTokens */\n      0x01\n        /* \"Lock.sol\":34351:34371  LockedTokens[owner_] */\n      0x20\n      dup2\n      dup2\n      mstore\n      0x40\n      dup1\n      dup5\n      keccak256\n        /* \"Lock.sol\":34351:34378  LockedTokens[owner_][index] */\n      swap6\n      dup5\n      mstore\n      swap5\n      dup2\n      mstore\n      dup5\n      dup4\n      keccak256\n        /* \"Lock.sol\":34351:34386  LockedTokens[owner_][index][vIndex] */\n      swap4\n      dup4\n      mstore\n      swap3\n      dup4\n      mstore\n      swap1\n      dup4\n      swap1\n      keccak256\n        /* \"Lock.sol\":34344:34386  return LockedTokens[owner_][index][vIndex] */\n      dup4\n      mload\n      0xe0\n      dup2\n      add\n      dup6\n      mstore\n      dup2\n      sload\n      dup7\n      and\n      dup2\n      mstore\n      swap2\n      dup2\n      add\n      sload\n      dup6\n      and\n      swap3\n      dup3\n      add\n      swap3\n      swap1\n      swap3\n      mstore\n      0x02\n      dup3\n      add\n      sload\n      swap1\n      swap4\n      and\n      swap2\n      dup4\n      add\n      swap2\n      swap1\n      swap2\n      mstore\n      0x03\n      dup2\n      add\n      sload\n      0x60\n      dup4\n      add\n      mstore\n      0x04\n      dup2\n      add\n      sload\n      0x80\n      dup4\n      add\n      mstore\n      0x05\n      add\n      sload\n      0xff\n      dup1\n      dup3\n      and\n      iszero\n      iszero\n      0xa0\n      dup5\n      add\n      mstore\n      0x0100\n      swap1\n      swap2\n      div\n      and\n      iszero\n      iszero\n      0xc0\n      dup3\n      add\n      mstore\n      swap1\n        /* \"Lock.sol\":34230:34394  function getTransaction(address owner_, uint index, uint256 vIndex) external view returns(Locks memory){... */\n      jump\n    tag_23:\n      0x40\n      dup1\n      mload\n        /* \"#utility.yul\":770:783   */\n      dup3\n      mload\n      sub(shl(0xa0, 0x01), 0x01)\n        /* \"#utility.yul\":766:788   */\n      swap1\n      dup2\n      and\n        /* \"#utility.yul\":748:789   */\n      dup3\n      mstore\n        /* \"#utility.yul\":849:853   */\n      0x20\n        /* \"#utility.yul\":837:854   */\n      dup1\n      dup6\n      add\n        /* \"#utility.yul\":831:855   */\n      mload\n        /* \"#utility.yul\":827:860   */\n      dup3\n      and\n        /* \"#utility.yul\":805:825   */\n      swap1\n      dup4\n      add\n        /* \"#utility.yul\":798:861   */\n      mstore\n        /* \"#utility.yul\":909:926   */\n      dup4\n      dup4\n      add\n        /* \"#utility.yul\":903:927   */\n      mload\n        /* \"#utility.yul\":899:932   */\n      and\n        /* \"#utility.yul\":877:897   */\n      swap2\n      dup2\n      add\n        /* \"#utility.yul\":870:933   */\n      swap2\n      swap1\n      swap2\n      mstore\n        /* \"#utility.yul\":989:993   */\n      0x60\n        /* \"#utility.yul\":977:994   */\n      dup1\n      dup4\n      add\n        /* \"#utility.yul\":971:995   */\n      mload\n        /* \"#utility.yul\":949:969   */\n      swap1\n      dup3\n      add\n        /* \"#utility.yul\":942:996   */\n      mstore\n        /* \"#utility.yul\":1052:1056   */\n      0x80\n        /* \"#utility.yul\":1040:1057   */\n      dup1\n      dup4\n      add\n        /* \"#utility.yul\":1034:1058   */\n      mload\n        /* \"#utility.yul\":1012:1032   */\n      swap1\n      dup3\n      add\n        /* \"#utility.yul\":1005:1059   */\n      mstore\n        /* \"#utility.yul\":728:731   */\n      0xa0\n        /* \"#utility.yul\":1117:1134   */\n      dup1\n      dup4\n      add\n        /* \"#utility.yul\":1111:1135   */\n      mload\n        /* \"#utility.yul\":1104:1136   */\n      iszero\n        /* \"#utility.yul\":1097:1137   */\n      iszero\n        /* \"#utility.yul\":1075:1095   */\n      swap1\n      dup3\n      add\n        /* \"#utility.yul\":1068:1138   */\n      mstore\n        /* \"#utility.yul\":1208:1212   */\n      0xc0\n        /* \"#utility.yul\":1196:1213   */\n      swap2\n      dup3\n      add\n        /* \"#utility.yul\":1190:1214   */\n      mload\n        /* \"#utility.yul\":1183:1215   */\n      iszero\n        /* \"#utility.yul\":1176:1216   */\n      iszero\n        /* \"#utility.yul\":1154:1174   */\n      swap2\n      dup2\n      add\n        /* \"#utility.yul\":1147:1217   */\n      swap2\n      swap1\n      swap2\n      mstore\n        /* \"#utility.yul\":697:700   */\n      0xe0\n        /* \"#utility.yul\":682:701   */\n      add\n        /* \"Lock.sol\":34230:34394  function getTransaction(address owner_, uint index, uint256 vIndex) external view returns(Locks memory){... */\n    tag_27:\n      mload(0x40)\n      dup1\n      swap2\n      sub\n      swap1\n      return\n        /* \"Lock.sol\":36363:36520  function getClaimed(address owner_, uint index, uint vIndex) external view returns(bool){... */\n    tag_4:\n      tag_29\n      tag_30\n      calldatasize\n      0x04\n      tag_25\n      jump\t// in\n    tag_30:\n      sub(shl(0xa0, 0x01), 0x01)\n        /* \"Lock.sol\":36469:36489  LockedTokens[owner_] */\n      swap3\n      swap1\n      swap3\n      and\n        /* \"Lock.sol\":36446:36450  bool */\n      0x00\n        /* \"Lock.sol\":36469:36489  LockedTokens[owner_] */\n      swap1\n      dup2\n      mstore\n        /* \"Lock.sol\":36469:36481  LockedTokens */\n      0x01\n        /* \"Lock.sol\":36469:36489  LockedTokens[owner_] */\n      0x20\n      swap1\n      dup2\n      mstore\n      0x40\n      dup1\n      dup4\n      keccak256\n        /* \"Lock.sol\":36469:36496  LockedTokens[owner_][index] */\n      swap4\n      dup4\n      mstore\n      swap3\n      dup2\n      mstore\n      dup3\n      dup3\n      keccak256\n        /* \"Lock.sol\":36469:36504  LockedTokens[owner_][index][vIndex] */\n      swap4\n      dup3\n      mstore\n      swap3\n      swap1\n      swap3\n      mstore\n      swap1\n      keccak256\n        /* \"Lock.sol\":36469:36512  LockedTokens[owner_][index][vIndex].Claimed */\n      0x05\n      add\n      sload\n      0x0100\n      swap1\n      div\n      0xff\n      and\n      swap1\n        /* \"Lock.sol\":36363:36520  function getClaimed(address owner_, uint index, uint vIndex) external view returns(bool){... */\n      jump\n    tag_29:\n      mload(0x40)\n        /* \"#utility.yul\":1393:1407   */\n      swap1\n      iszero\n        /* \"#utility.yul\":1386:1408   */\n      iszero\n        /* \"#utility.yul\":1368:1409   */\n      dup2\n      mstore\n        /* \"#utility.yul\":1356:1358   */\n      0x20\n        /* \"#utility.yul\":1341:1359   */\n      add\n        /* \"Lock.sol\":36363:36520  function getClaimed(address owner_, uint index, uint vIndex) external view returns(bool){... */\n      tag_27\n        /* \"#utility.yul\":1228:1415   */\n      jump\n        /* \"Lock.sol\":26066:26131  mapping(address => mapping (uint => uint)) public cycleCountPerID */\n    tag_5:\n      tag_34\n      tag_35\n      calldatasize\n      0x04\n      tag_36\n      jump\t// in\n    tag_35:\n      0x02\n      0x20\n      swap1\n      dup2\n      mstore\n      0x00\n      swap3\n      dup4\n      mstore\n      0x40\n      dup1\n      dup5\n      keccak256\n      swap1\n      swap2\n      mstore\n      swap1\n      dup3\n      mstore\n      swap1\n      keccak256\n      sload\n      dup2\n      jump\n    tag_34:\n      mload(0x40)\n        /* \"#utility.yul\":1825:1850   */\n      swap1\n      dup2\n      mstore\n        /* \"#utility.yul\":1813:1815   */\n      0x20\n        /* \"#utility.yul\":1798:1816   */\n      add\n        /* \"Lock.sol\":26066:26131  mapping(address => mapping (uint => uint)) public cycleCountPerID */\n      tag_27\n        /* \"#utility.yul\":1679:1856   */\n      jump\n        /* \"Lock.sol\":37330:37461  function getLockCount(address owner, uint index) external view returns(uint){... */\n    tag_6:\n      tag_34\n      tag_41\n      calldatasize\n      0x04\n      tag_36\n      jump\t// in\n    tag_41:\n      tag_42\n      jump\t// in\n        /* \"Lock.sol\":29454:30126  function launchLock(address owner,  address token_, address beneficiary_, uint256 releaseTime_, uint256 amount_, bool _liquidity) external {... */\n    tag_7:\n      tag_44\n      tag_45\n      calldatasize\n      0x04\n      tag_46\n      jump\t// in\n    tag_45:\n      tag_47\n      jump\t// in\n    tag_44:\n      stop\n        /* \"Lock.sol\":35087:35254  function beneficiary(address owner_, uint index, uint vIndex) external view returns (address) {... */\n    tag_8:\n      tag_48\n      tag_49\n      calldatasize\n      0x04\n      tag_25\n      jump\t// in\n    tag_49:\n      sub(shl(0xa0, 0x01), 0x01)\n        /* \"Lock.sol\":35199:35219  LockedTokens[owner_] */\n      swap3\n      dup4\n      and\n        /* \"Lock.sol\":35172:35179  address */\n      0x00\n        /* \"Lock.sol\":35199:35219  LockedTokens[owner_] */\n      swap1\n      dup2\n      mstore\n        /* \"Lock.sol\":35199:35211  LockedTokens */\n      0x01\n        /* \"Lock.sol\":35199:35219  LockedTokens[owner_] */\n      0x20\n      swap1\n      dup2\n      mstore\n      0x40\n      dup1\n      dup4\n      keccak256\n        /* \"Lock.sol\":35199:35226  LockedTokens[owner_][index] */\n      swap5\n      dup4\n      mstore\n      swap4\n      dup2\n      mstore\n      dup4\n      dup3\n      keccak256\n        /* \"Lock.sol\":35199:35234  LockedTokens[owner_][index][vIndex] */\n      swap3\n      dup3\n      mstore\n      swap2\n      swap1\n      swap2\n      mstore\n      keccak256\n        /* \"Lock.sol\":35199:35246  LockedTokens[owner_][index][vIndex].Beneficiary */\n      0x02\n      add\n      sload\n      and\n      swap1\n        /* \"Lock.sol\":35087:35254  function beneficiary(address owner_, uint index, uint vIndex) external view returns (address) {... */\n      jump\n    tag_48:\n      mload(0x40)\n      sub(shl(0xa0, 0x01), 0x01)\n        /* \"#utility.yul\":2755:2787   */\n      swap1\n      swap2\n      and\n        /* \"#utility.yul\":2737:2788   */\n      dup2\n      mstore\n        /* \"#utility.yul\":2725:2727   */\n      0x20\n        /* \"#utility.yul\":2710:2728   */\n      add\n        /* \"Lock.sol\":35087:35254  function beneficiary(address owner_, uint index, uint vIndex) external view returns (address) {... */\n      tag_27\n        /* \"#utility.yul\":2591:2794   */\n      jump\n        /* \"Lock.sol\":35951:36098  function amount(address owner_, uint Id, uint index) external view returns(uint256){... */\n    tag_9:\n      tag_34\n      tag_54\n      calldatasize\n      0x04\n      tag_25\n      jump\t// in\n    tag_54:\n      sub(shl(0xa0, 0x01), 0x01)\n        /* \"Lock.sol\":36052:36072  LockedTokens[owner_] */\n      dup4\n      and\n        /* \"Lock.sol\":36026:36033  uint256 */\n      0x00\n        /* \"Lock.sol\":36052:36072  LockedTokens[owner_] */\n      swap1\n      dup2\n      mstore\n        /* \"Lock.sol\":36052:36064  LockedTokens */\n      0x01\n        /* \"Lock.sol\":36052:36072  LockedTokens[owner_] */\n      0x20\n      swap1\n      dup2\n      mstore\n      0x40\n      dup1\n      dup4\n      keccak256\n        /* \"Lock.sol\":36052:36076  LockedTokens[owner_][Id] */\n      dup6\n      dup5\n      mstore\n      dup3\n      mstore\n      dup1\n      dup4\n      keccak256\n        /* \"Lock.sol\":36052:36083  LockedTokens[owner_][Id][index] */\n      dup5\n      dup5\n      mstore\n      swap1\n      swap2\n      mstore\n      swap1\n      keccak256\n        /* \"Lock.sol\":36052:36090  LockedTokens[owner_][Id][index].amount */\n      0x03\n      add\n      sload\n        /* \"Lock.sol\":35951:36098  function amount(address owner_, uint Id, uint index) external view returns(uint256){... */\n      swap4\n      swap3\n      pop\n      pop\n      pop\n      jump\n        /* \"Lock.sol\":45969:47162  function _vestingClaim(uint index) public{ ... */\n    tag_10:\n      tag_44\n      tag_58\n      calldatasize\n      0x04\n      tag_59\n      jump\t// in\n    tag_58:\n      tag_60\n      jump\t// in\n        /* \"Lock.sol\":31218:33951  function Lock(inputs calldata Inputs) external{... */\n    tag_11:\n      tag_44\n      tag_62\n      calldatasize\n      0x04\n      tag_63\n      jump\t// in\n    tag_62:\n      tag_64\n      jump\t// in\n        /* \"Lock.sol\":25881:25961  mapping(address => mapping(uint => mapping (uint => Locks))) public LockedTokens */\n    tag_12:\n      tag_65\n      tag_66\n      calldatasize\n      0x04\n      tag_25\n      jump\t// in\n    tag_66:\n      0x01\n      0x20\n      dup2\n      dup2\n      mstore\n      0x00\n      swap5\n      dup6\n      mstore\n      0x40\n      dup1\n      dup7\n      keccak256\n      dup3\n      mstore\n      swap4\n      dup6\n      mstore\n      dup4\n      dup6\n      keccak256\n      swap1\n      mstore\n      swap1\n      dup4\n      mstore\n      swap2\n      keccak256\n      dup1\n      sload\n      swap2\n      dup2\n      add\n      sload\n      0x02\n      dup3\n      add\n      sload\n      0x03\n      dup4\n      add\n      sload\n      0x04\n      dup5\n      add\n      sload\n      0x05\n      swap1\n      swap5\n      add\n      sload\n      sub(shl(0xa0, 0x01), 0x01)\n      swap6\n      dup7\n      and\n      swap6\n      swap4\n      dup5\n      and\n      swap5\n      swap4\n      swap1\n      swap3\n      and\n      swap3\n      swap1\n      swap2\n      0xff\n      dup1\n      dup3\n      and\n      swap2\n      0x0100\n      swap1\n      div\n      and\n      dup8\n      jump\n    tag_65:\n      0x40\n      dup1\n      mload\n      sub(shl(0xa0, 0x01), 0x01)\n        /* \"#utility.yul\":3540:3555   */\n      swap9\n      dup10\n      and\n        /* \"#utility.yul\":3522:3556   */\n      dup2\n      mstore\n        /* \"#utility.yul\":3592:3607   */\n      swap7\n      dup9\n      and\n        /* \"#utility.yul\":3587:3589   */\n      0x20\n        /* \"#utility.yul\":3572:3590   */\n      dup9\n      add\n        /* \"#utility.yul\":3565:3608   */\n      mstore\n        /* \"#utility.yul\":3644:3659   */\n      swap5\n      swap1\n      swap7\n      and\n        /* \"#utility.yul\":3624:3642   */\n      swap4\n      dup6\n      add\n        /* \"#utility.yul\":3617:3660   */\n      swap4\n      swap1\n      swap4\n      mstore\n        /* \"#utility.yul\":3691:3693   */\n      0x60\n        /* \"#utility.yul\":3676:3694   */\n      dup5\n      add\n        /* \"#utility.yul\":3669:3703   */\n      swap2\n      swap1\n      swap2\n      mstore\n        /* \"#utility.yul\":3734:3737   */\n      0x80\n        /* \"#utility.yul\":3719:3738   */\n      dup4\n      add\n        /* \"#utility.yul\":3712:3747   */\n      mstore\n        /* \"#utility.yul\":3791:3805   */\n      iszero\n        /* \"#utility.yul\":3784:3806   */\n      iszero\n        /* \"#utility.yul\":3502:3505   */\n      0xa0\n        /* \"#utility.yul\":3763:3782   */\n      dup3\n      add\n        /* \"#utility.yul\":3756:3807   */\n      mstore\n        /* \"#utility.yul\":3851:3865   */\n      swap1\n      iszero\n        /* \"#utility.yul\":3844:3866   */\n      iszero\n        /* \"#utility.yul\":3838:3841   */\n      0xc0\n        /* \"#utility.yul\":3823:3842   */\n      dup3\n      add\n        /* \"#utility.yul\":3816:3867   */\n      mstore\n        /* \"#utility.yul\":3471:3474   */\n      0xe0\n        /* \"#utility.yul\":3456:3475   */\n      add\n        /* \"Lock.sol\":25881:25961  mapping(address => mapping(uint => mapping (uint => Locks))) public LockedTokens */\n      tag_27\n        /* \"#utility.yul\":3181:3873   */\n      jump\n        /* \"Lock.sol\":26231:26297  mapping(uint => mapping (address => uint)) public totalTokenAmount */\n    tag_13:\n      tag_34\n      tag_71\n      calldatasize\n      0x04\n      tag_72\n      jump\t// in\n    tag_71:\n      0x03\n      0x20\n      swap1\n      dup2\n      mstore\n      0x00\n      swap3\n      dup4\n      mstore\n      0x40\n      dup1\n      dup5\n      keccak256\n      swap1\n      swap2\n      mstore\n      swap1\n      dup3\n      mstore\n      swap1\n      keccak256\n      sload\n      dup2\n      jump\n        /* \"Lock.sol\":25778:25795  uint256 public id */\n    tag_14:\n      tag_34\n      sload(0x00)\n      dup2\n      jump\n        /* \"Lock.sol\":44460:44663  function Release(uint index) external  {... */\n    tag_15:\n      tag_44\n      tag_79\n      calldatasize\n      0x04\n      tag_59\n      jump\t// in\n    tag_79:\n      tag_80\n      jump\t// in\n        /* \"Lock.sol\":36797:36957  function isLiquidity(address owner_, uint index, uint vIndex) external view returns(bool){... */\n    tag_16:\n      tag_29\n      tag_82\n      calldatasize\n      0x04\n      tag_25\n      jump\t// in\n    tag_82:\n      sub(shl(0xa0, 0x01), 0x01)\n        /* \"Lock.sol\":36904:36924  LockedTokens[owner_] */\n      dup4\n      and\n        /* \"Lock.sol\":36881:36885  bool */\n      0x00\n        /* \"Lock.sol\":36904:36924  LockedTokens[owner_] */\n      swap1\n      dup2\n      mstore\n        /* \"Lock.sol\":36904:36916  LockedTokens */\n      0x01\n        /* \"Lock.sol\":36904:36924  LockedTokens[owner_] */\n      0x20\n      swap1\n      dup2\n      mstore\n      0x40\n      dup1\n      dup4\n      keccak256\n        /* \"Lock.sol\":36904:36931  LockedTokens[owner_][index] */\n      dup6\n      dup5\n      mstore\n      dup3\n      mstore\n      dup1\n      dup4\n      keccak256\n        /* \"Lock.sol\":36904:36939  LockedTokens[owner_][index][vIndex] */\n      dup5\n      dup5\n      mstore\n      swap1\n      swap2\n      mstore\n      swap1\n      keccak256\n        /* \"Lock.sol\":36904:36949  LockedTokens[owner_][index][vIndex].liquidity */\n      0x05\n      add\n      sload\n      0xff\n      and\n        /* \"Lock.sol\":36797:36957  function isLiquidity(address owner_, uint index, uint vIndex) external view returns(bool){... */\n      swap4\n      swap3\n      pop\n      pop\n      pop\n      jump\n        /* \"Lock.sol\":39334:44222  function changeReleaseTimeAndSpread(uint index, uint newTime, uint newCycleGap, uint[] memory newPercentages, uint additionalAmount) external{... */\n    tag_17:\n      tag_44\n      tag_86\n      calldatasize\n      0x04\n      tag_87\n      jump\t// in\n    tag_86:\n      tag_88\n      jump\t// in\n        /* \"Lock.sol\":35515:35682  function releaseTime(address owner_, uint index, uint vIndex) external view returns (uint256) {... */\n    tag_18:\n      tag_34\n      tag_90\n      calldatasize\n      0x04\n      tag_25\n      jump\t// in\n    tag_90:\n      sub(shl(0xa0, 0x01), 0x01)\n        /* \"Lock.sol\":35627:35647  LockedTokens[owner_] */\n      dup4\n      and\n        /* \"Lock.sol\":35600:35607  uint256 */\n      0x00\n        /* \"Lock.sol\":35627:35647  LockedTokens[owner_] */\n      swap1\n      dup2\n      mstore\n        /* \"Lock.sol\":35627:35639  LockedTokens */\n      0x01\n        /* \"Lock.sol\":35627:35647  LockedTokens[owner_] */\n      0x20\n      swap1\n      dup2\n      mstore\n      0x40\n      dup1\n      dup4\n      keccak256\n        /* \"Lock.sol\":35627:35654  LockedTokens[owner_][index] */\n      dup6\n      dup5\n      mstore\n      dup3\n      mstore\n      dup1\n      dup4\n      keccak256\n        /* \"Lock.sol\":35627:35662  LockedTokens[owner_][index][vIndex] */\n      dup5\n      dup5\n      mstore\n      swap1\n      swap2\n      mstore\n      swap1\n      keccak256\n        /* \"Lock.sol\":35627:35674  LockedTokens[owner_][index][vIndex].releaseTime */\n      0x04\n      add\n      sload\n        /* \"Lock.sol\":35515:35682  function releaseTime(address owner_, uint index, uint vIndex) external view returns (uint256) {... */\n      swap4\n      swap3\n      pop\n      pop\n      pop\n      jump\n        /* \"Lock.sol\":34657:34812  function token(address owner_, uint index, uint vIndex) external view returns (address) {... */\n    tag_19:\n      tag_48\n      tag_94\n      calldatasize\n      0x04\n      tag_25\n      jump\t// in\n    tag_94:\n      sub(shl(0xa0, 0x01), 0x01)\n        /* \"Lock.sol\":34763:34783  LockedTokens[owner_] */\n      swap3\n      dup4\n      and\n        /* \"Lock.sol\":34736:34743  address */\n      0x00\n        /* \"Lock.sol\":34763:34783  LockedTokens[owner_] */\n      swap1\n      dup2\n      mstore\n        /* \"Lock.sol\":34763:34775  LockedTokens */\n      0x01\n        /* \"Lock.sol\":34763:34783  LockedTokens[owner_] */\n      0x20\n      dup2\n      dup2\n      mstore\n      0x40\n      dup1\n      dup5\n      keccak256\n        /* \"Lock.sol\":34763:34790  LockedTokens[owner_][index] */\n      swap6\n      dup5\n      mstore\n      swap5\n      dup2\n      mstore\n      dup5\n      dup4\n      keccak256\n        /* \"Lock.sol\":34763:34798  LockedTokens[owner_][index][vIndex] */\n      swap4\n      dup4\n      mstore\n      swap3\n      swap1\n      swap3\n      mstore\n      swap2\n      swap1\n      swap2\n      keccak256\n        /* \"Lock.sol\":34763:34804  LockedTokens[owner_][index][vIndex].Token */\n      add\n      sload\n      and\n      swap1\n        /* \"Lock.sol\":34657:34812  function token(address owner_, uint index, uint vIndex) external view returns (address) {... */\n      jump\n        /* \"Lock.sol\":37330:37461  function getLockCount(address owner, uint index) external view returns(uint){... */\n    tag_42:\n      sub(shl(0xa0, 0x01), 0x01)\n        /* \"Lock.sol\":37424:37446  cycleCountPerID[owner] */\n      dup3\n      and\n        /* \"Lock.sol\":37401:37405  uint */\n      0x00\n        /* \"Lock.sol\":37424:37446  cycleCountPerID[owner] */\n      swap1\n      dup2\n      mstore\n        /* \"Lock.sol\":37424:37439  cycleCountPerID */\n      0x02\n        /* \"Lock.sol\":37424:37446  cycleCountPerID[owner] */\n      0x20\n      swap1\n      dup2\n      mstore\n      0x40\n      dup1\n      dup4\n      keccak256\n        /* \"Lock.sol\":37424:37453  cycleCountPerID[owner][index] */\n      dup5\n      dup5\n      mstore\n      swap1\n      swap2\n      mstore\n      swap1\n      keccak256\n      sload\n        /* \"Lock.sol\":37330:37461  function getLockCount(address owner, uint index) external view returns(uint){... */\n    tag_101:\n      swap3\n      swap2\n      pop\n      pop\n      jump\t// out\n        /* \"Lock.sol\":29454:30126  function launchLock(address owner,  address token_, address beneficiary_, uint256 releaseTime_, uint256 amount_, bool _liquidity) external {... */\n    tag_47:\n        /* \"Lock.sol\":29610:29612  id */\n      0x00\n        /* \"Lock.sol\":29610:29614  id++ */\n      dup1\n      sload\n      swap1\n        /* \"Lock.sol\":29610:29612  id */\n      dup1\n        /* \"Lock.sol\":29610:29614  id++ */\n      tag_103\n      dup4\n      tag_104\n      jump\t// in\n    tag_103:\n      swap1\n      swap2\n      sstore\n      pop\n        /* \"Lock.sol\":29635:29713  IERC20Upgradeable(token_).safeTransferFrom(msg.sender, address(this), amount_) */\n      tag_105\n      swap1\n      pop\n      sub(shl(0xa0, 0x01), 0x01)\n        /* \"Lock.sol\":29635:29677  IERC20Upgradeable(token_).safeTransferFrom */\n      dup7\n      and\n        /* \"Lock.sol\":29678:29688  msg.sender */\n      caller\n        /* \"Lock.sol\":29698:29702  this */\n      address\n        /* \"Lock.sol\":29705:29712  amount_ */\n      dup6\n        /* \"Lock.sol\":29635:29677  IERC20Upgradeable(token_).safeTransferFrom */\n      tag_106\n        /* \"Lock.sol\":29635:29713  IERC20Upgradeable(token_).safeTransferFrom(msg.sender, address(this), amount_) */\n      jump\t// in\n    tag_105:\n        /* \"Lock.sol\":29755:30012  Locks ({... */\n      0x40\n      dup1\n      mload\n      0xe0\n      dup2\n      add\n      dup3\n      mstore\n      sub(shl(0xa0, 0x01), 0x01)\n      dup1\n      dup10\n      and\n      dup1\n      dup4\n      mstore\n      dup9\n      dup3\n      and\n      0x20\n      dup1\n      dup6\n      add\n      dup3\n      dup2\n      mstore\n      dup11\n      dup6\n      and\n      dup7\n      dup9\n      add\n      swap1\n      dup2\n      mstore\n      0x60\n      dup8\n      add\n      dup11\n      dup2\n      mstore\n      0x80\n      dup9\n      add\n      dup13\n      dup2\n      mstore\n      dup11\n      iszero\n      iszero\n      0xa0\n      dup11\n      add\n      swap1\n      dup2\n      mstore\n      0x00\n      0xc0\n      dup12\n      add\n      dup2\n      dup2\n      mstore\n        /* \"Lock.sol\":29726:29745  LockedTokens[owner] */\n      dup10\n      dup3\n      mstore\n        /* \"Lock.sol\":29755:30012  Locks ({... */\n      0x01\n        /* \"Lock.sol\":29726:29745  LockedTokens[owner] */\n      dup1\n      dup10\n      mstore\n      dup14\n      dup4\n      keccak256\n        /* \"Lock.sol\":29746:29748  id */\n      dup4\n      sload\n        /* \"Lock.sol\":29726:29749  LockedTokens[owner][id] */\n      dup5\n      mstore\n      dup10\n      mstore\n      dup14\n      dup4\n      keccak256\n        /* \"Lock.sol\":29726:29752  LockedTokens[owner][id][1] */\n      dup2\n      dup5\n      mstore\n      dup10\n      mstore\n      dup14\n      dup4\n      keccak256\n        /* \"Lock.sol\":29726:30012  LockedTokens[owner][id][1] = Locks ({... */\n      swap13\n      mload\n      dup14\n      sload\n      swap1\n      dup14\n      and\n      not(sub(shl(0xa0, 0x01), 0x01))\n      swap2\n      dup3\n      and\n      or\n      dup15\n      sstore\n      swap8\n      mload\n      dup14\n      dup3\n      add\n      dup1\n      sload\n      swap2\n      dup15\n      and\n      swap2\n      dup11\n      and\n      swap2\n      swap1\n      swap2\n      or\n      swap1\n      sstore\n      swap6\n      mload\n      0x02\n      dup1\n      dup15\n      add\n      dup1\n      sload\n      swap3\n      swap1\n      swap14\n      and\n      swap2\n      swap1\n      swap9\n      and\n      or\n      swap1\n      swap11\n      sstore\n      swap3\n      mload\n      0x03\n      dup12\n      add\n      sstore\n      swap1\n      mload\n      0x04\n      dup11\n      add\n      sstore\n      mload\n      0x05\n      swap1\n      swap9\n      add\n      dup1\n      sload\n      swap8\n      mload\n      iszero\n      iszero\n      0x0100\n      mul\n      not(0xff00)\n      swap10\n      iszero\n      iszero\n      swap10\n      swap1\n      swap10\n      and\n      not(0xffff)\n      swap1\n      swap9\n      and\n      swap8\n      swap1\n      swap8\n      or\n      swap8\n      swap1\n      swap8\n      or\n      swap1\n      swap6\n      sstore\n        /* \"Lock.sol\":30035:30057  cycleCountPerID[owner] */\n      dup4\n      dup7\n      mstore\n      dup2\n      mstore\n      dup6\n      dup6\n      keccak256\n        /* \"Lock.sol\":30058:30060  id */\n      dup6\n      sload\n        /* \"Lock.sol\":30035:30061  cycleCountPerID[owner][id] */\n      dup7\n      mstore\n      swap1\n      mstore\n      dup5\n      dup5\n      keccak256\n        /* \"Lock.sol\":30035:30065  cycleCountPerID[owner][id] = 1 */\n      swap3\n      swap1\n      swap3\n      sstore\n        /* \"Lock.sol\":30107:30109  id */\n      swap2\n      sload\n        /* \"Lock.sol\":30085:30110  Locked(owner, token_, id) */\n      swap3\n      mload\n        /* \"Lock.sol\":29755:30012  Locks ({... */\n      swap1\n      swap3\n        /* \"Lock.sol\":30085:30110  Locked(owner, token_, id) */\n      0x989eaa915cbb416ea3d6f9a63b1a3de51770c7674b11fe21ecdf76b4e1d13910\n      swap2\n      tag_107\n      swap2\n        /* \"#utility.yul\":1825:1850   */\n      dup2\n      mstore\n        /* \"#utility.yul\":1813:1815   */\n      0x20\n        /* \"#utility.yul\":1798:1816   */\n      add\n      swap1\n        /* \"#utility.yul\":1679:1856   */\n      jump\n        /* \"Lock.sol\":30085:30110  Locked(owner, token_, id) */\n    tag_107:\n      mload(0x40)\n      dup1\n      swap2\n      sub\n      swap1\n      log3\n        /* \"Lock.sol\":29454:30126  function launchLock(address owner,  address token_, address beneficiary_, uint256 releaseTime_, uint256 amount_, bool _liquidity) external {... */\n      pop\n      pop\n      pop\n      pop\n      pop\n      pop\n      jump\t// out\n        /* \"Lock.sol\":45969:47162  function _vestingClaim(uint index) public{ ... */\n    tag_60:\n        /* \"Lock.sol\":46051:46061  msg.sender */\n      caller\n        /* \"Lock.sol\":46022:46032  uint count */\n      0x00\n        /* \"Lock.sol\":46035:46062  cycleCountPerID[msg.sender] */\n      dup2\n      dup2\n      mstore\n        /* \"Lock.sol\":46035:46050  cycleCountPerID */\n      0x02\n        /* \"Lock.sol\":46035:46062  cycleCountPerID[msg.sender] */\n      0x20\n      swap1\n      dup2\n      mstore\n      0x40\n      dup1\n      dup4\n      keccak256\n        /* \"Lock.sol\":46035:46069  cycleCountPerID[msg.sender][index] */\n      dup6\n      dup5\n      mstore\n      dup3\n      mstore\n      dup1\n      dup4\n      keccak256\n      sload\n        /* \"Lock.sol\":46088:46120  claimCycleCountPerID[msg.sender] */\n      swap4\n      dup4\n      mstore\n        /* \"Lock.sol\":46088:46108  claimCycleCountPerID */\n      0x04\n        /* \"Lock.sol\":46088:46120  claimCycleCountPerID[msg.sender] */\n      dup3\n      mstore\n      dup1\n      dup4\n      keccak256\n        /* \"Lock.sol\":46088:46127  claimCycleCountPerID[msg.sender][index] */\n      dup6\n      dup5\n      mstore\n      swap1\n      swap2\n      mstore\n      swap1\n      keccak256\n      sload\n        /* \"Lock.sol\":46088:46135  claimCycleCountPerID[msg.sender][index] < count */\n      dup2\n      gt\n        /* \"Lock.sol\":46080:46154  require(claimCycleCountPerID[msg.sender][index] < count, \"Claim Complete\") */\n      tag_111\n      jumpi\n      mload(0x40)\n      shl(0xe5, 0x461bcd)\n      dup2\n      mstore\n        /* \"#utility.yul\":6137:6139   */\n      0x20\n        /* \"Lock.sol\":46080:46154  require(claimCycleCountPerID[msg.sender][index] < count, \"Claim Complete\") */\n      0x04\n      dup3\n      add\n        /* \"#utility.yul\":6119:6140   */\n      mstore\n        /* \"#utility.yul\":6176:6178   */\n      0x0e\n        /* \"#utility.yul\":6156:6174   */\n      0x24\n      dup3\n      add\n        /* \"#utility.yul\":6149:6179   */\n      mstore\n      shl(0x90, 0x436c61696d20436f6d706c657465)\n        /* \"#utility.yul\":6195:6213   */\n      0x44\n      dup3\n      add\n        /* \"#utility.yul\":6188:6232   */\n      mstore\n        /* \"#utility.yul\":6249:6267   */\n      0x64\n      add\n        /* \"Lock.sol\":46080:46154  require(claimCycleCountPerID[msg.sender][index] < count, \"Claim Complete\") */\n    tag_112:\n      mload(0x40)\n      dup1\n      swap2\n      sub\n      swap1\n      revert\n    tag_111:\n        /* \"Lock.sol\":46206:46216  msg.sender */\n      caller\n        /* \"Lock.sol\":46167:46182  uint claimCount */\n      0x00\n        /* \"Lock.sol\":46185:46217  claimCycleCountPerID[msg.sender] */\n      swap1\n      dup2\n      mstore\n        /* \"Lock.sol\":46185:46205  claimCycleCountPerID */\n      0x04\n        /* \"Lock.sol\":46185:46217  claimCycleCountPerID[msg.sender] */\n      0x20\n      swap1\n      dup2\n      mstore\n      0x40\n      dup1\n      dup4\n      keccak256\n        /* \"Lock.sol\":46185:46224  claimCycleCountPerID[msg.sender][index] */\n      dup6\n      dup5\n      mstore\n      swap1\n      swap2\n      mstore\n      dup2\n      keccak256\n      sload\n        /* \"Lock.sol\":46185:46228  claimCycleCountPerID[msg.sender][index] + 1 */\n      tag_114\n      swap1\n        /* \"Lock.sol\":46227:46228  1 */\n      0x01\n        /* \"Lock.sol\":46185:46228  claimCycleCountPerID[msg.sender][index] + 1 */\n      tag_115\n      jump\t// in\n    tag_114:\n        /* \"Lock.sol\":46281:46291  msg.sender */\n      caller\n        /* \"Lock.sol\":46268:46292  LockedTokens[msg.sender] */\n      0x00\n      swap1\n      dup2\n      mstore\n        /* \"Lock.sol\":46268:46280  LockedTokens */\n      0x01\n        /* \"Lock.sol\":46268:46292  LockedTokens[msg.sender] */\n      0x20\n      swap1\n      dup2\n      mstore\n      0x40\n      dup1\n      dup4\n      keccak256\n        /* \"Lock.sol\":46268:46299  LockedTokens[msg.sender][index] */\n      dup8\n      dup5\n      mstore\n      dup3\n      mstore\n      dup1\n      dup4\n      keccak256\n        /* \"Lock.sol\":46268:46311  LockedTokens[msg.sender][index][claimCount] */\n      dup5\n      dup5\n      mstore\n      swap1\n      swap2\n      mstore\n      swap1\n      keccak256\n        /* \"Lock.sol\":46268:46323  LockedTokens[msg.sender][index][claimCount].releaseTime */\n      0x04\n      add\n      sload\n        /* \"Lock.sol\":46167:46228  uint claimCount = claimCycleCountPerID[msg.sender][index] + 1 */\n      swap1\n      swap2\n      pop\n        /* \"Lock.sol\":46249:46264  block.timestamp */\n      timestamp\n        /* \"Lock.sol\":46249:46323  block.timestamp >= LockedTokens[msg.sender][index][claimCount].releaseTime */\n      lt\n      iszero\n        /* \"Lock.sol\":46241:46344  require(block.timestamp >= LockedTokens[msg.sender][index][claimCount].releaseTime, \"Time Not reached\") */\n      tag_116\n      jumpi\n      mload(0x40)\n      shl(0xe5, 0x461bcd)\n      dup2\n      mstore\n        /* \"#utility.yul\":6610:6612   */\n      0x20\n        /* \"Lock.sol\":46241:46344  require(block.timestamp >= LockedTokens[msg.sender][index][claimCount].releaseTime, \"Time Not reached\") */\n      0x04\n      dup3\n      add\n        /* \"#utility.yul\":6592:6613   */\n      mstore\n        /* \"#utility.yul\":6649:6651   */\n      0x10\n        /* \"#utility.yul\":6629:6647   */\n      0x24\n      dup3\n      add\n        /* \"#utility.yul\":6622:6652   */\n      mstore\n      shl(0x82, 0x151a5b5948139bdd081c995858da1959)\n        /* \"#utility.yul\":6668:6686   */\n      0x44\n      dup3\n      add\n        /* \"#utility.yul\":6661:6707   */\n      mstore\n        /* \"#utility.yul\":6724:6742   */\n      0x64\n      add\n        /* \"Lock.sol\":46241:46344  require(block.timestamp >= LockedTokens[msg.sender][index][claimCount].releaseTime, \"Time Not reached\") */\n      tag_112\n        /* \"#utility.yul\":6408:6748   */\n      jump\n        /* \"Lock.sol\":46241:46344  require(block.timestamp >= LockedTokens[msg.sender][index][claimCount].releaseTime, \"Time Not reached\") */\n    tag_116:\n        /* \"Lock.sol\":46379:46389  msg.sender */\n      caller\n        /* \"Lock.sol\":46366:46390  LockedTokens[msg.sender] */\n      0x00\n      swap1\n      dup2\n      mstore\n        /* \"Lock.sol\":46366:46378  LockedTokens */\n      0x01\n        /* \"Lock.sol\":46366:46390  LockedTokens[msg.sender] */\n      0x20\n      swap1\n      dup2\n      mstore\n      0x40\n      dup1\n      dup4\n      keccak256\n        /* \"Lock.sol\":46366:46397  LockedTokens[msg.sender][index] */\n      dup7\n      dup5\n      mstore\n      dup3\n      mstore\n      dup1\n      dup4\n      keccak256\n        /* \"Lock.sol\":46366:46409  LockedTokens[msg.sender][index][claimCount] */\n      dup5\n      dup5\n      mstore\n      swap1\n      swap2\n      mstore\n      swap1\n      keccak256\n        /* \"Lock.sol\":46366:46417  LockedTokens[msg.sender][index][claimCount].Claimed */\n      0x05\n      add\n      sload\n      0x0100\n      swap1\n      div\n      0xff\n      and\n        /* \"Lock.sol\":46365:46417  !LockedTokens[msg.sender][index][claimCount].Claimed */\n      iszero\n        /* \"Lock.sol\":46357:46429  require(!LockedTokens[msg.sender][index][claimCount].Claimed, \"Claimed\") */\n      tag_119\n      jumpi\n      mload(0x40)\n      shl(0xe5, 0x461bcd)\n      dup2\n      mstore\n        /* \"#utility.yul\":6955:6957   */\n      0x20\n        /* \"Lock.sol\":46357:46429  require(!LockedTokens[msg.sender][index][claimCount].Claimed, \"Claimed\") */\n      0x04\n      dup3\n      add\n        /* \"#utility.yul\":6937:6958   */\n      mstore\n        /* \"#utility.yul\":6994:6995   */\n      0x07\n        /* \"#utility.yul\":6974:6992   */\n      0x24\n      dup3\n      add\n        /* \"#utility.yul\":6967:6996   */\n      mstore\n      shl(0xca, 0x10db185a5b5959)\n        /* \"#utility.yul\":7012:7030   */\n      0x44\n      dup3\n      add\n        /* \"#utility.yul\":7005:7042   */\n      mstore\n        /* \"#utility.yul\":7059:7077   */\n      0x64\n      add\n        /* \"Lock.sol\":46357:46429  require(!LockedTokens[msg.sender][index][claimCount].Claimed, \"Claimed\") */\n      tag_112\n        /* \"#utility.yul\":6753:7083   */\n      jump\n        /* \"Lock.sol\":46357:46429  require(!LockedTokens[msg.sender][index][claimCount].Claimed, \"Claimed\") */\n    tag_119:\n        /* \"Lock.sol\":46472:46482  msg.sender */\n      caller\n        /* \"Lock.sol\":46442:46456  address _token */\n      0x00\n        /* \"Lock.sol\":46459:46483  LockedTokens[msg.sender] */\n      swap1\n      dup2\n      mstore\n        /* \"Lock.sol\":46459:46471  LockedTokens */\n      0x01\n        /* \"Lock.sol\":46459:46483  LockedTokens[msg.sender] */\n      0x20\n      dup2\n      dup2\n      mstore\n      0x40\n      dup1\n      dup5\n      keccak256\n        /* \"Lock.sol\":46459:46490  LockedTokens[msg.sender][index] */\n      dup8\n      dup6\n      mstore\n      dup3\n      mstore\n      dup1\n      dup5\n      keccak256\n        /* \"Lock.sol\":46459:46493  LockedTokens[msg.sender][index][1] */\n      dup4\n      dup6\n      mstore\n      swap1\n      swap2\n      mstore\n      dup3\n      keccak256\n        /* \"Lock.sol\":46459:46499  LockedTokens[msg.sender][index][1].Token */\n      swap1\n      dup2\n      add\n      sload\n        /* \"Lock.sol\":46533:46579  LockedTokens[msg.sender][index][1].Beneficiary */\n      0x02\n      swap1\n      swap2\n      add\n      sload\n      sub(shl(0xa0, 0x01), 0x01)\n        /* \"Lock.sol\":46459:46499  LockedTokens[msg.sender][index][1].Token */\n      swap2\n      dup3\n      and\n      swap3\n        /* \"Lock.sol\":46533:46579  LockedTokens[msg.sender][index][1].Beneficiary */\n      swap2\n      and\n      swap1\n        /* \"Lock.sol\":46639:46649  claimCount */\n      dup4\n        /* \"Lock.sol\":46626:47058  for(uint i = claimCount; i <= count; i++){... */\n    tag_122:\n        /* \"Lock.sol\":46656:46661  count */\n      dup6\n        /* \"Lock.sol\":46651:46652  i */\n      dup2\n        /* \"Lock.sol\":46651:46661  i <= count */\n      gt\n        /* \"Lock.sol\":46626:47058  for(uint i = claimCount; i <= count; i++){... */\n      tag_123\n      jumpi\n        /* \"Lock.sol\":46719:46729  msg.sender */\n      caller\n        /* \"Lock.sol\":46706:46730  LockedTokens[msg.sender] */\n      0x00\n      swap1\n      dup2\n      mstore\n        /* \"Lock.sol\":46706:46718  LockedTokens */\n      0x01\n        /* \"Lock.sol\":46706:46730  LockedTokens[msg.sender] */\n      0x20\n      swap1\n      dup2\n      mstore\n      0x40\n      dup1\n      dup4\n      keccak256\n        /* \"Lock.sol\":46706:46737  LockedTokens[msg.sender][index] */\n      dup11\n      dup5\n      mstore\n      dup3\n      mstore\n      dup1\n      dup4\n      keccak256\n        /* \"Lock.sol\":46706:46740  LockedTokens[msg.sender][index][i] */\n      dup5\n      dup5\n      mstore\n      swap1\n      swap2\n      mstore\n      swap1\n      keccak256\n        /* \"Lock.sol\":46706:46752  LockedTokens[msg.sender][index][i].releaseTime */\n      0x04\n      add\n      sload\n        /* \"Lock.sol\":46687:46702  block.timestamp */\n      timestamp\n        /* \"Lock.sol\":46687:46752  block.timestamp >= LockedTokens[msg.sender][index][i].releaseTime */\n      lt\n        /* \"Lock.sol\":46684:47047  if(block.timestamp >= LockedTokens[msg.sender][index][i].releaseTime){... */\n      tag_125\n      jumpi\n        /* \"Lock.sol\":46803:46813  msg.sender */\n      caller\n        /* \"Lock.sol\":46790:46814  LockedTokens[msg.sender] */\n      0x00\n      swap1\n      dup2\n      mstore\n        /* \"Lock.sol\":46835:46839  true */\n      0x01\n        /* \"Lock.sol\":46790:46814  LockedTokens[msg.sender] */\n      0x20\n      swap1\n      dup2\n      mstore\n      0x40\n      dup1\n      dup4\n      keccak256\n        /* \"Lock.sol\":46790:46821  LockedTokens[msg.sender][index] */\n      dup11\n      dup5\n      mstore\n      dup3\n      mstore\n      dup1\n      dup4\n      keccak256\n        /* \"Lock.sol\":46790:46824  LockedTokens[msg.sender][index][i] */\n      dup5\n      dup5\n      mstore\n      swap1\n      swap2\n      mstore\n      swap1\n      keccak256\n        /* \"Lock.sol\":46790:46832  LockedTokens[msg.sender][index][i].Claimed */\n      0x05\n      dup2\n      add\n        /* \"Lock.sol\":46790:46839  LockedTokens[msg.sender][index][i].Claimed = true */\n      dup1\n      sload\n      not(0xff00)\n      and\n      0x0100\n      or\n      swap1\n      sstore\n        /* \"Lock.sol\":46880:46921  LockedTokens[msg.sender][index][i].amount */\n      0x03\n      add\n      sload\n        /* \"Lock.sol\":46860:46921  claimmableAmount += LockedTokens[msg.sender][index][i].amount */\n      tag_126\n      swap1\n      dup4\n      tag_115\n      jump\t// in\n    tag_126:\n        /* \"Lock.sol\":46963:46973  msg.sender */\n      caller\n        /* \"Lock.sol\":46942:46974  claimCycleCountPerID[msg.sender] */\n      0x00\n      swap1\n      dup2\n      mstore\n        /* \"Lock.sol\":46942:46962  claimCycleCountPerID */\n      0x04\n        /* \"Lock.sol\":46942:46974  claimCycleCountPerID[msg.sender] */\n      0x20\n      swap1\n      dup2\n      mstore\n      0x40\n      dup1\n      dup4\n      keccak256\n        /* \"Lock.sol\":46942:46981  claimCycleCountPerID[msg.sender][index] */\n      dup12\n      dup5\n      mstore\n      swap1\n      swap2\n      mstore\n      dup2\n      keccak256\n        /* \"Lock.sol\":46942:46984  claimCycleCountPerID[msg.sender][index] ++ */\n      dup1\n      sload\n        /* \"Lock.sol\":46860:46921  claimmableAmount += LockedTokens[msg.sender][index][i].amount */\n      swap3\n      swap5\n      pop\n        /* \"Lock.sol\":46942:46981  claimCycleCountPerID[msg.sender][index] */\n      swap1\n        /* \"Lock.sol\":46942:46984  claimCycleCountPerID[msg.sender][index] ++ */\n      tag_127\n      dup4\n      tag_104\n      jump\t// in\n    tag_127:\n      swap2\n      swap1\n      pop\n      sstore\n      pop\n        /* \"Lock.sol\":46684:47047  if(block.timestamp >= LockedTokens[msg.sender][index][i].releaseTime){... */\n      jump(tag_128)\n    tag_125:\n        /* \"Lock.sol\":47026:47031  break */\n      jump(tag_123)\n        /* \"Lock.sol\":46684:47047  if(block.timestamp >= LockedTokens[msg.sender][index][i].releaseTime){... */\n    tag_128:\n        /* \"Lock.sol\":46663:46666  i++ */\n      dup1\n      tag_129\n      dup2\n      tag_104\n      jump\t// in\n    tag_129:\n      swap2\n      pop\n      pop\n        /* \"Lock.sol\":46626:47058  for(uint i = claimCount; i <= count; i++){... */\n      jump(tag_122)\n    tag_123:\n      pop\n        /* \"Lock.sol\":47082:47152  IERC20Upgradeable(_token).safeTransfer(_beneficiary, claimmableAmount) */\n      tag_130\n      sub(shl(0xa0, 0x01), 0x01)\n        /* \"Lock.sol\":47082:47120  IERC20Upgradeable(_token).safeTransfer */\n      dup5\n      and\n        /* \"Lock.sol\":47121:47133  _beneficiary */\n      dup4\n        /* \"Lock.sol\":47135:47151  claimmableAmount */\n      dup4\n        /* \"Lock.sol\":47082:47120  IERC20Upgradeable(_token).safeTransfer */\n      tag_131\n        /* \"Lock.sol\":47082:47152  IERC20Upgradeable(_token).safeTransfer(_beneficiary, claimmableAmount) */\n      jump\t// in\n    tag_130:\n        /* \"Lock.sol\":46010:47162  { ... */\n      pop\n      pop\n      pop\n      pop\n      pop\n        /* \"Lock.sol\":45969:47162  function _vestingClaim(uint index) public{ ... */\n      pop\n      jump\t// out\n        /* \"Lock.sol\":31218:33951  function Lock(inputs calldata Inputs) external{... */\n    tag_64:\n        /* \"Lock.sol\":31288:31305  Inputs.cycleCount */\n      0x0100\n      dup2\n      add\n      calldataload\n        /* \"Lock.sol\":31327:31336  count > 0 */\n      dup1\n        /* \"Lock.sol\":31319:31351  require(count > 0, \"Count is O\") */\n      tag_133\n      jumpi\n      mload(0x40)\n      shl(0xe5, 0x461bcd)\n      dup2\n      mstore\n        /* \"#utility.yul\":7290:7292   */\n      0x20\n        /* \"Lock.sol\":31319:31351  require(count > 0, \"Count is O\") */\n      0x04\n      dup3\n      add\n        /* \"#utility.yul\":7272:7293   */\n      mstore\n        /* \"#utility.yul\":7329:7331   */\n      0x0a\n        /* \"#utility.yul\":7309:7327   */\n      0x24\n      dup3\n      add\n        /* \"#utility.yul\":7302:7332   */\n      mstore\n      shl(0xb0, 0x436f756e74206973204f)\n        /* \"#utility.yul\":7348:7366   */\n      0x44\n      dup3\n      add\n        /* \"#utility.yul\":7341:7381   */\n      mstore\n        /* \"#utility.yul\":7398:7416   */\n      0x64\n      add\n        /* \"Lock.sol\":31319:31351  require(count > 0, \"Count is O\") */\n      tag_112\n        /* \"#utility.yul\":7088:7422   */\n      jump\n        /* \"Lock.sol\":31319:31351  require(count > 0, \"Count is O\") */\n    tag_133:\n        /* \"Lock.sol\":31386:31387  0 */\n      0x00\n        /* \"Lock.sol\":31370:31376  Inputs */\n      dup3\n        /* \"Lock.sol\":31370:31383  Inputs.amount */\n      0x40\n      add\n      calldataload\n        /* \"Lock.sol\":31370:31387  Inputs.amount > 0 */\n      gt\n        /* \"Lock.sol\":31362:31408  require(Inputs.amount > 0, \"Lock amount is 0\") */\n      tag_136\n      jumpi\n      mload(0x40)\n      shl(0xe5, 0x461bcd)\n      dup2\n      mstore\n        /* \"#utility.yul\":7629:7631   */\n      0x20\n        /* \"Lock.sol\":31362:31408  require(Inputs.amount > 0, \"Lock amount is 0\") */\n      0x04\n      dup3\n      add\n        /* \"#utility.yul\":7611:7632   */\n      mstore\n        /* \"#utility.yul\":7668:7670   */\n      0x10\n        /* \"#utility.yul\":7648:7666   */\n      0x24\n      dup3\n      add\n        /* \"#utility.yul\":7641:7671   */\n      mstore\n      shl(0x84, 0x04c6f636b20616d6f756e74206973203)\n        /* \"#utility.yul\":7687:7705   */\n      0x44\n      dup3\n      add\n        /* \"#utility.yul\":7680:7726   */\n      mstore\n        /* \"#utility.yul\":7743:7761   */\n      0x64\n      add\n        /* \"Lock.sol\":31362:31408  require(Inputs.amount > 0, \"Lock amount is 0\") */\n      tag_112\n        /* \"#utility.yul\":7427:7767   */\n      jump\n        /* \"Lock.sol\":31362:31408  require(Inputs.amount > 0, \"Lock amount is 0\") */\n    tag_136:\n        /* \"Lock.sol\":31444:31445  1 */\n      0x01\n        /* \"Lock.sol\":31436:31445  count > 1 */\n      dup2\n      gt\n        /* \"Lock.sol\":31421:31433  bool Vesting */\n      0x00\n        /* \"Lock.sol\":31529:31534  10000 */\n      0x2710\n        /* \"Lock.sol\":31506:31525  Inputs.FirstPercent */\n      0x80\n      dup6\n      add\n      calldataload\n        /* \"Lock.sol\":31506:31534  Inputs.FirstPercent <= 10000 */\n      gt\n      iszero\n        /* \"Lock.sol\":31498:31572  require(Inputs.FirstPercent <= 10000, \"firstPercentage greater then 100%\") */\n      tag_139\n      jumpi\n      mload(0x40)\n      shl(0xe5, 0x461bcd)\n      dup2\n      mstore\n        /* \"#utility.yul\":7974:7976   */\n      0x20\n        /* \"Lock.sol\":31498:31572  require(Inputs.FirstPercent <= 10000, \"firstPercentage greater then 100%\") */\n      0x04\n      dup3\n      add\n        /* \"#utility.yul\":7956:7977   */\n      mstore\n        /* \"#utility.yul\":8013:8015   */\n      0x21\n        /* \"#utility.yul\":7993:8011   */\n      0x24\n      dup3\n      add\n        /* \"#utility.yul\":7986:8016   */\n      mstore\n        /* \"#utility.yul\":8052:8086   */\n      0x666972737450657263656e746167652067726561746572207468656e20313030\n        /* \"#utility.yul\":8032:8050   */\n      0x44\n      dup3\n      add\n        /* \"#utility.yul\":8025:8087   */\n      mstore\n      shl(0xf8, 0x25)\n        /* \"#utility.yul\":8103:8121   */\n      0x64\n      dup3\n      add\n        /* \"#utility.yul\":8096:8127   */\n      mstore\n        /* \"#utility.yul\":8144:8163   */\n      0x84\n      add\n        /* \"Lock.sol\":31498:31572  require(Inputs.FirstPercent <= 10000, \"firstPercentage greater then 100%\") */\n      tag_112\n        /* \"#utility.yul\":7772:8169   */\n      jump\n        /* \"Lock.sol\":31498:31572  require(Inputs.FirstPercent <= 10000, \"firstPercentage greater then 100%\") */\n    tag_139:\n        /* \"Lock.sol\":31593:31611  uint percentAmount */\n      0x00\n        /* \"Lock.sol\":31622:31638  uint firstAmount */\n      dup1\n        /* \"Lock.sol\":31654:31661  Vesting */\n      dup4\n        /* \"Lock.sol\":31651:32015  if(Vesting){... */\n      iszero\n      tag_142\n      jumpi\n        /* \"Lock.sol\":31729:31748  Inputs.cyclePercent */\n      0xc0\n      dup7\n      add\n      calldataload\n        /* \"Lock.sol\":31716:31725  count - 1 */\n      tag_143\n        /* \"Lock.sol\":31724:31725  1 */\n      0x01\n        /* \"Lock.sol\":31716:31721  count */\n      dup8\n        /* \"Lock.sol\":31716:31725  count - 1 */\n      tag_144\n      jump\t// in\n    tag_143:\n        /* \"Lock.sol\":31715:31748  (count - 1) * Inputs.cyclePercent */\n      tag_145\n      swap2\n      swap1\n      tag_146\n      jump\t// in\n    tag_145:\n        /* \"Lock.sol\":31692:31749  Inputs.FirstPercent + ((count - 1) * Inputs.cyclePercent) */\n      tag_147\n      swap1\n        /* \"Lock.sol\":31692:31711  Inputs.FirstPercent */\n      0x80\n      dup9\n      add\n      calldataload\n        /* \"Lock.sol\":31692:31749  Inputs.FirstPercent + ((count - 1) * Inputs.cyclePercent) */\n      tag_115\n      jump\t// in\n    tag_147:\n        /* \"Lock.sol\":31677:31749  totalPrecent = Inputs.FirstPercent + ((count - 1) * Inputs.cyclePercent) */\n      swap3\n      pop\n        /* \"Lock.sol\":31818:31823  10000 */\n      0x2710\n        /* \"Lock.sol\":31780:31816  Inputs.amount  * Inputs.cyclePercent */\n      tag_148\n        /* \"Lock.sol\":31797:31816  Inputs.cyclePercent */\n      0xc0\n      dup9\n      add\n      calldataload\n        /* \"Lock.sol\":31780:31793  Inputs.amount */\n      0x40\n      dup10\n      add\n      calldataload\n        /* \"Lock.sol\":31780:31816  Inputs.amount  * Inputs.cyclePercent */\n      tag_146\n      jump\t// in\n    tag_148:\n        /* \"Lock.sol\":31780:31823  Inputs.amount  * Inputs.cyclePercent /10000 */\n      tag_149\n      swap2\n      swap1\n      tag_150\n      jump\t// in\n    tag_149:\n        /* \"Lock.sol\":31764:31823  percentAmount = Inputs.amount  * Inputs.cyclePercent /10000 */\n      swap2\n      pop\n        /* \"Lock.sol\":31891:31896  10000 */\n      0x2710\n        /* \"Lock.sol\":31854:31889  Inputs.amount * Inputs.FirstPercent */\n      tag_151\n        /* \"Lock.sol\":31870:31889  Inputs.FirstPercent */\n      0x80\n      dup9\n      add\n      calldataload\n        /* \"Lock.sol\":31854:31867  Inputs.amount */\n      0x40\n      dup10\n      add\n      calldataload\n        /* \"Lock.sol\":31854:31889  Inputs.amount * Inputs.FirstPercent */\n      tag_146\n      jump\t// in\n    tag_151:\n        /* \"Lock.sol\":31854:31896  Inputs.amount * Inputs.FirstPercent /10000 */\n      tag_152\n      swap2\n      swap1\n      tag_150\n      jump\t// in\n    tag_152:\n        /* \"Lock.sol\":31840:31896  firstAmount = Inputs.amount * Inputs.FirstPercent /10000 */\n      swap1\n      pop\n        /* \"Lock.sol\":31651:32015  if(Vesting){... */\n      jump(tag_153)\n    tag_142:\n      pop\n        /* \"Lock.sol\":31942:31961  Inputs.FirstPercent */\n      0x80\n      dup6\n      add\n      calldataload\n      swap2\n      pop\n        /* \"Lock.sol\":31990:32003  Inputs.amount */\n      0x40\n      dup6\n      add\n      calldataload\n        /* \"Lock.sol\":31651:32015  if(Vesting){... */\n    tag_153:\n        /* \"Lock.sol\":32051:32056  10000 */\n      0x2710\n        /* \"Lock.sol\":32035:32047  totalPrecent */\n      dup4\n        /* \"Lock.sol\":32035:32056  totalPrecent >= 10000 */\n      lt\n      iszero\n        /* \"Lock.sol\":32027:32082  require(totalPrecent >= 10000, \"Percent Not Up To 100\") */\n      tag_154\n      jumpi\n      mload(0x40)\n      shl(0xe5, 0x461bcd)\n      dup2\n      mstore\n        /* \"#utility.yul\":8904:8906   */\n      0x20\n        /* \"Lock.sol\":32027:32082  require(totalPrecent >= 10000, \"Percent Not Up To 100\") */\n      0x04\n      dup3\n      add\n        /* \"#utility.yul\":8886:8907   */\n      mstore\n        /* \"#utility.yul\":8943:8945   */\n      0x15\n        /* \"#utility.yul\":8923:8941   */\n      0x24\n      dup3\n      add\n        /* \"#utility.yul\":8916:8946   */\n      mstore\n      shl(0x5c, 0x050657263656e74204e6f7420557020546f2031303)\n        /* \"#utility.yul\":8962:8980   */\n      0x44\n      dup3\n      add\n        /* \"#utility.yul\":8955:9006   */\n      mstore\n        /* \"#utility.yul\":9023:9041   */\n      0x64\n      add\n        /* \"Lock.sol\":32027:32082  require(totalPrecent >= 10000, \"Percent Not Up To 100\") */\n      tag_112\n        /* \"#utility.yul\":8702:9047   */\n      jump\n        /* \"Lock.sol\":32027:32082  require(totalPrecent >= 10000, \"Percent Not Up To 100\") */\n    tag_154:\n        /* \"Lock.sol\":32096:32186  IERC20Upgradeable(Inputs.Token).safeTransferFrom(msg.sender, address(this), Inputs.amount) */\n      tag_157\n        /* \"Lock.sol\":32145:32155  msg.sender */\n      caller\n        /* \"Lock.sol\":32165:32169  this */\n      address\n        /* \"Lock.sol\":32172:32185  Inputs.amount */\n      0x40\n      dup10\n      add\n      calldataload\n        /* \"Lock.sol\":32114:32126  Inputs.Token */\n      tag_158\n      0x20\n      dup12\n      add\n        /* \"Lock.sol\":32172:32178  Inputs */\n      dup12\n        /* \"Lock.sol\":32114:32126  Inputs.Token */\n      tag_159\n      jump\t// in\n    tag_158:\n      sub(shl(0xa0, 0x01), 0x01)\n        /* \"Lock.sol\":32096:32144  IERC20Upgradeable(Inputs.Token).safeTransferFrom */\n      and\n      swap3\n        /* \"Lock.sol\":32096:32186  IERC20Upgradeable(Inputs.Token).safeTransferFrom(msg.sender, address(this), Inputs.amount) */\n      swap2\n      swap1\n        /* \"Lock.sol\":32096:32144  IERC20Upgradeable(Inputs.Token).safeTransferFrom */\n      tag_106\n        /* \"Lock.sol\":32096:32186  IERC20Upgradeable(Inputs.Token).safeTransferFrom(msg.sender, address(this), Inputs.amount) */\n      jump\t// in\n    tag_157:\n        /* \"Lock.sol\":32207:32209  id */\n      0x00\n        /* \"Lock.sol\":32207:32211  id++ */\n      dup1\n      sload\n      swap1\n        /* \"Lock.sol\":32207:32209  id */\n      dup1\n        /* \"Lock.sol\":32207:32211  id++ */\n      tag_160\n      dup4\n      tag_104\n      jump\t// in\n    tag_160:\n      swap1\n      swap2\n      sstore\n      pop\n      pop\n        /* \"Lock.sol\":32224:32244  totalTokenAmount[id] */\n      0x00\n        /* \"Lock.sol\":32241:32243  id */\n      dup1\n      sload\n        /* \"Lock.sol\":32224:32244  totalTokenAmount[id] */\n      dup2\n      mstore\n        /* \"Lock.sol\":32224:32240  totalTokenAmount */\n      0x03\n        /* \"Lock.sol\":32224:32244  totalTokenAmount[id] */\n      0x20\n      swap1\n      dup2\n      mstore\n        /* \"Lock.sol\":32261:32274  Inputs.amount */\n      0x40\n        /* \"Lock.sol\":32224:32244  totalTokenAmount[id] */\n      dup1\n      dup4\n      keccak256\n        /* \"Lock.sol\":32261:32274  Inputs.amount */\n      swap1\n      dup10\n      add\n      calldataload\n      swap3\n        /* \"Lock.sol\":32224:32244  totalTokenAmount[id] */\n      swap1\n      swap2\n        /* \"Lock.sol\":32245:32257  Inputs.Token */\n      tag_161\n      swap1\n      dup11\n      add\n        /* \"Lock.sol\":32261:32267  Inputs */\n      dup11\n        /* \"Lock.sol\":32245:32257  Inputs.Token */\n      tag_159\n      jump\t// in\n    tag_161:\n      sub(shl(0xa0, 0x01), 0x01)\n        /* \"Lock.sol\":32224:32258  totalTokenAmount[id][Inputs.Token] */\n      and\n      dup2\n      mstore\n      0x20\n      dup1\n      dup3\n      add\n      swap3\n      swap1\n      swap3\n      mstore\n      0x40\n      swap1\n      dup2\n      add\n      0x00\n      keccak256\n        /* \"Lock.sol\":32224:32274  totalTokenAmount[id][Inputs.Token] = Inputs.amount */\n      swap3\n      swap1\n      swap3\n      sstore\n        /* \"Lock.sol\":32323:32617  Locks ({... */\n      dup2\n      mload\n      0xe0\n      dup2\n      add\n      swap1\n      swap3\n      mstore\n        /* \"Lock.sol\":32353:32363  msg.sender */\n      caller\n        /* \"Lock.sol\":32323:32617  Locks ({... */\n      dup3\n      mstore\n      dup2\n      dup2\n      add\n      swap1\n        /* \"Lock.sol\":32385:32397  Inputs.Token */\n      tag_162\n      swap1\n      dup10\n      add\n        /* \"Lock.sol\":32385:32391  Inputs */\n      dup10\n        /* \"Lock.sol\":32385:32397  Inputs.Token */\n      tag_159\n      jump\t// in\n    tag_162:\n      sub(shl(0xa0, 0x01), 0x01)\n        /* \"Lock.sol\":32323:32617  Locks ({... */\n      and\n      dup2\n      mstore\n      0x20\n      add\n        /* \"Lock.sol\":32426:32432  Inputs */\n      dup8\n        /* \"Lock.sol\":32426:32444  Inputs.Beneficiary */\n      0x20\n      add\n      0x20\n      dup2\n      add\n      swap1\n      tag_163\n      swap2\n      swap1\n      tag_159\n      jump\t// in\n    tag_163:\n      sub(shl(0xa0, 0x01), 0x01)\n        /* \"Lock.sol\":32323:32617  Locks ({... */\n      and\n      dup2\n      mstore\n      0x20\n      add\n        /* \"Lock.sol\":32468:32479  firstAmount */\n      dup3\n        /* \"Lock.sol\":32323:32617  Locks ({... */\n      dup2\n      mstore\n      0x20\n      add\n        /* \"Lock.sol\":32507:32513  Inputs */\n      dup8\n        /* \"Lock.sol\":32507:32530  Inputs.firstReleaseTime */\n      0xa0\n      add\n      calldataload\n        /* \"Lock.sol\":32323:32617  Locks ({... */\n      dup2\n      mstore\n      0x20\n      add\n        /* \"Lock.sol\":32557:32563  Inputs */\n      dup8\n        /* \"Lock.sol\":32557:32573  Inputs.liquidity */\n      0x60\n      add\n      0x20\n      dup2\n      add\n      swap1\n      tag_164\n      swap2\n      swap1\n      tag_165\n      jump\t// in\n    tag_164:\n        /* \"Lock.sol\":32323:32617  Locks ({... */\n      iszero\n      iszero\n      dup2\n      mstore\n        /* \"Lock.sol\":32598:32603  false */\n      0x00\n        /* \"Lock.sol\":32323:32617  Locks ({... */\n      0x20\n      swap2\n      dup3\n      add\n      dup2\n      swap1\n      mstore\n        /* \"Lock.sol\":32302:32312  msg.sender */\n      caller\n        /* \"Lock.sol\":32289:32313  LockedTokens[msg.sender] */\n      dup2\n      mstore\n        /* \"Lock.sol\":32323:32617  Locks ({... */\n      0x01\n        /* \"Lock.sol\":32289:32313  LockedTokens[msg.sender] */\n      dup1\n      dup4\n      mstore\n      0x40\n      dup1\n      dup4\n      keccak256\n        /* \"Lock.sol\":32314:32316  id */\n      dup4\n      sload\n        /* \"Lock.sol\":32289:32317  LockedTokens[msg.sender][id] */\n      dup5\n      mstore\n      dup5\n      mstore\n      dup1\n      dup4\n      keccak256\n        /* \"Lock.sol\":32289:32320  LockedTokens[msg.sender][id][1] */\n      dup3\n      dup5\n      mstore\n      dup5\n      mstore\n      swap2\n      dup3\n      swap1\n      keccak256\n        /* \"Lock.sol\":32289:32617  LockedTokens[msg.sender][id][1] = Locks ({... */\n      dup5\n      mload\n      dup2\n      sload\n      not(sub(shl(0xa0, 0x01), 0x01))\n      swap1\n      dup2\n      and\n      sub(shl(0xa0, 0x01), 0x01)\n      swap3\n      dup4\n      and\n      or\n      dup4\n      sstore\n      swap5\n      dup7\n      add\n      mload\n      swap3\n      dup3\n      add\n      dup1\n      sload\n      dup7\n      and\n      swap4\n      dup3\n      and\n      swap4\n      swap1\n      swap4\n      or\n      swap1\n      swap3\n      sstore\n      swap2\n      dup5\n      add\n      mload\n      0x02\n      dup4\n      add\n      dup1\n      sload\n      swap1\n      swap5\n      and\n      swap2\n      and\n      or\n      swap1\n      swap2\n      sstore\n      0x60\n      dup3\n      add\n      mload\n      0x03\n      dup3\n      add\n      sstore\n      0x80\n      dup1\n      dup4\n      add\n      mload\n      0x04\n      dup4\n      add\n      sstore\n      0xa0\n      dup1\n      dup5\n      add\n      mload\n      0x05\n      swap1\n      swap4\n      add\n      dup1\n      sload\n      0xc0\n      swap1\n      swap6\n      add\n      mload\n      not(0xffff)\n      swap1\n      swap6\n      and\n      swap4\n      iszero\n      iszero\n      not(0xff00)\n      and\n      swap4\n      swap1\n      swap4\n      or\n      0x0100\n      swap5\n      iszero\n      iszero\n      swap5\n      swap1\n      swap5\n      mul\n      swap4\n      swap1\n      swap4\n      or\n      swap1\n      swap2\n      sstore\n        /* \"Lock.sol\":32648:32671  Inputs.firstReleaseTime */\n      swap1\n      dup8\n      add\n      calldataload\n      swap1\n        /* \"Lock.sol\":32700:32719  Inputs.FirstPercent */\n      dup8\n      add\n      calldataload\n        /* \"Lock.sol\":32732:33820  if(Vesting){... */\n      dup6\n      iszero\n      tag_166\n      jumpi\n        /* \"Lock.sol\":32760:32779  usedPercentages[id] */\n      0x00\n        /* \"Lock.sol\":32776:32778  id */\n      dup1\n      sload\n        /* \"Lock.sol\":32760:32779  usedPercentages[id] */\n      dup2\n      mstore\n        /* \"Lock.sol\":32760:32775  usedPercentages */\n      0x05\n        /* \"Lock.sol\":32760:32779  usedPercentages[id] */\n      0x20\n      swap1\n      dup2\n      mstore\n      0x40\n      dup1\n      dup4\n      keccak256\n        /* \"Lock.sol\":32760:32805  usedPercentages[id].push(Inputs.FirstPercent) */\n      dup1\n      sload\n      0x01\n      dup2\n      dup2\n      add\n      dup4\n      sstore\n      swap2\n      dup6\n      mstore\n      dup4\n      dup6\n      keccak256\n        /* \"Lock.sol\":32785:32804  Inputs.FirstPercent */\n      0x80\n      dup15\n      add\n      calldataload\n        /* \"Lock.sol\":32760:32805  usedPercentages[id].push(Inputs.FirstPercent) */\n      swap2\n      add\n      sstore\n        /* \"Lock.sol\":32836:32838  id */\n      dup4\n      sload\n        /* \"Lock.sol\":32820:32839  usedPercentages[id] */\n      dup5\n      mstore\n      swap1\n      dup4\n      keccak256\n        /* \"Lock.sol\":32820:32865  usedPercentages[id].push(Inputs.cyclePercent) */\n      dup1\n      sload\n      swap2\n      dup3\n      add\n      dup2\n      sstore\n      dup4\n      mstore\n      swap2\n      keccak256\n        /* \"Lock.sol\":32845:32864  Inputs.cyclePercent */\n      0xc0\n      dup11\n      add\n      calldataload\n        /* \"Lock.sol\":32820:32865  usedPercentages[id].push(Inputs.cyclePercent) */\n      swap2\n      add\n      sstore\n        /* \"Lock.sol\":32895:32896  2 */\n      0x02\n        /* \"Lock.sol\":32882:33789  for(uint i = 2; i <= count; i++){... */\n    tag_169:\n        /* \"Lock.sol\":32903:32908  count */\n      dup8\n        /* \"Lock.sol\":32898:32899  i */\n      dup2\n        /* \"Lock.sol\":32898:32908  i <= count */\n      gt\n        /* \"Lock.sol\":32882:33789  for(uint i = 2; i <= count; i++){... */\n      tag_170\n      jumpi\n        /* \"Lock.sol\":32951:32984  maxPrecent += Inputs.cyclePercent */\n      tag_172\n        /* \"Lock.sol\":32965:32984  Inputs.cyclePercent */\n      0xc0\n      dup11\n      add\n      calldataload\n        /* \"Lock.sol\":32951:32984  maxPrecent += Inputs.cyclePercent */\n      dup4\n      tag_115\n      jump\t// in\n    tag_172:\n      swap2\n      pop\n        /* \"Lock.sol\":33021:33026  10000 */\n      0x2710\n        /* \"Lock.sol\":33008:33018  maxPrecent */\n      dup3\n        /* \"Lock.sol\":33008:33026  maxPrecent > 10000 */\n      gt\n        /* \"Lock.sol\":33005:33276  if(maxPrecent > 10000){... */\n      iszero\n      tag_173\n      jumpi\n        /* \"Lock.sol\":33050:33083  maxPrecent -= Inputs.cyclePercent */\n      tag_174\n        /* \"Lock.sol\":33064:33083  Inputs.cyclePercent */\n      0xc0\n      dup11\n      add\n      calldataload\n        /* \"Lock.sol\":33050:33083  maxPrecent -= Inputs.cyclePercent */\n      dup4\n      tag_144\n      jump\t// in\n    tag_174:\n      swap2\n      pop\n        /* \"Lock.sol\":33106:33118  uint percent */\n      0x00\n        /* \"Lock.sol\":33121:33139  10000 - maxPrecent */\n      tag_175\n        /* \"Lock.sol\":33050:33083  maxPrecent -= Inputs.cyclePercent */\n      dup4\n        /* \"Lock.sol\":33121:33126  10000 */\n      0x2710\n        /* \"Lock.sol\":33121:33139  10000 - maxPrecent */\n      tag_144\n      jump\t// in\n    tag_175:\n        /* \"Lock.sol\":33106:33139  uint percent = 10000 - maxPrecent */\n      swap1\n      pop\n        /* \"Lock.sol\":33206:33211  10000 */\n      0x2710\n        /* \"Lock.sol\":33180:33204  Inputs.amount  * percent */\n      tag_176\n        /* \"Lock.sol\":33106:33139  uint percent = 10000 - maxPrecent */\n      dup3\n        /* \"Lock.sol\":33180:33193  Inputs.amount */\n      0x40\n      dup14\n      add\n      calldataload\n        /* \"Lock.sol\":33180:33204  Inputs.amount  * percent */\n      tag_146\n      jump\t// in\n    tag_176:\n        /* \"Lock.sol\":33180:33211  Inputs.amount  * percent /10000 */\n      tag_177\n      swap2\n      swap1\n      tag_150\n      jump\t// in\n    tag_177:\n        /* \"Lock.sol\":33164:33211  percentAmount = Inputs.amount  * percent /10000 */\n      swap6\n      pop\n        /* \"Lock.sol\":33249:33254  10000 */\n      0x2710\n        /* \"Lock.sol\":33236:33254  maxPrecent = 10000 */\n      swap3\n      pop\n        /* \"Lock.sol\":33027:33276  {... */\n      pop\n        /* \"Lock.sol\":33005:33276  if(maxPrecent > 10000){... */\n    tag_173:\n        /* \"Lock.sol\":33296:33331  lastTime += Inputs.cyclereleaseTime */\n      tag_178\n        /* \"Lock.sol\":33308:33331  Inputs.cyclereleaseTime */\n      0xe0\n      dup11\n      add\n      calldataload\n        /* \"Lock.sol\":33296:33331  lastTime += Inputs.cyclereleaseTime */\n      dup5\n      tag_115\n      jump\t// in\n    tag_178:\n        /* \"Lock.sol\":33390:33767  Locks ({... */\n      0x40\n      dup1\n      mload\n      0xe0\n      dup2\n      add\n      swap1\n      swap2\n      mstore\n        /* \"Lock.sol\":33432:33442  msg.sender */\n      caller\n        /* \"Lock.sol\":33390:33767  Locks ({... */\n      dup2\n      mstore\n        /* \"Lock.sol\":33296:33331  lastTime += Inputs.cyclereleaseTime */\n      swap1\n      swap4\n      pop\n        /* \"Lock.sol\":33390:33767  Locks ({... */\n      0x20\n      dup1\n      dup3\n      add\n      swap1\n        /* \"Lock.sol\":33476:33488  Inputs.Token */\n      tag_179\n      swap1\n      dup13\n      add\n        /* \"Lock.sol\":33476:33482  Inputs */\n      dup13\n        /* \"Lock.sol\":33476:33488  Inputs.Token */\n      tag_159\n      jump\t// in\n    tag_179:\n      sub(shl(0xa0, 0x01), 0x01)\n        /* \"Lock.sol\":33390:33767  Locks ({... */\n      and\n      dup2\n      mstore\n      0x20\n      add\n        /* \"Lock.sol\":33529:33535  Inputs */\n      dup11\n        /* \"Lock.sol\":33529:33547  Inputs.Beneficiary */\n      0x20\n      add\n      0x20\n      dup2\n      add\n      swap1\n      tag_180\n      swap2\n      swap1\n      tag_159\n      jump\t// in\n    tag_180:\n      sub(shl(0xa0, 0x01), 0x01)\n        /* \"Lock.sol\":33390:33767  Locks ({... */\n      and\n      dup2\n      mstore\n      0x20\n      add\n        /* \"Lock.sol\":33583:33596  percentAmount */\n      dup7\n        /* \"Lock.sol\":33390:33767  Locks ({... */\n      dup2\n      mstore\n      0x20\n      add\n        /* \"Lock.sol\":33636:33644  lastTime */\n      dup5\n        /* \"Lock.sol\":33390:33767  Locks ({... */\n      dup2\n      mstore\n      0x20\n      add\n        /* \"Lock.sol\":33683:33689  Inputs */\n      dup11\n        /* \"Lock.sol\":33683:33699  Inputs.liquidity */\n      0x60\n      add\n      0x20\n      dup2\n      add\n      swap1\n      tag_181\n      swap2\n      swap1\n      tag_165\n      jump\t// in\n    tag_181:\n        /* \"Lock.sol\":33390:33767  Locks ({... */\n      iszero\n      iszero\n      dup2\n      mstore\n        /* \"Lock.sol\":33736:33741  false */\n      0x00\n        /* \"Lock.sol\":33390:33767  Locks ({... */\n      0x20\n      swap2\n      dup3\n      add\n      dup2\n      swap1\n      mstore\n        /* \"Lock.sol\":33369:33379  msg.sender */\n      caller\n        /* \"Lock.sol\":33356:33380  LockedTokens[msg.sender] */\n      dup2\n      mstore\n        /* \"Lock.sol\":33390:33767  Locks ({... */\n      0x01\n        /* \"Lock.sol\":33356:33380  LockedTokens[msg.sender] */\n      dup1\n      dup4\n      mstore\n      0x40\n      dup1\n      dup4\n      keccak256\n        /* \"Lock.sol\":33381:33383  id */\n      dup4\n      sload\n        /* \"Lock.sol\":33356:33384  LockedTokens[msg.sender][id] */\n      dup5\n      mstore\n      dup5\n      mstore\n      dup1\n      dup4\n      keccak256\n        /* \"Lock.sol\":33356:33387  LockedTokens[msg.sender][id][i] */\n      dup7\n      dup5\n      mstore\n      dup5\n      mstore\n      swap2\n      dup3\n      swap1\n      keccak256\n        /* \"Lock.sol\":33356:33767  LockedTokens[msg.sender][id][i] = Locks ({... */\n      dup5\n      mload\n      dup2\n      sload\n      not(sub(shl(0xa0, 0x01), 0x01))\n      swap1\n      dup2\n      and\n      sub(shl(0xa0, 0x01), 0x01)\n      swap3\n      dup4\n      and\n      or\n      dup4\n      sstore\n      swap5\n      dup7\n      add\n      mload\n      swap3\n      dup3\n      add\n      dup1\n      sload\n      dup7\n      and\n      swap4\n      dup3\n      and\n      swap4\n      swap1\n      swap4\n      or\n      swap1\n      swap3\n      sstore\n      swap2\n      dup5\n      add\n      mload\n      0x02\n      dup4\n      add\n      dup1\n      sload\n      swap1\n      swap5\n      and\n      swap2\n      and\n      or\n      swap1\n      swap2\n      sstore\n      0x60\n      dup3\n      add\n      mload\n      0x03\n      dup3\n      add\n      sstore\n      0x80\n      dup3\n      add\n      mload\n      0x04\n      dup3\n      add\n      sstore\n      0xa0\n      dup3\n      add\n      mload\n      0x05\n      swap1\n      swap2\n      add\n      dup1\n      sload\n      0xc0\n      swap1\n      swap4\n      add\n      mload\n      not(0xffff)\n      swap1\n      swap4\n      and\n      swap2\n      iszero\n      iszero\n      not(0xff00)\n      and\n      swap2\n      swap1\n      swap2\n      or\n      0x0100\n      swap3\n      iszero\n      iszero\n      swap3\n      swap1\n      swap3\n      mul\n      swap2\n      swap1\n      swap2\n      or\n      swap1\n      sstore\n        /* \"Lock.sol\":33356:33387  LockedTokens[msg.sender][id][i] */\n      dup1\n        /* \"Lock.sol\":32910:32913  i++ */\n      tag_182\n        /* \"Lock.sol\":33356:33387  LockedTokens[msg.sender][id][i] */\n      dup2\n        /* \"Lock.sol\":32910:32913  i++ */\n      tag_104\n      jump\t// in\n    tag_182:\n      swap2\n      pop\n      pop\n        /* \"Lock.sol\":32882:33789  for(uint i = 2; i <= count; i++){... */\n      jump(tag_169)\n    tag_170:\n      pop\n        /* \"Lock.sol\":32732:33820  if(Vesting){... */\n    tag_166:\n        /* \"Lock.sol\":33850:33860  msg.sender */\n      caller\n        /* \"Lock.sol\":33834:33861  cycleCountPerID[msg.sender] */\n      0x00\n      swap1\n      dup2\n      mstore\n        /* \"Lock.sol\":33834:33849  cycleCountPerID */\n      0x02\n        /* \"Lock.sol\":33834:33861  cycleCountPerID[msg.sender] */\n      0x20\n      swap1\n      dup2\n      mstore\n      0x40\n      dup1\n      dup4\n      keccak256\n        /* \"Lock.sol\":33862:33864  id */\n      dup4\n      sload\n        /* \"Lock.sol\":33834:33865  cycleCountPerID[msg.sender][id] */\n      dup5\n      mstore\n      dup3\n      mstore\n      swap1\n      swap2\n      keccak256\n        /* \"Lock.sol\":33834:33873  cycleCountPerID[msg.sender][id] = count */\n      dup9\n      swap1\n      sstore\n        /* \"Lock.sol\":33920:33932  Inputs.Token */\n      tag_183\n      swap1\n      dup10\n      add\n        /* \"Lock.sol\":33920:33926  Inputs */\n      dup10\n        /* \"Lock.sol\":33920:33932  Inputs.Token */\n      tag_159\n      jump\t// in\n    tag_183:\n      sub(shl(0xa0, 0x01), 0x01)\n        /* \"Lock.sol\":33901:33937  Locked(msg.sender, Inputs.Token, id) */\n      and\n        /* \"Lock.sol\":33908:33918  msg.sender */\n      caller\n      sub(shl(0xa0, 0x01), 0x01)\n        /* \"Lock.sol\":33901:33937  Locked(msg.sender, Inputs.Token, id) */\n      and\n      0x989eaa915cbb416ea3d6f9a63b1a3de51770c7674b11fe21ecdf76b4e1d13910\n        /* \"Lock.sol\":33934:33936  id */\n      sload(0x00)\n        /* \"Lock.sol\":33901:33937  Locked(msg.sender, Inputs.Token, id) */\n      mload(0x40)\n      tag_184\n      swap2\n        /* \"#utility.yul\":1825:1850   */\n      dup2\n      mstore\n        /* \"#utility.yul\":1813:1815   */\n      0x20\n        /* \"#utility.yul\":1798:1816   */\n      add\n      swap1\n        /* \"#utility.yul\":1679:1856   */\n      jump\n        /* \"Lock.sol\":33901:33937  Locked(msg.sender, Inputs.Token, id) */\n    tag_184:\n      mload(0x40)\n      dup1\n      swap2\n      sub\n      swap1\n      log3\n        /* \"Lock.sol\":31264:33951  {... */\n      pop\n      pop\n      pop\n      pop\n      pop\n      pop\n      pop\n        /* \"Lock.sol\":31218:33951  function Lock(inputs calldata Inputs) external{... */\n      pop\n      jump\t// out\n        /* \"Lock.sol\":44460:44663  function Release(uint index) external  {... */\n    tag_80:\n        /* \"Lock.sol\":44531:44541  msg.sender */\n      caller\n        /* \"Lock.sol\":44515:44542  cycleCountPerID[msg.sender] */\n      0x00\n      swap1\n      dup2\n      mstore\n        /* \"Lock.sol\":44515:44530  cycleCountPerID */\n      0x02\n        /* \"Lock.sol\":44515:44542  cycleCountPerID[msg.sender] */\n      0x20\n      swap1\n      dup2\n      mstore\n      0x40\n      dup1\n      dup4\n      keccak256\n        /* \"Lock.sol\":44515:44549  cycleCountPerID[msg.sender][index] */\n      dup5\n      dup5\n      mstore\n      swap1\n      swap2\n      mstore\n      swap1\n      keccak256\n      sload\n        /* \"Lock.sol\":44553:44554  1 */\n      0x01\n        /* \"Lock.sol\":44515:44554  cycleCountPerID[msg.sender][index] == 1 */\n      sub\n        /* \"Lock.sol\":44512:44654  if(cycleCountPerID[msg.sender][index] == 1){... */\n      tag_186\n      jumpi\n        /* \"Lock.sol\":44570:44589  _normalClaim(index) */\n      tag_187\n        /* \"Lock.sol\":44583:44588  index */\n      dup2\n        /* \"Lock.sol\":44570:44582  _normalClaim */\n      tag_188\n        /* \"Lock.sol\":44570:44589  _normalClaim(index) */\n      jump\t// in\n    tag_187:\n        /* \"Lock.sol\":44460:44663  function Release(uint index) external  {... */\n      pop\n      jump\t// out\n        /* \"Lock.sol\":44512:44654  if(cycleCountPerID[msg.sender][index] == 1){... */\n    tag_186:\n        /* \"Lock.sol\":44622:44642  _vestingClaim(index) */\n      tag_187\n        /* \"Lock.sol\":44636:44641  index */\n      dup2\n        /* \"Lock.sol\":44622:44635  _vestingClaim */\n      tag_60\n        /* \"Lock.sol\":44622:44642  _vestingClaim(index) */\n      jump\t// in\n        /* \"Lock.sol\":39334:44222  function changeReleaseTimeAndSpread(uint index, uint newTime, uint newCycleGap, uint[] memory newPercentages, uint additionalAmount) external{... */\n    tag_88:\n        /* \"Lock.sol\":39566:39576  msg.sender */\n      caller\n        /* \"Lock.sol\":39553:39577  LockedTokens[msg.sender] */\n      0x00\n      dup2\n      dup2\n      mstore\n        /* \"Lock.sol\":39553:39565  LockedTokens */\n      0x01\n        /* \"Lock.sol\":39553:39577  LockedTokens[msg.sender] */\n      0x20\n      dup2\n      dup2\n      mstore\n      0x40\n      dup1\n      dup5\n      keccak256\n        /* \"Lock.sol\":39553:39584  LockedTokens[msg.sender][index] */\n      dup11\n      dup6\n      mstore\n      dup3\n      mstore\n      dup1\n      dup5\n      keccak256\n        /* \"Lock.sol\":39553:39587  LockedTokens[msg.sender][index][1] */\n      swap3\n      dup5\n      mstore\n      swap2\n      swap1\n      mstore\n      swap1\n      keccak256\n        /* \"Lock.sol\":39553:39593  LockedTokens[msg.sender][index][1].owner */\n      sload\n      sub(shl(0xa0, 0x01), 0x01)\n      and\n        /* \"Lock.sol\":39539:39593  msg.sender == LockedTokens[msg.sender][index][1].owner */\n      eq\n        /* \"Lock.sol\":39531:39607  require(msg.sender == LockedTokens[msg.sender][index][1].owner, \"Not owner\") */\n      tag_193\n      jumpi\n      mload(0x40)\n      shl(0xe5, 0x461bcd)\n      dup2\n      mstore\n        /* \"#utility.yul\":9691:9693   */\n      0x20\n        /* \"Lock.sol\":39531:39607  require(msg.sender == LockedTokens[msg.sender][index][1].owner, \"Not owner\") */\n      0x04\n      dup3\n      add\n        /* \"#utility.yul\":9673:9694   */\n      mstore\n        /* \"#utility.yul\":9730:9731   */\n      0x09\n        /* \"#utility.yul\":9710:9728   */\n      0x24\n      dup3\n      add\n        /* \"#utility.yul\":9703:9732   */\n      mstore\n      shl(0xb9, 0x2737ba1037bbb732b9)\n        /* \"#utility.yul\":9748:9766   */\n      0x44\n      dup3\n      add\n        /* \"#utility.yul\":9741:9780   */\n      mstore\n        /* \"#utility.yul\":9797:9815   */\n      0x64\n      add\n        /* \"Lock.sol\":39531:39607  require(msg.sender == LockedTokens[msg.sender][index][1].owner, \"Not owner\") */\n      tag_112\n        /* \"#utility.yul\":9489:9821   */\n      jump\n        /* \"Lock.sol\":39531:39607  require(msg.sender == LockedTokens[msg.sender][index][1].owner, \"Not owner\") */\n    tag_193:\n        /* \"Lock.sol\":39729:39739  msg.sender */\n      caller\n        /* \"Lock.sol\":39716:39740  LockedTokens[msg.sender] */\n      0x00\n      swap1\n      dup2\n      mstore\n        /* \"Lock.sol\":39716:39728  LockedTokens */\n      0x01\n        /* \"Lock.sol\":39716:39740  LockedTokens[msg.sender] */\n      0x20\n      dup2\n      dup2\n      mstore\n      0x40\n      dup1\n      dup5\n      keccak256\n        /* \"Lock.sol\":39716:39747  LockedTokens[msg.sender][index] */\n      dup10\n      dup6\n      mstore\n      dup3\n      mstore\n      dup1\n      dup5\n      keccak256\n        /* \"Lock.sol\":39716:39750  LockedTokens[msg.sender][index][1] */\n      swap3\n      dup5\n      mstore\n      swap2\n      swap1\n      mstore\n      swap1\n      keccak256\n        /* \"Lock.sol\":39716:39762  LockedTokens[msg.sender][index][1].releaseTime */\n      0x04\n      add\n      sload\n        /* \"Lock.sol\":39705:39762  newTime >= LockedTokens[msg.sender][index][1].releaseTime */\n      dup5\n      lt\n      iszero\n        /* \"Lock.sol\":39697:39785  require(newTime >= LockedTokens[msg.sender][index][1].releaseTime, \"Time cant be Older\") */\n      tag_196\n      jumpi\n      mload(0x40)\n      shl(0xe5, 0x461bcd)\n      dup2\n      mstore\n        /* \"#utility.yul\":10028:10030   */\n      0x20\n        /* \"Lock.sol\":39697:39785  require(newTime >= LockedTokens[msg.sender][index][1].releaseTime, \"Time cant be Older\") */\n      0x04\n      dup3\n      add\n        /* \"#utility.yul\":10010:10031   */\n      mstore\n        /* \"#utility.yul\":10067:10069   */\n      0x12\n        /* \"#utility.yul\":10047:10065   */\n      0x24\n      dup3\n      add\n        /* \"#utility.yul\":10040:10070   */\n      mstore\n      shl(0x71, 0x2a34b6b29031b0b73a1031329027b63232b9)\n        /* \"#utility.yul\":10086:10104   */\n      0x44\n      dup3\n      add\n        /* \"#utility.yul\":10079:10127   */\n      mstore\n        /* \"#utility.yul\":10144:10162   */\n      0x64\n      add\n        /* \"Lock.sol\":39697:39785  require(newTime >= LockedTokens[msg.sender][index][1].releaseTime, \"Time cant be Older\") */\n      tag_112\n        /* \"#utility.yul\":9826:10168   */\n      jump\n        /* \"Lock.sol\":39697:39785  require(newTime >= LockedTokens[msg.sender][index][1].releaseTime, \"Time cant be Older\") */\n    tag_196:\n        /* \"Lock.sol\":39865:39875  msg.sender */\n      caller\n        /* \"Lock.sol\":39852:39876  LockedTokens[msg.sender] */\n      0x00\n      swap1\n      dup2\n      mstore\n        /* \"Lock.sol\":39852:39864  LockedTokens */\n      0x01\n        /* \"Lock.sol\":39852:39876  LockedTokens[msg.sender] */\n      0x20\n      dup2\n      dup2\n      mstore\n      0x40\n      dup1\n      dup5\n      keccak256\n        /* \"Lock.sol\":39852:39883  LockedTokens[msg.sender][index] */\n      dup10\n      dup6\n      mstore\n      dup3\n      mstore\n      dup1\n      dup5\n      keccak256\n        /* \"Lock.sol\":39852:39886  LockedTokens[msg.sender][index][1] */\n      swap3\n      dup5\n      mstore\n      swap2\n      swap1\n      mstore\n      swap1\n      keccak256\n        /* \"Lock.sol\":39852:39894  LockedTokens[msg.sender][index][1].Claimed */\n      0x05\n      add\n      sload\n      0x0100\n      swap1\n      div\n      0xff\n      and\n        /* \"Lock.sol\":39851:39894  !LockedTokens[msg.sender][index][1].Claimed */\n      iszero\n        /* \"Lock.sol\":39843:39921  require(!LockedTokens[msg.sender][index][1].Claimed, \"token Claiming Started\") */\n      tag_199\n      jumpi\n      mload(0x40)\n      shl(0xe5, 0x461bcd)\n      dup2\n      mstore\n        /* \"#utility.yul\":10375:10377   */\n      0x20\n        /* \"Lock.sol\":39843:39921  require(!LockedTokens[msg.sender][index][1].Claimed, \"token Claiming Started\") */\n      0x04\n      dup3\n      add\n        /* \"#utility.yul\":10357:10378   */\n      mstore\n        /* \"#utility.yul\":10414:10416   */\n      0x16\n        /* \"#utility.yul\":10394:10412   */\n      0x24\n      dup3\n      add\n        /* \"#utility.yul\":10387:10417   */\n      mstore\n      shl(0x52, 0x1d1bdad95b8810db185a5b5a5b99c814dd185c9d1959)\n        /* \"#utility.yul\":10433:10451   */\n      0x44\n      dup3\n      add\n        /* \"#utility.yul\":10426:10478   */\n      mstore\n        /* \"#utility.yul\":10495:10513   */\n      0x64\n      add\n        /* \"Lock.sol\":39843:39921  require(!LockedTokens[msg.sender][index][1].Claimed, \"token Claiming Started\") */\n      tag_112\n        /* \"#utility.yul\":10173:10519   */\n      jump\n        /* \"Lock.sol\":39843:39921  require(!LockedTokens[msg.sender][index][1].Claimed, \"token Claiming Started\") */\n    tag_199:\n        /* \"Lock.sol\":39963:39973  msg.sender */\n      caller\n        /* \"Lock.sol\":39934:39944  uint count */\n      0x00\n        /* \"Lock.sol\":39947:39974  cycleCountPerID[msg.sender] */\n      swap1\n      dup2\n      mstore\n        /* \"Lock.sol\":39947:39962  cycleCountPerID */\n      0x02\n        /* \"Lock.sol\":39947:39974  cycleCountPerID[msg.sender] */\n      0x20\n      swap1\n      dup2\n      mstore\n      0x40\n      dup1\n      dup4\n      keccak256\n        /* \"Lock.sol\":39947:39981  cycleCountPerID[msg.sender][index] */\n      dup9\n      dup5\n      mstore\n      swap1\n      swap2\n      mstore\n      swap1\n      keccak256\n      sload\n        /* \"Lock.sol\":40015:40035  additionalAmount > 0 */\n      dup2\n      iszero\n        /* \"Lock.sol\":40012:40283  if(additionalAmount > 0){... */\n      tag_202\n      jumpi\n        /* \"Lock.sol\":40128:40138  msg.sender */\n      caller\n        /* \"Lock.sol\":40069:40093  LockedTokens[msg.sender] */\n      0x00\n      dup2\n      dup2\n      mstore\n        /* \"Lock.sol\":40069:40081  LockedTokens */\n      0x01\n        /* \"Lock.sol\":40069:40093  LockedTokens[msg.sender] */\n      0x20\n      dup2\n      dup2\n      mstore\n      0x40\n      dup1\n      dup5\n      keccak256\n        /* \"Lock.sol\":40069:40100  LockedTokens[msg.sender][index] */\n      dup12\n      dup6\n      mstore\n      dup3\n      mstore\n      dup1\n      dup5\n      keccak256\n        /* \"Lock.sol\":40069:40103  LockedTokens[msg.sender][index][1] */\n      dup4\n      dup6\n      mstore\n      swap1\n      swap2\n      mstore\n      swap1\n      swap2\n      keccak256\n        /* \"Lock.sol\":40069:40109  LockedTokens[msg.sender][index][1].Token */\n      add\n      sload\n        /* \"Lock.sol\":40051:40172  IERC20Upgradeable(LockedTokens[msg.sender][index][1].Token).safeTransferFrom(msg.sender, address(this), additionalAmount) */\n      tag_203\n      swap2\n      sub(shl(0xa0, 0x01), 0x01)\n        /* \"Lock.sol\":40069:40109  LockedTokens[msg.sender][index][1].Token */\n      swap1\n      swap2\n      and\n      swap1\n        /* \"Lock.sol\":40148:40152  this */\n      address\n        /* \"Lock.sol\":40155:40171  additionalAmount */\n      dup6\n        /* \"Lock.sol\":40051:40127  IERC20Upgradeable(LockedTokens[msg.sender][index][1].Token).safeTransferFrom */\n      tag_106\n        /* \"Lock.sol\":40051:40172  IERC20Upgradeable(LockedTokens[msg.sender][index][1].Token).safeTransferFrom(msg.sender, address(this), additionalAmount) */\n      jump\t// in\n    tag_203:\n        /* \"Lock.sol\":40187:40210  totalTokenAmount[index] */\n      0x00\n      dup7\n      dup2\n      mstore\n        /* \"Lock.sol\":40187:40203  totalTokenAmount */\n      0x03\n        /* \"Lock.sol\":40187:40210  totalTokenAmount[index] */\n      0x20\n      swap1\n      dup2\n      mstore\n      0x40\n      dup1\n      dup4\n      keccak256\n        /* \"Lock.sol\":40224:40234  msg.sender */\n      caller\n        /* \"Lock.sol\":40211:40235  LockedTokens[msg.sender] */\n      dup5\n      mstore\n        /* \"Lock.sol\":40211:40223  LockedTokens */\n      0x01\n        /* \"Lock.sol\":40211:40235  LockedTokens[msg.sender] */\n      dup1\n      dup5\n      mstore\n      dup3\n      dup6\n      keccak256\n        /* \"Lock.sol\":40211:40242  LockedTokens[msg.sender][index] */\n      dup12\n      dup7\n      mstore\n      dup5\n      mstore\n      dup3\n      dup6\n      keccak256\n        /* \"Lock.sol\":40211:40245  LockedTokens[msg.sender][index][1] */\n      dup2\n      dup7\n      mstore\n      dup5\n      mstore\n      dup3\n      dup6\n      keccak256\n        /* \"Lock.sol\":40211:40251  LockedTokens[msg.sender][index][1].Token */\n      add\n      sload\n      sub(shl(0xa0, 0x01), 0x01)\n      and\n        /* \"Lock.sol\":40187:40252  totalTokenAmount[index][LockedTokens[msg.sender][index][1].Token] */\n      dup5\n      mstore\n      swap1\n      swap2\n      mstore\n      dup2\n      keccak256\n        /* \"Lock.sol\":40187:40271  totalTokenAmount[index][LockedTokens[msg.sender][index][1].Token]+= additionalAmount */\n      dup1\n      sload\n        /* \"Lock.sol\":40255:40271  additionalAmount */\n      dup5\n      swap3\n        /* \"Lock.sol\":40187:40210  totalTokenAmount[index] */\n      swap1\n        /* \"Lock.sol\":40187:40271  totalTokenAmount[index][LockedTokens[msg.sender][index][1].Token]+= additionalAmount */\n      tag_204\n      swap1\n        /* \"Lock.sol\":40255:40271  additionalAmount */\n      dup5\n      swap1\n        /* \"Lock.sol\":40187:40271  totalTokenAmount[index][LockedTokens[msg.sender][index][1].Token]+= additionalAmount */\n      tag_115\n      jump\t// in\n    tag_204:\n      swap1\n      swap2\n      sstore\n      pop\n      pop\n        /* \"Lock.sol\":40012:40283  if(additionalAmount > 0){... */\n    tag_202:\n        /* \"Lock.sol\":40326:40327  1 */\n      0x01\n        /* \"Lock.sol\":40318:40323  count */\n      dup2\n        /* \"Lock.sol\":40318:40327  count > 1 */\n      gt\n        /* \"Lock.sol\":40318:40352  count > 1 && newPercentages[1] > 0 */\n      dup1\n      iszero\n      tag_205\n      jumpi\n      pop\n        /* \"Lock.sol\":40351:40352  0 */\n      0x00\n        /* \"Lock.sol\":40331:40345  newPercentages */\n      dup4\n        /* \"Lock.sol\":40346:40347  1 */\n      0x01\n        /* \"Lock.sol\":40331:40348  newPercentages[1] */\n      dup2\n      mload\n      dup2\n      lt\n      tag_207\n      jumpi\n      tag_207\n      tag_208\n      jump\t// in\n    tag_207:\n      0x20\n      mul\n      0x20\n      add\n      add\n      mload\n        /* \"Lock.sol\":40331:40352  newPercentages[1] > 0 */\n      gt\n        /* \"Lock.sol\":40318:40352  count > 1 && newPercentages[1] > 0 */\n    tag_205:\n        /* \"Lock.sol\":40318:40377  count > 1 && newPercentages[1] > 0 && newPercentages[0] > 0 */\n      dup1\n      iszero\n      tag_209\n      jumpi\n      pop\n        /* \"Lock.sol\":40376:40377  0 */\n      0x00\n        /* \"Lock.sol\":40356:40370  newPercentages */\n      dup4\n        /* \"Lock.sol\":40371:40372  0 */\n      0x00\n        /* \"Lock.sol\":40356:40373  newPercentages[0] */\n      dup2\n      mload\n      dup2\n      lt\n      tag_211\n      jumpi\n      tag_211\n      tag_208\n      jump\t// in\n    tag_211:\n      0x20\n      mul\n      0x20\n      add\n      add\n      mload\n        /* \"Lock.sol\":40356:40377  newPercentages[0] > 0 */\n      gt\n        /* \"Lock.sol\":40318:40377  count > 1 && newPercentages[1] > 0 && newPercentages[0] > 0 */\n    tag_209:\n        /* \"Lock.sol\":40315:43368  if(count > 1 && newPercentages[1] > 0 && newPercentages[0] > 0){... */\n      iszero\n      tag_212\n      jumpi\n        /* \"Lock.sol\":40616:40626  msg.sender */\n      caller\n        /* \"Lock.sol\":40395:40416  uint percentageAmount */\n      0x00\n        /* \"Lock.sol\":40603:40627  LockedTokens[msg.sender] */\n      swap1\n      dup2\n      mstore\n        /* \"Lock.sol\":40603:40615  LockedTokens */\n      0x01\n        /* \"Lock.sol\":40603:40627  LockedTokens[msg.sender] */\n      0x20\n      dup2\n      dup2\n      mstore\n      0x40\n      dup1\n      dup5\n      keccak256\n        /* \"Lock.sol\":40603:40634  LockedTokens[msg.sender][index] */\n      dup11\n      dup6\n      mstore\n      dup3\n      mstore\n      dup1\n      dup5\n      keccak256\n        /* \"Lock.sol\":40603:40637  LockedTokens[msg.sender][index][1] */\n      swap3\n      dup5\n      mstore\n      swap2\n      swap1\n      mstore\n      dup1\n      dup3\n      keccak256\n        /* \"Lock.sol\":40603:40649  LockedTokens[msg.sender][index][1].releaseTime */\n      0x04\n      swap1\n      dup2\n      add\n      sload\n        /* \"Lock.sol\":40586:40587  2 */\n      0x02\n        /* \"Lock.sol\":40554:40588  LockedTokens[msg.sender][index][2] */\n      dup5\n      mstore\n      swap2\n      dup4\n      keccak256\n        /* \"Lock.sol\":40554:40600  LockedTokens[msg.sender][index][2].releaseTime */\n      add\n      sload\n        /* \"Lock.sol\":40395:40416  uint percentageAmount */\n      dup3\n      swap2\n      dup3\n      swap2\n      dup3\n      swap2\n      dup3\n      swap2\n        /* \"Lock.sol\":40554:40649  LockedTokens[msg.sender][index][2].releaseTime - LockedTokens[msg.sender][index][1].releaseTime */\n      tag_213\n      swap2\n        /* \"Lock.sol\":40603:40649  LockedTokens[msg.sender][index][1].releaseTime */\n      swap1\n        /* \"Lock.sol\":40554:40649  LockedTokens[msg.sender][index][2].releaseTime - LockedTokens[msg.sender][index][1].releaseTime */\n      tag_144\n      jump\t// in\n    tag_213:\n        /* \"Lock.sol\":40544:40649  gapTime = LockedTokens[msg.sender][index][2].releaseTime - LockedTokens[msg.sender][index][1].releaseTime */\n      swap1\n      pop\n        /* \"Lock.sol\":40707:40714  gapTime */\n      dup1\n        /* \"Lock.sol\":40693:40704  newCycleGap */\n      dup10\n        /* \"Lock.sol\":40693:40714  newCycleGap < gapTime */\n      lt\n        /* \"Lock.sol\":40693:40744  newCycleGap < gapTime || newPercentages[0] >= 10000 */\n      dup1\n      tag_214\n      jumpi\n      pop\n        /* \"Lock.sol\":40739:40744  10000 */\n      0x2710\n        /* \"Lock.sol\":40718:40732  newPercentages */\n      dup9\n        /* \"Lock.sol\":40733:40734  0 */\n      0x00\n        /* \"Lock.sol\":40718:40735  newPercentages[0] */\n      dup2\n      mload\n      dup2\n      lt\n      tag_216\n      jumpi\n      tag_216\n      tag_208\n      jump\t// in\n    tag_216:\n      0x20\n      mul\n      0x20\n      add\n      add\n      mload\n        /* \"Lock.sol\":40718:40744  newPercentages[0] >= 10000 */\n      lt\n      iszero\n        /* \"Lock.sol\":40693:40744  newCycleGap < gapTime || newPercentages[0] >= 10000 */\n    tag_214:\n        /* \"Lock.sol\":40690:43355  if(newCycleGap < gapTime || newPercentages[0] >= 10000){... */\n      iszero\n      tag_217\n      jumpi\n        /* \"Lock.sol\":40764:40794  revert(\"Ngap < Ogap | %error\") */\n      mload(0x40)\n      shl(0xe5, 0x461bcd)\n      dup2\n      mstore\n        /* \"#utility.yul\":10858:10860   */\n      0x20\n        /* \"Lock.sol\":40764:40794  revert(\"Ngap < Ogap | %error\") */\n      0x04\n      dup3\n      add\n        /* \"#utility.yul\":10840:10861   */\n      mstore\n        /* \"#utility.yul\":10897:10899   */\n      0x14\n        /* \"#utility.yul\":10877:10895   */\n      0x24\n      dup3\n      add\n        /* \"#utility.yul\":10870:10900   */\n      mstore\n      shl(0x61, 0x2733b0b8101e1027b3b0b8103e1012b2b93937b9)\n        /* \"#utility.yul\":10916:10934   */\n      0x44\n      dup3\n      add\n        /* \"#utility.yul\":10909:10959   */\n      mstore\n        /* \"#utility.yul\":10976:10994   */\n      0x64\n      add\n        /* \"Lock.sol\":40764:40794  revert(\"Ngap < Ogap | %error\") */\n      tag_112\n        /* \"#utility.yul\":10656:11000   */\n      jump\n        /* \"Lock.sol\":40690:43355  if(newCycleGap < gapTime || newPercentages[0] >= 10000){... */\n    tag_217:\n        /* \"Lock.sol\":40859:40881  usedPercentages[index] */\n      0x00\n      dup12\n      dup2\n      mstore\n        /* \"Lock.sol\":40859:40874  usedPercentages */\n      0x05\n        /* \"Lock.sol\":40859:40881  usedPercentages[index] */\n      0x20\n      mstore\n      0x40\n      dup2\n      keccak256\n        /* \"Lock.sol\":40859:40884  usedPercentages[index][0] */\n      dup1\n      sload\n        /* \"Lock.sol\":40859:40881  usedPercentages[index] */\n      swap1\n      swap2\n      swap1\n        /* \"Lock.sol\":40859:40884  usedPercentages[index][0] */\n      tag_222\n      jumpi\n      tag_222\n      tag_208\n      jump\t// in\n    tag_222:\n      swap1\n      0x00\n      mstore\n      keccak256(0x00, 0x20)\n      add\n      sload\n        /* \"Lock.sol\":40839:40853  newPercentages */\n      dup9\n        /* \"Lock.sol\":40854:40855  0 */\n      0x00\n        /* \"Lock.sol\":40839:40856  newPercentages[0] */\n      dup2\n      mload\n      dup2\n      lt\n      tag_225\n      jumpi\n      tag_225\n      tag_208\n      jump\t// in\n    tag_225:\n      0x20\n      mul\n      0x20\n      add\n      add\n      mload\n        /* \"Lock.sol\":40839:40884  newPercentages[0] > usedPercentages[index][0] */\n      gt\n        /* \"Lock.sol\":40838:40937  (newPercentages[0] > usedPercentages[index][0]) || (newPercentages[1] > usedPercentages[index] [1]) */\n      dup1\n      tag_226\n      jumpi\n      pop\n        /* \"Lock.sol\":40910:40932  usedPercentages[index] */\n      0x00\n      dup12\n      dup2\n      mstore\n        /* \"Lock.sol\":40910:40925  usedPercentages */\n      0x05\n        /* \"Lock.sol\":40910:40932  usedPercentages[index] */\n      0x20\n      mstore\n      0x40\n      swap1\n      keccak256\n        /* \"Lock.sol\":40910:40936  usedPercentages[index] [1] */\n      dup1\n      sload\n        /* \"Lock.sol\":40934:40935  1 */\n      0x01\n      swap1\n        /* \"Lock.sol\":40910:40936  usedPercentages[index] [1] */\n      dup2\n      lt\n      tag_228\n      jumpi\n      tag_228\n      tag_208\n      jump\t// in\n    tag_228:\n      swap1\n      0x00\n      mstore\n      keccak256(0x00, 0x20)\n      add\n      sload\n        /* \"Lock.sol\":40890:40904  newPercentages */\n      dup9\n        /* \"Lock.sol\":40905:40906  1 */\n      0x01\n        /* \"Lock.sol\":40890:40907  newPercentages[1] */\n      dup2\n      mload\n      dup2\n      lt\n      tag_231\n      jumpi\n      tag_231\n      tag_208\n      jump\t// in\n    tag_231:\n      0x20\n      mul\n      0x20\n      add\n      add\n      mload\n        /* \"Lock.sol\":40890:40936  newPercentages[1] > usedPercentages[index] [1] */\n      gt\n        /* \"Lock.sol\":40838:40937  (newPercentages[0] > usedPercentages[index][0]) || (newPercentages[1] > usedPercentages[index] [1]) */\n    tag_226:\n        /* \"Lock.sol\":40835:41011  if((newPercentages[0] > usedPercentages[index][0]) || (newPercentages[1] > usedPercentages[index] [1])  ){... */\n      iszero\n      tag_232\n      jumpi\n        /* \"Lock.sol\":40963:40991  revert(\"Invalid Percentage\") */\n      mload(0x40)\n      shl(0xe5, 0x461bcd)\n      dup2\n      mstore\n        /* \"#utility.yul\":11207:11209   */\n      0x20\n        /* \"Lock.sol\":40963:40991  revert(\"Invalid Percentage\") */\n      0x04\n      dup3\n      add\n        /* \"#utility.yul\":11189:11210   */\n      mstore\n        /* \"#utility.yul\":11246:11248   */\n      0x12\n        /* \"#utility.yul\":11226:11244   */\n      0x24\n      dup3\n      add\n        /* \"#utility.yul\":11219:11249   */\n      mstore\n      shl(0x70, 0x496e76616c69642050657263656e74616765)\n        /* \"#utility.yul\":11265:11283   */\n      0x44\n      dup3\n      add\n        /* \"#utility.yul\":11258:11306   */\n      mstore\n        /* \"#utility.yul\":11323:11341   */\n      0x64\n      add\n        /* \"Lock.sol\":40963:40991  revert(\"Invalid Percentage\") */\n      tag_112\n        /* \"#utility.yul\":11005:11347   */\n      jump\n        /* \"Lock.sol\":40835:41011  if((newPercentages[0] > usedPercentages[index][0]) || (newPercentages[1] > usedPercentages[index] [1])  ){... */\n    tag_232:\n        /* \"Lock.sol\":41041:41055  newPercentages */\n      dup8\n        /* \"Lock.sol\":41056:41057  0 */\n      0x00\n        /* \"Lock.sol\":41041:41058  newPercentages[0] */\n      dup2\n      mload\n      dup2\n      lt\n      tag_236\n      jumpi\n      tag_236\n      tag_208\n      jump\t// in\n    tag_236:\n      0x20\n      mul\n      0x20\n      add\n      add\n      mload\n        /* \"Lock.sol\":41031:41058  percent = newPercentages[0] */\n      swap3\n      pop\n        /* \"Lock.sol\":41105:41119  newPercentages */\n      dup8\n        /* \"Lock.sol\":41120:41121  0 */\n      0x00\n        /* \"Lock.sol\":41105:41122  newPercentages[0] */\n      dup2\n      mload\n      dup2\n      lt\n      tag_238\n      jumpi\n      tag_238\n      tag_208\n      jump\t// in\n    tag_238:\n      0x20\n      mul\n      0x20\n      add\n      add\n      mload\n        /* \"Lock.sol\":41091:41122  maxPercent += newPercentages[0] */\n      dup5\n      tag_239\n      swap2\n      swap1\n      tag_115\n      jump\t// in\n    tag_239:\n      swap4\n      pop\n        /* \"Lock.sol\":41159:41168  counter++ */\n      dup2\n      tag_240\n      dup2\n      tag_104\n      jump\t// in\n    tag_240:\n      swap3\n      pop\n      pop\n        /* \"Lock.sol\":41288:41293  10000 */\n      0x2710\n        /* \"Lock.sol\":41222:41238  totalTokenAmount */\n      0x03\n        /* \"Lock.sol\":41222:41245  totalTokenAmount[index] */\n      0x00\n        /* \"Lock.sol\":41239:41244  index */\n      dup14\n        /* \"Lock.sol\":41222:41245  totalTokenAmount[index] */\n      dup2\n      mstore\n      0x20\n      add\n      swap1\n      dup2\n      mstore\n      0x20\n      add\n      0x00\n      keccak256\n        /* \"Lock.sol\":41222:41287  totalTokenAmount[index][LockedTokens[msg.sender][index][1].Token] */\n      0x00\n        /* \"Lock.sol\":41246:41258  LockedTokens */\n      0x01\n        /* \"Lock.sol\":41246:41270  LockedTokens[msg.sender] */\n      0x00\n        /* \"Lock.sol\":41259:41269  msg.sender */\n      caller\n      sub(shl(0xa0, 0x01), 0x01)\n        /* \"Lock.sol\":41246:41270  LockedTokens[msg.sender] */\n      and\n      sub(shl(0xa0, 0x01), 0x01)\n      and\n      dup2\n      mstore\n      0x20\n      add\n      swap1\n      dup2\n      mstore\n      0x20\n      add\n      0x00\n      keccak256\n        /* \"Lock.sol\":41246:41277  LockedTokens[msg.sender][index] */\n      0x00\n        /* \"Lock.sol\":41271:41276  index */\n      dup16\n        /* \"Lock.sol\":41246:41277  LockedTokens[msg.sender][index] */\n      dup2\n      mstore\n      0x20\n      add\n      swap1\n      dup2\n      mstore\n      0x20\n      add\n      0x00\n      keccak256\n        /* \"Lock.sol\":41246:41280  LockedTokens[msg.sender][index][1] */\n      0x00\n        /* \"Lock.sol\":41278:41279  1 */\n      0x01\n        /* \"Lock.sol\":41246:41280  LockedTokens[msg.sender][index][1] */\n      dup2\n      mstore\n      0x20\n      add\n      swap1\n      dup2\n      mstore\n      0x20\n      add\n      0x00\n      keccak256\n        /* \"Lock.sol\":41246:41286  LockedTokens[msg.sender][index][1].Token */\n      0x01\n      add\n      0x00\n      swap1\n      sload\n      swap1\n      0x0100\n      exp\n      swap1\n      div\n      sub(shl(0xa0, 0x01), 0x01)\n      and\n      sub(shl(0xa0, 0x01), 0x01)\n        /* \"Lock.sol\":41222:41287  totalTokenAmount[index][LockedTokens[msg.sender][index][1].Token] */\n      and\n      sub(shl(0xa0, 0x01), 0x01)\n      and\n      dup2\n      mstore\n      0x20\n      add\n      swap1\n      dup2\n      mstore\n      0x20\n      add\n      0x00\n      keccak256\n      sload\n        /* \"Lock.sol\":41212:41219  percent */\n      dup5\n        /* \"Lock.sol\":41212:41287  percent * totalTokenAmount[index][LockedTokens[msg.sender][index][1].Token] */\n      tag_241\n      swap2\n      swap1\n      tag_146\n      jump\t// in\n    tag_241:\n        /* \"Lock.sol\":41212:41293  percent * totalTokenAmount[index][LockedTokens[msg.sender][index][1].Token]/10000 */\n      tag_242\n      swap2\n      swap1\n      tag_150\n      jump\t// in\n    tag_242:\n        /* \"Lock.sol\":41343:41353  msg.sender */\n      caller\n        /* \"Lock.sol\":41330:41354  LockedTokens[msg.sender] */\n      0x00\n      swap1\n      dup2\n      mstore\n        /* \"Lock.sol\":41330:41342  LockedTokens */\n      0x01\n        /* \"Lock.sol\":41330:41354  LockedTokens[msg.sender] */\n      0x20\n      swap1\n      dup2\n      mstore\n      0x40\n      dup1\n      dup4\n      keccak256\n        /* \"Lock.sol\":41330:41361  LockedTokens[msg.sender][index] */\n      dup16\n      dup5\n      mstore\n      dup3\n      mstore\n      dup1\n      dup4\n      keccak256\n        /* \"Lock.sol\":41330:41370  LockedTokens[msg.sender][index][counter] */\n      dup7\n      dup5\n      mstore\n      swap1\n      swap2\n      mstore\n      swap1\n      keccak256\n        /* \"Lock.sol\":41330:41377  LockedTokens[msg.sender][index][counter].amount */\n      0x03\n      add\n        /* \"Lock.sol\":41330:41396  LockedTokens[msg.sender][index][counter].amount = percentageAmount */\n      dup2\n      swap1\n      sstore\n        /* \"Lock.sol\":41193:41293  percentageAmount = percent * totalTokenAmount[index][LockedTokens[msg.sender][index][1].Token]/10000 */\n      swap5\n      pop\n        /* \"Lock.sol\":41526:43163  while(maxPercent < 10000){... */\n    tag_243:\n        /* \"Lock.sol\":41545:41550  10000 */\n      0x2710\n        /* \"Lock.sol\":41532:41542  maxPercent */\n      dup5\n        /* \"Lock.sol\":41532:41550  maxPercent < 10000 */\n      lt\n        /* \"Lock.sol\":41526:43163  while(maxPercent < 10000){... */\n      iszero\n      tag_244\n      jumpi\n        /* \"Lock.sol\":41584:41598  newPercentages */\n      dup8\n        /* \"Lock.sol\":41599:41600  1 */\n      0x01\n        /* \"Lock.sol\":41584:41601  newPercentages[1] */\n      dup2\n      mload\n      dup2\n      lt\n      tag_246\n      jumpi\n      tag_246\n      tag_208\n      jump\t// in\n    tag_246:\n      0x20\n      mul\n      0x20\n      add\n      add\n      mload\n        /* \"Lock.sol\":41574:41601  percent = newPercentages[1] */\n      swap3\n      pop\n        /* \"Lock.sol\":41638:41652  newPercentages */\n      dup8\n        /* \"Lock.sol\":41653:41654  1 */\n      0x01\n        /* \"Lock.sol\":41638:41655  newPercentages[1] */\n      dup2\n      mload\n      dup2\n      lt\n      tag_248\n      jumpi\n      tag_248\n      tag_208\n      jump\t// in\n    tag_248:\n      0x20\n      mul\n      0x20\n      add\n      add\n      mload\n        /* \"Lock.sol\":41624:41655  maxPercent += newPercentages[1] */\n      dup5\n      tag_249\n      swap2\n      swap1\n      tag_115\n      jump\t// in\n    tag_249:\n      swap4\n      pop\n        /* \"Lock.sol\":41817:41822  10000 */\n      0x2710\n        /* \"Lock.sol\":41804:41814  maxPercent */\n      dup5\n        /* \"Lock.sol\":41804:41822  maxPercent > 10000 */\n      gt\n        /* \"Lock.sol\":41801:42005  if(maxPercent > 10000){... */\n      iszero\n      tag_250\n      jumpi\n        /* \"Lock.sol\":41864:41878  newPercentages */\n      dup8\n        /* \"Lock.sol\":41879:41880  1 */\n      0x01\n        /* \"Lock.sol\":41864:41881  newPercentages[1] */\n      dup2\n      mload\n      dup2\n      lt\n      tag_252\n      jumpi\n      tag_252\n      tag_208\n      jump\t// in\n    tag_252:\n      0x20\n      mul\n      0x20\n      add\n      add\n      mload\n        /* \"Lock.sol\":41850:41881  maxPercent -= newPercentages[1] */\n      dup5\n      tag_253\n      swap2\n      swap1\n      tag_144\n      jump\t// in\n    tag_253:\n      swap4\n      pop\n        /* \"Lock.sol\":41918:41936  10000 - maxPercent */\n      tag_254\n        /* \"Lock.sol\":41850:41881  maxPercent -= newPercentages[1] */\n      dup5\n        /* \"Lock.sol\":41918:41923  10000 */\n      0x2710\n        /* \"Lock.sol\":41918:41936  10000 - maxPercent */\n      tag_144\n      jump\t// in\n    tag_254:\n        /* \"Lock.sol\":41908:41936  percent = 10000 - maxPercent */\n      swap3\n      pop\n        /* \"Lock.sol\":41976:41981  10000 */\n      0x2710\n        /* \"Lock.sol\":41963:41981  maxPercent = 10000 */\n      swap4\n      pop\n        /* \"Lock.sol\":41801:42005  if(maxPercent > 10000){... */\n    tag_250:\n        /* \"Lock.sol\":42152:42157  10000 */\n      0x2710\n        /* \"Lock.sol\":42086:42102  totalTokenAmount */\n      0x03\n        /* \"Lock.sol\":42086:42109  totalTokenAmount[index] */\n      0x00\n        /* \"Lock.sol\":42103:42108  index */\n      dup14\n        /* \"Lock.sol\":42086:42109  totalTokenAmount[index] */\n      dup2\n      mstore\n      0x20\n      add\n      swap1\n      dup2\n      mstore\n      0x20\n      add\n      0x00\n      keccak256\n        /* \"Lock.sol\":42086:42151  totalTokenAmount[index][LockedTokens[msg.sender][index][1].Token] */\n      0x00\n        /* \"Lock.sol\":42110:42122  LockedTokens */\n      0x01\n        /* \"Lock.sol\":42110:42134  LockedTokens[msg.sender] */\n      0x00\n        /* \"Lock.sol\":42123:42133  msg.sender */\n      caller\n      sub(shl(0xa0, 0x01), 0x01)\n        /* \"Lock.sol\":42110:42134  LockedTokens[msg.sender] */\n      and\n      sub(shl(0xa0, 0x01), 0x01)\n      and\n      dup2\n      mstore\n      0x20\n      add\n      swap1\n      dup2\n      mstore\n      0x20\n      add\n      0x00\n      keccak256\n        /* \"Lock.sol\":42110:42141  LockedTokens[msg.sender][index] */\n      0x00\n        /* \"Lock.sol\":42135:42140  index */\n      dup16\n        /* \"Lock.sol\":42110:42141  LockedTokens[msg.sender][index] */\n      dup2\n      mstore\n      0x20\n      add\n      swap1\n      dup2\n      mstore\n      0x20\n      add\n      0x00\n      keccak256\n        /* \"Lock.sol\":42110:42144  LockedTokens[msg.sender][index][1] */\n      0x00\n        /* \"Lock.sol\":42142:42143  1 */\n      0x01\n        /* \"Lock.sol\":42110:42144  LockedTokens[msg.sender][index][1] */\n      dup2\n      mstore\n      0x20\n      add\n      swap1\n      dup2\n      mstore\n      0x20\n      add\n      0x00\n      keccak256\n        /* \"Lock.sol\":42110:42150  LockedTokens[msg.sender][index][1].Token */\n      0x01\n      add\n      0x00\n      swap1\n      sload\n      swap1\n      0x0100\n      exp\n      swap1\n      div\n      sub(shl(0xa0, 0x01), 0x01)\n      and\n      sub(shl(0xa0, 0x01), 0x01)\n        /* \"Lock.sol\":42086:42151  totalTokenAmount[index][LockedTokens[msg.sender][index][1].Token] */\n      and\n      sub(shl(0xa0, 0x01), 0x01)\n      and\n      dup2\n      mstore\n      0x20\n      add\n      swap1\n      dup2\n      mstore\n      0x20\n      add\n      0x00\n      keccak256\n      sload\n        /* \"Lock.sol\":42076:42083  percent */\n      dup5\n        /* \"Lock.sol\":42076:42151  percent * totalTokenAmount[index][LockedTokens[msg.sender][index][1].Token] */\n      tag_255\n      swap2\n      swap1\n      tag_146\n      jump\t// in\n    tag_255:\n        /* \"Lock.sol\":42076:42157  percent * totalTokenAmount[index][LockedTokens[msg.sender][index][1].Token]/10000 */\n      tag_256\n      swap2\n      swap1\n      tag_150\n      jump\t// in\n    tag_256:\n        /* \"Lock.sol\":42057:42157  percentageAmount = percent * totalTokenAmount[index][LockedTokens[msg.sender][index][1].Token]/10000 */\n      swap5\n      pop\n        /* \"Lock.sol\":42180:42189  counter++ */\n      dup2\n      tag_257\n      dup2\n      tag_104\n      jump\t// in\n    tag_257:\n      swap3\n      pop\n      pop\n        /* \"Lock.sol\":42381:42388  counter */\n      dup2\n        /* \"Lock.sol\":42373:42378  count */\n      dup7\n        /* \"Lock.sol\":42373:42388  count < counter */\n      lt\n        /* \"Lock.sol\":42370:43144  if(count < counter){... */\n      iszero\n      tag_258\n      jumpi\n        /* \"Lock.sol\":42459:42999  Locks ({... */\n      mload(0x40)\n      dup1\n      0xe0\n      add\n      0x40\n      mstore\n      dup1\n        /* \"Lock.sol\":42505:42515  msg.sender */\n      caller\n      sub(shl(0xa0, 0x01), 0x01)\n        /* \"Lock.sol\":42459:42999  Locks ({... */\n      and\n      dup2\n      mstore\n      0x20\n      add\n        /* \"Lock.sol\":42553:42565  LockedTokens */\n      0x01\n        /* \"Lock.sol\":42553:42577  LockedTokens[msg.sender] */\n      0x00\n        /* \"Lock.sol\":42566:42576  msg.sender */\n      caller\n      sub(shl(0xa0, 0x01), 0x01)\n        /* \"Lock.sol\":42553:42577  LockedTokens[msg.sender] */\n      and\n      sub(shl(0xa0, 0x01), 0x01)\n      and\n      dup2\n      mstore\n      0x20\n      add\n      swap1\n      dup2\n      mstore\n      0x20\n      add\n      0x00\n      keccak256\n        /* \"Lock.sol\":42553:42584  LockedTokens[msg.sender][index] */\n      0x00\n        /* \"Lock.sol\":42578:42583  index */\n      dup15\n        /* \"Lock.sol\":42553:42584  LockedTokens[msg.sender][index] */\n      dup2\n      mstore\n      0x20\n      add\n      swap1\n      dup2\n      mstore\n      0x20\n      add\n      0x00\n      keccak256\n        /* \"Lock.sol\":42553:42587  LockedTokens[msg.sender][index][1] */\n      0x00\n        /* \"Lock.sol\":42585:42586  1 */\n      0x01\n        /* \"Lock.sol\":42553:42587  LockedTokens[msg.sender][index][1] */\n      dup2\n      mstore\n      0x20\n      add\n      swap1\n      dup2\n      mstore\n      0x20\n      add\n      0x00\n      keccak256\n        /* \"Lock.sol\":42553:42593  LockedTokens[msg.sender][index][1].Token */\n      0x01\n      add\n      0x00\n      swap1\n      sload\n      swap1\n      0x0100\n      exp\n      swap1\n      div\n      sub(shl(0xa0, 0x01), 0x01)\n      and\n      sub(shl(0xa0, 0x01), 0x01)\n        /* \"Lock.sol\":42459:42999  Locks ({... */\n      and\n      dup2\n      mstore\n      0x20\n      add\n        /* \"Lock.sol\":42638:42650  LockedTokens */\n      0x01\n        /* \"Lock.sol\":42638:42662  LockedTokens[msg.sender] */\n      0x00\n        /* \"Lock.sol\":42651:42661  msg.sender */\n      caller\n      sub(shl(0xa0, 0x01), 0x01)\n        /* \"Lock.sol\":42638:42662  LockedTokens[msg.sender] */\n      and\n      sub(shl(0xa0, 0x01), 0x01)\n      and\n      dup2\n      mstore\n      0x20\n      add\n      swap1\n      dup2\n      mstore\n      0x20\n      add\n      0x00\n      keccak256\n        /* \"Lock.sol\":42638:42669  LockedTokens[msg.sender][index] */\n      0x00\n        /* \"Lock.sol\":42663:42668  index */\n      dup15\n        /* \"Lock.sol\":42638:42669  LockedTokens[msg.sender][index] */\n      dup2\n      mstore\n      0x20\n      add\n      swap1\n      dup2\n      mstore\n      0x20\n      add\n      0x00\n      keccak256\n        /* \"Lock.sol\":42638:42672  LockedTokens[msg.sender][index][1] */\n      0x00\n        /* \"Lock.sol\":42670:42671  1 */\n      0x01\n        /* \"Lock.sol\":42638:42672  LockedTokens[msg.sender][index][1] */\n      dup2\n      mstore\n      0x20\n      add\n      swap1\n      dup2\n      mstore\n      0x20\n      add\n      0x00\n      keccak256\n        /* \"Lock.sol\":42638:42684  LockedTokens[msg.sender][index][1].Beneficiary */\n      0x02\n      add\n      0x00\n      swap1\n      sload\n      swap1\n      0x0100\n      exp\n      swap1\n      div\n      sub(shl(0xa0, 0x01), 0x01)\n      and\n      sub(shl(0xa0, 0x01), 0x01)\n        /* \"Lock.sol\":42459:42999  Locks ({... */\n      and\n      dup2\n      mstore\n      0x20\n      add\n        /* \"Lock.sol\":42724:42740  percentageAmount */\n      dup7\n        /* \"Lock.sol\":42459:42999  Locks ({... */\n      dup2\n      mstore\n      0x20\n      add\n        /* \"Lock.sol\":42784:42796  LockedTokens */\n      0x01\n        /* \"Lock.sol\":42784:42808  LockedTokens[msg.sender] */\n      0x00\n        /* \"Lock.sol\":42797:42807  msg.sender */\n      caller\n      sub(shl(0xa0, 0x01), 0x01)\n        /* \"Lock.sol\":42784:42808  LockedTokens[msg.sender] */\n      and\n      sub(shl(0xa0, 0x01), 0x01)\n      and\n      dup2\n      mstore\n      0x20\n      add\n      swap1\n      dup2\n      mstore\n      0x20\n      add\n      0x00\n      keccak256\n        /* \"Lock.sol\":42784:42815  LockedTokens[msg.sender][index] */\n      0x00\n        /* \"Lock.sol\":42809:42814  index */\n      dup15\n        /* \"Lock.sol\":42784:42815  LockedTokens[msg.sender][index] */\n      dup2\n      mstore\n      0x20\n      add\n      swap1\n      dup2\n      mstore\n      0x20\n      add\n      0x00\n      keccak256\n        /* \"Lock.sol\":42784:42822  LockedTokens[msg.sender][index][count] */\n      0x00\n        /* \"Lock.sol\":42816:42821  count */\n      dup10\n        /* \"Lock.sol\":42784:42822  LockedTokens[msg.sender][index][count] */\n      dup2\n      mstore\n      0x20\n      add\n      swap1\n      dup2\n      mstore\n      0x20\n      add\n      0x00\n      keccak256\n        /* \"Lock.sol\":42784:42834  LockedTokens[msg.sender][index][count].releaseTime */\n      0x04\n      add\n      sload\n        /* \"Lock.sol\":42459:42999  Locks ({... */\n      dup2\n      mstore\n      0x20\n      add\n        /* \"Lock.sol\":42877:42889  LockedTokens */\n      0x01\n        /* \"Lock.sol\":42877:42901  LockedTokens[msg.sender] */\n      0x00\n        /* \"Lock.sol\":42890:42900  msg.sender */\n      caller\n      sub(shl(0xa0, 0x01), 0x01)\n        /* \"Lock.sol\":42877:42901  LockedTokens[msg.sender] */\n      and\n      sub(shl(0xa0, 0x01), 0x01)\n      and\n      dup2\n      mstore\n      0x20\n      add\n      swap1\n      dup2\n      mstore\n      0x20\n      add\n      0x00\n      keccak256\n        /* \"Lock.sol\":42877:42908  LockedTokens[msg.sender][index] */\n      0x00\n        /* \"Lock.sol\":42902:42907  index */\n      dup15\n        /* \"Lock.sol\":42877:42908  LockedTokens[msg.sender][index] */\n      dup2\n      mstore\n      0x20\n      add\n      swap1\n      dup2\n      mstore\n      0x20\n      add\n      0x00\n      keccak256\n        /* \"Lock.sol\":42877:42911  LockedTokens[msg.sender][index][1] */\n      0x00\n        /* \"Lock.sol\":42909:42910  1 */\n      0x01\n        /* \"Lock.sol\":42877:42911  LockedTokens[msg.sender][index][1] */\n      dup2\n      mstore\n      0x20\n      add\n      swap1\n      dup2\n      mstore\n      0x20\n      add\n      0x00\n      keccak256\n        /* \"Lock.sol\":42877:42921  LockedTokens[msg.sender][index][1].liquidity */\n      0x05\n      add\n      0x00\n      swap1\n      sload\n      swap1\n      0x0100\n      exp\n      swap1\n      div\n      0xff\n      and\n        /* \"Lock.sol\":42459:42999  Locks ({... */\n      iszero\n      iszero\n      dup2\n      mstore\n      0x20\n      add\n        /* \"Lock.sol\":42962:42967  false */\n      0x00\n        /* \"Lock.sol\":42459:42999  Locks ({... */\n      iszero\n      iszero\n      dup2\n      mstore\n      pop\n        /* \"Lock.sol\":42416:42428  LockedTokens */\n      0x01\n        /* \"Lock.sol\":42416:42440  LockedTokens[msg.sender] */\n      0x00\n        /* \"Lock.sol\":42429:42439  msg.sender */\n      caller\n      sub(shl(0xa0, 0x01), 0x01)\n        /* \"Lock.sol\":42416:42440  LockedTokens[msg.sender] */\n      and\n      sub(shl(0xa0, 0x01), 0x01)\n      and\n      dup2\n      mstore\n      0x20\n      add\n      swap1\n      dup2\n      mstore\n      0x20\n      add\n      0x00\n      keccak256\n        /* \"Lock.sol\":42416:42447  LockedTokens[msg.sender][index] */\n      0x00\n        /* \"Lock.sol\":42441:42446  index */\n      dup14\n        /* \"Lock.sol\":42416:42447  LockedTokens[msg.sender][index] */\n      dup2\n      mstore\n      0x20\n      add\n      swap1\n      dup2\n      mstore\n      0x20\n      add\n      0x00\n      keccak256\n        /* \"Lock.sol\":42416:42456  LockedTokens[msg.sender][index][counter] */\n      0x00\n        /* \"Lock.sol\":42448:42455  counter */\n      dup5\n        /* \"Lock.sol\":42416:42456  LockedTokens[msg.sender][index][counter] */\n      dup2\n      mstore\n      0x20\n      add\n      swap1\n      dup2\n      mstore\n      0x20\n      add\n      0x00\n      keccak256\n        /* \"Lock.sol\":42416:42999  LockedTokens[msg.sender][index][counter] = Locks ({... */\n      0x00\n      dup3\n      add\n      mload\n      dup2\n      0x00\n      add\n      exp(0x0100, 0x00)\n      dup2\n      sload\n      dup2\n      sub(shl(0xa0, 0x01), 0x01)\n      mul\n      not\n      and\n      swap1\n      dup4\n      sub(shl(0xa0, 0x01), 0x01)\n      and\n      mul\n      or\n      swap1\n      sstore\n      pop\n      0x20\n      dup3\n      add\n      mload\n      dup2\n      0x01\n      add\n      exp(0x0100, 0x00)\n      dup2\n      sload\n      dup2\n      sub(shl(0xa0, 0x01), 0x01)\n      mul\n      not\n      and\n      swap1\n      dup4\n      sub(shl(0xa0, 0x01), 0x01)\n      and\n      mul\n      or\n      swap1\n      sstore\n      pop\n      0x40\n      dup3\n      add\n      mload\n      dup2\n      0x02\n      add\n      exp(0x0100, 0x00)\n      dup2\n      sload\n      dup2\n      sub(shl(0xa0, 0x01), 0x01)\n      mul\n      not\n      and\n      swap1\n      dup4\n      sub(shl(0xa0, 0x01), 0x01)\n      and\n      mul\n      or\n      swap1\n      sstore\n      pop\n      0x60\n      dup3\n      add\n      mload\n      dup2\n      0x03\n      add\n      sstore\n      0x80\n      dup3\n      add\n      mload\n      dup2\n      0x04\n      add\n      sstore\n      0xa0\n      dup3\n      add\n      mload\n      dup2\n      0x05\n      add\n      exp(0x0100, 0x00)\n      dup2\n      sload\n      dup2\n      0xff\n      mul\n      not\n      and\n      swap1\n      dup4\n      iszero\n      iszero\n      mul\n      or\n      swap1\n      sstore\n      pop\n      0xc0\n      dup3\n      add\n      mload\n      dup2\n      0x05\n      add\n      exp(0x0100, 0x01)\n      dup2\n      sload\n      dup2\n      0xff\n      mul\n      not\n      and\n      swap1\n      dup4\n      iszero\n      iszero\n      mul\n      or\n      swap1\n      sstore\n      pop\n      swap1\n      pop\n      pop\n        /* \"Lock.sol\":41526:43163  while(maxPercent < 10000){... */\n      jump(tag_243)\n        /* \"Lock.sol\":42370:43144  if(count < counter){... */\n    tag_258:\n        /* \"Lock.sol\":43067:43077  msg.sender */\n      caller\n        /* \"Lock.sol\":43054:43078  LockedTokens[msg.sender] */\n      0x00\n      swap1\n      dup2\n      mstore\n        /* \"Lock.sol\":43054:43066  LockedTokens */\n      0x01\n        /* \"Lock.sol\":43054:43078  LockedTokens[msg.sender] */\n      0x20\n      swap1\n      dup2\n      mstore\n      0x40\n      dup1\n      dup4\n      keccak256\n        /* \"Lock.sol\":43054:43085  LockedTokens[msg.sender][index] */\n      dup15\n      dup5\n      mstore\n      dup3\n      mstore\n      dup1\n      dup4\n      keccak256\n        /* \"Lock.sol\":43054:43094  LockedTokens[msg.sender][index][counter] */\n      dup6\n      dup5\n      mstore\n      swap1\n      swap2\n      mstore\n      swap1\n      keccak256\n        /* \"Lock.sol\":43054:43101  LockedTokens[msg.sender][index][counter].amount */\n      0x03\n      add\n        /* \"Lock.sol\":43054:43120  LockedTokens[msg.sender][index][counter].amount = percentageAmount */\n      dup6\n      swap1\n      sstore\n        /* \"Lock.sol\":41526:43163  while(maxPercent < 10000){... */\n      jump(tag_243)\n    tag_244:\n      pop\n        /* \"Lock.sol\":43255:43265  msg.sender */\n      caller\n        /* \"Lock.sol\":43239:43266  cycleCountPerID[msg.sender] */\n      0x00\n      swap1\n      dup2\n      mstore\n        /* \"Lock.sol\":43239:43254  cycleCountPerID */\n      0x02\n        /* \"Lock.sol\":43239:43266  cycleCountPerID[msg.sender] */\n      0x20\n      swap1\n      dup2\n      mstore\n      0x40\n      dup1\n      dup4\n      keccak256\n        /* \"Lock.sol\":43239:43273  cycleCountPerID[msg.sender][index] */\n      dup14\n      dup5\n      mstore\n      swap1\n      swap2\n      mstore\n      swap1\n      keccak256\n        /* \"Lock.sol\":43239:43283  cycleCountPerID[msg.sender][index] = counter */\n      dup2\n      swap1\n      sstore\n      swap4\n      pop\n      pop\n      pop\n      pop\n        /* \"Lock.sol\":40315:43368  if(count > 1 && newPercentages[1] > 0 && newPercentages[0] > 0){... */\n    tag_212:\n        /* \"Lock.sol\":43881:43891  msg.sender */\n      caller\n        /* \"Lock.sol\":43868:43892  LockedTokens[msg.sender] */\n      0x00\n      swap1\n      dup2\n      mstore\n        /* \"Lock.sol\":43868:43880  LockedTokens */\n      0x01\n        /* \"Lock.sol\":43868:43892  LockedTokens[msg.sender] */\n      0x20\n      dup2\n      dup2\n      mstore\n      0x40\n      dup1\n      dup5\n      keccak256\n        /* \"Lock.sol\":43868:43899  LockedTokens[msg.sender][index] */\n      dup11\n      dup6\n      mstore\n      dup3\n      mstore\n      dup1\n      dup5\n      keccak256\n        /* \"Lock.sol\":43868:43902  LockedTokens[msg.sender][index][1] */\n      dup4\n      dup6\n      mstore\n      swap1\n      swap2\n      mstore\n      swap1\n      swap2\n      keccak256\n        /* \"Lock.sol\":43868:43914  LockedTokens[msg.sender][index][1].releaseTime */\n      0x04\n      add\n        /* \"Lock.sol\":43868:43924  LockedTokens[msg.sender][index][1].releaseTime = newTime */\n      dup7\n      swap1\n      sstore\n        /* \"Lock.sol\":44012:44021  count > 1 */\n      dup2\n      gt\n        /* \"Lock.sol\":44009:44213  if(count > 1){... */\n      iszero\n      tag_130\n      jumpi\n        /* \"Lock.sol\":44050:44051  2 */\n      0x02\n        /* \"Lock.sol\":44037:44202  for(uint i = 2; i<= count; i++){... */\n    tag_261:\n        /* \"Lock.sol\":44057:44062  count */\n      dup2\n        /* \"Lock.sol\":44053:44054  i */\n      dup2\n        /* \"Lock.sol\":44053:44062  i<= count */\n      gt\n        /* \"Lock.sol\":44037:44202  for(uint i = 2; i<= count; i++){... */\n      tag_262\n      jumpi\n        /* \"Lock.sol\":44087:44109  newTime += newCycleGap */\n      tag_264\n        /* \"Lock.sol\":44098:44109  newCycleGap */\n      dup6\n        /* \"Lock.sol\":44087:44109  newTime += newCycleGap */\n      dup8\n      tag_115\n      jump\t// in\n    tag_264:\n        /* \"Lock.sol\":44143:44153  msg.sender */\n      caller\n        /* \"Lock.sol\":44130:44154  LockedTokens[msg.sender] */\n      0x00\n      swap1\n      dup2\n      mstore\n        /* \"Lock.sol\":44130:44142  LockedTokens */\n      0x01\n        /* \"Lock.sol\":44130:44154  LockedTokens[msg.sender] */\n      0x20\n      swap1\n      dup2\n      mstore\n      0x40\n      dup1\n      dup4\n      keccak256\n        /* \"Lock.sol\":44130:44161  LockedTokens[msg.sender][index] */\n      dup12\n      dup5\n      mstore\n      dup3\n      mstore\n      dup1\n      dup4\n      keccak256\n        /* \"Lock.sol\":44130:44164  LockedTokens[msg.sender][index][i] */\n      dup6\n      dup5\n      mstore\n      swap1\n      swap2\n      mstore\n      swap1\n      keccak256\n        /* \"Lock.sol\":44130:44176  LockedTokens[msg.sender][index][i].releaseTime */\n      0x04\n      add\n        /* \"Lock.sol\":44130:44186  LockedTokens[msg.sender][index][i].releaseTime = newTime */\n      dup2\n      swap1\n      sstore\n        /* \"Lock.sol\":44087:44109  newTime += newCycleGap */\n      swap6\n      pop\n        /* \"Lock.sol\":44162:44163  i */\n      dup1\n        /* \"Lock.sol\":44064:44067  i++ */\n      tag_265\n        /* \"Lock.sol\":44162:44163  i */\n      dup2\n        /* \"Lock.sol\":44064:44067  i++ */\n      tag_104\n      jump\t// in\n    tag_265:\n      swap2\n      pop\n      pop\n        /* \"Lock.sol\":44037:44202  for(uint i = 2; i<= count; i++){... */\n      jump(tag_261)\n    tag_262:\n      pop\n        /* \"Lock.sol\":39475:44222  {... */\n      pop\n        /* \"Lock.sol\":39334:44222  function changeReleaseTimeAndSpread(uint index, uint newTime, uint newCycleGap, uint[] memory newPercentages, uint additionalAmount) external{... */\n      pop\n      pop\n      pop\n      pop\n      pop\n      jump\t// out\n        /* \"Lock.sol\":21729:21988  function safeTransferFrom(... */\n    tag_106:\n        /* \"Lock.sol\":21911:21979  abi.encodeWithSelector(token.transferFrom.selector, from, to, value) */\n      mload(0x40)\n      sub(shl(0xa0, 0x01), 0x01)\n        /* \"#utility.yul\":11610:11625   */\n      dup1\n      dup6\n      and\n        /* \"Lock.sol\":21911:21979  abi.encodeWithSelector(token.transferFrom.selector, from, to, value) */\n      0x24\n      dup4\n      add\n        /* \"#utility.yul\":11592:11626   */\n      mstore\n        /* \"#utility.yul\":11662:11677   */\n      dup4\n      and\n        /* \"#utility.yul\":11642:11660   */\n      0x44\n      dup3\n      add\n        /* \"#utility.yul\":11635:11678   */\n      mstore\n        /* \"#utility.yul\":11694:11712   */\n      0x64\n      dup2\n      add\n        /* \"#utility.yul\":11687:11721   */\n      dup3\n      swap1\n      mstore\n        /* \"Lock.sol\":21884:21980  _callOptionalReturn(token, abi.encodeWithSelector(token.transferFrom.selector, from, to, value)) */\n      tag_269\n      swap1\n        /* \"Lock.sol\":21904:21909  token */\n      dup6\n      swap1\n      shl(0xe0, 0x23b872dd)\n        /* \"Lock.sol\":21934:21961  token.transferFrom.selector */\n      swap1\n        /* \"#utility.yul\":11527:11545   */\n      0x84\n      add\n        /* \"Lock.sol\":21911:21979  abi.encodeWithSelector(token.transferFrom.selector, from, to, value) */\n    tag_270:\n      0x40\n      dup1\n      mload\n      not(0x1f)\n      dup2\n      dup5\n      sub\n      add\n      dup2\n      mstore\n      swap2\n      swap1\n      mstore\n      0x20\n      dup2\n      add\n      dup1\n      mload\n      sub(shl(0xe0, 0x01), 0x01)\n      and\n      not(sub(shl(0xe0, 0x01), 0x01))\n      swap1\n      swap4\n      and\n      swap3\n      swap1\n      swap3\n      or\n      swap1\n      swap2\n      mstore\n        /* \"Lock.sol\":21884:21903  _callOptionalReturn */\n      tag_272\n        /* \"Lock.sol\":21884:21980  _callOptionalReturn(token, abi.encodeWithSelector(token.transferFrom.selector, from, to, value)) */\n      jump\t// in\n    tag_269:\n        /* \"Lock.sol\":21729:21988  function safeTransferFrom(... */\n      pop\n      pop\n      pop\n      pop\n      jump\t// out\n        /* \"Lock.sol\":21499:21721  function safeTransfer(... */\n    tag_131:\n        /* \"Lock.sol\":21654:21712  abi.encodeWithSelector(token.transfer.selector, to, value) */\n      mload(0x40)\n      sub(shl(0xa0, 0x01), 0x01)\n        /* \"#utility.yul\":11924:11956   */\n      dup4\n      and\n        /* \"Lock.sol\":21654:21712  abi.encodeWithSelector(token.transfer.selector, to, value) */\n      0x24\n      dup3\n      add\n        /* \"#utility.yul\":11906:11957   */\n      mstore\n        /* \"#utility.yul\":11973:11991   */\n      0x44\n      dup2\n      add\n        /* \"#utility.yul\":11966:12000   */\n      dup3\n      swap1\n      mstore\n        /* \"Lock.sol\":21627:21713  _callOptionalReturn(token, abi.encodeWithSelector(token.transfer.selector, to, value)) */\n      tag_274\n      swap1\n        /* \"Lock.sol\":21647:21652  token */\n      dup5\n      swap1\n      shl(0xe0, 0xa9059cbb)\n        /* \"Lock.sol\":21677:21700  token.transfer.selector */\n      swap1\n        /* \"#utility.yul\":11879:11897   */\n      0x64\n      add\n        /* \"Lock.sol\":21654:21712  abi.encodeWithSelector(token.transfer.selector, to, value) */\n      tag_270\n        /* \"#utility.yul\":11732:12006   */\n      jump\n        /* \"Lock.sol\":21627:21713  _callOptionalReturn(token, abi.encodeWithSelector(token.transfer.selector, to, value)) */\n    tag_274:\n        /* \"Lock.sol\":21499:21721  function safeTransfer(... */\n      pop\n      pop\n      pop\n      jump\t// out\n        /* \"Lock.sol\":44899:45609  function _normalClaim(uint index) internal{... */\n    tag_188:\n        /* \"Lock.sol\":45008:45018  msg.sender */\n      caller\n        /* \"Lock.sol\":44952:44967  uint claimCount */\n      0x00\n        /* \"Lock.sol\":44995:45019  LockedTokens[msg.sender] */\n      swap1\n      dup2\n      mstore\n        /* \"Lock.sol\":44970:44971  1 */\n      0x01\n        /* \"Lock.sol\":44995:45019  LockedTokens[msg.sender] */\n      0x20\n      dup2\n      dup2\n      mstore\n      0x40\n      dup1\n      dup5\n      keccak256\n        /* \"Lock.sol\":44995:45026  LockedTokens[msg.sender][index] */\n      dup6\n      dup6\n      mstore\n      dup3\n      mstore\n      dup1\n      dup5\n      keccak256\n        /* \"Lock.sol\":44995:45038  LockedTokens[msg.sender][index][claimCount] */\n      dup4\n      dup6\n      mstore\n      swap1\n      swap2\n      mstore\n      swap1\n      swap2\n      keccak256\n        /* \"Lock.sol\":44995:45046  LockedTokens[msg.sender][index][claimCount].Claimed */\n      0x05\n      add\n      sload\n      0x0100\n      swap1\n      div\n      0xff\n      and\n        /* \"Lock.sol\":44994:45046  !LockedTokens[msg.sender][index][claimCount].Claimed */\n      iszero\n        /* \"Lock.sol\":44986:45058  require(!LockedTokens[msg.sender][index][claimCount].Claimed, \"Claimed\") */\n      tag_278\n      jumpi\n      mload(0x40)\n      shl(0xe5, 0x461bcd)\n      dup2\n      mstore\n        /* \"#utility.yul\":6955:6957   */\n      0x20\n        /* \"Lock.sol\":44986:45058  require(!LockedTokens[msg.sender][index][claimCount].Claimed, \"Claimed\") */\n      0x04\n      dup3\n      add\n        /* \"#utility.yul\":6937:6958   */\n      mstore\n        /* \"#utility.yul\":6994:6995   */\n      0x07\n        /* \"#utility.yul\":6974:6992   */\n      0x24\n      dup3\n      add\n        /* \"#utility.yul\":6967:6996   */\n      mstore\n      shl(0xca, 0x10db185a5b5959)\n        /* \"#utility.yul\":7012:7030   */\n      0x44\n      dup3\n      add\n        /* \"#utility.yul\":7005:7042   */\n      mstore\n        /* \"#utility.yul\":7059:7077   */\n      0x64\n      add\n        /* \"Lock.sol\":44986:45058  require(!LockedTokens[msg.sender][index][claimCount].Claimed, \"Claimed\") */\n      tag_112\n        /* \"#utility.yul\":6753:7083   */\n      jump\n        /* \"Lock.sol\":44986:45058  require(!LockedTokens[msg.sender][index][claimCount].Claimed, \"Claimed\") */\n    tag_278:\n        /* \"Lock.sol\":45110:45120  msg.sender */\n      caller\n        /* \"Lock.sol\":45097:45121  LockedTokens[msg.sender] */\n      0x00\n      swap1\n      dup2\n      mstore\n        /* \"Lock.sol\":45097:45109  LockedTokens */\n      0x01\n        /* \"Lock.sol\":45097:45121  LockedTokens[msg.sender] */\n      0x20\n      swap1\n      dup2\n      mstore\n      0x40\n      dup1\n      dup4\n      keccak256\n        /* \"Lock.sol\":45097:45128  LockedTokens[msg.sender][index] */\n      dup6\n      dup5\n      mstore\n      dup3\n      mstore\n      dup1\n      dup4\n      keccak256\n        /* \"Lock.sol\":45097:45140  LockedTokens[msg.sender][index][claimCount] */\n      dup5\n      dup5\n      mstore\n      swap1\n      swap2\n      mstore\n      swap1\n      keccak256\n        /* \"Lock.sol\":45097:45152  LockedTokens[msg.sender][index][claimCount].releaseTime */\n      0x04\n      add\n      sload\n        /* \"Lock.sol\":45079:45094  block.timestamp */\n      timestamp\n        /* \"Lock.sol\":45079:45152  block.timestamp > LockedTokens[msg.sender][index][claimCount].releaseTime */\n      gt\n        /* \"Lock.sol\":45071:45181  require(block.timestamp > LockedTokens[msg.sender][index][claimCount].releaseTime, \"Release Time Not Reached\") */\n      tag_280\n      jumpi\n      mload(0x40)\n      shl(0xe5, 0x461bcd)\n      dup2\n      mstore\n        /* \"#utility.yul\":12213:12215   */\n      0x20\n        /* \"Lock.sol\":45071:45181  require(block.timestamp > LockedTokens[msg.sender][index][claimCount].releaseTime, \"Release Time Not Reached\") */\n      0x04\n      dup3\n      add\n        /* \"#utility.yul\":12195:12216   */\n      mstore\n        /* \"#utility.yul\":12252:12254   */\n      0x18\n        /* \"#utility.yul\":12232:12250   */\n      0x24\n      dup3\n      add\n        /* \"#utility.yul\":12225:12255   */\n      mstore\n        /* \"#utility.yul\":12291:12317   */\n      0x52656c656173652054696d65204e6f7420526561636865640000000000000000\n        /* \"#utility.yul\":12271:12289   */\n      0x44\n      dup3\n      add\n        /* \"#utility.yul\":12264:12318   */\n      mstore\n        /* \"#utility.yul\":12335:12353   */\n      0x64\n      add\n        /* \"Lock.sol\":45071:45181  require(block.timestamp > LockedTokens[msg.sender][index][claimCount].releaseTime, \"Release Time Not Reached\") */\n      tag_112\n        /* \"#utility.yul\":12011:12359   */\n      jump\n        /* \"Lock.sol\":45071:45181  require(block.timestamp > LockedTokens[msg.sender][index][claimCount].releaseTime, \"Release Time Not Reached\") */\n    tag_280:\n        /* \"Lock.sol\":45228:45238  msg.sender */\n      caller\n        /* \"Lock.sol\":45198:45212  address _token */\n      0x00\n        /* \"Lock.sol\":45215:45239  LockedTokens[msg.sender] */\n      swap1\n      dup2\n      mstore\n        /* \"Lock.sol\":45215:45227  LockedTokens */\n      0x01\n        /* \"Lock.sol\":45215:45239  LockedTokens[msg.sender] */\n      0x20\n      dup2\n      dup2\n      mstore\n      0x40\n      dup1\n      dup5\n      keccak256\n        /* \"Lock.sol\":45215:45246  LockedTokens[msg.sender][index] */\n      dup7\n      dup6\n      mstore\n      dup3\n      mstore\n      dup1\n      dup5\n      keccak256\n        /* \"Lock.sol\":45215:45258  LockedTokens[msg.sender][index][claimCount] */\n      dup6\n      dup6\n      mstore\n      swap1\n      swap2\n      mstore\n      swap1\n      swap2\n      keccak256\n        /* \"Lock.sol\":45215:45264  LockedTokens[msg.sender][index][claimCount].Token */\n      swap1\n      dup2\n      add\n      sload\n        /* \"Lock.sol\":45302:45357  LockedTokens[msg.sender][index][claimCount].Beneficiary */\n      0x02\n      dup3\n      add\n      sload\n        /* \"Lock.sol\":45392:45442  LockedTokens[msg.sender][index][claimCount].amount */\n      0x03\n      dup4\n      add\n      sload\n        /* \"Lock.sol\":45461:45512  LockedTokens[msg.sender][index][claimCount].Claimed */\n      0x05\n      swap1\n      swap4\n      add\n        /* \"Lock.sol\":45461:45520  LockedTokens[msg.sender][index][claimCount].Claimed =  true */\n      dup1\n      sload\n      not(0xff00)\n      and\n        /* \"Lock.sol\":45215:45264  LockedTokens[msg.sender][index][claimCount].Token */\n      0x0100\n        /* \"Lock.sol\":45461:45520  LockedTokens[msg.sender][index][claimCount].Claimed =  true */\n      or\n      swap1\n      sstore\n      sub(shl(0xa0, 0x01), 0x01)\n        /* \"Lock.sol\":45215:45264  LockedTokens[msg.sender][index][claimCount].Token */\n      swap2\n      dup3\n      and\n      swap3\n        /* \"Lock.sol\":45302:45357  LockedTokens[msg.sender][index][claimCount].Beneficiary */\n      swap2\n      and\n      swap1\n        /* \"Lock.sol\":45539:45601  IERC20Upgradeable(_token).safeTransfer(_beneficiary, amount__) */\n      tag_283\n        /* \"Lock.sol\":45215:45264  LockedTokens[msg.sender][index][claimCount].Token */\n      dup4\n        /* \"Lock.sol\":45302:45357  LockedTokens[msg.sender][index][claimCount].Beneficiary */\n      dup4\n        /* \"Lock.sol\":45392:45442  LockedTokens[msg.sender][index][claimCount].amount */\n      dup4\n        /* \"Lock.sol\":45539:45577  IERC20Upgradeable(_token).safeTransfer */\n      tag_131\n        /* \"Lock.sol\":45539:45601  IERC20Upgradeable(_token).safeTransfer(_beneficiary, amount__) */\n      jump\t// in\n    tag_283:\n        /* \"Lock.sol\":44941:45609  {... */\n      pop\n      pop\n      pop\n      pop\n        /* \"Lock.sol\":44899:45609  function _normalClaim(uint index) internal{... */\n      pop\n      jump\t// out\n        /* \"Lock.sol\":24632:25359  function _callOptionalReturn(IERC20Upgradeable token, bytes memory data) private {... */\n    tag_272:\n        /* \"Lock.sol\":25067:25090  bytes memory returndata */\n      0x00\n        /* \"Lock.sol\":25093:25162  address(token).functionCall(data, \"SafeERC20: low-level call failed\") */\n      tag_285\n        /* \"Lock.sol\":25121:25125  data */\n      dup3\n        /* \"Lock.sol\":25093:25162  address(token).functionCall(data, \"SafeERC20: low-level call failed\") */\n      mload(0x40)\n      dup1\n      0x40\n      add\n      0x40\n      mstore\n      dup1\n      0x20\n      dup2\n      mstore\n      0x20\n      add\n      0x5361666545524332303a206c6f772d6c6576656c2063616c6c206661696c6564\n      dup2\n      mstore\n      pop\n        /* \"Lock.sol\":25101:25106  token */\n      dup6\n      sub(shl(0xa0, 0x01), 0x01)\n        /* \"Lock.sol\":25093:25120  address(token).functionCall */\n      and\n      tag_286\n      swap1\n        /* \"Lock.sol\":25093:25162  address(token).functionCall(data, \"SafeERC20: low-level call failed\") */\n      swap3\n      swap2\n      swap1\n      0xffffffff\n      and\n      jump\t// in\n    tag_285:\n        /* \"Lock.sol\":25177:25194  returndata.length */\n      dup1\n      mload\n        /* \"Lock.sol\":25067:25162  bytes memory returndata = address(token).functionCall(data, \"SafeERC20: low-level call failed\") */\n      swap1\n      swap2\n      pop\n        /* \"Lock.sol\":25177:25198  returndata.length > 0 */\n      iszero\n        /* \"Lock.sol\":25173:25352  if (returndata.length > 0) {... */\n      tag_274\n      jumpi\n        /* \"Lock.sol\":25274:25284  returndata */\n      dup1\n        /* \"Lock.sol\":25263:25293  abi.decode(returndata, (bool)) */\n      dup1\n      0x20\n      add\n      swap1\n      mload\n      dup2\n      add\n      swap1\n      tag_288\n      swap2\n      swap1\n      tag_289\n      jump\t// in\n    tag_288:\n        /* \"Lock.sol\":25255:25340  require(abi.decode(returndata, (bool)), \"SafeERC20: ERC20 operation did not succeed\") */\n      tag_274\n      jumpi\n      mload(0x40)\n      shl(0xe5, 0x461bcd)\n      dup2\n      mstore\n        /* \"#utility.yul\":12816:12818   */\n      0x20\n        /* \"Lock.sol\":25255:25340  require(abi.decode(returndata, (bool)), \"SafeERC20: ERC20 operation did not succeed\") */\n      0x04\n      dup3\n      add\n        /* \"#utility.yul\":12798:12819   */\n      mstore\n        /* \"#utility.yul\":12855:12857   */\n      0x2a\n        /* \"#utility.yul\":12835:12853   */\n      0x24\n      dup3\n      add\n        /* \"#utility.yul\":12828:12858   */\n      mstore\n        /* \"#utility.yul\":12894:12928   */\n      0x5361666545524332303a204552433230206f7065726174696f6e20646964206e\n        /* \"#utility.yul\":12874:12892   */\n      0x44\n      dup3\n      add\n        /* \"#utility.yul\":12867:12929   */\n      mstore\n      shl(0xb2, 0x1bdd081cdd58d8d95959)\n        /* \"#utility.yul\":12945:12963   */\n      0x64\n      dup3\n      add\n        /* \"#utility.yul\":12938:12978   */\n      mstore\n        /* \"#utility.yul\":12995:13014   */\n      0x84\n      add\n        /* \"Lock.sol\":25255:25340  require(abi.decode(returndata, (bool)), \"SafeERC20: ERC20 operation did not succeed\") */\n      tag_112\n        /* \"#utility.yul\":12614:13020   */\n      jump\n        /* \"Lock.sol\":4102:4331  function functionCall(... */\n    tag_286:\n        /* \"Lock.sol\":4239:4251  bytes memory */\n      0x60\n        /* \"Lock.sol\":4271:4323  functionCallWithValue(target, data, 0, errorMessage) */\n      tag_294\n        /* \"Lock.sol\":4293:4299  target */\n      dup5\n        /* \"Lock.sol\":4301:4305  data */\n      dup5\n        /* \"Lock.sol\":4307:4308  0 */\n      0x00\n        /* \"Lock.sol\":4310:4322  errorMessage */\n      dup6\n        /* \"Lock.sol\":4271:4292  functionCallWithValue */\n      tag_295\n        /* \"Lock.sol\":4271:4323  functionCallWithValue(target, data, 0, errorMessage) */\n      jump\t// in\n    tag_294:\n        /* \"Lock.sol\":4264:4323  return functionCallWithValue(target, data, 0, errorMessage) */\n      swap5\n        /* \"Lock.sol\":4102:4331  function functionCall(... */\n      swap4\n      pop\n      pop\n      pop\n      pop\n      jump\t// out\n        /* \"Lock.sol\":5222:5677  function functionCallWithValue(... */\n    tag_295:\n        /* \"Lock.sol\":5392:5404  bytes memory */\n      0x60\n        /* \"Lock.sol\":5450:5455  value */\n      dup3\n        /* \"Lock.sol\":5425:5446  address(this).balance */\n      selfbalance\n        /* \"Lock.sol\":5425:5455  address(this).balance >= value */\n      lt\n      iszero\n        /* \"Lock.sol\":5417:5498  require(address(this).balance >= value, \"Address: insufficient balance for call\") */\n      tag_297\n      jumpi\n      mload(0x40)\n      shl(0xe5, 0x461bcd)\n      dup2\n      mstore\n        /* \"#utility.yul\":13227:13229   */\n      0x20\n        /* \"Lock.sol\":5417:5498  require(address(this).balance >= value, \"Address: insufficient balance for call\") */\n      0x04\n      dup3\n      add\n        /* \"#utility.yul\":13209:13230   */\n      mstore\n        /* \"#utility.yul\":13266:13268   */\n      0x26\n        /* \"#utility.yul\":13246:13264   */\n      0x24\n      dup3\n      add\n        /* \"#utility.yul\":13239:13269   */\n      mstore\n        /* \"#utility.yul\":13305:13339   */\n      0x416464726573733a20696e73756666696369656e742062616c616e636520666f\n        /* \"#utility.yul\":13285:13303   */\n      0x44\n      dup3\n      add\n        /* \"#utility.yul\":13278:13340   */\n      mstore\n      shl(0xd2, 0x1c8818d85b1b)\n        /* \"#utility.yul\":13356:13374   */\n      0x64\n      dup3\n      add\n        /* \"#utility.yul\":13349:13385   */\n      mstore\n        /* \"#utility.yul\":13402:13421   */\n      0x84\n      add\n        /* \"Lock.sol\":5417:5498  require(address(this).balance >= value, \"Address: insufficient balance for call\") */\n      tag_112\n        /* \"#utility.yul\":13025:13427   */\n      jump\n        /* \"Lock.sol\":5417:5498  require(address(this).balance >= value, \"Address: insufficient balance for call\") */\n    tag_297:\n        /* \"Lock.sol\":5510:5522  bool success */\n      0x00\n        /* \"Lock.sol\":5524:5547  bytes memory returndata */\n      dup1\n        /* \"Lock.sol\":5551:5557  target */\n      dup7\n      sub(shl(0xa0, 0x01), 0x01)\n        /* \"Lock.sol\":5551:5562  target.call */\n      and\n        /* \"Lock.sol\":5570:5575  value */\n      dup6\n        /* \"Lock.sol\":5577:5581  data */\n      dup8\n        /* \"Lock.sol\":5551:5582  target.call{value: value}(data) */\n      mload(0x40)\n      tag_300\n      swap2\n      swap1\n      tag_301\n      jump\t// in\n    tag_300:\n      0x00\n      mload(0x40)\n      dup1\n      dup4\n      sub\n      dup2\n      dup6\n      dup8\n      gas\n      call\n      swap3\n      pop\n      pop\n      pop\n      returndatasize\n      dup1\n      0x00\n      dup2\n      eq\n      tag_304\n      jumpi\n      mload(0x40)\n      swap2\n      pop\n      and(add(returndatasize, 0x3f), not(0x1f))\n      dup3\n      add\n      0x40\n      mstore\n      returndatasize\n      dup3\n      mstore\n      returndatasize\n      0x00\n      0x20\n      dup5\n      add\n      returndatacopy\n      jump(tag_303)\n    tag_304:\n      0x60\n      swap2\n      pop\n    tag_303:\n      pop\n        /* \"Lock.sol\":5509:5582  (bool success, bytes memory returndata) = target.call{value: value}(data) */\n      swap2\n      pop\n      swap2\n      pop\n        /* \"Lock.sol\":5600:5669  verifyCallResultFromTarget(target, success, returndata, errorMessage) */\n      tag_305\n        /* \"Lock.sol\":5627:5633  target */\n      dup8\n        /* \"Lock.sol\":5635:5642  success */\n      dup4\n        /* \"Lock.sol\":5644:5654  returndata */\n      dup4\n        /* \"Lock.sol\":5656:5668  errorMessage */\n      dup8\n        /* \"Lock.sol\":5600:5626  verifyCallResultFromTarget */\n      tag_306\n        /* \"Lock.sol\":5600:5669  verifyCallResultFromTarget(target, success, returndata, errorMessage) */\n      jump\t// in\n    tag_305:\n        /* \"Lock.sol\":5593:5669  return verifyCallResultFromTarget(target, success, returndata, errorMessage) */\n      swap8\n        /* \"Lock.sol\":5222:5677  function functionCallWithValue(... */\n      swap7\n      pop\n      pop\n      pop\n      pop\n      pop\n      pop\n      pop\n      jump\t// out\n        /* \"Lock.sol\":6882:7526  function verifyCallResultFromTarget(... */\n    tag_306:\n        /* \"Lock.sol\":7067:7079  bytes memory */\n      0x60\n        /* \"Lock.sol\":7096:7103  success */\n      dup4\n        /* \"Lock.sol\":7092:7519  if (success) {... */\n      iszero\n      tag_308\n      jumpi\n        /* \"Lock.sol\":7124:7134  returndata */\n      dup3\n        /* \"Lock.sol\":7124:7141  returndata.length */\n      mload\n        /* \"Lock.sol\":7145:7146  0 */\n      0x00\n        /* \"Lock.sol\":7124:7146  returndata.length == 0 */\n      sub\n        /* \"Lock.sol\":7120:7410  if (returndata.length == 0) {... */\n      tag_312\n      jumpi\n      sub(shl(0xa0, 0x01), 0x01)\n        /* \"Lock.sol\":1640:1659  account.code.length */\n      dup6\n      and\n      extcodesize\n        /* \"Lock.sol\":7334:7394  require(isContract(target), \"Address: call to non-contract\") */\n      tag_312\n      jumpi\n      mload(0x40)\n      shl(0xe5, 0x461bcd)\n      dup2\n      mstore\n        /* \"#utility.yul\":14181:14183   */\n      0x20\n        /* \"Lock.sol\":7334:7394  require(isContract(target), \"Address: call to non-contract\") */\n      0x04\n      dup3\n      add\n        /* \"#utility.yul\":14163:14184   */\n      mstore\n        /* \"#utility.yul\":14220:14222   */\n      0x1d\n        /* \"#utility.yul\":14200:14218   */\n      0x24\n      dup3\n      add\n        /* \"#utility.yul\":14193:14223   */\n      mstore\n        /* \"#utility.yul\":14259:14290   */\n      0x416464726573733a2063616c6c20746f206e6f6e2d636f6e7472616374000000\n        /* \"#utility.yul\":14239:14257   */\n      0x44\n      dup3\n      add\n        /* \"#utility.yul\":14232:14291   */\n      mstore\n        /* \"#utility.yul\":14308:14326   */\n      0x64\n      add\n        /* \"Lock.sol\":7334:7394  require(isContract(target), \"Address: call to non-contract\") */\n      tag_112\n        /* \"#utility.yul\":13979:14332   */\n      jump\n        /* \"Lock.sol\":7334:7394  require(isContract(target), \"Address: call to non-contract\") */\n    tag_312:\n      pop\n        /* \"Lock.sol\":7431:7441  returndata */\n      dup2\n        /* \"Lock.sol\":7424:7441  return returndata */\n      jump(tag_294)\n        /* \"Lock.sol\":7092:7519  if (success) {... */\n    tag_308:\n        /* \"Lock.sol\":7474:7507  _revert(returndata, errorMessage) */\n      tag_294\n        /* \"Lock.sol\":7482:7492  returndata */\n      dup4\n        /* \"Lock.sol\":7494:7506  errorMessage */\n      dup4\n        /* \"Lock.sol\":8229:8246  returndata.length */\n      dup2\n      mload\n        /* \"Lock.sol\":8229:8250  returndata.length > 0 */\n      iszero\n        /* \"Lock.sol\":8225:8613  if (returndata.length > 0) {... */\n      tag_320\n      jumpi\n        /* \"Lock.sol\":8461:8471  returndata */\n      dup2\n        /* \"Lock.sol\":8455:8472  mload(returndata) */\n      mload\n        /* \"Lock.sol\":8518:8533  returndata_size */\n      dup1\n        /* \"Lock.sol\":8505:8515  returndata */\n      dup4\n        /* \"Lock.sol\":8501:8503  32 */\n      0x20\n        /* \"Lock.sol\":8497:8516  add(32, returndata) */\n      add\n        /* \"Lock.sol\":8490:8534  revert(add(32, returndata), returndata_size) */\n      revert\n        /* \"Lock.sol\":8225:8613  if (returndata.length > 0) {... */\n    tag_320:\n        /* \"Lock.sol\":8588:8600  errorMessage */\n      dup1\n        /* \"Lock.sol\":8581:8601  revert(errorMessage) */\n      mload(0x40)\n      shl(0xe5, 0x461bcd)\n      dup2\n      mstore\n      0x04\n      add\n      tag_112\n      swap2\n      swap1\n      tag_323\n      jump\t// in\n        /* \"#utility.yul\":14:187   */\n    tag_324:\n        /* \"#utility.yul\":82:102   */\n      dup1\n      calldataload\n      sub(shl(0xa0, 0x01), 0x01)\n        /* \"#utility.yul\":131:162   */\n      dup2\n      and\n        /* \"#utility.yul\":121:163   */\n      dup2\n      eq\n        /* \"#utility.yul\":111:181   */\n      tag_331\n      jumpi\n        /* \"#utility.yul\":177:178   */\n      0x00\n        /* \"#utility.yul\":174:175   */\n      dup1\n        /* \"#utility.yul\":167:179   */\n      revert\n        /* \"#utility.yul\":111:181   */\n    tag_331:\n        /* \"#utility.yul\":14:187   */\n      swap2\n      swap1\n      pop\n      jump\t// out\n        /* \"#utility.yul\":192:514   */\n    tag_25:\n        /* \"#utility.yul\":269:275   */\n      0x00\n        /* \"#utility.yul\":277:283   */\n      dup1\n        /* \"#utility.yul\":285:291   */\n      0x00\n        /* \"#utility.yul\":338:340   */\n      0x60\n        /* \"#utility.yul\":326:335   */\n      dup5\n        /* \"#utility.yul\":317:324   */\n      dup7\n        /* \"#utility.yul\":313:336   */\n      sub\n        /* \"#utility.yul\":309:341   */\n      slt\n        /* \"#utility.yul\":306:358   */\n      iszero\n      tag_333\n      jumpi\n        /* \"#utility.yul\":354:355   */\n      0x00\n        /* \"#utility.yul\":351:352   */\n      dup1\n        /* \"#utility.yul\":344:356   */\n      revert\n        /* \"#utility.yul\":306:358   */\n    tag_333:\n        /* \"#utility.yul\":377:406   */\n      tag_334\n        /* \"#utility.yul\":396:405   */\n      dup5\n        /* \"#utility.yul\":377:406   */\n      tag_324\n      jump\t// in\n    tag_334:\n        /* \"#utility.yul\":367:406   */\n      swap6\n        /* \"#utility.yul\":453:455   */\n      0x20\n        /* \"#utility.yul\":438:456   */\n      dup6\n      add\n        /* \"#utility.yul\":425:457   */\n      calldataload\n      swap6\n      pop\n        /* \"#utility.yul\":504:506   */\n      0x40\n        /* \"#utility.yul\":489:507   */\n      swap1\n      swap5\n      add\n        /* \"#utility.yul\":476:508   */\n      calldataload\n      swap4\n        /* \"#utility.yul\":192:514   */\n      swap3\n      pop\n      pop\n      pop\n      jump\t// out\n        /* \"#utility.yul\":1420:1674   */\n    tag_36:\n        /* \"#utility.yul\":1488:1494   */\n      0x00\n        /* \"#utility.yul\":1496:1502   */\n      dup1\n        /* \"#utility.yul\":1549:1551   */\n      0x40\n        /* \"#utility.yul\":1537:1546   */\n      dup4\n        /* \"#utility.yul\":1528:1535   */\n      dup6\n        /* \"#utility.yul\":1524:1547   */\n      sub\n        /* \"#utility.yul\":1520:1552   */\n      slt\n        /* \"#utility.yul\":1517:1569   */\n      iszero\n      tag_338\n      jumpi\n        /* \"#utility.yul\":1565:1566   */\n      0x00\n        /* \"#utility.yul\":1562:1563   */\n      dup1\n        /* \"#utility.yul\":1555:1567   */\n      revert\n        /* \"#utility.yul\":1517:1569   */\n    tag_338:\n        /* \"#utility.yul\":1588:1617   */\n      tag_339\n        /* \"#utility.yul\":1607:1616   */\n      dup4\n        /* \"#utility.yul\":1588:1617   */\n      tag_324\n      jump\t// in\n    tag_339:\n        /* \"#utility.yul\":1578:1617   */\n      swap5\n        /* \"#utility.yul\":1664:1666   */\n      0x20\n        /* \"#utility.yul\":1649:1667   */\n      swap4\n      swap1\n      swap4\n      add\n        /* \"#utility.yul\":1636:1668   */\n      calldataload\n      swap4\n      pop\n      pop\n      pop\n        /* \"#utility.yul\":1420:1674   */\n      jump\t// out\n        /* \"#utility.yul\":1861:1979   */\n    tag_325:\n        /* \"#utility.yul\":1947:1952   */\n      dup1\n        /* \"#utility.yul\":1940:1953   */\n      iszero\n        /* \"#utility.yul\":1933:1954   */\n      iszero\n        /* \"#utility.yul\":1926:1931   */\n      dup2\n        /* \"#utility.yul\":1923:1955   */\n      eq\n        /* \"#utility.yul\":1913:1973   */\n      tag_187\n      jumpi\n        /* \"#utility.yul\":1969:1970   */\n      0x00\n        /* \"#utility.yul\":1966:1967   */\n      dup1\n        /* \"#utility.yul\":1959:1971   */\n      revert\n        /* \"#utility.yul\":1984:2586   */\n    tag_46:\n        /* \"#utility.yul\":2085:2091   */\n      0x00\n        /* \"#utility.yul\":2093:2099   */\n      dup1\n        /* \"#utility.yul\":2101:2107   */\n      0x00\n        /* \"#utility.yul\":2109:2115   */\n      dup1\n        /* \"#utility.yul\":2117:2123   */\n      0x00\n        /* \"#utility.yul\":2125:2131   */\n      dup1\n        /* \"#utility.yul\":2178:2181   */\n      0xc0\n        /* \"#utility.yul\":2166:2175   */\n      dup8\n        /* \"#utility.yul\":2157:2164   */\n      dup10\n        /* \"#utility.yul\":2153:2176   */\n      sub\n        /* \"#utility.yul\":2149:2182   */\n      slt\n        /* \"#utility.yul\":2146:2199   */\n      iszero\n      tag_344\n      jumpi\n        /* \"#utility.yul\":2195:2196   */\n      0x00\n        /* \"#utility.yul\":2192:2193   */\n      dup1\n        /* \"#utility.yul\":2185:2197   */\n      revert\n        /* \"#utility.yul\":2146:2199   */\n    tag_344:\n        /* \"#utility.yul\":2218:2247   */\n      tag_345\n        /* \"#utility.yul\":2237:2246   */\n      dup8\n        /* \"#utility.yul\":2218:2247   */\n      tag_324\n      jump\t// in\n    tag_345:\n        /* \"#utility.yul\":2208:2247   */\n      swap6\n      pop\n        /* \"#utility.yul\":2266:2304   */\n      tag_346\n        /* \"#utility.yul\":2300:2302   */\n      0x20\n        /* \"#utility.yul\":2289:2298   */\n      dup9\n        /* \"#utility.yul\":2285:2303   */\n      add\n        /* \"#utility.yul\":2266:2304   */\n      tag_324\n      jump\t// in\n    tag_346:\n        /* \"#utility.yul\":2256:2304   */\n      swap5\n      pop\n        /* \"#utility.yul\":2323:2361   */\n      tag_347\n        /* \"#utility.yul\":2357:2359   */\n      0x40\n        /* \"#utility.yul\":2346:2355   */\n      dup9\n        /* \"#utility.yul\":2342:2360   */\n      add\n        /* \"#utility.yul\":2323:2361   */\n      tag_324\n      jump\t// in\n    tag_347:\n        /* \"#utility.yul\":2313:2361   */\n      swap4\n      pop\n        /* \"#utility.yul\":2408:2410   */\n      0x60\n        /* \"#utility.yul\":2397:2406   */\n      dup8\n        /* \"#utility.yul\":2393:2411   */\n      add\n        /* \"#utility.yul\":2380:2412   */\n      calldataload\n        /* \"#utility.yul\":2370:2412   */\n      swap3\n      pop\n        /* \"#utility.yul\":2459:2462   */\n      0x80\n        /* \"#utility.yul\":2448:2457   */\n      dup8\n        /* \"#utility.yul\":2444:2463   */\n      add\n        /* \"#utility.yul\":2431:2464   */\n      calldataload\n        /* \"#utility.yul\":2421:2464   */\n      swap2\n      pop\n        /* \"#utility.yul\":2514:2517   */\n      0xa0\n        /* \"#utility.yul\":2503:2512   */\n      dup8\n        /* \"#utility.yul\":2499:2518   */\n      add\n        /* \"#utility.yul\":2486:2519   */\n      calldataload\n        /* \"#utility.yul\":2528:2556   */\n      tag_348\n        /* \"#utility.yul\":2550:2555   */\n      dup2\n        /* \"#utility.yul\":2528:2556   */\n      tag_325\n      jump\t// in\n    tag_348:\n        /* \"#utility.yul\":2575:2580   */\n      dup1\n        /* \"#utility.yul\":2565:2580   */\n      swap2\n      pop\n      pop\n        /* \"#utility.yul\":1984:2586   */\n      swap3\n      swap6\n      pop\n      swap3\n      swap6\n      pop\n      swap3\n      swap6\n      jump\t// out\n        /* \"#utility.yul\":2799:2979   */\n    tag_59:\n        /* \"#utility.yul\":2858:2864   */\n      0x00\n        /* \"#utility.yul\":2911:2913   */\n      0x20\n        /* \"#utility.yul\":2899:2908   */\n      dup3\n        /* \"#utility.yul\":2890:2897   */\n      dup5\n        /* \"#utility.yul\":2886:2909   */\n      sub\n        /* \"#utility.yul\":2882:2914   */\n      slt\n        /* \"#utility.yul\":2879:2931   */\n      iszero\n      tag_351\n      jumpi\n        /* \"#utility.yul\":2927:2928   */\n      0x00\n        /* \"#utility.yul\":2924:2925   */\n      dup1\n        /* \"#utility.yul\":2917:2929   */\n      revert\n        /* \"#utility.yul\":2879:2931   */\n    tag_351:\n      pop\n        /* \"#utility.yul\":2950:2973   */\n      calldataload\n      swap2\n        /* \"#utility.yul\":2799:2979   */\n      swap1\n      pop\n      jump\t// out\n        /* \"#utility.yul\":2984:3176   */\n    tag_63:\n        /* \"#utility.yul\":3068:3074   */\n      0x00\n        /* \"#utility.yul\":3121:3124   */\n      0x0120\n        /* \"#utility.yul\":3109:3118   */\n      dup3\n        /* \"#utility.yul\":3100:3107   */\n      dup5\n        /* \"#utility.yul\":3096:3119   */\n      sub\n        /* \"#utility.yul\":3092:3125   */\n      slt\n        /* \"#utility.yul\":3089:3142   */\n      iszero\n      tag_353\n      jumpi\n        /* \"#utility.yul\":3138:3139   */\n      0x00\n        /* \"#utility.yul\":3135:3136   */\n      dup1\n        /* \"#utility.yul\":3128:3140   */\n      revert\n        /* \"#utility.yul\":3089:3142   */\n    tag_353:\n      pop\n        /* \"#utility.yul\":3161:3170   */\n      swap2\n        /* \"#utility.yul\":2984:3176   */\n      swap1\n      pop\n      jump\t// out\n        /* \"#utility.yul\":3878:4132   */\n    tag_72:\n        /* \"#utility.yul\":3946:3952   */\n      0x00\n        /* \"#utility.yul\":3954:3960   */\n      dup1\n        /* \"#utility.yul\":4007:4009   */\n      0x40\n        /* \"#utility.yul\":3995:4004   */\n      dup4\n        /* \"#utility.yul\":3986:3993   */\n      dup6\n        /* \"#utility.yul\":3982:4005   */\n      sub\n        /* \"#utility.yul\":3978:4010   */\n      slt\n        /* \"#utility.yul\":3975:4027   */\n      iszero\n      tag_356\n      jumpi\n        /* \"#utility.yul\":4023:4024   */\n      0x00\n        /* \"#utility.yul\":4020:4021   */\n      dup1\n        /* \"#utility.yul\":4013:4025   */\n      revert\n        /* \"#utility.yul\":3975:4027   */\n    tag_356:\n        /* \"#utility.yul\":4059:4068   */\n      dup3\n        /* \"#utility.yul\":4046:4069   */\n      calldataload\n        /* \"#utility.yul\":4036:4069   */\n      swap2\n      pop\n        /* \"#utility.yul\":4088:4126   */\n      tag_357\n        /* \"#utility.yul\":4122:4124   */\n      0x20\n        /* \"#utility.yul\":4111:4120   */\n      dup5\n        /* \"#utility.yul\":4107:4125   */\n      add\n        /* \"#utility.yul\":4088:4126   */\n      tag_324\n      jump\t// in\n    tag_357:\n        /* \"#utility.yul\":4078:4126   */\n      swap1\n      pop\n        /* \"#utility.yul\":3878:4132   */\n      swap3\n      pop\n      swap3\n      swap1\n      pop\n      jump\t// out\n        /* \"#utility.yul\":4137:4264   */\n    tag_326:\n        /* \"#utility.yul\":4198:4208   */\n      0x4e487b71\n        /* \"#utility.yul\":4193:4196   */\n      0xe0\n        /* \"#utility.yul\":4189:4209   */\n      shl\n        /* \"#utility.yul\":4186:4187   */\n      0x00\n        /* \"#utility.yul\":4179:4210   */\n      mstore\n        /* \"#utility.yul\":4229:4233   */\n      0x41\n        /* \"#utility.yul\":4226:4227   */\n      0x04\n        /* \"#utility.yul\":4219:4234   */\n      mstore\n        /* \"#utility.yul\":4253:4257   */\n      0x24\n        /* \"#utility.yul\":4250:4251   */\n      0x00\n        /* \"#utility.yul\":4243:4258   */\n      revert\n        /* \"#utility.yul\":4269:5658   */\n    tag_87:\n        /* \"#utility.yul\":4389:4395   */\n      0x00\n        /* \"#utility.yul\":4397:4403   */\n      dup1\n        /* \"#utility.yul\":4405:4411   */\n      0x00\n        /* \"#utility.yul\":4413:4419   */\n      dup1\n        /* \"#utility.yul\":4421:4427   */\n      0x00\n        /* \"#utility.yul\":4474:4477   */\n      0xa0\n        /* \"#utility.yul\":4462:4471   */\n      dup7\n        /* \"#utility.yul\":4453:4460   */\n      dup9\n        /* \"#utility.yul\":4449:4472   */\n      sub\n        /* \"#utility.yul\":4445:4478   */\n      slt\n        /* \"#utility.yul\":4442:4495   */\n      iszero\n      tag_360\n      jumpi\n        /* \"#utility.yul\":4491:4492   */\n      0x00\n        /* \"#utility.yul\":4488:4489   */\n      dup1\n        /* \"#utility.yul\":4481:4493   */\n      revert\n        /* \"#utility.yul\":4442:4495   */\n    tag_360:\n        /* \"#utility.yul\":4527:4536   */\n      dup6\n        /* \"#utility.yul\":4514:4537   */\n      calldataload\n        /* \"#utility.yul\":4504:4537   */\n      swap5\n      pop\n        /* \"#utility.yul\":4556:4558   */\n      0x20\n        /* \"#utility.yul\":4605:4607   */\n      dup1\n        /* \"#utility.yul\":4594:4603   */\n      dup8\n        /* \"#utility.yul\":4590:4608   */\n      add\n        /* \"#utility.yul\":4577:4609   */\n      calldataload\n        /* \"#utility.yul\":4567:4609   */\n      swap5\n      pop\n        /* \"#utility.yul\":4656:4658   */\n      0x40\n        /* \"#utility.yul\":4645:4654   */\n      dup8\n        /* \"#utility.yul\":4641:4659   */\n      add\n        /* \"#utility.yul\":4628:4660   */\n      calldataload\n        /* \"#utility.yul\":4618:4660   */\n      swap4\n      pop\n        /* \"#utility.yul\":4711:4713   */\n      0x60\n        /* \"#utility.yul\":4700:4709   */\n      dup8\n        /* \"#utility.yul\":4696:4714   */\n      add\n        /* \"#utility.yul\":4683:4715   */\n      calldataload\n        /* \"#utility.yul\":4734:4752   */\n      0xffffffffffffffff\n        /* \"#utility.yul\":4775:4777   */\n      dup1\n        /* \"#utility.yul\":4767:4773   */\n      dup3\n        /* \"#utility.yul\":4764:4778   */\n      gt\n        /* \"#utility.yul\":4761:4795   */\n      iszero\n      tag_361\n      jumpi\n        /* \"#utility.yul\":4791:4792   */\n      0x00\n        /* \"#utility.yul\":4788:4789   */\n      dup1\n        /* \"#utility.yul\":4781:4793   */\n      revert\n        /* \"#utility.yul\":4761:4795   */\n    tag_361:\n        /* \"#utility.yul\":4829:4835   */\n      dup2\n        /* \"#utility.yul\":4818:4827   */\n      dup10\n        /* \"#utility.yul\":4814:4836   */\n      add\n        /* \"#utility.yul\":4804:4836   */\n      swap2\n      pop\n        /* \"#utility.yul\":4874:4881   */\n      dup10\n        /* \"#utility.yul\":4867:4871   */\n      0x1f\n        /* \"#utility.yul\":4863:4865   */\n      dup4\n        /* \"#utility.yul\":4859:4872   */\n      add\n        /* \"#utility.yul\":4855:4882   */\n      slt\n        /* \"#utility.yul\":4845:4900   */\n      tag_362\n      jumpi\n        /* \"#utility.yul\":4896:4897   */\n      0x00\n        /* \"#utility.yul\":4893:4894   */\n      dup1\n        /* \"#utility.yul\":4886:4898   */\n      revert\n        /* \"#utility.yul\":4845:4900   */\n    tag_362:\n        /* \"#utility.yul\":4932:4934   */\n      dup2\n        /* \"#utility.yul\":4919:4935   */\n      calldataload\n        /* \"#utility.yul\":4954:4956   */\n      dup2\n        /* \"#utility.yul\":4950:4952   */\n      dup2\n        /* \"#utility.yul\":4947:4957   */\n      gt\n        /* \"#utility.yul\":4944:4980   */\n      iszero\n      tag_364\n      jumpi\n        /* \"#utility.yul\":4960:4978   */\n      tag_364\n      tag_326\n      jump\t// in\n    tag_364:\n        /* \"#utility.yul\":5006:5008   */\n      dup1\n        /* \"#utility.yul\":5003:5004   */\n      0x05\n        /* \"#utility.yul\":4999:5009   */\n      shl\n        /* \"#utility.yul\":5038:5040   */\n      0x40\n        /* \"#utility.yul\":5032:5041   */\n      mload\n        /* \"#utility.yul\":5101:5103   */\n      0x1f\n        /* \"#utility.yul\":5097:5104   */\n      not\n        /* \"#utility.yul\":5092:5094   */\n      0x3f\n        /* \"#utility.yul\":5088:5090   */\n      dup4\n        /* \"#utility.yul\":5084:5095   */\n      add\n        /* \"#utility.yul\":5080:5105   */\n      and\n        /* \"#utility.yul\":5072:5078   */\n      dup2\n        /* \"#utility.yul\":5068:5106   */\n      add\n        /* \"#utility.yul\":5156:5162   */\n      dup2\n        /* \"#utility.yul\":5144:5154   */\n      dup2\n        /* \"#utility.yul\":5141:5163   */\n      lt\n        /* \"#utility.yul\":5136:5138   */\n      dup6\n        /* \"#utility.yul\":5124:5134   */\n      dup3\n        /* \"#utility.yul\":5121:5139   */\n      gt\n        /* \"#utility.yul\":5118:5164   */\n      or\n        /* \"#utility.yul\":5115:5187   */\n      iszero\n      tag_366\n      jumpi\n        /* \"#utility.yul\":5167:5185   */\n      tag_366\n      tag_326\n      jump\t// in\n    tag_366:\n        /* \"#utility.yul\":5203:5205   */\n      0x40\n        /* \"#utility.yul\":5196:5218   */\n      mstore\n        /* \"#utility.yul\":5253:5271   */\n      swap2\n      dup3\n      mstore\n        /* \"#utility.yul\":5287:5302   */\n      dup5\n      dup3\n      add\n      swap3\n      pop\n        /* \"#utility.yul\":5329:5340   */\n      dup4\n      dup2\n      add\n        /* \"#utility.yul\":5325:5345   */\n      dup6\n      add\n      swap2\n        /* \"#utility.yul\":5357:5376   */\n      dup13\n      dup4\n      gt\n        /* \"#utility.yul\":5354:5393   */\n      iszero\n      tag_367\n      jumpi\n        /* \"#utility.yul\":5389:5390   */\n      0x00\n        /* \"#utility.yul\":5386:5387   */\n      dup1\n        /* \"#utility.yul\":5379:5391   */\n      revert\n        /* \"#utility.yul\":5354:5393   */\n    tag_367:\n        /* \"#utility.yul\":5413:5424   */\n      swap4\n      dup6\n      add\n      swap4\n        /* \"#utility.yul\":5433:5575   */\n    tag_368:\n        /* \"#utility.yul\":5449:5455   */\n      dup3\n        /* \"#utility.yul\":5444:5447   */\n      dup6\n        /* \"#utility.yul\":5441:5456   */\n      lt\n        /* \"#utility.yul\":5433:5575   */\n      iszero\n      tag_370\n      jumpi\n        /* \"#utility.yul\":5515:5532   */\n      dup5\n      calldataload\n        /* \"#utility.yul\":5503:5533   */\n      dup5\n      mstore\n        /* \"#utility.yul\":5466:5478   */\n      swap4\n      dup6\n      add\n      swap4\n        /* \"#utility.yul\":5553:5565   */\n      swap3\n      dup6\n      add\n      swap3\n        /* \"#utility.yul\":5433:5575   */\n      jump(tag_368)\n    tag_370:\n        /* \"#utility.yul\":4269:5658   */\n      swap10\n      swap13\n      swap9\n      swap12\n      pop\n      swap7\n      swap10\n        /* \"#utility.yul\":5647:5650   */\n      0x80\n        /* \"#utility.yul\":5632:5651   */\n      add\n        /* \"#utility.yul\":5619:5652   */\n      calldataload\n      swap8\n        /* \"#utility.yul\":4269:5658   */\n      swap7\n      pop\n      pop\n      pop\n      pop\n      pop\n      pop\n      pop\n      jump\t// out\n        /* \"#utility.yul\":5663:5790   */\n    tag_327:\n        /* \"#utility.yul\":5724:5734   */\n      0x4e487b71\n        /* \"#utility.yul\":5719:5722   */\n      0xe0\n        /* \"#utility.yul\":5715:5735   */\n      shl\n        /* \"#utility.yul\":5712:5713   */\n      0x00\n        /* \"#utility.yul\":5705:5736   */\n      mstore\n        /* \"#utility.yul\":5755:5759   */\n      0x11\n        /* \"#utility.yul\":5752:5753   */\n      0x04\n        /* \"#utility.yul\":5745:5760   */\n      mstore\n        /* \"#utility.yul\":5779:5783   */\n      0x24\n        /* \"#utility.yul\":5776:5777   */\n      0x00\n        /* \"#utility.yul\":5769:5784   */\n      revert\n        /* \"#utility.yul\":5795:5930   */\n    tag_104:\n        /* \"#utility.yul\":5834:5837   */\n      0x00\n        /* \"#utility.yul\":5855:5872   */\n      0x01\n      dup3\n      add\n        /* \"#utility.yul\":5852:5895   */\n      tag_374\n      jumpi\n        /* \"#utility.yul\":5875:5893   */\n      tag_374\n      tag_327\n      jump\t// in\n    tag_374:\n      pop\n        /* \"#utility.yul\":5922:5923   */\n      0x01\n        /* \"#utility.yul\":5911:5924   */\n      add\n      swap1\n        /* \"#utility.yul\":5795:5930   */\n      jump\t// out\n        /* \"#utility.yul\":6278:6403   */\n    tag_115:\n        /* \"#utility.yul\":6343:6352   */\n      dup1\n      dup3\n      add\n        /* \"#utility.yul\":6364:6374   */\n      dup1\n      dup3\n      gt\n        /* \"#utility.yul\":6361:6397   */\n      iszero\n      tag_101\n      jumpi\n        /* \"#utility.yul\":6377:6395   */\n      tag_101\n      tag_327\n      jump\t// in\n        /* \"#utility.yul\":8174:8302   */\n    tag_144:\n        /* \"#utility.yul\":8241:8250   */\n      dup2\n      dup2\n      sub\n        /* \"#utility.yul\":8262:8273   */\n      dup2\n      dup2\n      gt\n        /* \"#utility.yul\":8259:8296   */\n      iszero\n      tag_101\n      jumpi\n        /* \"#utility.yul\":8276:8294   */\n      tag_101\n      tag_327\n      jump\t// in\n        /* \"#utility.yul\":8307:8475   */\n    tag_146:\n        /* \"#utility.yul\":8380:8389   */\n      dup1\n      dup3\n      mul\n        /* \"#utility.yul\":8411:8420   */\n      dup2\n      iszero\n        /* \"#utility.yul\":8428:8443   */\n      dup3\n      dup3\n      div\n        /* \"#utility.yul\":8422:8444   */\n      dup5\n      eq\n        /* \"#utility.yul\":8408:8445   */\n      or\n        /* \"#utility.yul\":8398:8469   */\n      tag_101\n      jumpi\n        /* \"#utility.yul\":8449:8467   */\n      tag_101\n      tag_327\n      jump\t// in\n        /* \"#utility.yul\":8480:8697   */\n    tag_150:\n        /* \"#utility.yul\":8520:8521   */\n      0x00\n        /* \"#utility.yul\":8546:8547   */\n      dup3\n        /* \"#utility.yul\":8536:8668   */\n      tag_391\n      jumpi\n        /* \"#utility.yul\":8590:8600   */\n      0x4e487b71\n        /* \"#utility.yul\":8585:8588   */\n      0xe0\n        /* \"#utility.yul\":8581:8601   */\n      shl\n        /* \"#utility.yul\":8578:8579   */\n      0x00\n        /* \"#utility.yul\":8571:8602   */\n      mstore\n        /* \"#utility.yul\":8625:8629   */\n      0x12\n        /* \"#utility.yul\":8622:8623   */\n      0x04\n        /* \"#utility.yul\":8615:8630   */\n      mstore\n        /* \"#utility.yul\":8653:8657   */\n      0x24\n        /* \"#utility.yul\":8650:8651   */\n      0x00\n        /* \"#utility.yul\":8643:8658   */\n      revert\n        /* \"#utility.yul\":8536:8668   */\n    tag_391:\n      pop\n        /* \"#utility.yul\":8682:8691   */\n      div\n      swap1\n        /* \"#utility.yul\":8480:8697   */\n      jump\t// out\n        /* \"#utility.yul\":9052:9238   */\n    tag_159:\n        /* \"#utility.yul\":9111:9117   */\n      0x00\n        /* \"#utility.yul\":9164:9166   */\n      0x20\n        /* \"#utility.yul\":9152:9161   */\n      dup3\n        /* \"#utility.yul\":9143:9150   */\n      dup5\n        /* \"#utility.yul\":9139:9162   */\n      sub\n        /* \"#utility.yul\":9135:9167   */\n      slt\n        /* \"#utility.yul\":9132:9184   */\n      iszero\n      tag_394\n      jumpi\n        /* \"#utility.yul\":9180:9181   */\n      0x00\n        /* \"#utility.yul\":9177:9178   */\n      dup1\n        /* \"#utility.yul\":9170:9182   */\n      revert\n        /* \"#utility.yul\":9132:9184   */\n    tag_394:\n        /* \"#utility.yul\":9203:9232   */\n      tag_395\n        /* \"#utility.yul\":9222:9231   */\n      dup3\n        /* \"#utility.yul\":9203:9232   */\n      tag_324\n      jump\t// in\n    tag_395:\n        /* \"#utility.yul\":9193:9232   */\n      swap4\n        /* \"#utility.yul\":9052:9238   */\n      swap3\n      pop\n      pop\n      pop\n      jump\t// out\n        /* \"#utility.yul\":9243:9484   */\n    tag_165:\n        /* \"#utility.yul\":9299:9305   */\n      0x00\n        /* \"#utility.yul\":9352:9354   */\n      0x20\n        /* \"#utility.yul\":9340:9349   */\n      dup3\n        /* \"#utility.yul\":9331:9338   */\n      dup5\n        /* \"#utility.yul\":9327:9350   */\n      sub\n        /* \"#utility.yul\":9323:9355   */\n      slt\n        /* \"#utility.yul\":9320:9372   */\n      iszero\n      tag_397\n      jumpi\n        /* \"#utility.yul\":9368:9369   */\n      0x00\n        /* \"#utility.yul\":9365:9366   */\n      dup1\n        /* \"#utility.yul\":9358:9370   */\n      revert\n        /* \"#utility.yul\":9320:9372   */\n    tag_397:\n        /* \"#utility.yul\":9407:9416   */\n      dup2\n        /* \"#utility.yul\":9394:9417   */\n      calldataload\n        /* \"#utility.yul\":9426:9454   */\n      tag_395\n        /* \"#utility.yul\":9448:9453   */\n      dup2\n        /* \"#utility.yul\":9426:9454   */\n      tag_325\n      jump\t// in\n        /* \"#utility.yul\":10524:10651   */\n    tag_208:\n        /* \"#utility.yul\":10585:10595   */\n      0x4e487b71\n        /* \"#utility.yul\":10580:10583   */\n      0xe0\n        /* \"#utility.yul\":10576:10596   */\n      shl\n        /* \"#utility.yul\":10573:10574   */\n      0x00\n        /* \"#utility.yul\":10566:10597   */\n      mstore\n        /* \"#utility.yul\":10616:10620   */\n      0x32\n        /* \"#utility.yul\":10613:10614   */\n      0x04\n        /* \"#utility.yul\":10606:10621   */\n      mstore\n        /* \"#utility.yul\":10640:10644   */\n      0x24\n        /* \"#utility.yul\":10637:10638   */\n      0x00\n        /* \"#utility.yul\":10630:10645   */\n      revert\n        /* \"#utility.yul\":12364:12609   */\n    tag_289:\n        /* \"#utility.yul\":12431:12437   */\n      0x00\n        /* \"#utility.yul\":12484:12486   */\n      0x20\n        /* \"#utility.yul\":12472:12481   */\n      dup3\n        /* \"#utility.yul\":12463:12470   */\n      dup5\n        /* \"#utility.yul\":12459:12482   */\n      sub\n        /* \"#utility.yul\":12455:12487   */\n      slt\n        /* \"#utility.yul\":12452:12504   */\n      iszero\n      tag_409\n      jumpi\n        /* \"#utility.yul\":12500:12501   */\n      0x00\n        /* \"#utility.yul\":12497:12498   */\n      dup1\n        /* \"#utility.yul\":12490:12502   */\n      revert\n        /* \"#utility.yul\":12452:12504   */\n    tag_409:\n        /* \"#utility.yul\":12532:12541   */\n      dup2\n        /* \"#utility.yul\":12526:12542   */\n      mload\n        /* \"#utility.yul\":12551:12579   */\n      tag_395\n        /* \"#utility.yul\":12573:12578   */\n      dup2\n        /* \"#utility.yul\":12551:12579   */\n      tag_325\n      jump\t// in\n        /* \"#utility.yul\":13432:13682   */\n    tag_328:\n        /* \"#utility.yul\":13517:13518   */\n      0x00\n        /* \"#utility.yul\":13527:13640   */\n    tag_414:\n        /* \"#utility.yul\":13541:13547   */\n      dup4\n        /* \"#utility.yul\":13538:13539   */\n      dup2\n        /* \"#utility.yul\":13535:13548   */\n      lt\n        /* \"#utility.yul\":13527:13640   */\n      iszero\n      tag_416\n      jumpi\n        /* \"#utility.yul\":13617:13628   */\n      dup2\n      dup2\n      add\n        /* \"#utility.yul\":13611:13629   */\n      mload\n        /* \"#utility.yul\":13598:13609   */\n      dup4\n      dup3\n      add\n        /* \"#utility.yul\":13591:13630   */\n      mstore\n        /* \"#utility.yul\":13563:13565   */\n      0x20\n        /* \"#utility.yul\":13556:13566   */\n      add\n        /* \"#utility.yul\":13527:13640   */\n      jump(tag_414)\n    tag_416:\n      pop\n      pop\n        /* \"#utility.yul\":13674:13675   */\n      0x00\n        /* \"#utility.yul\":13656:13672   */\n      swap2\n      add\n        /* \"#utility.yul\":13649:13676   */\n      mstore\n        /* \"#utility.yul\":13432:13682   */\n      jump\t// out\n        /* \"#utility.yul\":13687:13974   */\n    tag_301:\n        /* \"#utility.yul\":13816:13819   */\n      0x00\n        /* \"#utility.yul\":13854:13860   */\n      dup3\n        /* \"#utility.yul\":13848:13861   */\n      mload\n        /* \"#utility.yul\":13870:13936   */\n      tag_418\n        /* \"#utility.yul\":13929:13935   */\n      dup2\n        /* \"#utility.yul\":13924:13927   */\n      dup5\n        /* \"#utility.yul\":13917:13921   */\n      0x20\n        /* \"#utility.yul\":13909:13915   */\n      dup8\n        /* \"#utility.yul\":13905:13922   */\n      add\n        /* \"#utility.yul\":13870:13936   */\n      tag_328\n      jump\t// in\n    tag_418:\n        /* \"#utility.yul\":13952:13968   */\n      swap2\n      swap1\n      swap2\n      add\n      swap3\n        /* \"#utility.yul\":13687:13974   */\n      swap2\n      pop\n      pop\n      jump\t// out\n        /* \"#utility.yul\":14337:14733   */\n    tag_323:\n        /* \"#utility.yul\":14486:14488   */\n      0x20\n        /* \"#utility.yul\":14475:14484   */\n      dup2\n        /* \"#utility.yul\":14468:14489   */\n      mstore\n        /* \"#utility.yul\":14449:14453   */\n      0x00\n        /* \"#utility.yul\":14518:14524   */\n      dup3\n        /* \"#utility.yul\":14512:14525   */\n      mload\n        /* \"#utility.yul\":14561:14567   */\n      dup1\n        /* \"#utility.yul\":14556:14558   */\n      0x20\n        /* \"#utility.yul\":14545:14554   */\n      dup5\n        /* \"#utility.yul\":14541:14559   */\n      add\n        /* \"#utility.yul\":14534:14568   */\n      mstore\n        /* \"#utility.yul\":14577:14656   */\n      tag_421\n        /* \"#utility.yul\":14649:14655   */\n      dup2\n        /* \"#utility.yul\":14644:14646   */\n      0x40\n        /* \"#utility.yul\":14633:14642   */\n      dup6\n        /* \"#utility.yul\":14629:14647   */\n      add\n        /* \"#utility.yul\":14624:14626   */\n      0x20\n        /* \"#utility.yul\":14616:14622   */\n      dup8\n        /* \"#utility.yul\":14612:14627   */\n      add\n        /* \"#utility.yul\":14577:14656   */\n      tag_328\n      jump\t// in\n    tag_421:\n        /* \"#utility.yul\":14717:14719   */\n      0x1f\n        /* \"#utility.yul\":14696:14711   */\n      add\n      not(0x1f)\n        /* \"#utility.yul\":14692:14721   */\n      and\n        /* \"#utility.yul\":14677:14722   */\n      swap2\n      swap1\n      swap2\n      add\n        /* \"#utility.yul\":14724:14726   */\n      0x40\n        /* \"#utility.yul\":14673:14727   */\n      add\n      swap3\n        /* \"#utility.yul\":14337:14733   */\n      swap2\n      pop\n      pop\n      jump\t// out\n\n    auxdata: 0xa2646970667358221220165b5aec60c13790206cd6459d5c71743b625261f9b43df629bc7ff9d61432b064736f6c63430008140033\n}\n",
				"bytecode": {
					"linkReferences": {},
					"object": "608060405234801561000f575f80fd5b506121798061001d5f395ff3fe608060405234801561000f575f80fd5b5060043610610106575f3560e01c80638e6509c91161009e578063cf95d1fe1161006e578063cf95d1fe146104ab578063e3c36941146104be578063e520590614610504578063eaf60c8b14610517578063fde8e7271461055a575f80fd5b80638e6509c9146103b057806396480d04146103c35780639bc59d8314610479578063af640d0f146104a3575f80fd5b8063569511e3116100d9578063569511e3146102eb5780635f4455fb146103005780636cfa2d9a1461035a57806384abacb41461039d575f80fd5b80630a64cc6a1461010a5780631a38f4a71461024557806337d1bf92146102a057806343edd3c5146102d8575b5f80fd5b6101de610118366004611dcf565b6040805160e0810182525f80825260208201819052918101829052606081018290526080810182905260a0810182905260c0810191909152506001600160a01b039283165f90815260016020818152604080842095845294815284832093835292835290839020835160e0810185528154861681529181015485169282019290925260028201549093169183019190915260038101546060830152600481015460808301526005015460ff808216151560a084015261010090910416151560c082015290565b6040805182516001600160a01b039081168252602080850151821690830152838301511691810191909152606080830151908201526080808301519082015260a08083015115159082015260c09182015115159181019190915260e0015b60405180910390f35b610290610253366004611dcf565b6001600160a01b03929092165f90815260016020908152604080832093835292815282822093825292909252902060050154610100900460ff1690565b604051901515815260200161023c565b6102ca6102ae366004611dff565b600260209081525f928352604080842090915290825290205481565b60405190815260200161023c565b6102ca6102e6366004611dff565b61059d565b6102fe6102f9366004611e34565b6105c7565b005b61034261030e366004611dcf565b6001600160a01b039283165f9081526001602090815260408083209483529381528382209282529190915220600201541690565b6040516001600160a01b03909116815260200161023c565b6102ca610368366004611dcf565b6001600160a01b0383165f90815260016020908152604080832085845282528083208484529091529020600301549392505050565b6102fe6103ab366004611e9a565b61072a565b6102fe6103be366004611eb1565b6109a2565b6104316103d1366004611dcf565b600160208181525f94855260408086208252938552838520905290835291208054918101546002820154600383015460048401546005909401546001600160a01b0395861695938416949390921692909160ff8082169161010090041687565b604080516001600160a01b0398891681529688166020880152949096169385019390935260608401919091526080830152151560a082015290151560c082015260e00161023c565b6102ca610487366004611ec8565b600360209081525f928352604080842090915290825290205481565b6102ca5f5481565b6102fe6104b9366004611e9a565b610f8d565b6102906104cc366004611dcf565b6001600160a01b0383165f908152600160209081526040808320858452825280832084845290915290206005015460ff169392505050565b6102fe610512366004611f06565b610fc3565b6102ca610525366004611dcf565b6001600160a01b0383165f90815260016020908152604080832085845282528083208484529091529020600401549392505050565b610342610568366004611dcf565b6001600160a01b039283165f908152600160208181526040808420958452948152848320938352929092529190912001541690565b6001600160a01b0382165f9081526002602090815260408083208484529091529020545b92915050565b5f805490806105d583611ff6565b909155506105f090506001600160a01b038616333085611978565b6040805160e0810182526001600160a01b0380891680835288821660208085018281528a8516868801908152606087018a8152608088018c81528a151560a08a019081525f60c08b0181815289825260018089528d83208354845289528d832081845289528d83209c518d54908d166001600160a01b0319918216178e5597518d82018054918e16918a1691909117905595516002808e01805492909d169190981617909a55925160038b0155905160048a01555160059098018054975115156101000261ff00199915159990991661ffff1990981697909717979097179095558386528152858520855486529052848420929092559154925190927f989eaa915cbb416ea3d6f9a63b1a3de51770c7674b11fe21ecdf76b4e1d139109161071a91815260200190565b60405180910390a3505050505050565b335f81815260026020908152604080832085845282528083205493835260048252808320858452909152902054811161079b5760405162461bcd60e51b815260206004820152600e60248201526d436c61696d20436f6d706c65746560901b60448201526064015b60405180910390fd5b335f9081526004602090815260408083208584529091528120546107c090600161200e565b335f908152600160209081526040808320878452825280832084845290915290206004015490915042101561082a5760405162461bcd60e51b815260206004820152601060248201526f151a5b5948139bdd081c995858da195960821b6044820152606401610792565b335f9081526001602090815260408083208684528252808320848452909152902060050154610100900460ff161561088e5760405162461bcd60e51b815260206004820152600760248201526610db185a5b595960ca1b6044820152606401610792565b335f90815260016020818152604080842087855282528084208385529091528220908101546002909101546001600160a01b0391821692911690835b85811161098557335f9081526001602090815260408083208a84528252808320848452909152902060040154421061096e57335f9081526001602090815260408083208a84528252808320848452909152902060058101805461ff0019166101001790556003015461093c908361200e565b335f9081526004602090815260408083208b8452909152812080549294509061096483611ff6565b9190505550610973565b610985565b8061097d81611ff6565b9150506108ca565b5061099a6001600160a01b03841683836119e9565b505050505050565b610100810135806109e25760405162461bcd60e51b815260206004820152600a602482015269436f756e74206973204f60b01b6044820152606401610792565b5f826040013511610a285760405162461bcd60e51b815260206004820152601060248201526f04c6f636b20616d6f756e7420697320360841b6044820152606401610792565b600181115f61271060808501351115610a8d5760405162461bcd60e51b815260206004820152602160248201527f666972737450657263656e746167652067726561746572207468656e203130306044820152602560f81b6064820152608401610792565b5f808315610b065760c0860135610aa5600187612021565b610aaf9190612034565b610abd90608088013561200e565b9250612710610ad460c08801356040890135612034565b610ade919061204b565b9150612710610af560808801356040890135612034565b610aff919061204b565b9050610b14565b506080850135915060408501355b612710831015610b5e5760405162461bcd60e51b8152602060048201526015602482015274050657263656e74204e6f7420557020546f2031303605c1b6044820152606401610792565b610b8633306040890135610b7560208b018b61206a565b6001600160a01b0316929190611978565b5f80549080610b9483611ff6565b90915550505f8054815260036020908152604080832090890135929091610bbd908a018a61206a565b6001600160a01b0316815260208082019290925260409081015f2092909255815160e0810190925233825281810190610bf89089018961206a565b6001600160a01b03168152602001876020016020810190610c19919061206a565b6001600160a01b031681526020018281526020018760a001358152602001876060016020810190610c4a919061208a565b151581525f602091820181905233815260018083526040808320835484528452808320828452845291829020845181546001600160a01b03199081166001600160a01b039283161783559486015192820180548616938216939093179092559184015160028301805490941691161790915560608201516003820155608080830151600483015560a0808401516005909301805460c09095015161ffff1990951693151561ff00191693909317610100941515949094029390931790915590870135908701358515610f0d575f8054815260056020908152604080832080546001818101835591855283852060808e013591015583548452908320805491820181558352912060c08a013591015560025b878111610f0b57610d7060c08a01358361200e565b9150612710821115610dbf57610d8a60c08a013583612021565b91505f610d9983612710612021565b9050612710610dac8260408d0135612034565b610db6919061204b565b95506127109250505b610dcd60e08a01358461200e565b6040805160e08101909152338152909350602080820190610df0908c018c61206a565b6001600160a01b031681526020018a6020016020810190610e11919061206a565b6001600160a01b031681526020018681526020018481526020018a6060016020810190610e3e919061208a565b151581525f602091820181905233815260018083526040808320835484528452808320868452845291829020845181546001600160a01b03199081166001600160a01b0392831617835594860151928201805486169382169390931790925591840151600283018054909416911617909155606082015160038201556080820151600482015560a08201516005909101805460c09093015161ffff1990931691151561ff001916919091176101009215159290920291909117905580610f0381611ff6565b915050610d5b565b505b335f908152600260209081526040808320835484528252909120889055610f369089018961206a565b6001600160a01b0316336001600160a01b03167f989eaa915cbb416ea3d6f9a63b1a3de51770c7674b11fe21ecdf76b4e1d139105f54604051610f7b91815260200190565b60405180910390a35050505050505050565b335f908152600260209081526040808320848452909152902054600103610fba57610fb781611a1e565b50565b610fb78161072a565b335f8181526001602081815260408084208a855282528084209284529190529020546001600160a01b0316146110275760405162461bcd60e51b81526020600482015260096024820152682737ba1037bbb732b960b91b6044820152606401610792565b335f90815260016020818152604080842089855282528084209284529190529020600401548410156110905760405162461bcd60e51b81526020600482015260126024820152712a34b6b29031b0b73a1031329027b63232b960711b6044820152606401610792565b335f9081526001602081815260408084208985528252808420928452919052902060050154610100900460ff16156111035760405162461bcd60e51b81526020600482015260166024820152751d1bdad95b8810db185a5b5a5b99c814dd185c9d195960521b6044820152606401610792565b335f90815260026020908152604080832088845290915290205481156111b157335f8181526001602081815260408084208b85528252808420838552909152909120015461115e916001600160a01b03909116903085611978565b5f86815260036020908152604080832033845260018084528285208b86528452828520818652845282852001546001600160a01b03168452909152812080548492906111ab90849061200e565b90915550505b6001811180156111da57505f836001815181106111d0576111d06120a5565b6020026020010151115b80156111fe57505f835f815181106111f4576111f46120a5565b6020026020010151115b156118f157335f9081526001602081815260408084208a8552825280842092845291905280822060049081015460028452918320015482918291829182916112469190612021565b9050808910806112715750612710885f81518110611266576112666120a5565b602002602001015110155b156112b55760405162461bcd60e51b81526020600482015260146024820152732733b0b8101e1027b3b0b8103e1012b2b93937b960611b6044820152606401610792565b5f8b815260056020526040812080549091906112d3576112d36120a5565b905f5260205f200154885f815181106112ee576112ee6120a5565b6020026020010151118061134357505f8b81526005602052604090208054600190811061131d5761131d6120a5565b905f5260205f20015488600181518110611339576113396120a5565b6020026020010151115b156113855760405162461bcd60e51b8152602060048201526012602482015271496e76616c69642050657263656e7461676560701b6044820152606401610792565b875f81518110611397576113976120a5565b60200260200101519250875f815181106113b3576113b36120a5565b6020026020010151846113c6919061200e565b9350816113d281611ff6565b92505061271060035f8d81526020019081526020015f205f60015f336001600160a01b03166001600160a01b031681526020019081526020015f205f8f81526020019081526020015f205f600181526020019081526020015f206001015f9054906101000a90046001600160a01b03166001600160a01b03166001600160a01b031681526020019081526020015f20548461146d9190612034565b611477919061204b565b335f9081526001602090815260408083208f84528252808320868452909152902060030181905594505b6127108410156118ce57876001815181106114be576114be6120a5565b60200260200101519250876001815181106114db576114db6120a5565b6020026020010151846114ee919061200e565b9350612710841115611536578760018151811061150d5761150d6120a5565b6020026020010151846115209190612021565b935061152e84612710612021565b925061271093505b61271060035f8d81526020019081526020015f205f60015f336001600160a01b03166001600160a01b031681526020019081526020015f205f8f81526020019081526020015f205f600181526020019081526020015f206001015f9054906101000a90046001600160a01b03166001600160a01b03166001600160a01b031681526020019081526020015f2054846115ce9190612034565b6115d8919061204b565b9450816115e481611ff6565b925050818610156118a2576040518060e00160405280336001600160a01b0316815260200160015f336001600160a01b03166001600160a01b031681526020019081526020015f205f8e81526020019081526020015f205f600181526020019081526020015f206001015f9054906101000a90046001600160a01b03166001600160a01b0316815260200160015f336001600160a01b03166001600160a01b031681526020019081526020015f205f8e81526020019081526020015f205f600181526020019081526020015f206002015f9054906101000a90046001600160a01b03166001600160a01b0316815260200186815260200160015f336001600160a01b03166001600160a01b031681526020019081526020015f205f8e81526020019081526020015f205f8981526020019081526020015f2060040154815260200160015f336001600160a01b03166001600160a01b031681526020019081526020015f205f8e81526020019081526020015f205f600181526020019081526020015f206005015f9054906101000a900460ff16151581526020015f151581525060015f336001600160a01b03166001600160a01b031681526020019081526020015f205f8d81526020019081526020015f205f8481526020019081526020015f205f820151815f015f6101000a8154816001600160a01b0302191690836001600160a01b031602179055506020820151816001015f6101000a8154816001600160a01b0302191690836001600160a01b031602179055506040820151816002015f6101000a8154816001600160a01b0302191690836001600160a01b03160217905550606082015181600301556080820151816004015560a0820151816005015f6101000a81548160ff02191690831515021790555060c08201518160050160016101000a81548160ff0219169083151502179055509050506114a1565b335f9081526001602090815260408083208e8452825280832085845290915290206003018590556114a1565b50335f9081526002602090815260408083208d8452909152902081905593505050505b335f9081526001602081815260408084208a8552825280842083855290915290912060040186905581111561099a5760025b81811161196f57611934858761200e565b335f9081526001602090815260408083208b84528252808320858452909152902060040181905595508061196781611ff6565b915050611923565b50505050505050565b6040516001600160a01b03808516602483015283166044820152606481018290526119e39085906323b872dd60e01b906084015b60408051601f198184030181529190526020810180516001600160e01b03166001600160e01b031990931692909217909152611b59565b50505050565b6040516001600160a01b038316602482015260448101829052611a1990849063a9059cbb60e01b906064016119ac565b505050565b335f908152600160208181526040808420858552825280842083855290915290912060050154610100900460ff1615611a835760405162461bcd60e51b815260206004820152600760248201526610db185a5b595960ca1b6044820152606401610792565b335f90815260016020908152604080832085845282528083208484529091529020600401544211611af65760405162461bcd60e51b815260206004820152601860248201527f52656c656173652054696d65204e6f74205265616368656400000000000000006044820152606401610792565b335f908152600160208181526040808420868552825280842085855290915290912090810154600282015460038301546005909301805461ff0019166101001790556001600160a01b0391821692911690611b528383836119e9565b5050505050565b5f611bad826040518060400160405280602081526020017f5361666545524332303a206c6f772d6c6576656c2063616c6c206661696c6564815250856001600160a01b0316611c2a9092919063ffffffff16565b805190915015611a195780806020019051810190611bcb91906120b9565b611a195760405162461bcd60e51b815260206004820152602a60248201527f5361666545524332303a204552433230206f7065726174696f6e20646964206e6044820152691bdd081cdd58d8d9595960b21b6064820152608401610792565b6060611c3884845f85611c40565b949350505050565b606082471015611ca15760405162461bcd60e51b815260206004820152602660248201527f416464726573733a20696e73756666696369656e742062616c616e636520666f6044820152651c8818d85b1b60d21b6064820152608401610792565b5f80866001600160a01b03168587604051611cbc91906120f6565b5f6040518083038185875af1925050503d805f8114611cf6576040519150601f19603f3d011682016040523d82523d5f602084013e611cfb565b606091505b5091509150611d0c87838387611d17565b979650505050505050565b60608315611d855782515f03611d7e576001600160a01b0385163b611d7e5760405162461bcd60e51b815260206004820152601d60248201527f416464726573733a2063616c6c20746f206e6f6e2d636f6e74726163740000006044820152606401610792565b5081611c38565b611c388383815115611d9a5781518083602001fd5b8060405162461bcd60e51b81526004016107929190612111565b80356001600160a01b0381168114611dca575f80fd5b919050565b5f805f60608486031215611de1575f80fd5b611dea84611db4565b95602085013595506040909401359392505050565b5f8060408385031215611e10575f80fd5b611e1983611db4565b946020939093013593505050565b8015158114610fb7575f80fd5b5f805f805f8060c08789031215611e49575f80fd5b611e5287611db4565b9550611e6060208801611db4565b9450611e6e60408801611db4565b9350606087013592506080870135915060a0870135611e8c81611e27565b809150509295509295509295565b5f60208284031215611eaa575f80fd5b5035919050565b5f6101208284031215611ec2575f80fd5b50919050565b5f8060408385031215611ed9575f80fd5b82359150611ee960208401611db4565b90509250929050565b634e487b7160e01b5f52604160045260245ffd5b5f805f805f60a08688031215611f1a575f80fd5b85359450602080870135945060408701359350606087013567ffffffffffffffff80821115611f47575f80fd5b818901915089601f830112611f5a575f80fd5b813581811115611f6c57611f6c611ef2565b8060051b604051601f19603f83011681018181108582111715611f9157611f91611ef2565b60405291825284820192508381018501918c831115611fae575f80fd5b938501935b82851015611fcc57843584529385019392850192611fb3565b999c989b50969960800135979650505050505050565b634e487b7160e01b5f52601160045260245ffd5b5f6001820161200757612007611fe2565b5060010190565b808201808211156105c1576105c1611fe2565b818103818111156105c1576105c1611fe2565b80820281158282048414176105c1576105c1611fe2565b5f8261206557634e487b7160e01b5f52601260045260245ffd5b500490565b5f6020828403121561207a575f80fd5b61208382611db4565b9392505050565b5f6020828403121561209a575f80fd5b813561208381611e27565b634e487b7160e01b5f52603260045260245ffd5b5f602082840312156120c9575f80fd5b815161208381611e27565b5f5b838110156120ee5781810151838201526020016120d6565b50505f910152565b5f82516121078184602087016120d4565b9190910192915050565b602081525f825180602084015261212f8160408501602087016120d4565b601f01601f1916919091016040019291505056fea2646970667358221220165b5aec60c13790206cd6459d5c71743b625261f9b43df629bc7ff9d61432b064736f6c63430008140033",
					"opcodes": "PUSH1 0x80 PUSH1 0x40 MSTORE CALLVALUE DUP1 ISZERO PUSH2 0xF JUMPI PUSH0 DUP1 REVERT JUMPDEST POP PUSH2 0x2179 DUP1 PUSH2 0x1D PUSH0 CODECOPY PUSH0 RETURN INVALID PUSH1 0x80 PUSH1 0x40 MSTORE CALLVALUE DUP1 ISZERO PUSH2 0xF JUMPI PUSH0 DUP1 REVERT JUMPDEST POP PUSH1 0x4 CALLDATASIZE LT PUSH2 0x106 JUMPI PUSH0 CALLDATALOAD PUSH1 0xE0 SHR DUP1 PUSH4 0x8E6509C9 GT PUSH2 0x9E JUMPI DUP1 PUSH4 0xCF95D1FE GT PUSH2 0x6E JUMPI DUP1 PUSH4 0xCF95D1FE EQ PUSH2 0x4AB JUMPI DUP1 PUSH4 0xE3C36941 EQ PUSH2 0x4BE JUMPI DUP1 PUSH4 0xE5205906 EQ PUSH2 0x504 JUMPI DUP1 PUSH4 0xEAF60C8B EQ PUSH2 0x517 JUMPI DUP1 PUSH4 0xFDE8E727 EQ PUSH2 0x55A JUMPI PUSH0 DUP1 REVERT JUMPDEST DUP1 PUSH4 0x8E6509C9 EQ PUSH2 0x3B0 JUMPI DUP1 PUSH4 0x96480D04 EQ PUSH2 0x3C3 JUMPI DUP1 PUSH4 0x9BC59D83 EQ PUSH2 0x479 JUMPI DUP1 PUSH4 0xAF640D0F EQ PUSH2 0x4A3 JUMPI PUSH0 DUP1 REVERT JUMPDEST DUP1 PUSH4 0x569511E3 GT PUSH2 0xD9 JUMPI DUP1 PUSH4 0x569511E3 EQ PUSH2 0x2EB JUMPI DUP1 PUSH4 0x5F4455FB EQ PUSH2 0x300 JUMPI DUP1 PUSH4 0x6CFA2D9A EQ PUSH2 0x35A JUMPI DUP1 PUSH4 0x84ABACB4 EQ PUSH2 0x39D JUMPI PUSH0 DUP1 REVERT JUMPDEST DUP1 PUSH4 0xA64CC6A EQ PUSH2 0x10A JUMPI DUP1 PUSH4 0x1A38F4A7 EQ PUSH2 0x245 JUMPI DUP1 PUSH4 0x37D1BF92 EQ PUSH2 0x2A0 JUMPI DUP1 PUSH4 0x43EDD3C5 EQ PUSH2 0x2D8 JUMPI JUMPDEST PUSH0 DUP1 REVERT JUMPDEST PUSH2 0x1DE PUSH2 0x118 CALLDATASIZE PUSH1 0x4 PUSH2 0x1DCF JUMP JUMPDEST PUSH1 0x40 DUP1 MLOAD PUSH1 0xE0 DUP2 ADD DUP3 MSTORE PUSH0 DUP1 DUP3 MSTORE PUSH1 0x20 DUP3 ADD DUP2 SWAP1 MSTORE SWAP2 DUP2 ADD DUP3 SWAP1 MSTORE PUSH1 0x60 DUP2 ADD DUP3 SWAP1 MSTORE PUSH1 0x80 DUP2 ADD DUP3 SWAP1 MSTORE PUSH1 0xA0 DUP2 ADD DUP3 SWAP1 MSTORE PUSH1 0xC0 DUP2 ADD SWAP2 SWAP1 SWAP2 MSTORE POP PUSH1 0x1 PUSH1 0x1 PUSH1 0xA0 SHL SUB SWAP3 DUP4 AND PUSH0 SWAP1 DUP2 MSTORE PUSH1 0x1 PUSH1 0x20 DUP2 DUP2 MSTORE PUSH1 0x40 DUP1 DUP5 KECCAK256 SWAP6 DUP5 MSTORE SWAP5 DUP2 MSTORE DUP5 DUP4 KECCAK256 SWAP4 DUP4 MSTORE SWAP3 DUP4 MSTORE SWAP1 DUP4 SWAP1 KECCAK256 DUP4 MLOAD PUSH1 0xE0 DUP2 ADD DUP6 MSTORE DUP2 SLOAD DUP7 AND DUP2 MSTORE SWAP2 DUP2 ADD SLOAD DUP6 AND SWAP3 DUP3 ADD SWAP3 SWAP1 SWAP3 MSTORE PUSH1 0x2 DUP3 ADD SLOAD SWAP1 SWAP4 AND SWAP2 DUP4 ADD SWAP2 SWAP1 SWAP2 MSTORE PUSH1 0x3 DUP2 ADD SLOAD PUSH1 0x60 DUP4 ADD MSTORE PUSH1 0x4 DUP2 ADD SLOAD PUSH1 0x80 DUP4 ADD MSTORE PUSH1 0x5 ADD SLOAD PUSH1 0xFF DUP1 DUP3 AND ISZERO ISZERO PUSH1 0xA0 DUP5 ADD MSTORE PUSH2 0x100 SWAP1 SWAP2 DIV AND ISZERO ISZERO PUSH1 0xC0 DUP3 ADD MSTORE SWAP1 JUMP JUMPDEST PUSH1 0x40 DUP1 MLOAD DUP3 MLOAD PUSH1 0x1 PUSH1 0x1 PUSH1 0xA0 SHL SUB SWAP1 DUP2 AND DUP3 MSTORE PUSH1 0x20 DUP1 DUP6 ADD MLOAD DUP3 AND SWAP1 DUP4 ADD MSTORE DUP4 DUP4 ADD MLOAD AND SWAP2 DUP2 ADD SWAP2 SWAP1 SWAP2 MSTORE PUSH1 0x60 DUP1 DUP4 ADD MLOAD SWAP1 DUP3 ADD MSTORE PUSH1 0x80 DUP1 DUP4 ADD MLOAD SWAP1 DUP3 ADD MSTORE PUSH1 0xA0 DUP1 DUP4 ADD MLOAD ISZERO ISZERO SWAP1 DUP3 ADD MSTORE PUSH1 0xC0 SWAP2 DUP3 ADD MLOAD ISZERO ISZERO SWAP2 DUP2 ADD SWAP2 SWAP1 SWAP2 MSTORE PUSH1 0xE0 ADD JUMPDEST PUSH1 0x40 MLOAD DUP1 SWAP2 SUB SWAP1 RETURN JUMPDEST PUSH2 0x290 PUSH2 0x253 CALLDATASIZE PUSH1 0x4 PUSH2 0x1DCF JUMP JUMPDEST PUSH1 0x1 PUSH1 0x1 PUSH1 0xA0 SHL SUB SWAP3 SWAP1 SWAP3 AND PUSH0 SWAP1 DUP2 MSTORE PUSH1 0x1 PUSH1 0x20 SWAP1 DUP2 MSTORE PUSH1 0x40 DUP1 DUP4 KECCAK256 SWAP4 DUP4 MSTORE SWAP3 DUP2 MSTORE DUP3 DUP3 KECCAK256 SWAP4 DUP3 MSTORE SWAP3 SWAP1 SWAP3 MSTORE SWAP1 KECCAK256 PUSH1 0x5 ADD SLOAD PUSH2 0x100 SWAP1 DIV PUSH1 0xFF AND SWAP1 JUMP JUMPDEST PUSH1 0x40 MLOAD SWAP1 ISZERO ISZERO DUP2 MSTORE PUSH1 0x20 ADD PUSH2 0x23C JUMP JUMPDEST PUSH2 0x2CA PUSH2 0x2AE CALLDATASIZE PUSH1 0x4 PUSH2 0x1DFF JUMP JUMPDEST PUSH1 0x2 PUSH1 0x20 SWAP1 DUP2 MSTORE PUSH0 SWAP3 DUP4 MSTORE PUSH1 0x40 DUP1 DUP5 KECCAK256 SWAP1 SWAP2 MSTORE SWAP1 DUP3 MSTORE SWAP1 KECCAK256 SLOAD DUP2 JUMP JUMPDEST PUSH1 0x40 MLOAD SWAP1 DUP2 MSTORE PUSH1 0x20 ADD PUSH2 0x23C JUMP JUMPDEST PUSH2 0x2CA PUSH2 0x2E6 CALLDATASIZE PUSH1 0x4 PUSH2 0x1DFF JUMP JUMPDEST PUSH2 0x59D JUMP JUMPDEST PUSH2 0x2FE PUSH2 0x2F9 CALLDATASIZE PUSH1 0x4 PUSH2 0x1E34 JUMP JUMPDEST PUSH2 0x5C7 JUMP JUMPDEST STOP JUMPDEST PUSH2 0x342 PUSH2 0x30E CALLDATASIZE PUSH1 0x4 PUSH2 0x1DCF JUMP JUMPDEST PUSH1 0x1 PUSH1 0x1 PUSH1 0xA0 SHL SUB SWAP3 DUP4 AND PUSH0 SWAP1 DUP2 MSTORE PUSH1 0x1 PUSH1 0x20 SWAP1 DUP2 MSTORE PUSH1 0x40 DUP1 DUP4 KECCAK256 SWAP5 DUP4 MSTORE SWAP4 DUP2 MSTORE DUP4 DUP3 KECCAK256 SWAP3 DUP3 MSTORE SWAP2 SWAP1 SWAP2 MSTORE KECCAK256 PUSH1 0x2 ADD SLOAD AND SWAP1 JUMP JUMPDEST PUSH1 0x40 MLOAD PUSH1 0x1 PUSH1 0x1 PUSH1 0xA0 SHL SUB SWAP1 SWAP2 AND DUP2 MSTORE PUSH1 0x20 ADD PUSH2 0x23C JUMP JUMPDEST PUSH2 0x2CA PUSH2 0x368 CALLDATASIZE PUSH1 0x4 PUSH2 0x1DCF JUMP JUMPDEST PUSH1 0x1 PUSH1 0x1 PUSH1 0xA0 SHL SUB DUP4 AND PUSH0 SWAP1 DUP2 MSTORE PUSH1 0x1 PUSH1 0x20 SWAP1 DUP2 MSTORE PUSH1 0x40 DUP1 DUP4 KECCAK256 DUP6 DUP5 MSTORE DUP3 MSTORE DUP1 DUP4 KECCAK256 DUP5 DUP5 MSTORE SWAP1 SWAP2 MSTORE SWAP1 KECCAK256 PUSH1 0x3 ADD SLOAD SWAP4 SWAP3 POP POP POP JUMP JUMPDEST PUSH2 0x2FE PUSH2 0x3AB CALLDATASIZE PUSH1 0x4 PUSH2 0x1E9A JUMP JUMPDEST PUSH2 0x72A JUMP JUMPDEST PUSH2 0x2FE PUSH2 0x3BE CALLDATASIZE PUSH1 0x4 PUSH2 0x1EB1 JUMP JUMPDEST PUSH2 0x9A2 JUMP JUMPDEST PUSH2 0x431 PUSH2 0x3D1 CALLDATASIZE PUSH1 0x4 PUSH2 0x1DCF JUMP JUMPDEST PUSH1 0x1 PUSH1 0x20 DUP2 DUP2 MSTORE PUSH0 SWAP5 DUP6 MSTORE PUSH1 0x40 DUP1 DUP7 KECCAK256 DUP3 MSTORE SWAP4 DUP6 MSTORE DUP4 DUP6 KECCAK256 SWAP1 MSTORE SWAP1 DUP4 MSTORE SWAP2 KECCAK256 DUP1 SLOAD SWAP2 DUP2 ADD SLOAD PUSH1 0x2 DUP3 ADD SLOAD PUSH1 0x3 DUP4 ADD SLOAD PUSH1 0x4 DUP5 ADD SLOAD PUSH1 0x5 SWAP1 SWAP5 ADD SLOAD PUSH1 0x1 PUSH1 0x1 PUSH1 0xA0 SHL SUB SWAP6 DUP7 AND SWAP6 SWAP4 DUP5 AND SWAP5 SWAP4 SWAP1 SWAP3 AND SWAP3 SWAP1 SWAP2 PUSH1 0xFF DUP1 DUP3 AND SWAP2 PUSH2 0x100 SWAP1 DIV AND DUP8 JUMP JUMPDEST PUSH1 0x40 DUP1 MLOAD PUSH1 0x1 PUSH1 0x1 PUSH1 0xA0 SHL SUB SWAP9 DUP10 AND DUP2 MSTORE SWAP7 DUP9 AND PUSH1 0x20 DUP9 ADD MSTORE SWAP5 SWAP1 SWAP7 AND SWAP4 DUP6 ADD SWAP4 SWAP1 SWAP4 MSTORE PUSH1 0x60 DUP5 ADD SWAP2 SWAP1 SWAP2 MSTORE PUSH1 0x80 DUP4 ADD MSTORE ISZERO ISZERO PUSH1 0xA0 DUP3 ADD MSTORE SWAP1 ISZERO ISZERO PUSH1 0xC0 DUP3 ADD MSTORE PUSH1 0xE0 ADD PUSH2 0x23C JUMP JUMPDEST PUSH2 0x2CA PUSH2 0x487 CALLDATASIZE PUSH1 0x4 PUSH2 0x1EC8 JUMP JUMPDEST PUSH1 0x3 PUSH1 0x20 SWAP1 DUP2 MSTORE PUSH0 SWAP3 DUP4 MSTORE PUSH1 0x40 DUP1 DUP5 KECCAK256 SWAP1 SWAP2 MSTORE SWAP1 DUP3 MSTORE SWAP1 KECCAK256 SLOAD DUP2 JUMP JUMPDEST PUSH2 0x2CA PUSH0 SLOAD DUP2 JUMP JUMPDEST PUSH2 0x2FE PUSH2 0x4B9 CALLDATASIZE PUSH1 0x4 PUSH2 0x1E9A JUMP JUMPDEST PUSH2 0xF8D JUMP JUMPDEST PUSH2 0x290 PUSH2 0x4CC CALLDATASIZE PUSH1 0x4 PUSH2 0x1DCF JUMP JUMPDEST PUSH1 0x1 PUSH1 0x1 PUSH1 0xA0 SHL SUB DUP4 AND PUSH0 SWAP1 DUP2 MSTORE PUSH1 0x1 PUSH1 0x20 SWAP1 DUP2 MSTORE PUSH1 0x40 DUP1 DUP4 KECCAK256 DUP6 DUP5 MSTORE DUP3 MSTORE DUP1 DUP4 KECCAK256 DUP5 DUP5 MSTORE SWAP1 SWAP2 MSTORE SWAP1 KECCAK256 PUSH1 0x5 ADD SLOAD PUSH1 0xFF AND SWAP4 SWAP3 POP POP POP JUMP JUMPDEST PUSH2 0x2FE PUSH2 0x512 CALLDATASIZE PUSH1 0x4 PUSH2 0x1F06 JUMP JUMPDEST PUSH2 0xFC3 JUMP JUMPDEST PUSH2 0x2CA PUSH2 0x525 CALLDATASIZE PUSH1 0x4 PUSH2 0x1DCF JUMP JUMPDEST PUSH1 0x1 PUSH1 0x1 PUSH1 0xA0 SHL SUB DUP4 AND PUSH0 SWAP1 DUP2 MSTORE PUSH1 0x1 PUSH1 0x20 SWAP1 DUP2 MSTORE PUSH1 0x40 DUP1 DUP4 KECCAK256 DUP6 DUP5 MSTORE DUP3 MSTORE DUP1 DUP4 KECCAK256 DUP5 DUP5 MSTORE SWAP1 SWAP2 MSTORE SWAP1 KECCAK256 PUSH1 0x4 ADD SLOAD SWAP4 SWAP3 POP POP POP JUMP JUMPDEST PUSH2 0x342 PUSH2 0x568 CALLDATASIZE PUSH1 0x4 PUSH2 0x1DCF JUMP JUMPDEST PUSH1 0x1 PUSH1 0x1 PUSH1 0xA0 SHL SUB SWAP3 DUP4 AND PUSH0 SWAP1 DUP2 MSTORE PUSH1 0x1 PUSH1 0x20 DUP2 DUP2 MSTORE PUSH1 0x40 DUP1 DUP5 KECCAK256 SWAP6 DUP5 MSTORE SWAP5 DUP2 MSTORE DUP5 DUP4 KECCAK256 SWAP4 DUP4 MSTORE SWAP3 SWAP1 SWAP3 MSTORE SWAP2 SWAP1 SWAP2 KECCAK256 ADD SLOAD AND SWAP1 JUMP JUMPDEST PUSH1 0x1 PUSH1 0x1 PUSH1 0xA0 SHL SUB DUP3 AND PUSH0 SWAP1 DUP2 MSTORE PUSH1 0x2 PUSH1 0x20 SWAP1 DUP2 MSTORE PUSH1 0x40 DUP1 DUP4 KECCAK256 DUP5 DUP5 MSTORE SWAP1 SWAP2 MSTORE SWAP1 KECCAK256 SLOAD JUMPDEST SWAP3 SWAP2 POP POP JUMP JUMPDEST PUSH0 DUP1 SLOAD SWAP1 DUP1 PUSH2 0x5D5 DUP4 PUSH2 0x1FF6 JUMP JUMPDEST SWAP1 SWAP2 SSTORE POP PUSH2 0x5F0 SWAP1 POP PUSH1 0x1 PUSH1 0x1 PUSH1 0xA0 SHL SUB DUP7 AND CALLER ADDRESS DUP6 PUSH2 0x1978 JUMP JUMPDEST PUSH1 0x40 DUP1 MLOAD PUSH1 0xE0 DUP2 ADD DUP3 MSTORE PUSH1 0x1 PUSH1 0x1 PUSH1 0xA0 SHL SUB DUP1 DUP10 AND DUP1 DUP4 MSTORE DUP9 DUP3 AND PUSH1 0x20 DUP1 DUP6 ADD DUP3 DUP2 MSTORE DUP11 DUP6 AND DUP7 DUP9 ADD SWAP1 DUP2 MSTORE PUSH1 0x60 DUP8 ADD DUP11 DUP2 MSTORE PUSH1 0x80 DUP9 ADD DUP13 DUP2 MSTORE DUP11 ISZERO ISZERO PUSH1 0xA0 DUP11 ADD SWAP1 DUP2 MSTORE PUSH0 PUSH1 0xC0 DUP12 ADD DUP2 DUP2 MSTORE DUP10 DUP3 MSTORE PUSH1 0x1 DUP1 DUP10 MSTORE DUP14 DUP4 KECCAK256 DUP4 SLOAD DUP5 MSTORE DUP10 MSTORE DUP14 DUP4 KECCAK256 DUP2 DUP5 MSTORE DUP10 MSTORE DUP14 DUP4 KECCAK256 SWAP13 MLOAD DUP14 SLOAD SWAP1 DUP14 AND PUSH1 0x1 PUSH1 0x1 PUSH1 0xA0 SHL SUB NOT SWAP2 DUP3 AND OR DUP15 SSTORE SWAP8 MLOAD DUP14 DUP3 ADD DUP1 SLOAD SWAP2 DUP15 AND SWAP2 DUP11 AND SWAP2 SWAP1 SWAP2 OR SWAP1 SSTORE SWAP6 MLOAD PUSH1 0x2 DUP1 DUP15 ADD DUP1 SLOAD SWAP3 SWAP1 SWAP14 AND SWAP2 SWAP1 SWAP9 AND OR SWAP1 SWAP11 SSTORE SWAP3 MLOAD PUSH1 0x3 DUP12 ADD SSTORE SWAP1 MLOAD PUSH1 0x4 DUP11 ADD SSTORE MLOAD PUSH1 0x5 SWAP1 SWAP9 ADD DUP1 SLOAD SWAP8 MLOAD ISZERO ISZERO PUSH2 0x100 MUL PUSH2 0xFF00 NOT SWAP10 ISZERO ISZERO SWAP10 SWAP1 SWAP10 AND PUSH2 0xFFFF NOT SWAP1 SWAP9 AND SWAP8 SWAP1 SWAP8 OR SWAP8 SWAP1 SWAP8 OR SWAP1 SWAP6 SSTORE DUP4 DUP7 MSTORE DUP2 MSTORE DUP6 DUP6 KECCAK256 DUP6 SLOAD DUP7 MSTORE SWAP1 MSTORE DUP5 DUP5 KECCAK256 SWAP3 SWAP1 SWAP3 SSTORE SWAP2 SLOAD SWAP3 MLOAD SWAP1 SWAP3 PUSH32 0x989EAA915CBB416EA3D6F9A63B1A3DE51770C7674B11FE21ECDF76B4E1D13910 SWAP2 PUSH2 0x71A SWAP2 DUP2 MSTORE PUSH1 0x20 ADD SWAP1 JUMP JUMPDEST PUSH1 0x40 MLOAD DUP1 SWAP2 SUB SWAP1 LOG3 POP POP POP POP POP POP JUMP JUMPDEST CALLER PUSH0 DUP2 DUP2 MSTORE PUSH1 0x2 PUSH1 0x20 SWAP1 DUP2 MSTORE PUSH1 0x40 DUP1 DUP4 KECCAK256 DUP6 DUP5 MSTORE DUP3 MSTORE DUP1 DUP4 KECCAK256 SLOAD SWAP4 DUP4 MSTORE PUSH1 0x4 DUP3 MSTORE DUP1 DUP4 KECCAK256 DUP6 DUP5 MSTORE SWAP1 SWAP2 MSTORE SWAP1 KECCAK256 SLOAD DUP2 GT PUSH2 0x79B JUMPI PUSH1 0x40 MLOAD PUSH3 0x461BCD PUSH1 0xE5 SHL DUP2 MSTORE PUSH1 0x20 PUSH1 0x4 DUP3 ADD MSTORE PUSH1 0xE PUSH1 0x24 DUP3 ADD MSTORE PUSH14 0x436C61696D20436F6D706C657465 PUSH1 0x90 SHL PUSH1 0x44 DUP3 ADD MSTORE PUSH1 0x64 ADD JUMPDEST PUSH1 0x40 MLOAD DUP1 SWAP2 SUB SWAP1 REVERT JUMPDEST CALLER PUSH0 SWAP1 DUP2 MSTORE PUSH1 0x4 PUSH1 0x20 SWAP1 DUP2 MSTORE PUSH1 0x40 DUP1 DUP4 KECCAK256 DUP6 DUP5 MSTORE SWAP1 SWAP2 MSTORE DUP2 KECCAK256 SLOAD PUSH2 0x7C0 SWAP1 PUSH1 0x1 PUSH2 0x200E JUMP JUMPDEST CALLER PUSH0 SWAP1 DUP2 MSTORE PUSH1 0x1 PUSH1 0x20 SWAP1 DUP2 MSTORE PUSH1 0x40 DUP1 DUP4 KECCAK256 DUP8 DUP5 MSTORE DUP3 MSTORE DUP1 DUP4 KECCAK256 DUP5 DUP5 MSTORE SWAP1 SWAP2 MSTORE SWAP1 KECCAK256 PUSH1 0x4 ADD SLOAD SWAP1 SWAP2 POP TIMESTAMP LT ISZERO PUSH2 0x82A JUMPI PUSH1 0x40 MLOAD PUSH3 0x461BCD PUSH1 0xE5 SHL DUP2 MSTORE PUSH1 0x20 PUSH1 0x4 DUP3 ADD MSTORE PUSH1 0x10 PUSH1 0x24 DUP3 ADD MSTORE PUSH16 0x151A5B5948139BDD081C995858DA1959 PUSH1 0x82 SHL PUSH1 0x44 DUP3 ADD MSTORE PUSH1 0x64 ADD PUSH2 0x792 JUMP JUMPDEST CALLER PUSH0 SWAP1 DUP2 MSTORE PUSH1 0x1 PUSH1 0x20 SWAP1 DUP2 MSTORE PUSH1 0x40 DUP1 DUP4 KECCAK256 DUP7 DUP5 MSTORE DUP3 MSTORE DUP1 DUP4 KECCAK256 DUP5 DUP5 MSTORE SWAP1 SWAP2 MSTORE SWAP1 KECCAK256 PUSH1 0x5 ADD SLOAD PUSH2 0x100 SWAP1 DIV PUSH1 0xFF AND ISZERO PUSH2 0x88E JUMPI PUSH1 0x40 MLOAD PUSH3 0x461BCD PUSH1 0xE5 SHL DUP2 MSTORE PUSH1 0x20 PUSH1 0x4 DUP3 ADD MSTORE PUSH1 0x7 PUSH1 0x24 DUP3 ADD MSTORE PUSH7 0x10DB185A5B5959 PUSH1 0xCA SHL PUSH1 0x44 DUP3 ADD MSTORE PUSH1 0x64 ADD PUSH2 0x792 JUMP JUMPDEST CALLER PUSH0 SWAP1 DUP2 MSTORE PUSH1 0x1 PUSH1 0x20 DUP2 DUP2 MSTORE PUSH1 0x40 DUP1 DUP5 KECCAK256 DUP8 DUP6 MSTORE DUP3 MSTORE DUP1 DUP5 KECCAK256 DUP4 DUP6 MSTORE SWAP1 SWAP2 MSTORE DUP3 KECCAK256 SWAP1 DUP2 ADD SLOAD PUSH1 0x2 SWAP1 SWAP2 ADD SLOAD PUSH1 0x1 PUSH1 0x1 PUSH1 0xA0 SHL SUB SWAP2 DUP3 AND SWAP3 SWAP2 AND SWAP1 DUP4 JUMPDEST DUP6 DUP2 GT PUSH2 0x985 JUMPI CALLER PUSH0 SWAP1 DUP2 MSTORE PUSH1 0x1 PUSH1 0x20 SWAP1 DUP2 MSTORE PUSH1 0x40 DUP1 DUP4 KECCAK256 DUP11 DUP5 MSTORE DUP3 MSTORE DUP1 DUP4 KECCAK256 DUP5 DUP5 MSTORE SWAP1 SWAP2 MSTORE SWAP1 KECCAK256 PUSH1 0x4 ADD SLOAD TIMESTAMP LT PUSH2 0x96E JUMPI CALLER PUSH0 SWAP1 DUP2 MSTORE PUSH1 0x1 PUSH1 0x20 SWAP1 DUP2 MSTORE PUSH1 0x40 DUP1 DUP4 KECCAK256 DUP11 DUP5 MSTORE DUP3 MSTORE DUP1 DUP4 KECCAK256 DUP5 DUP5 MSTORE SWAP1 SWAP2 MSTORE SWAP1 KECCAK256 PUSH1 0x5 DUP2 ADD DUP1 SLOAD PUSH2 0xFF00 NOT AND PUSH2 0x100 OR SWAP1 SSTORE PUSH1 0x3 ADD SLOAD PUSH2 0x93C SWAP1 DUP4 PUSH2 0x200E JUMP JUMPDEST CALLER PUSH0 SWAP1 DUP2 MSTORE PUSH1 0x4 PUSH1 0x20 SWAP1 DUP2 MSTORE PUSH1 0x40 DUP1 DUP4 KECCAK256 DUP12 DUP5 MSTORE SWAP1 SWAP2 MSTORE DUP2 KECCAK256 DUP1 SLOAD SWAP3 SWAP5 POP SWAP1 PUSH2 0x964 DUP4 PUSH2 0x1FF6 JUMP JUMPDEST SWAP2 SWAP1 POP SSTORE POP PUSH2 0x973 JUMP JUMPDEST PUSH2 0x985 JUMP JUMPDEST DUP1 PUSH2 0x97D DUP2 PUSH2 0x1FF6 JUMP JUMPDEST SWAP2 POP POP PUSH2 0x8CA JUMP JUMPDEST POP PUSH2 0x99A PUSH1 0x1 PUSH1 0x1 PUSH1 0xA0 SHL SUB DUP5 AND DUP4 DUP4 PUSH2 0x19E9 JUMP JUMPDEST POP POP POP POP POP POP JUMP JUMPDEST PUSH2 0x100 DUP2 ADD CALLDATALOAD DUP1 PUSH2 0x9E2 JUMPI PUSH1 0x40 MLOAD PUSH3 0x461BCD PUSH1 0xE5 SHL DUP2 MSTORE PUSH1 0x20 PUSH1 0x4 DUP3 ADD MSTORE PUSH1 0xA PUSH1 0x24 DUP3 ADD MSTORE PUSH10 0x436F756E74206973204F PUSH1 0xB0 SHL PUSH1 0x44 DUP3 ADD MSTORE PUSH1 0x64 ADD PUSH2 0x792 JUMP JUMPDEST PUSH0 DUP3 PUSH1 0x40 ADD CALLDATALOAD GT PUSH2 0xA28 JUMPI PUSH1 0x40 MLOAD PUSH3 0x461BCD PUSH1 0xE5 SHL DUP2 MSTORE PUSH1 0x20 PUSH1 0x4 DUP3 ADD MSTORE PUSH1 0x10 PUSH1 0x24 DUP3 ADD MSTORE PUSH16 0x4C6F636B20616D6F756E74206973203 PUSH1 0x84 SHL PUSH1 0x44 DUP3 ADD MSTORE PUSH1 0x64 ADD PUSH2 0x792 JUMP JUMPDEST PUSH1 0x1 DUP2 GT PUSH0 PUSH2 0x2710 PUSH1 0x80 DUP6 ADD CALLDATALOAD GT ISZERO PUSH2 0xA8D JUMPI PUSH1 0x40 MLOAD PUSH3 0x461BCD PUSH1 0xE5 SHL DUP2 MSTORE PUSH1 0x20 PUSH1 0x4 DUP3 ADD MSTORE PUSH1 0x21 PUSH1 0x24 DUP3 ADD MSTORE PUSH32 0x666972737450657263656E746167652067726561746572207468656E20313030 PUSH1 0x44 DUP3 ADD MSTORE PUSH1 0x25 PUSH1 0xF8 SHL PUSH1 0x64 DUP3 ADD MSTORE PUSH1 0x84 ADD PUSH2 0x792 JUMP JUMPDEST PUSH0 DUP1 DUP4 ISZERO PUSH2 0xB06 JUMPI PUSH1 0xC0 DUP7 ADD CALLDATALOAD PUSH2 0xAA5 PUSH1 0x1 DUP8 PUSH2 0x2021 JUMP JUMPDEST PUSH2 0xAAF SWAP2 SWAP1 PUSH2 0x2034 JUMP JUMPDEST PUSH2 0xABD SWAP1 PUSH1 0x80 DUP9 ADD CALLDATALOAD PUSH2 0x200E JUMP JUMPDEST SWAP3 POP PUSH2 0x2710 PUSH2 0xAD4 PUSH1 0xC0 DUP9 ADD CALLDATALOAD PUSH1 0x40 DUP10 ADD CALLDATALOAD PUSH2 0x2034 JUMP JUMPDEST PUSH2 0xADE SWAP2 SWAP1 PUSH2 0x204B JUMP JUMPDEST SWAP2 POP PUSH2 0x2710 PUSH2 0xAF5 PUSH1 0x80 DUP9 ADD CALLDATALOAD PUSH1 0x40 DUP10 ADD CALLDATALOAD PUSH2 0x2034 JUMP JUMPDEST PUSH2 0xAFF SWAP2 SWAP1 PUSH2 0x204B JUMP JUMPDEST SWAP1 POP PUSH2 0xB14 JUMP JUMPDEST POP PUSH1 0x80 DUP6 ADD CALLDATALOAD SWAP2 POP PUSH1 0x40 DUP6 ADD CALLDATALOAD JUMPDEST PUSH2 0x2710 DUP4 LT ISZERO PUSH2 0xB5E JUMPI PUSH1 0x40 MLOAD PUSH3 0x461BCD PUSH1 0xE5 SHL DUP2 MSTORE PUSH1 0x20 PUSH1 0x4 DUP3 ADD MSTORE PUSH1 0x15 PUSH1 0x24 DUP3 ADD MSTORE PUSH21 0x50657263656E74204E6F7420557020546F2031303 PUSH1 0x5C SHL PUSH1 0x44 DUP3 ADD MSTORE PUSH1 0x64 ADD PUSH2 0x792 JUMP JUMPDEST PUSH2 0xB86 CALLER ADDRESS PUSH1 0x40 DUP10 ADD CALLDATALOAD PUSH2 0xB75 PUSH1 0x20 DUP12 ADD DUP12 PUSH2 0x206A JUMP JUMPDEST PUSH1 0x1 PUSH1 0x1 PUSH1 0xA0 SHL SUB AND SWAP3 SWAP2 SWAP1 PUSH2 0x1978 JUMP JUMPDEST PUSH0 DUP1 SLOAD SWAP1 DUP1 PUSH2 0xB94 DUP4 PUSH2 0x1FF6 JUMP JUMPDEST SWAP1 SWAP2 SSTORE POP POP PUSH0 DUP1 SLOAD DUP2 MSTORE PUSH1 0x3 PUSH1 0x20 SWAP1 DUP2 MSTORE PUSH1 0x40 DUP1 DUP4 KECCAK256 SWAP1 DUP10 ADD CALLDATALOAD SWAP3 SWAP1 SWAP2 PUSH2 0xBBD SWAP1 DUP11 ADD DUP11 PUSH2 0x206A JUMP JUMPDEST PUSH1 0x1 PUSH1 0x1 PUSH1 0xA0 SHL SUB AND DUP2 MSTORE PUSH1 0x20 DUP1 DUP3 ADD SWAP3 SWAP1 SWAP3 MSTORE PUSH1 0x40 SWAP1 DUP2 ADD PUSH0 KECCAK256 SWAP3 SWAP1 SWAP3 SSTORE DUP2 MLOAD PUSH1 0xE0 DUP2 ADD SWAP1 SWAP3 MSTORE CALLER DUP3 MSTORE DUP2 DUP2 ADD SWAP1 PUSH2 0xBF8 SWAP1 DUP10 ADD DUP10 PUSH2 0x206A JUMP JUMPDEST PUSH1 0x1 PUSH1 0x1 PUSH1 0xA0 SHL SUB AND DUP2 MSTORE PUSH1 0x20 ADD DUP8 PUSH1 0x20 ADD PUSH1 0x20 DUP2 ADD SWAP1 PUSH2 0xC19 SWAP2 SWAP1 PUSH2 0x206A JUMP JUMPDEST PUSH1 0x1 PUSH1 0x1 PUSH1 0xA0 SHL SUB AND DUP2 MSTORE PUSH1 0x20 ADD DUP3 DUP2 MSTORE PUSH1 0x20 ADD DUP8 PUSH1 0xA0 ADD CALLDATALOAD DUP2 MSTORE PUSH1 0x20 ADD DUP8 PUSH1 0x60 ADD PUSH1 0x20 DUP2 ADD SWAP1 PUSH2 0xC4A SWAP2 SWAP1 PUSH2 0x208A JUMP JUMPDEST ISZERO ISZERO DUP2 MSTORE PUSH0 PUSH1 0x20 SWAP2 DUP3 ADD DUP2 SWAP1 MSTORE CALLER DUP2 MSTORE PUSH1 0x1 DUP1 DUP4 MSTORE PUSH1 0x40 DUP1 DUP4 KECCAK256 DUP4 SLOAD DUP5 MSTORE DUP5 MSTORE DUP1 DUP4 KECCAK256 DUP3 DUP5 MSTORE DUP5 MSTORE SWAP2 DUP3 SWAP1 KECCAK256 DUP5 MLOAD DUP2 SLOAD PUSH1 0x1 PUSH1 0x1 PUSH1 0xA0 SHL SUB NOT SWAP1 DUP2 AND PUSH1 0x1 PUSH1 0x1 PUSH1 0xA0 SHL SUB SWAP3 DUP4 AND OR DUP4 SSTORE SWAP5 DUP7 ADD MLOAD SWAP3 DUP3 ADD DUP1 SLOAD DUP7 AND SWAP4 DUP3 AND SWAP4 SWAP1 SWAP4 OR SWAP1 SWAP3 SSTORE SWAP2 DUP5 ADD MLOAD PUSH1 0x2 DUP4 ADD DUP1 SLOAD SWAP1 SWAP5 AND SWAP2 AND OR SWAP1 SWAP2 SSTORE PUSH1 0x60 DUP3 ADD MLOAD PUSH1 0x3 DUP3 ADD SSTORE PUSH1 0x80 DUP1 DUP4 ADD MLOAD PUSH1 0x4 DUP4 ADD SSTORE PUSH1 0xA0 DUP1 DUP5 ADD MLOAD PUSH1 0x5 SWAP1 SWAP4 ADD DUP1 SLOAD PUSH1 0xC0 SWAP1 SWAP6 ADD MLOAD PUSH2 0xFFFF NOT SWAP1 SWAP6 AND SWAP4 ISZERO ISZERO PUSH2 0xFF00 NOT AND SWAP4 SWAP1 SWAP4 OR PUSH2 0x100 SWAP5 ISZERO ISZERO SWAP5 SWAP1 SWAP5 MUL SWAP4 SWAP1 SWAP4 OR SWAP1 SWAP2 SSTORE SWAP1 DUP8 ADD CALLDATALOAD SWAP1 DUP8 ADD CALLDATALOAD DUP6 ISZERO PUSH2 0xF0D JUMPI PUSH0 DUP1 SLOAD DUP2 MSTORE PUSH1 0x5 PUSH1 0x20 SWAP1 DUP2 MSTORE PUSH1 0x40 DUP1 DUP4 KECCAK256 DUP1 SLOAD PUSH1 0x1 DUP2 DUP2 ADD DUP4 SSTORE SWAP2 DUP6 MSTORE DUP4 DUP6 KECCAK256 PUSH1 0x80 DUP15 ADD CALLDATALOAD SWAP2 ADD SSTORE DUP4 SLOAD DUP5 MSTORE SWAP1 DUP4 KECCAK256 DUP1 SLOAD SWAP2 DUP3 ADD DUP2 SSTORE DUP4 MSTORE SWAP2 KECCAK256 PUSH1 0xC0 DUP11 ADD CALLDATALOAD SWAP2 ADD SSTORE PUSH1 0x2 JUMPDEST DUP8 DUP2 GT PUSH2 0xF0B JUMPI PUSH2 0xD70 PUSH1 0xC0 DUP11 ADD CALLDATALOAD DUP4 PUSH2 0x200E JUMP JUMPDEST SWAP2 POP PUSH2 0x2710 DUP3 GT ISZERO PUSH2 0xDBF JUMPI PUSH2 0xD8A PUSH1 0xC0 DUP11 ADD CALLDATALOAD DUP4 PUSH2 0x2021 JUMP JUMPDEST SWAP2 POP PUSH0 PUSH2 0xD99 DUP4 PUSH2 0x2710 PUSH2 0x2021 JUMP JUMPDEST SWAP1 POP PUSH2 0x2710 PUSH2 0xDAC DUP3 PUSH1 0x40 DUP14 ADD CALLDATALOAD PUSH2 0x2034 JUMP JUMPDEST PUSH2 0xDB6 SWAP2 SWAP1 PUSH2 0x204B JUMP JUMPDEST SWAP6 POP PUSH2 0x2710 SWAP3 POP POP JUMPDEST PUSH2 0xDCD PUSH1 0xE0 DUP11 ADD CALLDATALOAD DUP5 PUSH2 0x200E JUMP JUMPDEST PUSH1 0x40 DUP1 MLOAD PUSH1 0xE0 DUP2 ADD SWAP1 SWAP2 MSTORE CALLER DUP2 MSTORE SWAP1 SWAP4 POP PUSH1 0x20 DUP1 DUP3 ADD SWAP1 PUSH2 0xDF0 SWAP1 DUP13 ADD DUP13 PUSH2 0x206A JUMP JUMPDEST PUSH1 0x1 PUSH1 0x1 PUSH1 0xA0 SHL SUB AND DUP2 MSTORE PUSH1 0x20 ADD DUP11 PUSH1 0x20 ADD PUSH1 0x20 DUP2 ADD SWAP1 PUSH2 0xE11 SWAP2 SWAP1 PUSH2 0x206A JUMP JUMPDEST PUSH1 0x1 PUSH1 0x1 PUSH1 0xA0 SHL SUB AND DUP2 MSTORE PUSH1 0x20 ADD DUP7 DUP2 MSTORE PUSH1 0x20 ADD DUP5 DUP2 MSTORE PUSH1 0x20 ADD DUP11 PUSH1 0x60 ADD PUSH1 0x20 DUP2 ADD SWAP1 PUSH2 0xE3E SWAP2 SWAP1 PUSH2 0x208A JUMP JUMPDEST ISZERO ISZERO DUP2 MSTORE PUSH0 PUSH1 0x20 SWAP2 DUP3 ADD DUP2 SWAP1 MSTORE CALLER DUP2 MSTORE PUSH1 0x1 DUP1 DUP4 MSTORE PUSH1 0x40 DUP1 DUP4 KECCAK256 DUP4 SLOAD DUP5 MSTORE DUP5 MSTORE DUP1 DUP4 KECCAK256 DUP7 DUP5 MSTORE DUP5 MSTORE SWAP2 DUP3 SWAP1 KECCAK256 DUP5 MLOAD DUP2 SLOAD PUSH1 0x1 PUSH1 0x1 PUSH1 0xA0 SHL SUB NOT SWAP1 DUP2 AND PUSH1 0x1 PUSH1 0x1 PUSH1 0xA0 SHL SUB SWAP3 DUP4 AND OR DUP4 SSTORE SWAP5 DUP7 ADD MLOAD SWAP3 DUP3 ADD DUP1 SLOAD DUP7 AND SWAP4 DUP3 AND SWAP4 SWAP1 SWAP4 OR SWAP1 SWAP3 SSTORE SWAP2 DUP5 ADD MLOAD PUSH1 0x2 DUP4 ADD DUP1 SLOAD SWAP1 SWAP5 AND SWAP2 AND OR SWAP1 SWAP2 SSTORE PUSH1 0x60 DUP3 ADD MLOAD PUSH1 0x3 DUP3 ADD SSTORE PUSH1 0x80 DUP3 ADD MLOAD PUSH1 0x4 DUP3 ADD SSTORE PUSH1 0xA0 DUP3 ADD MLOAD PUSH1 0x5 SWAP1 SWAP2 ADD DUP1 SLOAD PUSH1 0xC0 SWAP1 SWAP4 ADD MLOAD PUSH2 0xFFFF NOT SWAP1 SWAP4 AND SWAP2 ISZERO ISZERO PUSH2 0xFF00 NOT AND SWAP2 SWAP1 SWAP2 OR PUSH2 0x100 SWAP3 ISZERO ISZERO SWAP3 SWAP1 SWAP3 MUL SWAP2 SWAP1 SWAP2 OR SWAP1 SSTORE DUP1 PUSH2 0xF03 DUP2 PUSH2 0x1FF6 JUMP JUMPDEST SWAP2 POP POP PUSH2 0xD5B JUMP JUMPDEST POP JUMPDEST CALLER PUSH0 SWAP1 DUP2 MSTORE PUSH1 0x2 PUSH1 0x20 SWAP1 DUP2 MSTORE PUSH1 0x40 DUP1 DUP4 KECCAK256 DUP4 SLOAD DUP5 MSTORE DUP3 MSTORE SWAP1 SWAP2 KECCAK256 DUP9 SWAP1 SSTORE PUSH2 0xF36 SWAP1 DUP10 ADD DUP10 PUSH2 0x206A JUMP JUMPDEST PUSH1 0x1 PUSH1 0x1 PUSH1 0xA0 SHL SUB AND CALLER PUSH1 0x1 PUSH1 0x1 PUSH1 0xA0 SHL SUB AND PUSH32 0x989EAA915CBB416EA3D6F9A63B1A3DE51770C7674B11FE21ECDF76B4E1D13910 PUSH0 SLOAD PUSH1 0x40 MLOAD PUSH2 0xF7B SWAP2 DUP2 MSTORE PUSH1 0x20 ADD SWAP1 JUMP JUMPDEST PUSH1 0x40 MLOAD DUP1 SWAP2 SUB SWAP1 LOG3 POP POP POP POP POP POP POP POP JUMP JUMPDEST CALLER PUSH0 SWAP1 DUP2 MSTORE PUSH1 0x2 PUSH1 0x20 SWAP1 DUP2 MSTORE PUSH1 0x40 DUP1 DUP4 KECCAK256 DUP5 DUP5 MSTORE SWAP1 SWAP2 MSTORE SWAP1 KECCAK256 SLOAD PUSH1 0x1 SUB PUSH2 0xFBA JUMPI PUSH2 0xFB7 DUP2 PUSH2 0x1A1E JUMP JUMPDEST POP JUMP JUMPDEST PUSH2 0xFB7 DUP2 PUSH2 0x72A JUMP JUMPDEST CALLER PUSH0 DUP2 DUP2 MSTORE PUSH1 0x1 PUSH1 0x20 DUP2 DUP2 MSTORE PUSH1 0x40 DUP1 DUP5 KECCAK256 DUP11 DUP6 MSTORE DUP3 MSTORE DUP1 DUP5 KECCAK256 SWAP3 DUP5 MSTORE SWAP2 SWAP1 MSTORE SWAP1 KECCAK256 SLOAD PUSH1 0x1 PUSH1 0x1 PUSH1 0xA0 SHL SUB AND EQ PUSH2 0x1027 JUMPI PUSH1 0x40 MLOAD PUSH3 0x461BCD PUSH1 0xE5 SHL DUP2 MSTORE PUSH1 0x20 PUSH1 0x4 DUP3 ADD MSTORE PUSH1 0x9 PUSH1 0x24 DUP3 ADD MSTORE PUSH9 0x2737BA1037BBB732B9 PUSH1 0xB9 SHL PUSH1 0x44 DUP3 ADD MSTORE PUSH1 0x64 ADD PUSH2 0x792 JUMP JUMPDEST CALLER PUSH0 SWAP1 DUP2 MSTORE PUSH1 0x1 PUSH1 0x20 DUP2 DUP2 MSTORE PUSH1 0x40 DUP1 DUP5 KECCAK256 DUP10 DUP6 MSTORE DUP3 MSTORE DUP1 DUP5 KECCAK256 SWAP3 DUP5 MSTORE SWAP2 SWAP1 MSTORE SWAP1 KECCAK256 PUSH1 0x4 ADD SLOAD DUP5 LT ISZERO PUSH2 0x1090 JUMPI PUSH1 0x40 MLOAD PUSH3 0x461BCD PUSH1 0xE5 SHL DUP2 MSTORE PUSH1 0x20 PUSH1 0x4 DUP3 ADD MSTORE PUSH1 0x12 PUSH1 0x24 DUP3 ADD MSTORE PUSH18 0x2A34B6B29031B0B73A1031329027B63232B9 PUSH1 0x71 SHL PUSH1 0x44 DUP3 ADD MSTORE PUSH1 0x64 ADD PUSH2 0x792 JUMP JUMPDEST CALLER PUSH0 SWAP1 DUP2 MSTORE PUSH1 0x1 PUSH1 0x20 DUP2 DUP2 MSTORE PUSH1 0x40 DUP1 DUP5 KECCAK256 DUP10 DUP6 MSTORE DUP3 MSTORE DUP1 DUP5 KECCAK256 SWAP3 DUP5 MSTORE SWAP2 SWAP1 MSTORE SWAP1 KECCAK256 PUSH1 0x5 ADD SLOAD PUSH2 0x100 SWAP1 DIV PUSH1 0xFF AND ISZERO PUSH2 0x1103 JUMPI PUSH1 0x40 MLOAD PUSH3 0x461BCD PUSH1 0xE5 SHL DUP2 MSTORE PUSH1 0x20 PUSH1 0x4 DUP3 ADD MSTORE PUSH1 0x16 PUSH1 0x24 DUP3 ADD MSTORE PUSH22 0x1D1BDAD95B8810DB185A5B5A5B99C814DD185C9D1959 PUSH1 0x52 SHL PUSH1 0x44 DUP3 ADD MSTORE PUSH1 0x64 ADD PUSH2 0x792 JUMP JUMPDEST CALLER PUSH0 SWAP1 DUP2 MSTORE PUSH1 0x2 PUSH1 0x20 SWAP1 DUP2 MSTORE PUSH1 0x40 DUP1 DUP4 KECCAK256 DUP9 DUP5 MSTORE SWAP1 SWAP2 MSTORE SWAP1 KECCAK256 SLOAD DUP2 ISZERO PUSH2 0x11B1 JUMPI CALLER PUSH0 DUP2 DUP2 MSTORE PUSH1 0x1 PUSH1 0x20 DUP2 DUP2 MSTORE PUSH1 0x40 DUP1 DUP5 KECCAK256 DUP12 DUP6 MSTORE DUP3 MSTORE DUP1 DUP5 KECCAK256 DUP4 DUP6 MSTORE SWAP1 SWAP2 MSTORE SWAP1 SWAP2 KECCAK256 ADD SLOAD PUSH2 0x115E SWAP2 PUSH1 0x1 PUSH1 0x1 PUSH1 0xA0 SHL SUB SWAP1 SWAP2 AND SWAP1 ADDRESS DUP6 PUSH2 0x1978 JUMP JUMPDEST PUSH0 DUP7 DUP2 MSTORE PUSH1 0x3 PUSH1 0x20 SWAP1 DUP2 MSTORE PUSH1 0x40 DUP1 DUP4 KECCAK256 CALLER DUP5 MSTORE PUSH1 0x1 DUP1 DUP5 MSTORE DUP3 DUP6 KECCAK256 DUP12 DUP7 MSTORE DUP5 MSTORE DUP3 DUP6 KECCAK256 DUP2 DUP7 MSTORE DUP5 MSTORE DUP3 DUP6 KECCAK256 ADD SLOAD PUSH1 0x1 PUSH1 0x1 PUSH1 0xA0 SHL SUB AND DUP5 MSTORE SWAP1 SWAP2 MSTORE DUP2 KECCAK256 DUP1 SLOAD DUP5 SWAP3 SWAP1 PUSH2 0x11AB SWAP1 DUP5 SWAP1 PUSH2 0x200E JUMP JUMPDEST SWAP1 SWAP2 SSTORE POP POP JUMPDEST PUSH1 0x1 DUP2 GT DUP1 ISZERO PUSH2 0x11DA JUMPI POP PUSH0 DUP4 PUSH1 0x1 DUP2 MLOAD DUP2 LT PUSH2 0x11D0 JUMPI PUSH2 0x11D0 PUSH2 0x20A5 JUMP JUMPDEST PUSH1 0x20 MUL PUSH1 0x20 ADD ADD MLOAD GT JUMPDEST DUP1 ISZERO PUSH2 0x11FE JUMPI POP PUSH0 DUP4 PUSH0 DUP2 MLOAD DUP2 LT PUSH2 0x11F4 JUMPI PUSH2 0x11F4 PUSH2 0x20A5 JUMP JUMPDEST PUSH1 0x20 MUL PUSH1 0x20 ADD ADD MLOAD GT JUMPDEST ISZERO PUSH2 0x18F1 JUMPI CALLER PUSH0 SWAP1 DUP2 MSTORE PUSH1 0x1 PUSH1 0x20 DUP2 DUP2 MSTORE PUSH1 0x40 DUP1 DUP5 KECCAK256 DUP11 DUP6 MSTORE DUP3 MSTORE DUP1 DUP5 KECCAK256 SWAP3 DUP5 MSTORE SWAP2 SWAP1 MSTORE DUP1 DUP3 KECCAK256 PUSH1 0x4 SWAP1 DUP2 ADD SLOAD PUSH1 0x2 DUP5 MSTORE SWAP2 DUP4 KECCAK256 ADD SLOAD DUP3 SWAP2 DUP3 SWAP2 DUP3 SWAP2 DUP3 SWAP2 PUSH2 0x1246 SWAP2 SWAP1 PUSH2 0x2021 JUMP JUMPDEST SWAP1 POP DUP1 DUP10 LT DUP1 PUSH2 0x1271 JUMPI POP PUSH2 0x2710 DUP9 PUSH0 DUP2 MLOAD DUP2 LT PUSH2 0x1266 JUMPI PUSH2 0x1266 PUSH2 0x20A5 JUMP JUMPDEST PUSH1 0x20 MUL PUSH1 0x20 ADD ADD MLOAD LT ISZERO JUMPDEST ISZERO PUSH2 0x12B5 JUMPI PUSH1 0x40 MLOAD PUSH3 0x461BCD PUSH1 0xE5 SHL DUP2 MSTORE PUSH1 0x20 PUSH1 0x4 DUP3 ADD MSTORE PUSH1 0x14 PUSH1 0x24 DUP3 ADD MSTORE PUSH20 0x2733B0B8101E1027B3B0B8103E1012B2B93937B9 PUSH1 0x61 SHL PUSH1 0x44 DUP3 ADD MSTORE PUSH1 0x64 ADD PUSH2 0x792 JUMP JUMPDEST PUSH0 DUP12 DUP2 MSTORE PUSH1 0x5 PUSH1 0x20 MSTORE PUSH1 0x40 DUP2 KECCAK256 DUP1 SLOAD SWAP1 SWAP2 SWAP1 PUSH2 0x12D3 JUMPI PUSH2 0x12D3 PUSH2 0x20A5 JUMP JUMPDEST SWAP1 PUSH0 MSTORE PUSH1 0x20 PUSH0 KECCAK256 ADD SLOAD DUP9 PUSH0 DUP2 MLOAD DUP2 LT PUSH2 0x12EE JUMPI PUSH2 0x12EE PUSH2 0x20A5 JUMP JUMPDEST PUSH1 0x20 MUL PUSH1 0x20 ADD ADD MLOAD GT DUP1 PUSH2 0x1343 JUMPI POP PUSH0 DUP12 DUP2 MSTORE PUSH1 0x5 PUSH1 0x20 MSTORE PUSH1 0x40 SWAP1 KECCAK256 DUP1 SLOAD PUSH1 0x1 SWAP1 DUP2 LT PUSH2 0x131D JUMPI PUSH2 0x131D PUSH2 0x20A5 JUMP JUMPDEST SWAP1 PUSH0 MSTORE PUSH1 0x20 PUSH0 KECCAK256 ADD SLOAD DUP9 PUSH1 0x1 DUP2 MLOAD DUP2 LT PUSH2 0x1339 JUMPI PUSH2 0x1339 PUSH2 0x20A5 JUMP JUMPDEST PUSH1 0x20 MUL PUSH1 0x20 ADD ADD MLOAD GT JUMPDEST ISZERO PUSH2 0x1385 JUMPI PUSH1 0x40 MLOAD PUSH3 0x461BCD PUSH1 0xE5 SHL DUP2 MSTORE PUSH1 0x20 PUSH1 0x4 DUP3 ADD MSTORE PUSH1 0x12 PUSH1 0x24 DUP3 ADD MSTORE PUSH18 0x496E76616C69642050657263656E74616765 PUSH1 0x70 SHL PUSH1 0x44 DUP3 ADD MSTORE PUSH1 0x64 ADD PUSH2 0x792 JUMP JUMPDEST DUP8 PUSH0 DUP2 MLOAD DUP2 LT PUSH2 0x1397 JUMPI PUSH2 0x1397 PUSH2 0x20A5 JUMP JUMPDEST PUSH1 0x20 MUL PUSH1 0x20 ADD ADD MLOAD SWAP3 POP DUP8 PUSH0 DUP2 MLOAD DUP2 LT PUSH2 0x13B3 JUMPI PUSH2 0x13B3 PUSH2 0x20A5 JUMP JUMPDEST PUSH1 0x20 MUL PUSH1 0x20 ADD ADD MLOAD DUP5 PUSH2 0x13C6 SWAP2 SWAP1 PUSH2 0x200E JUMP JUMPDEST SWAP4 POP DUP2 PUSH2 0x13D2 DUP2 PUSH2 0x1FF6 JUMP JUMPDEST SWAP3 POP POP PUSH2 0x2710 PUSH1 0x3 PUSH0 DUP14 DUP2 MSTORE PUSH1 0x20 ADD SWAP1 DUP2 MSTORE PUSH1 0x20 ADD PUSH0 KECCAK256 PUSH0 PUSH1 0x1 PUSH0 CALLER PUSH1 0x1 PUSH1 0x1 PUSH1 0xA0 SHL SUB AND PUSH1 0x1 PUSH1 0x1 PUSH1 0xA0 SHL SUB AND DUP2 MSTORE PUSH1 0x20 ADD SWAP1 DUP2 MSTORE PUSH1 0x20 ADD PUSH0 KECCAK256 PUSH0 DUP16 DUP2 MSTORE PUSH1 0x20 ADD SWAP1 DUP2 MSTORE PUSH1 0x20 ADD PUSH0 KECCAK256 PUSH0 PUSH1 0x1 DUP2 MSTORE PUSH1 0x20 ADD SWAP1 DUP2 MSTORE PUSH1 0x20 ADD PUSH0 KECCAK256 PUSH1 0x1 ADD PUSH0 SWAP1 SLOAD SWAP1 PUSH2 0x100 EXP SWAP1 DIV PUSH1 0x1 PUSH1 0x1 PUSH1 0xA0 SHL SUB AND PUSH1 0x1 PUSH1 0x1 PUSH1 0xA0 SHL SUB AND PUSH1 0x1 PUSH1 0x1 PUSH1 0xA0 SHL SUB AND DUP2 MSTORE PUSH1 0x20 ADD SWAP1 DUP2 MSTORE PUSH1 0x20 ADD PUSH0 KECCAK256 SLOAD DUP5 PUSH2 0x146D SWAP2 SWAP1 PUSH2 0x2034 JUMP JUMPDEST PUSH2 0x1477 SWAP2 SWAP1 PUSH2 0x204B JUMP JUMPDEST CALLER PUSH0 SWAP1 DUP2 MSTORE PUSH1 0x1 PUSH1 0x20 SWAP1 DUP2 MSTORE PUSH1 0x40 DUP1 DUP4 KECCAK256 DUP16 DUP5 MSTORE DUP3 MSTORE DUP1 DUP4 KECCAK256 DUP7 DUP5 MSTORE SWAP1 SWAP2 MSTORE SWAP1 KECCAK256 PUSH1 0x3 ADD DUP2 SWAP1 SSTORE SWAP5 POP JUMPDEST PUSH2 0x2710 DUP5 LT ISZERO PUSH2 0x18CE JUMPI DUP8 PUSH1 0x1 DUP2 MLOAD DUP2 LT PUSH2 0x14BE JUMPI PUSH2 0x14BE PUSH2 0x20A5 JUMP JUMPDEST PUSH1 0x20 MUL PUSH1 0x20 ADD ADD MLOAD SWAP3 POP DUP8 PUSH1 0x1 DUP2 MLOAD DUP2 LT PUSH2 0x14DB JUMPI PUSH2 0x14DB PUSH2 0x20A5 JUMP JUMPDEST PUSH1 0x20 MUL PUSH1 0x20 ADD ADD MLOAD DUP5 PUSH2 0x14EE SWAP2 SWAP1 PUSH2 0x200E JUMP JUMPDEST SWAP4 POP PUSH2 0x2710 DUP5 GT ISZERO PUSH2 0x1536 JUMPI DUP8 PUSH1 0x1 DUP2 MLOAD DUP2 LT PUSH2 0x150D JUMPI PUSH2 0x150D PUSH2 0x20A5 JUMP JUMPDEST PUSH1 0x20 MUL PUSH1 0x20 ADD ADD MLOAD DUP5 PUSH2 0x1520 SWAP2 SWAP1 PUSH2 0x2021 JUMP JUMPDEST SWAP4 POP PUSH2 0x152E DUP5 PUSH2 0x2710 PUSH2 0x2021 JUMP JUMPDEST SWAP3 POP PUSH2 0x2710 SWAP4 POP JUMPDEST PUSH2 0x2710 PUSH1 0x3 PUSH0 DUP14 DUP2 MSTORE PUSH1 0x20 ADD SWAP1 DUP2 MSTORE PUSH1 0x20 ADD PUSH0 KECCAK256 PUSH0 PUSH1 0x1 PUSH0 CALLER PUSH1 0x1 PUSH1 0x1 PUSH1 0xA0 SHL SUB AND PUSH1 0x1 PUSH1 0x1 PUSH1 0xA0 SHL SUB AND DUP2 MSTORE PUSH1 0x20 ADD SWAP1 DUP2 MSTORE PUSH1 0x20 ADD PUSH0 KECCAK256 PUSH0 DUP16 DUP2 MSTORE PUSH1 0x20 ADD SWAP1 DUP2 MSTORE PUSH1 0x20 ADD PUSH0 KECCAK256 PUSH0 PUSH1 0x1 DUP2 MSTORE PUSH1 0x20 ADD SWAP1 DUP2 MSTORE PUSH1 0x20 ADD PUSH0 KECCAK256 PUSH1 0x1 ADD PUSH0 SWAP1 SLOAD SWAP1 PUSH2 0x100 EXP SWAP1 DIV PUSH1 0x1 PUSH1 0x1 PUSH1 0xA0 SHL SUB AND PUSH1 0x1 PUSH1 0x1 PUSH1 0xA0 SHL SUB AND PUSH1 0x1 PUSH1 0x1 PUSH1 0xA0 SHL SUB AND DUP2 MSTORE PUSH1 0x20 ADD SWAP1 DUP2 MSTORE PUSH1 0x20 ADD PUSH0 KECCAK256 SLOAD DUP5 PUSH2 0x15CE SWAP2 SWAP1 PUSH2 0x2034 JUMP JUMPDEST PUSH2 0x15D8 SWAP2 SWAP1 PUSH2 0x204B JUMP JUMPDEST SWAP5 POP DUP2 PUSH2 0x15E4 DUP2 PUSH2 0x1FF6 JUMP JUMPDEST SWAP3 POP POP DUP2 DUP7 LT ISZERO PUSH2 0x18A2 JUMPI PUSH1 0x40 MLOAD DUP1 PUSH1 0xE0 ADD PUSH1 0x40 MSTORE DUP1 CALLER PUSH1 0x1 PUSH1 0x1 PUSH1 0xA0 SHL SUB AND DUP2 MSTORE PUSH1 0x20 ADD PUSH1 0x1 PUSH0 CALLER PUSH1 0x1 PUSH1 0x1 PUSH1 0xA0 SHL SUB AND PUSH1 0x1 PUSH1 0x1 PUSH1 0xA0 SHL SUB AND DUP2 MSTORE PUSH1 0x20 ADD SWAP1 DUP2 MSTORE PUSH1 0x20 ADD PUSH0 KECCAK256 PUSH0 DUP15 DUP2 MSTORE PUSH1 0x20 ADD SWAP1 DUP2 MSTORE PUSH1 0x20 ADD PUSH0 KECCAK256 PUSH0 PUSH1 0x1 DUP2 MSTORE PUSH1 0x20 ADD SWAP1 DUP2 MSTORE PUSH1 0x20 ADD PUSH0 KECCAK256 PUSH1 0x1 ADD PUSH0 SWAP1 SLOAD SWAP1 PUSH2 0x100 EXP SWAP1 DIV PUSH1 0x1 PUSH1 0x1 PUSH1 0xA0 SHL SUB AND PUSH1 0x1 PUSH1 0x1 PUSH1 0xA0 SHL SUB AND DUP2 MSTORE PUSH1 0x20 ADD PUSH1 0x1 PUSH0 CALLER PUSH1 0x1 PUSH1 0x1 PUSH1 0xA0 SHL SUB AND PUSH1 0x1 PUSH1 0x1 PUSH1 0xA0 SHL SUB AND DUP2 MSTORE PUSH1 0x20 ADD SWAP1 DUP2 MSTORE PUSH1 0x20 ADD PUSH0 KECCAK256 PUSH0 DUP15 DUP2 MSTORE PUSH1 0x20 ADD SWAP1 DUP2 MSTORE PUSH1 0x20 ADD PUSH0 KECCAK256 PUSH0 PUSH1 0x1 DUP2 MSTORE PUSH1 0x20 ADD SWAP1 DUP2 MSTORE PUSH1 0x20 ADD PUSH0 KECCAK256 PUSH1 0x2 ADD PUSH0 SWAP1 SLOAD SWAP1 PUSH2 0x100 EXP SWAP1 DIV PUSH1 0x1 PUSH1 0x1 PUSH1 0xA0 SHL SUB AND PUSH1 0x1 PUSH1 0x1 PUSH1 0xA0 SHL SUB AND DUP2 MSTORE PUSH1 0x20 ADD DUP7 DUP2 MSTORE PUSH1 0x20 ADD PUSH1 0x1 PUSH0 CALLER PUSH1 0x1 PUSH1 0x1 PUSH1 0xA0 SHL SUB AND PUSH1 0x1 PUSH1 0x1 PUSH1 0xA0 SHL SUB AND DUP2 MSTORE PUSH1 0x20 ADD SWAP1 DUP2 MSTORE PUSH1 0x20 ADD PUSH0 KECCAK256 PUSH0 DUP15 DUP2 MSTORE PUSH1 0x20 ADD SWAP1 DUP2 MSTORE PUSH1 0x20 ADD PUSH0 KECCAK256 PUSH0 DUP10 DUP2 MSTORE PUSH1 0x20 ADD SWAP1 DUP2 MSTORE PUSH1 0x20 ADD PUSH0 KECCAK256 PUSH1 0x4 ADD SLOAD DUP2 MSTORE PUSH1 0x20 ADD PUSH1 0x1 PUSH0 CALLER PUSH1 0x1 PUSH1 0x1 PUSH1 0xA0 SHL SUB AND PUSH1 0x1 PUSH1 0x1 PUSH1 0xA0 SHL SUB AND DUP2 MSTORE PUSH1 0x20 ADD SWAP1 DUP2 MSTORE PUSH1 0x20 ADD PUSH0 KECCAK256 PUSH0 DUP15 DUP2 MSTORE PUSH1 0x20 ADD SWAP1 DUP2 MSTORE PUSH1 0x20 ADD PUSH0 KECCAK256 PUSH0 PUSH1 0x1 DUP2 MSTORE PUSH1 0x20 ADD SWAP1 DUP2 MSTORE PUSH1 0x20 ADD PUSH0 KECCAK256 PUSH1 0x5 ADD PUSH0 SWAP1 SLOAD SWAP1 PUSH2 0x100 EXP SWAP1 DIV PUSH1 0xFF AND ISZERO ISZERO DUP2 MSTORE PUSH1 0x20 ADD PUSH0 ISZERO ISZERO DUP2 MSTORE POP PUSH1 0x1 PUSH0 CALLER PUSH1 0x1 PUSH1 0x1 PUSH1 0xA0 SHL SUB AND PUSH1 0x1 PUSH1 0x1 PUSH1 0xA0 SHL SUB AND DUP2 MSTORE PUSH1 0x20 ADD SWAP1 DUP2 MSTORE PUSH1 0x20 ADD PUSH0 KECCAK256 PUSH0 DUP14 DUP2 MSTORE PUSH1 0x20 ADD SWAP1 DUP2 MSTORE PUSH1 0x20 ADD PUSH0 KECCAK256 PUSH0 DUP5 DUP2 MSTORE PUSH1 0x20 ADD SWAP1 DUP2 MSTORE PUSH1 0x20 ADD PUSH0 KECCAK256 PUSH0 DUP3 ADD MLOAD DUP2 PUSH0 ADD PUSH0 PUSH2 0x100 EXP DUP2 SLOAD DUP2 PUSH1 0x1 PUSH1 0x1 PUSH1 0xA0 SHL SUB MUL NOT AND SWAP1 DUP4 PUSH1 0x1 PUSH1 0x1 PUSH1 0xA0 SHL SUB AND MUL OR SWAP1 SSTORE POP PUSH1 0x20 DUP3 ADD MLOAD DUP2 PUSH1 0x1 ADD PUSH0 PUSH2 0x100 EXP DUP2 SLOAD DUP2 PUSH1 0x1 PUSH1 0x1 PUSH1 0xA0 SHL SUB MUL NOT AND SWAP1 DUP4 PUSH1 0x1 PUSH1 0x1 PUSH1 0xA0 SHL SUB AND MUL OR SWAP1 SSTORE POP PUSH1 0x40 DUP3 ADD MLOAD DUP2 PUSH1 0x2 ADD PUSH0 PUSH2 0x100 EXP DUP2 SLOAD DUP2 PUSH1 0x1 PUSH1 0x1 PUSH1 0xA0 SHL SUB MUL NOT AND SWAP1 DUP4 PUSH1 0x1 PUSH1 0x1 PUSH1 0xA0 SHL SUB AND MUL OR SWAP1 SSTORE POP PUSH1 0x60 DUP3 ADD MLOAD DUP2 PUSH1 0x3 ADD SSTORE PUSH1 0x80 DUP3 ADD MLOAD DUP2 PUSH1 0x4 ADD SSTORE PUSH1 0xA0 DUP3 ADD MLOAD DUP2 PUSH1 0x5 ADD PUSH0 PUSH2 0x100 EXP DUP2 SLOAD DUP2 PUSH1 0xFF MUL NOT AND SWAP1 DUP4 ISZERO ISZERO MUL OR SWAP1 SSTORE POP PUSH1 0xC0 DUP3 ADD MLOAD DUP2 PUSH1 0x5 ADD PUSH1 0x1 PUSH2 0x100 EXP DUP2 SLOAD DUP2 PUSH1 0xFF MUL NOT AND SWAP1 DUP4 ISZERO ISZERO MUL OR SWAP1 SSTORE POP SWAP1 POP POP PUSH2 0x14A1 JUMP JUMPDEST CALLER PUSH0 SWAP1 DUP2 MSTORE PUSH1 0x1 PUSH1 0x20 SWAP1 DUP2 MSTORE PUSH1 0x40 DUP1 DUP4 KECCAK256 DUP15 DUP5 MSTORE DUP3 MSTORE DUP1 DUP4 KECCAK256 DUP6 DUP5 MSTORE SWAP1 SWAP2 MSTORE SWAP1 KECCAK256 PUSH1 0x3 ADD DUP6 SWAP1 SSTORE PUSH2 0x14A1 JUMP JUMPDEST POP CALLER PUSH0 SWAP1 DUP2 MSTORE PUSH1 0x2 PUSH1 0x20 SWAP1 DUP2 MSTORE PUSH1 0x40 DUP1 DUP4 KECCAK256 DUP14 DUP5 MSTORE SWAP1 SWAP2 MSTORE SWAP1 KECCAK256 DUP2 SWAP1 SSTORE SWAP4 POP POP POP POP JUMPDEST CALLER PUSH0 SWAP1 DUP2 MSTORE PUSH1 0x1 PUSH1 0x20 DUP2 DUP2 MSTORE PUSH1 0x40 DUP1 DUP5 KECCAK256 DUP11 DUP6 MSTORE DUP3 MSTORE DUP1 DUP5 KECCAK256 DUP4 DUP6 MSTORE SWAP1 SWAP2 MSTORE SWAP1 SWAP2 KECCAK256 PUSH1 0x4 ADD DUP7 SWAP1 SSTORE DUP2 GT ISZERO PUSH2 0x99A JUMPI PUSH1 0x2 JUMPDEST DUP2 DUP2 GT PUSH2 0x196F JUMPI PUSH2 0x1934 DUP6 DUP8 PUSH2 0x200E JUMP JUMPDEST CALLER PUSH0 SWAP1 DUP2 MSTORE PUSH1 0x1 PUSH1 0x20 SWAP1 DUP2 MSTORE PUSH1 0x40 DUP1 DUP4 KECCAK256 DUP12 DUP5 MSTORE DUP3 MSTORE DUP1 DUP4 KECCAK256 DUP6 DUP5 MSTORE SWAP1 SWAP2 MSTORE SWAP1 KECCAK256 PUSH1 0x4 ADD DUP2 SWAP1 SSTORE SWAP6 POP DUP1 PUSH2 0x1967 DUP2 PUSH2 0x1FF6 JUMP JUMPDEST SWAP2 POP POP PUSH2 0x1923 JUMP JUMPDEST POP POP POP POP POP POP POP JUMP JUMPDEST PUSH1 0x40 MLOAD PUSH1 0x1 PUSH1 0x1 PUSH1 0xA0 SHL SUB DUP1 DUP6 AND PUSH1 0x24 DUP4 ADD MSTORE DUP4 AND PUSH1 0x44 DUP3 ADD MSTORE PUSH1 0x64 DUP2 ADD DUP3 SWAP1 MSTORE PUSH2 0x19E3 SWAP1 DUP6 SWAP1 PUSH4 0x23B872DD PUSH1 0xE0 SHL SWAP1 PUSH1 0x84 ADD JUMPDEST PUSH1 0x40 DUP1 MLOAD PUSH1 0x1F NOT DUP2 DUP5 SUB ADD DUP2 MSTORE SWAP2 SWAP1 MSTORE PUSH1 0x20 DUP2 ADD DUP1 MLOAD PUSH1 0x1 PUSH1 0x1 PUSH1 0xE0 SHL SUB AND PUSH1 0x1 PUSH1 0x1 PUSH1 0xE0 SHL SUB NOT SWAP1 SWAP4 AND SWAP3 SWAP1 SWAP3 OR SWAP1 SWAP2 MSTORE PUSH2 0x1B59 JUMP JUMPDEST POP POP POP POP JUMP JUMPDEST PUSH1 0x40 MLOAD PUSH1 0x1 PUSH1 0x1 PUSH1 0xA0 SHL SUB DUP4 AND PUSH1 0x24 DUP3 ADD MSTORE PUSH1 0x44 DUP2 ADD DUP3 SWAP1 MSTORE PUSH2 0x1A19 SWAP1 DUP5 SWAP1 PUSH4 0xA9059CBB PUSH1 0xE0 SHL SWAP1 PUSH1 0x64 ADD PUSH2 0x19AC JUMP JUMPDEST POP POP POP JUMP JUMPDEST CALLER PUSH0 SWAP1 DUP2 MSTORE PUSH1 0x1 PUSH1 0x20 DUP2 DUP2 MSTORE PUSH1 0x40 DUP1 DUP5 KECCAK256 DUP6 DUP6 MSTORE DUP3 MSTORE DUP1 DUP5 KECCAK256 DUP4 DUP6 MSTORE SWAP1 SWAP2 MSTORE SWAP1 SWAP2 KECCAK256 PUSH1 0x5 ADD SLOAD PUSH2 0x100 SWAP1 DIV PUSH1 0xFF AND ISZERO PUSH2 0x1A83 JUMPI PUSH1 0x40 MLOAD PUSH3 0x461BCD PUSH1 0xE5 SHL DUP2 MSTORE PUSH1 0x20 PUSH1 0x4 DUP3 ADD MSTORE PUSH1 0x7 PUSH1 0x24 DUP3 ADD MSTORE PUSH7 0x10DB185A5B5959 PUSH1 0xCA SHL PUSH1 0x44 DUP3 ADD MSTORE PUSH1 0x64 ADD PUSH2 0x792 JUMP JUMPDEST CALLER PUSH0 SWAP1 DUP2 MSTORE PUSH1 0x1 PUSH1 0x20 SWAP1 DUP2 MSTORE PUSH1 0x40 DUP1 DUP4 KECCAK256 DUP6 DUP5 MSTORE DUP3 MSTORE DUP1 DUP4 KECCAK256 DUP5 DUP5 MSTORE SWAP1 SWAP2 MSTORE SWAP1 KECCAK256 PUSH1 0x4 ADD SLOAD TIMESTAMP GT PUSH2 0x1AF6 JUMPI PUSH1 0x40 MLOAD PUSH3 0x461BCD PUSH1 0xE5 SHL DUP2 MSTORE PUSH1 0x20 PUSH1 0x4 DUP3 ADD MSTORE PUSH1 0x18 PUSH1 0x24 DUP3 ADD MSTORE PUSH32 0x52656C656173652054696D65204E6F7420526561636865640000000000000000 PUSH1 0x44 DUP3 ADD MSTORE PUSH1 0x64 ADD PUSH2 0x792 JUMP JUMPDEST CALLER PUSH0 SWAP1 DUP2 MSTORE PUSH1 0x1 PUSH1 0x20 DUP2 DUP2 MSTORE PUSH1 0x40 DUP1 DUP5 KECCAK256 DUP7 DUP6 MSTORE DUP3 MSTORE DUP1 DUP5 KECCAK256 DUP6 DUP6 MSTORE SWAP1 SWAP2 MSTORE SWAP1 SWAP2 KECCAK256 SWAP1 DUP2 ADD SLOAD PUSH1 0x2 DUP3 ADD SLOAD PUSH1 0x3 DUP4 ADD SLOAD PUSH1 0x5 SWAP1 SWAP4 ADD DUP1 SLOAD PUSH2 0xFF00 NOT AND PUSH2 0x100 OR SWAP1 SSTORE PUSH1 0x1 PUSH1 0x1 PUSH1 0xA0 SHL SUB SWAP2 DUP3 AND SWAP3 SWAP2 AND SWAP1 PUSH2 0x1B52 DUP4 DUP4 DUP4 PUSH2 0x19E9 JUMP JUMPDEST POP POP POP POP POP JUMP JUMPDEST PUSH0 PUSH2 0x1BAD DUP3 PUSH1 0x40 MLOAD DUP1 PUSH1 0x40 ADD PUSH1 0x40 MSTORE DUP1 PUSH1 0x20 DUP2 MSTORE PUSH1 0x20 ADD PUSH32 0x5361666545524332303A206C6F772D6C6576656C2063616C6C206661696C6564 DUP2 MSTORE POP DUP6 PUSH1 0x1 PUSH1 0x1 PUSH1 0xA0 SHL SUB AND PUSH2 0x1C2A SWAP1 SWAP3 SWAP2 SWAP1 PUSH4 0xFFFFFFFF AND JUMP JUMPDEST DUP1 MLOAD SWAP1 SWAP2 POP ISZERO PUSH2 0x1A19 JUMPI DUP1 DUP1 PUSH1 0x20 ADD SWAP1 MLOAD DUP2 ADD SWAP1 PUSH2 0x1BCB SWAP2 SWAP1 PUSH2 0x20B9 JUMP JUMPDEST PUSH2 0x1A19 JUMPI PUSH1 0x40 MLOAD PUSH3 0x461BCD PUSH1 0xE5 SHL DUP2 MSTORE PUSH1 0x20 PUSH1 0x4 DUP3 ADD MSTORE PUSH1 0x2A PUSH1 0x24 DUP3 ADD MSTORE PUSH32 0x5361666545524332303A204552433230206F7065726174696F6E20646964206E PUSH1 0x44 DUP3 ADD MSTORE PUSH10 0x1BDD081CDD58D8D95959 PUSH1 0xB2 SHL PUSH1 0x64 DUP3 ADD MSTORE PUSH1 0x84 ADD PUSH2 0x792 JUMP JUMPDEST PUSH1 0x60 PUSH2 0x1C38 DUP5 DUP5 PUSH0 DUP6 PUSH2 0x1C40 JUMP JUMPDEST SWAP5 SWAP4 POP POP POP POP JUMP JUMPDEST PUSH1 0x60 DUP3 SELFBALANCE LT ISZERO PUSH2 0x1CA1 JUMPI PUSH1 0x40 MLOAD PUSH3 0x461BCD PUSH1 0xE5 SHL DUP2 MSTORE PUSH1 0x20 PUSH1 0x4 DUP3 ADD MSTORE PUSH1 0x26 PUSH1 0x24 DUP3 ADD MSTORE PUSH32 0x416464726573733A20696E73756666696369656E742062616C616E636520666F PUSH1 0x44 DUP3 ADD MSTORE PUSH6 0x1C8818D85B1B PUSH1 0xD2 SHL PUSH1 0x64 DUP3 ADD MSTORE PUSH1 0x84 ADD PUSH2 0x792 JUMP JUMPDEST PUSH0 DUP1 DUP7 PUSH1 0x1 PUSH1 0x1 PUSH1 0xA0 SHL SUB AND DUP6 DUP8 PUSH1 0x40 MLOAD PUSH2 0x1CBC SWAP2 SWAP1 PUSH2 0x20F6 JUMP JUMPDEST PUSH0 PUSH1 0x40 MLOAD DUP1 DUP4 SUB DUP2 DUP6 DUP8 GAS CALL SWAP3 POP POP POP RETURNDATASIZE DUP1 PUSH0 DUP2 EQ PUSH2 0x1CF6 JUMPI PUSH1 0x40 MLOAD SWAP2 POP PUSH1 0x1F NOT PUSH1 0x3F RETURNDATASIZE ADD AND DUP3 ADD PUSH1 0x40 MSTORE RETURNDATASIZE DUP3 MSTORE RETURNDATASIZE PUSH0 PUSH1 0x20 DUP5 ADD RETURNDATACOPY PUSH2 0x1CFB JUMP JUMPDEST PUSH1 0x60 SWAP2 POP JUMPDEST POP SWAP2 POP SWAP2 POP PUSH2 0x1D0C DUP8 DUP4 DUP4 DUP8 PUSH2 0x1D17 JUMP JUMPDEST SWAP8 SWAP7 POP POP POP POP POP POP POP JUMP JUMPDEST PUSH1 0x60 DUP4 ISZERO PUSH2 0x1D85 JUMPI DUP3 MLOAD PUSH0 SUB PUSH2 0x1D7E JUMPI PUSH1 0x1 PUSH1 0x1 PUSH1 0xA0 SHL SUB DUP6 AND EXTCODESIZE PUSH2 0x1D7E JUMPI PUSH1 0x40 MLOAD PUSH3 0x461BCD PUSH1 0xE5 SHL DUP2 MSTORE PUSH1 0x20 PUSH1 0x4 DUP3 ADD MSTORE PUSH1 0x1D PUSH1 0x24 DUP3 ADD MSTORE PUSH32 0x416464726573733A2063616C6C20746F206E6F6E2D636F6E7472616374000000 PUSH1 0x44 DUP3 ADD MSTORE PUSH1 0x64 ADD PUSH2 0x792 JUMP JUMPDEST POP DUP2 PUSH2 0x1C38 JUMP JUMPDEST PUSH2 0x1C38 DUP4 DUP4 DUP2 MLOAD ISZERO PUSH2 0x1D9A JUMPI DUP2 MLOAD DUP1 DUP4 PUSH1 0x20 ADD REVERT JUMPDEST DUP1 PUSH1 0x40 MLOAD PUSH3 0x461BCD PUSH1 0xE5 SHL DUP2 MSTORE PUSH1 0x4 ADD PUSH2 0x792 SWAP2 SWAP1 PUSH2 0x2111 JUMP JUMPDEST DUP1 CALLDATALOAD PUSH1 0x1 PUSH1 0x1 PUSH1 0xA0 SHL SUB DUP2 AND DUP2 EQ PUSH2 0x1DCA JUMPI PUSH0 DUP1 REVERT JUMPDEST SWAP2 SWAP1 POP JUMP JUMPDEST PUSH0 DUP1 PUSH0 PUSH1 0x60 DUP5 DUP7 SUB SLT ISZERO PUSH2 0x1DE1 JUMPI PUSH0 DUP1 REVERT JUMPDEST PUSH2 0x1DEA DUP5 PUSH2 0x1DB4 JUMP JUMPDEST SWAP6 PUSH1 0x20 DUP6 ADD CALLDATALOAD SWAP6 POP PUSH1 0x40 SWAP1 SWAP5 ADD CALLDATALOAD SWAP4 SWAP3 POP POP POP JUMP JUMPDEST PUSH0 DUP1 PUSH1 0x40 DUP4 DUP6 SUB SLT ISZERO PUSH2 0x1E10 JUMPI PUSH0 DUP1 REVERT JUMPDEST PUSH2 0x1E19 DUP4 PUSH2 0x1DB4 JUMP JUMPDEST SWAP5 PUSH1 0x20 SWAP4 SWAP1 SWAP4 ADD CALLDATALOAD SWAP4 POP POP POP JUMP JUMPDEST DUP1 ISZERO ISZERO DUP2 EQ PUSH2 0xFB7 JUMPI PUSH0 DUP1 REVERT JUMPDEST PUSH0 DUP1 PUSH0 DUP1 PUSH0 DUP1 PUSH1 0xC0 DUP8 DUP10 SUB SLT ISZERO PUSH2 0x1E49 JUMPI PUSH0 DUP1 REVERT JUMPDEST PUSH2 0x1E52 DUP8 PUSH2 0x1DB4 JUMP JUMPDEST SWAP6 POP PUSH2 0x1E60 PUSH1 0x20 DUP9 ADD PUSH2 0x1DB4 JUMP JUMPDEST SWAP5 POP PUSH2 0x1E6E PUSH1 0x40 DUP9 ADD PUSH2 0x1DB4 JUMP JUMPDEST SWAP4 POP PUSH1 0x60 DUP8 ADD CALLDATALOAD SWAP3 POP PUSH1 0x80 DUP8 ADD CALLDATALOAD SWAP2 POP PUSH1 0xA0 DUP8 ADD CALLDATALOAD PUSH2 0x1E8C DUP2 PUSH2 0x1E27 JUMP JUMPDEST DUP1 SWAP2 POP POP SWAP3 SWAP6 POP SWAP3 SWAP6 POP SWAP3 SWAP6 JUMP JUMPDEST PUSH0 PUSH1 0x20 DUP3 DUP5 SUB SLT ISZERO PUSH2 0x1EAA JUMPI PUSH0 DUP1 REVERT JUMPDEST POP CALLDATALOAD SWAP2 SWAP1 POP JUMP JUMPDEST PUSH0 PUSH2 0x120 DUP3 DUP5 SUB SLT ISZERO PUSH2 0x1EC2 JUMPI PUSH0 DUP1 REVERT JUMPDEST POP SWAP2 SWAP1 POP JUMP JUMPDEST PUSH0 DUP1 PUSH1 0x40 DUP4 DUP6 SUB SLT ISZERO PUSH2 0x1ED9 JUMPI PUSH0 DUP1 REVERT JUMPDEST DUP3 CALLDATALOAD SWAP2 POP PUSH2 0x1EE9 PUSH1 0x20 DUP5 ADD PUSH2 0x1DB4 JUMP JUMPDEST SWAP1 POP SWAP3 POP SWAP3 SWAP1 POP JUMP JUMPDEST PUSH4 0x4E487B71 PUSH1 0xE0 SHL PUSH0 MSTORE PUSH1 0x41 PUSH1 0x4 MSTORE PUSH1 0x24 PUSH0 REVERT JUMPDEST PUSH0 DUP1 PUSH0 DUP1 PUSH0 PUSH1 0xA0 DUP7 DUP9 SUB SLT ISZERO PUSH2 0x1F1A JUMPI PUSH0 DUP1 REVERT JUMPDEST DUP6 CALLDATALOAD SWAP5 POP PUSH1 0x20 DUP1 DUP8 ADD CALLDATALOAD SWAP5 POP PUSH1 0x40 DUP8 ADD CALLDATALOAD SWAP4 POP PUSH1 0x60 DUP8 ADD CALLDATALOAD PUSH8 0xFFFFFFFFFFFFFFFF DUP1 DUP3 GT ISZERO PUSH2 0x1F47 JUMPI PUSH0 DUP1 REVERT JUMPDEST DUP2 DUP10 ADD SWAP2 POP DUP10 PUSH1 0x1F DUP4 ADD SLT PUSH2 0x1F5A JUMPI PUSH0 DUP1 REVERT JUMPDEST DUP2 CALLDATALOAD DUP2 DUP2 GT ISZERO PUSH2 0x1F6C JUMPI PUSH2 0x1F6C PUSH2 0x1EF2 JUMP JUMPDEST DUP1 PUSH1 0x5 SHL PUSH1 0x40 MLOAD PUSH1 0x1F NOT PUSH1 0x3F DUP4 ADD AND DUP2 ADD DUP2 DUP2 LT DUP6 DUP3 GT OR ISZERO PUSH2 0x1F91 JUMPI PUSH2 0x1F91 PUSH2 0x1EF2 JUMP JUMPDEST PUSH1 0x40 MSTORE SWAP2 DUP3 MSTORE DUP5 DUP3 ADD SWAP3 POP DUP4 DUP2 ADD DUP6 ADD SWAP2 DUP13 DUP4 GT ISZERO PUSH2 0x1FAE JUMPI PUSH0 DUP1 REVERT JUMPDEST SWAP4 DUP6 ADD SWAP4 JUMPDEST DUP3 DUP6 LT ISZERO PUSH2 0x1FCC JUMPI DUP5 CALLDATALOAD DUP5 MSTORE SWAP4 DUP6 ADD SWAP4 SWAP3 DUP6 ADD SWAP3 PUSH2 0x1FB3 JUMP JUMPDEST SWAP10 SWAP13 SWAP9 SWAP12 POP SWAP7 SWAP10 PUSH1 0x80 ADD CALLDATALOAD SWAP8 SWAP7 POP POP POP POP POP POP POP JUMP JUMPDEST PUSH4 0x4E487B71 PUSH1 0xE0 SHL PUSH0 MSTORE PUSH1 0x11 PUSH1 0x4 MSTORE PUSH1 0x24 PUSH0 REVERT JUMPDEST PUSH0 PUSH1 0x1 DUP3 ADD PUSH2 0x2007 JUMPI PUSH2 0x2007 PUSH2 0x1FE2 JUMP JUMPDEST POP PUSH1 0x1 ADD SWAP1 JUMP JUMPDEST DUP1 DUP3 ADD DUP1 DUP3 GT ISZERO PUSH2 0x5C1 JUMPI PUSH2 0x5C1 PUSH2 0x1FE2 JUMP JUMPDEST DUP2 DUP2 SUB DUP2 DUP2 GT ISZERO PUSH2 0x5C1 JUMPI PUSH2 0x5C1 PUSH2 0x1FE2 JUMP JUMPDEST DUP1 DUP3 MUL DUP2 ISZERO DUP3 DUP3 DIV DUP5 EQ OR PUSH2 0x5C1 JUMPI PUSH2 0x5C1 PUSH2 0x1FE2 JUMP JUMPDEST PUSH0 DUP3 PUSH2 0x2065 JUMPI PUSH4 0x4E487B71 PUSH1 0xE0 SHL PUSH0 MSTORE PUSH1 0x12 PUSH1 0x4 MSTORE PUSH1 0x24 PUSH0 REVERT JUMPDEST POP DIV SWAP1 JUMP JUMPDEST PUSH0 PUSH1 0x20 DUP3 DUP5 SUB SLT ISZERO PUSH2 0x207A JUMPI PUSH0 DUP1 REVERT JUMPDEST PUSH2 0x2083 DUP3 PUSH2 0x1DB4 JUMP JUMPDEST SWAP4 SWAP3 POP POP POP JUMP JUMPDEST PUSH0 PUSH1 0x20 DUP3 DUP5 SUB SLT ISZERO PUSH2 0x209A JUMPI PUSH0 DUP1 REVERT JUMPDEST DUP2 CALLDATALOAD PUSH2 0x2083 DUP2 PUSH2 0x1E27 JUMP JUMPDEST PUSH4 0x4E487B71 PUSH1 0xE0 SHL PUSH0 MSTORE PUSH1 0x32 PUSH1 0x4 MSTORE PUSH1 0x24 PUSH0 REVERT JUMPDEST PUSH0 PUSH1 0x20 DUP3 DUP5 SUB SLT ISZERO PUSH2 0x20C9 JUMPI PUSH0 DUP1 REVERT JUMPDEST DUP2 MLOAD PUSH2 0x2083 DUP2 PUSH2 0x1E27 JUMP JUMPDEST PUSH0 JUMPDEST DUP4 DUP2 LT ISZERO PUSH2 0x20EE JUMPI DUP2 DUP2 ADD MLOAD DUP4 DUP3 ADD MSTORE PUSH1 0x20 ADD PUSH2 0x20D6 JUMP JUMPDEST POP POP PUSH0 SWAP2 ADD MSTORE JUMP JUMPDEST PUSH0 DUP3 MLOAD PUSH2 0x2107 DUP2 DUP5 PUSH1 0x20 DUP8 ADD PUSH2 0x20D4 JUMP JUMPDEST SWAP2 SWAP1 SWAP2 ADD SWAP3 SWAP2 POP POP JUMP JUMPDEST PUSH1 0x20 DUP2 MSTORE PUSH0 DUP3 MLOAD DUP1 PUSH1 0x20 DUP5 ADD MSTORE PUSH2 0x212F DUP2 PUSH1 0x40 DUP6 ADD PUSH1 0x20 DUP8 ADD PUSH2 0x20D4 JUMP JUMPDEST PUSH1 0x1F ADD PUSH1 0x1F NOT AND SWAP2 SWAP1 SWAP2 ADD PUSH1 0x40 ADD SWAP3 SWAP2 POP POP JUMP INVALID LOG2 PUSH5 0x6970667358 0x22 SLT KECCAK256 AND JUMPDEST GAS 0xEC PUSH1 0xC1 CALLDATACOPY SWAP1 KECCAK256 PUSH13 0xD6459D5C71743B625261F9B43D 0xF6 0x29 0xBC PUSH32 0xF9D61432B064736F6C6343000814003300000000000000000000000000000000 "
				},
				"gasEstimates": {
					"creation": {
						"codeDepositCost": "1713800",
						"executionCost": "1797",
						"totalCost": "1715597"
					},
					"external": {
						"Lock((address,address,uint256,bool,uint256,uint256,uint256,uint256,uint256))": "infinite",
						"LockedTokens(address,uint256,uint256)": "13541",
						"Release(uint256)": "infinite",
						"_vestingClaim(uint256)": "infinite",
						"amount(address,uint256,uint256)": "2794",
						"beneficiary(address,uint256,uint256)": "2793",
						"changeReleaseTimeAndSpread(uint256,uint256,uint256,uint256[],uint256)": "infinite",
						"cycleCountPerID(address,uint256)": "2677",
						"getClaimed(address,uint256,uint256)": "2799",
						"getLockCount(address,uint256)": "2740",
						"getTransaction(address,uint256,uint256)": "13898",
						"id()": "2382",
						"isLiquidity(address,uint256,uint256)": "2783",
						"launchLock(address,address,address,uint256,uint256,bool)": "infinite",
						"releaseTime(address,uint256,uint256)": "2815",
						"token(address,uint256,uint256)": "2864",
						"totalTokenAmount(uint256,address)": "2681"
					},
					"internal": {
						"_normalClaim(uint256)": "infinite"
					}
				},
				"methodIdentifiers": {
					"Lock((address,address,uint256,bool,uint256,uint256,uint256,uint256,uint256))": "8e6509c9",
					"LockedTokens(address,uint256,uint256)": "96480d04",
					"Release(uint256)": "cf95d1fe",
					"_vestingClaim(uint256)": "84abacb4",
					"amount(address,uint256,uint256)": "6cfa2d9a",
					"beneficiary(address,uint256,uint256)": "5f4455fb",
					"changeReleaseTimeAndSpread(uint256,uint256,uint256,uint256[],uint256)": "e5205906",
					"cycleCountPerID(address,uint256)": "37d1bf92",
					"getClaimed(address,uint256,uint256)": "1a38f4a7",
					"getLockCount(address,uint256)": "43edd3c5",
					"getTransaction(address,uint256,uint256)": "0a64cc6a",
					"id()": "af640d0f",
					"isLiquidity(address,uint256,uint256)": "e3c36941",
					"launchLock(address,address,address,uint256,uint256,bool)": "569511e3",
					"releaseTime(address,uint256,uint256)": "eaf60c8b",
					"token(address,uint256,uint256)": "fde8e727",
					"totalTokenAmount(uint256,address)": "9bc59d83"
				}
			},
			"storageLayout": {
				"storage": [
					{
						"astId": 847,
						"contract": "Lock.sol:TokenTimeLock",
						"label": "id",
						"offset": 0,
						"slot": "0",
						"type": "t_uint256"
					},
					{
						"astId": 857,
						"contract": "Lock.sol:TokenTimeLock",
						"label": "LockedTokens",
						"offset": 0,
						"slot": "1",
						"type": "t_mapping(t_address,t_mapping(t_uint256,t_mapping(t_uint256,t_struct(Locks)908_storage)))"
					},
					{
						"astId": 864,
						"contract": "Lock.sol:TokenTimeLock",
						"label": "cycleCountPerID",
						"offset": 0,
						"slot": "2",
						"type": "t_mapping(t_address,t_mapping(t_uint256,t_uint256))"
					},
					{
						"astId": 871,
						"contract": "Lock.sol:TokenTimeLock",
						"label": "totalTokenAmount",
						"offset": 0,
						"slot": "3",
						"type": "t_mapping(t_uint256,t_mapping(t_address,t_uint256))"
					},
					{
						"astId": 878,
						"contract": "Lock.sol:TokenTimeLock",
						"label": "claimCycleCountPerID",
						"offset": 0,
						"slot": "4",
						"type": "t_mapping(t_address,t_mapping(t_uint256,t_uint256))"
					},
					{
						"astId": 883,
						"contract": "Lock.sol:TokenTimeLock",
						"label": "usedPercentages",
						"offset": 0,
						"slot": "5",
						"type": "t_mapping(t_uint256,t_array(t_uint256)dyn_storage)"
					}
				],
				"types": {
					"t_address": {
						"encoding": "inplace",
						"label": "address",
						"numberOfBytes": "20"
					},
					"t_array(t_uint256)dyn_storage": {
						"base": "t_uint256",
						"encoding": "dynamic_array",
						"label": "uint256[]",
						"numberOfBytes": "32"
					},
					"t_bool": {
						"encoding": "inplace",
						"label": "bool",
						"numberOfBytes": "1"
					},
					"t_mapping(t_address,t_mapping(t_uint256,t_mapping(t_uint256,t_struct(Locks)908_storage)))": {
						"encoding": "mapping",
						"key": "t_address",
						"label": "mapping(address => mapping(uint256 => mapping(uint256 => struct TokenTimeLock.Locks)))",
						"numberOfBytes": "32",
						"value": "t_mapping(t_uint256,t_mapping(t_uint256,t_struct(Locks)908_storage))"
					},
					"t_mapping(t_address,t_mapping(t_uint256,t_uint256))": {
						"encoding": "mapping",
						"key": "t_address",
						"label": "mapping(address => mapping(uint256 => uint256))",
						"numberOfBytes": "32",
						"value": "t_mapping(t_uint256,t_uint256)"
					},
					"t_mapping(t_address,t_uint256)": {
						"encoding": "mapping",
						"key": "t_address",
						"label": "mapping(address => uint256)",
						"numberOfBytes": "32",
						"value": "t_uint256"
					},
					"t_mapping(t_uint256,t_array(t_uint256)dyn_storage)": {
						"encoding": "mapping",
						"key": "t_uint256",
						"label": "mapping(uint256 => uint256[])",
						"numberOfBytes": "32",
						"value": "t_array(t_uint256)dyn_storage"
					},
					"t_mapping(t_uint256,t_mapping(t_address,t_uint256))": {
						"encoding": "mapping",
						"key": "t_uint256",
						"label": "mapping(uint256 => mapping(address => uint256))",
						"numberOfBytes": "32",
						"value": "t_mapping(t_address,t_uint256)"
					},
					"t_mapping(t_uint256,t_mapping(t_uint256,t_struct(Locks)908_storage))": {
						"encoding": "mapping",
						"key": "t_uint256",
						"label": "mapping(uint256 => mapping(uint256 => struct TokenTimeLock.Locks))",
						"numberOfBytes": "32",
						"value": "t_mapping(t_uint256,t_struct(Locks)908_storage)"
					},
					"t_mapping(t_uint256,t_struct(Locks)908_storage)": {
						"encoding": "mapping",
						"key": "t_uint256",
						"label": "mapping(uint256 => struct TokenTimeLock.Locks)",
						"numberOfBytes": "32",
						"value": "t_struct(Locks)908_storage"
					},
					"t_mapping(t_uint256,t_uint256)": {
						"encoding": "mapping",
						"key": "t_uint256",
						"label": "mapping(uint256 => uint256)",
						"numberOfBytes": "32",
						"value": "t_uint256"
					},
					"t_struct(Locks)908_storage": {
						"encoding": "inplace",
						"label": "struct TokenTimeLock.Locks",
						"members": [
							{
								"astId": 895,
								"contract": "Lock.sol:TokenTimeLock",
								"label": "owner",
								"offset": 0,
								"slot": "0",
								"type": "t_address"
							},
							{
								"astId": 897,
								"contract": "Lock.sol:TokenTimeLock",
								"label": "Token",
								"offset": 0,
								"slot": "1",
								"type": "t_address"
							},
							{
								"astId": 899,
								"contract": "Lock.sol:TokenTimeLock",
								"label": "Beneficiary",
								"offset": 0,
								"slot": "2",
								"type": "t_address"
							},
							{
								"astId": 901,
								"contract": "Lock.sol:TokenTimeLock",
								"label": "amount",
								"offset": 0,
								"slot": "3",
								"type": "t_uint256"
							},
							{
								"astId": 903,
								"contract": "Lock.sol:TokenTimeLock",
								"label": "releaseTime",
								"offset": 0,
								"slot": "4",
								"type": "t_uint256"
							},
							{
								"astId": 905,
								"contract": "Lock.sol:TokenTimeLock",
								"label": "liquidity",
								"offset": 0,
								"slot": "5",
								"type": "t_bool"
							},
							{
								"astId": 907,
								"contract": "Lock.sol:TokenTimeLock",
								"label": "Claimed",
								"offset": 1,
								"slot": "5",
								"type": "t_bool"
							}
						],
						"numberOfBytes": "192"
					},
					"t_uint256": {
						"encoding": "inplace",
						"label": "uint256",
						"numberOfBytes": "32"
					}
				}
			},
			"userdoc": {
				"kind": "user",
				"methods": {
					"Lock((address,address,uint256,bool,uint256,uint256,uint256,uint256,uint256))": {
						"notice": "Creates a new token lock.Function does not support tokens with fees or rebase tokens"
					},
					"LockedTokens(address,uint256,uint256)": {
						"notice": "Mapping of locked tokens for each user."
					},
					"Release(uint256)": {
						"notice": "Releases tokens based on the vesting schedule."
					},
					"_vestingClaim(uint256)": {
						"notice": "Claims tokens for a vesting lock."
					},
					"amount(address,uint256,uint256)": {
						"notice": "Returns the amount of tokens for a given lock."
					},
					"beneficiary(address,uint256,uint256)": {
						"notice": "Returns the beneficiary address for a given lock."
					},
					"changeReleaseTimeAndSpread(uint256,uint256,uint256,uint256[],uint256)": {
						"notice": "Changes the release time and token distribution percentages for each cycle of a vesting lock."
					},
					"cycleCountPerID(address,uint256)": {
						"notice": "Mapping of the number of vesting cycles for each lock ID"
					},
					"getClaimed(address,uint256,uint256)": {
						"notice": "Returns the claimed status for a given lock."
					},
					"getLockCount(address,uint256)": {
						"notice": "Retrieves the number of locks for a given owner and index."
					},
					"getTransaction(address,uint256,uint256)": {
						"notice": "Returns the lock details for a given owner, ID, and index."
					},
					"isLiquidity(address,uint256,uint256)": {
						"notice": "Returns the liquidity status for a given lock."
					},
					"launchLock(address,address,address,uint256,uint256,bool)": {
						"notice": "Called from the PurpleSale Presale contract to lock a liquidity token once the sale endsFunction does not support tokens with fees or rebase tokens"
					},
					"releaseTime(address,uint256,uint256)": {
						"notice": "Returns the release time for a given lock."
					},
					"token(address,uint256,uint256)": {
						"notice": "Returns the token address for a given lock."
					},
					"totalTokenAmount(uint256,address)": {
						"notice": "Mapping of the total token amount locked for an ID"
					}
				},
				"notice": "A contract for locking and releasing tokens based on vesting schedules.",
				"version": 1
			}
		}
	}
}