{
	"data": {
		"bytecode": {
			"linkReferences": {},
			"object": "608060405234801561000f575f80fd5b506121798061001d5f395ff3fe608060405234801561000f575f80fd5b5060043610610106575f3560e01c80638e6509c91161009e578063cf95d1fe1161006e578063cf95d1fe146104ab578063e3c36941146104be578063e520590614610504578063eaf60c8b14610517578063fde8e7271461055a575f80fd5b80638e6509c9146103b057806396480d04146103c35780639bc59d8314610479578063af640d0f146104a3575f80fd5b8063569511e3116100d9578063569511e3146102eb5780635f4455fb146103005780636cfa2d9a1461035a57806384abacb41461039d575f80fd5b80630a64cc6a1461010a5780631a38f4a71461024557806337d1bf92146102a057806343edd3c5146102d8575b5f80fd5b6101de610118366004611dcf565b6040805160e0810182525f80825260208201819052918101829052606081018290526080810182905260a0810182905260c0810191909152506001600160a01b039283165f90815260016020818152604080842095845294815284832093835292835290839020835160e0810185528154861681529181015485169282019290925260028201549093169183019190915260038101546060830152600481015460808301526005015460ff808216151560a084015261010090910416151560c082015290565b6040805182516001600160a01b039081168252602080850151821690830152838301511691810191909152606080830151908201526080808301519082015260a08083015115159082015260c09182015115159181019190915260e0015b60405180910390f35b610290610253366004611dcf565b6001600160a01b03929092165f90815260016020908152604080832093835292815282822093825292909252902060050154610100900460ff1690565b604051901515815260200161023c565b6102ca6102ae366004611dff565b600260209081525f928352604080842090915290825290205481565b60405190815260200161023c565b6102ca6102e6366004611dff565b61059d565b6102fe6102f9366004611e34565b6105c7565b005b61034261030e366004611dcf565b6001600160a01b039283165f9081526001602090815260408083209483529381528382209282529190915220600201541690565b6040516001600160a01b03909116815260200161023c565b6102ca610368366004611dcf565b6001600160a01b0383165f90815260016020908152604080832085845282528083208484529091529020600301549392505050565b6102fe6103ab366004611e9a565b61072a565b6102fe6103be366004611eb1565b6109a2565b6104316103d1366004611dcf565b600160208181525f94855260408086208252938552838520905290835291208054918101546002820154600383015460048401546005909401546001600160a01b0395861695938416949390921692909160ff8082169161010090041687565b604080516001600160a01b0398891681529688166020880152949096169385019390935260608401919091526080830152151560a082015290151560c082015260e00161023c565b6102ca610487366004611ec8565b600360209081525f928352604080842090915290825290205481565b6102ca5f5481565b6102fe6104b9366004611e9a565b610f8d565b6102906104cc366004611dcf565b6001600160a01b0383165f908152600160209081526040808320858452825280832084845290915290206005015460ff169392505050565b6102fe610512366004611f06565b610fc3565b6102ca610525366004611dcf565b6001600160a01b0383165f90815260016020908152604080832085845282528083208484529091529020600401549392505050565b610342610568366004611dcf565b6001600160a01b039283165f908152600160208181526040808420958452948152848320938352929092529190912001541690565b6001600160a01b0382165f9081526002602090815260408083208484529091529020545b92915050565b5f805490806105d583611ff6565b909155506105f090506001600160a01b038616333085611978565b6040805160e0810182526001600160a01b0380891680835288821660208085018281528a8516868801908152606087018a8152608088018c81528a151560a08a019081525f60c08b0181815289825260018089528d83208354845289528d832081845289528d83209c518d54908d166001600160a01b0319918216178e5597518d82018054918e16918a1691909117905595516002808e01805492909d169190981617909a55925160038b0155905160048a01555160059098018054975115156101000261ff00199915159990991661ffff1990981697909717979097179095558386528152858520855486529052848420929092559154925190927f989eaa915cbb416ea3d6f9a63b1a3de51770c7674b11fe21ecdf76b4e1d139109161071a91815260200190565b60405180910390a3505050505050565b335f81815260026020908152604080832085845282528083205493835260048252808320858452909152902054811161079b5760405162461bcd60e51b815260206004820152600e60248201526d436c61696d20436f6d706c65746560901b60448201526064015b60405180910390fd5b335f9081526004602090815260408083208584529091528120546107c090600161200e565b335f908152600160209081526040808320878452825280832084845290915290206004015490915042101561082a5760405162461bcd60e51b815260206004820152601060248201526f151a5b5948139bdd081c995858da195960821b6044820152606401610792565b335f9081526001602090815260408083208684528252808320848452909152902060050154610100900460ff161561088e5760405162461bcd60e51b815260206004820152600760248201526610db185a5b595960ca1b6044820152606401610792565b335f90815260016020818152604080842087855282528084208385529091528220908101546002909101546001600160a01b0391821692911690835b85811161098557335f9081526001602090815260408083208a84528252808320848452909152902060040154421061096e57335f9081526001602090815260408083208a84528252808320848452909152902060058101805461ff0019166101001790556003015461093c908361200e565b335f9081526004602090815260408083208b8452909152812080549294509061096483611ff6565b9190505550610973565b610985565b8061097d81611ff6565b9150506108ca565b5061099a6001600160a01b03841683836119e9565b505050505050565b610100810135806109e25760405162461bcd60e51b815260206004820152600a602482015269436f756e74206973204f60b01b6044820152606401610792565b5f826040013511610a285760405162461bcd60e51b815260206004820152601060248201526f04c6f636b20616d6f756e7420697320360841b6044820152606401610792565b600181115f61271060808501351115610a8d5760405162461bcd60e51b815260206004820152602160248201527f666972737450657263656e746167652067726561746572207468656e203130306044820152602560f81b6064820152608401610792565b5f808315610b065760c0860135610aa5600187612021565b610aaf9190612034565b610abd90608088013561200e565b9250612710610ad460c08801356040890135612034565b610ade919061204b565b9150612710610af560808801356040890135612034565b610aff919061204b565b9050610b14565b506080850135915060408501355b612710831015610b5e5760405162461bcd60e51b8152602060048201526015602482015274050657263656e74204e6f7420557020546f2031303605c1b6044820152606401610792565b610b8633306040890135610b7560208b018b61206a565b6001600160a01b0316929190611978565b5f80549080610b9483611ff6565b90915550505f8054815260036020908152604080832090890135929091610bbd908a018a61206a565b6001600160a01b0316815260208082019290925260409081015f2092909255815160e0810190925233825281810190610bf89089018961206a565b6001600160a01b03168152602001876020016020810190610c19919061206a565b6001600160a01b031681526020018281526020018760a001358152602001876060016020810190610c4a919061208a565b151581525f602091820181905233815260018083526040808320835484528452808320828452845291829020845181546001600160a01b03199081166001600160a01b039283161783559486015192820180548616938216939093179092559184015160028301805490941691161790915560608201516003820155608080830151600483015560a0808401516005909301805460c09095015161ffff1990951693151561ff00191693909317610100941515949094029390931790915590870135908701358515610f0d575f8054815260056020908152604080832080546001818101835591855283852060808e013591015583548452908320805491820181558352912060c08a013591015560025b878111610f0b57610d7060c08a01358361200e565b9150612710821115610dbf57610d8a60c08a013583612021565b91505f610d9983612710612021565b9050612710610dac8260408d0135612034565b610db6919061204b565b95506127109250505b610dcd60e08a01358461200e565b6040805160e08101909152338152909350602080820190610df0908c018c61206a565b6001600160a01b031681526020018a6020016020810190610e11919061206a565b6001600160a01b031681526020018681526020018481526020018a6060016020810190610e3e919061208a565b151581525f602091820181905233815260018083526040808320835484528452808320868452845291829020845181546001600160a01b03199081166001600160a01b0392831617835594860151928201805486169382169390931790925591840151600283018054909416911617909155606082015160038201556080820151600482015560a08201516005909101805460c09093015161ffff1990931691151561ff001916919091176101009215159290920291909117905580610f0381611ff6565b915050610d5b565b505b335f908152600260209081526040808320835484528252909120889055610f369089018961206a565b6001600160a01b0316336001600160a01b03167f989eaa915cbb416ea3d6f9a63b1a3de51770c7674b11fe21ecdf76b4e1d139105f54604051610f7b91815260200190565b60405180910390a35050505050505050565b335f908152600260209081526040808320848452909152902054600103610fba57610fb781611a1e565b50565b610fb78161072a565b335f8181526001602081815260408084208a855282528084209284529190529020546001600160a01b0316146110275760405162461bcd60e51b81526020600482015260096024820152682737ba1037bbb732b960b91b6044820152606401610792565b335f90815260016020818152604080842089855282528084209284529190529020600401548410156110905760405162461bcd60e51b81526020600482015260126024820152712a34b6b29031b0b73a1031329027b63232b960711b6044820152606401610792565b335f9081526001602081815260408084208985528252808420928452919052902060050154610100900460ff16156111035760405162461bcd60e51b81526020600482015260166024820152751d1bdad95b8810db185a5b5a5b99c814dd185c9d195960521b6044820152606401610792565b335f90815260026020908152604080832088845290915290205481156111b157335f8181526001602081815260408084208b85528252808420838552909152909120015461115e916001600160a01b03909116903085611978565b5f86815260036020908152604080832033845260018084528285208b86528452828520818652845282852001546001600160a01b03168452909152812080548492906111ab90849061200e565b90915550505b6001811180156111da57505f836001815181106111d0576111d06120a5565b6020026020010151115b80156111fe57505f835f815181106111f4576111f46120a5565b6020026020010151115b156118f157335f9081526001602081815260408084208a8552825280842092845291905280822060049081015460028452918320015482918291829182916112469190612021565b9050808910806112715750612710885f81518110611266576112666120a5565b602002602001015110155b156112b55760405162461bcd60e51b81526020600482015260146024820152732733b0b8101e1027b3b0b8103e1012b2b93937b960611b6044820152606401610792565b5f8b815260056020526040812080549091906112d3576112d36120a5565b905f5260205f200154885f815181106112ee576112ee6120a5565b6020026020010151118061134357505f8b81526005602052604090208054600190811061131d5761131d6120a5565b905f5260205f20015488600181518110611339576113396120a5565b6020026020010151115b156113855760405162461bcd60e51b8152602060048201526012602482015271496e76616c69642050657263656e7461676560701b6044820152606401610792565b875f81518110611397576113976120a5565b60200260200101519250875f815181106113b3576113b36120a5565b6020026020010151846113c6919061200e565b9350816113d281611ff6565b92505061271060035f8d81526020019081526020015f205f60015f336001600160a01b03166001600160a01b031681526020019081526020015f205f8f81526020019081526020015f205f600181526020019081526020015f206001015f9054906101000a90046001600160a01b03166001600160a01b03166001600160a01b031681526020019081526020015f20548461146d9190612034565b611477919061204b565b335f9081526001602090815260408083208f84528252808320868452909152902060030181905594505b6127108410156118ce57876001815181106114be576114be6120a5565b60200260200101519250876001815181106114db576114db6120a5565b6020026020010151846114ee919061200e565b9350612710841115611536578760018151811061150d5761150d6120a5565b6020026020010151846115209190612021565b935061152e84612710612021565b925061271093505b61271060035f8d81526020019081526020015f205f60015f336001600160a01b03166001600160a01b031681526020019081526020015f205f8f81526020019081526020015f205f600181526020019081526020015f206001015f9054906101000a90046001600160a01b03166001600160a01b03166001600160a01b031681526020019081526020015f2054846115ce9190612034565b6115d8919061204b565b9450816115e481611ff6565b925050818610156118a2576040518060e00160405280336001600160a01b0316815260200160015f336001600160a01b03166001600160a01b031681526020019081526020015f205f8e81526020019081526020015f205f600181526020019081526020015f206001015f9054906101000a90046001600160a01b03166001600160a01b0316815260200160015f336001600160a01b03166001600160a01b031681526020019081526020015f205f8e81526020019081526020015f205f600181526020019081526020015f206002015f9054906101000a90046001600160a01b03166001600160a01b0316815260200186815260200160015f336001600160a01b03166001600160a01b031681526020019081526020015f205f8e81526020019081526020015f205f8981526020019081526020015f2060040154815260200160015f336001600160a01b03166001600160a01b031681526020019081526020015f205f8e81526020019081526020015f205f600181526020019081526020015f206005015f9054906101000a900460ff16151581526020015f151581525060015f336001600160a01b03166001600160a01b031681526020019081526020015f205f8d81526020019081526020015f205f8481526020019081526020015f205f820151815f015f6101000a8154816001600160a01b0302191690836001600160a01b031602179055506020820151816001015f6101000a8154816001600160a01b0302191690836001600160a01b031602179055506040820151816002015f6101000a8154816001600160a01b0302191690836001600160a01b03160217905550606082015181600301556080820151816004015560a0820151816005015f6101000a81548160ff02191690831515021790555060c08201518160050160016101000a81548160ff0219169083151502179055509050506114a1565b335f9081526001602090815260408083208e8452825280832085845290915290206003018590556114a1565b50335f9081526002602090815260408083208d8452909152902081905593505050505b335f9081526001602081815260408084208a8552825280842083855290915290912060040186905581111561099a5760025b81811161196f57611934858761200e565b335f9081526001602090815260408083208b84528252808320858452909152902060040181905595508061196781611ff6565b915050611923565b50505050505050565b6040516001600160a01b03808516602483015283166044820152606481018290526119e39085906323b872dd60e01b906084015b60408051601f198184030181529190526020810180516001600160e01b03166001600160e01b031990931692909217909152611b59565b50505050565b6040516001600160a01b038316602482015260448101829052611a1990849063a9059cbb60e01b906064016119ac565b505050565b335f908152600160208181526040808420858552825280842083855290915290912060050154610100900460ff1615611a835760405162461bcd60e51b815260206004820152600760248201526610db185a5b595960ca1b6044820152606401610792565b335f90815260016020908152604080832085845282528083208484529091529020600401544211611af65760405162461bcd60e51b815260206004820152601860248201527f52656c656173652054696d65204e6f74205265616368656400000000000000006044820152606401610792565b335f908152600160208181526040808420868552825280842085855290915290912090810154600282015460038301546005909301805461ff0019166101001790556001600160a01b0391821692911690611b528383836119e9565b5050505050565b5f611bad826040518060400160405280602081526020017f5361666545524332303a206c6f772d6c6576656c2063616c6c206661696c6564815250856001600160a01b0316611c2a9092919063ffffffff16565b805190915015611a195780806020019051810190611bcb91906120b9565b611a195760405162461bcd60e51b815260206004820152602a60248201527f5361666545524332303a204552433230206f7065726174696f6e20646964206e6044820152691bdd081cdd58d8d9595960b21b6064820152608401610792565b6060611c3884845f85611c40565b949350505050565b606082471015611ca15760405162461bcd60e51b815260206004820152602660248201527f416464726573733a20696e73756666696369656e742062616c616e636520666f6044820152651c8818d85b1b60d21b6064820152608401610792565b5f80866001600160a01b03168587604051611cbc91906120f6565b5f6040518083038185875af1925050503d805f8114611cf6576040519150601f19603f3d011682016040523d82523d5f602084013e611cfb565b606091505b5091509150611d0c87838387611d17565b979650505050505050565b60608315611d855782515f03611d7e576001600160a01b0385163b611d7e5760405162461bcd60e51b815260206004820152601d60248201527f416464726573733a2063616c6c20746f206e6f6e2d636f6e74726163740000006044820152606401610792565b5081611c38565b611c388383815115611d9a5781518083602001fd5b8060405162461bcd60e51b81526004016107929190612111565b80356001600160a01b0381168114611dca575f80fd5b919050565b5f805f60608486031215611de1575f80fd5b611dea84611db4565b95602085013595506040909401359392505050565b5f8060408385031215611e10575f80fd5b611e1983611db4565b946020939093013593505050565b8015158114610fb7575f80fd5b5f805f805f8060c08789031215611e49575f80fd5b611e5287611db4565b9550611e6060208801611db4565b9450611e6e60408801611db4565b9350606087013592506080870135915060a0870135611e8c81611e27565b809150509295509295509295565b5f60208284031215611eaa575f80fd5b5035919050565b5f6101208284031215611ec2575f80fd5b50919050565b5f8060408385031215611ed9575f80fd5b82359150611ee960208401611db4565b90509250929050565b634e487b7160e01b5f52604160045260245ffd5b5f805f805f60a08688031215611f1a575f80fd5b85359450602080870135945060408701359350606087013567ffffffffffffffff80821115611f47575f80fd5b818901915089601f830112611f5a575f80fd5b813581811115611f6c57611f6c611ef2565b8060051b604051601f19603f83011681018181108582111715611f9157611f91611ef2565b60405291825284820192508381018501918c831115611fae575f80fd5b938501935b82851015611fcc57843584529385019392850192611fb3565b999c989b50969960800135979650505050505050565b634e487b7160e01b5f52601160045260245ffd5b5f6001820161200757612007611fe2565b5060010190565b808201808211156105c1576105c1611fe2565b818103818111156105c1576105c1611fe2565b80820281158282048414176105c1576105c1611fe2565b5f8261206557634e487b7160e01b5f52601260045260245ffd5b500490565b5f6020828403121561207a575f80fd5b61208382611db4565b9392505050565b5f6020828403121561209a575f80fd5b813561208381611e27565b634e487b7160e01b5f52603260045260245ffd5b5f602082840312156120c9575f80fd5b815161208381611e27565b5f5b838110156120ee5781810151838201526020016120d6565b50505f910152565b5f82516121078184602087016120d4565b9190910192915050565b602081525f825180602084015261212f8160408501602087016120d4565b601f01601f1916919091016040019291505056fea2646970667358221220165b5aec60c13790206cd6459d5c71743b625261f9b43df629bc7ff9d61432b064736f6c63430008140033",
			"opcodes": "PUSH1 0x80 PUSH1 0x40 MSTORE CALLVALUE DUP1 ISZERO PUSH2 0xF JUMPI PUSH0 DUP1 REVERT JUMPDEST POP PUSH2 0x2179 DUP1 PUSH2 0x1D PUSH0 CODECOPY PUSH0 RETURN INVALID PUSH1 0x80 PUSH1 0x40 MSTORE CALLVALUE DUP1 ISZERO PUSH2 0xF JUMPI PUSH0 DUP1 REVERT JUMPDEST POP PUSH1 0x4 CALLDATASIZE LT PUSH2 0x106 JUMPI PUSH0 CALLDATALOAD PUSH1 0xE0 SHR DUP1 PUSH4 0x8E6509C9 GT PUSH2 0x9E JUMPI DUP1 PUSH4 0xCF95D1FE GT PUSH2 0x6E JUMPI DUP1 PUSH4 0xCF95D1FE EQ PUSH2 0x4AB JUMPI DUP1 PUSH4 0xE3C36941 EQ PUSH2 0x4BE JUMPI DUP1 PUSH4 0xE5205906 EQ PUSH2 0x504 JUMPI DUP1 PUSH4 0xEAF60C8B EQ PUSH2 0x517 JUMPI DUP1 PUSH4 0xFDE8E727 EQ PUSH2 0x55A JUMPI PUSH0 DUP1 REVERT JUMPDEST DUP1 PUSH4 0x8E6509C9 EQ PUSH2 0x3B0 JUMPI DUP1 PUSH4 0x96480D04 EQ PUSH2 0x3C3 JUMPI DUP1 PUSH4 0x9BC59D83 EQ PUSH2 0x479 JUMPI DUP1 PUSH4 0xAF640D0F EQ PUSH2 0x4A3 JUMPI PUSH0 DUP1 REVERT JUMPDEST DUP1 PUSH4 0x569511E3 GT PUSH2 0xD9 JUMPI DUP1 PUSH4 0x569511E3 EQ PUSH2 0x2EB JUMPI DUP1 PUSH4 0x5F4455FB EQ PUSH2 0x300 JUMPI DUP1 PUSH4 0x6CFA2D9A EQ PUSH2 0x35A JUMPI DUP1 PUSH4 0x84ABACB4 EQ PUSH2 0x39D JUMPI PUSH0 DUP1 REVERT JUMPDEST DUP1 PUSH4 0xA64CC6A EQ PUSH2 0x10A JUMPI DUP1 PUSH4 0x1A38F4A7 EQ PUSH2 0x245 JUMPI DUP1 PUSH4 0x37D1BF92 EQ PUSH2 0x2A0 JUMPI DUP1 PUSH4 0x43EDD3C5 EQ PUSH2 0x2D8 JUMPI JUMPDEST PUSH0 DUP1 REVERT JUMPDEST PUSH2 0x1DE PUSH2 0x118 CALLDATASIZE PUSH1 0x4 PUSH2 0x1DCF JUMP JUMPDEST PUSH1 0x40 DUP1 MLOAD PUSH1 0xE0 DUP2 ADD DUP3 MSTORE PUSH0 DUP1 DUP3 MSTORE PUSH1 0x20 DUP3 ADD DUP2 SWAP1 MSTORE SWAP2 DUP2 ADD DUP3 SWAP1 MSTORE PUSH1 0x60 DUP2 ADD DUP3 SWAP1 MSTORE PUSH1 0x80 DUP2 ADD DUP3 SWAP1 MSTORE PUSH1 0xA0 DUP2 ADD DUP3 SWAP1 MSTORE PUSH1 0xC0 DUP2 ADD SWAP2 SWAP1 SWAP2 MSTORE POP PUSH1 0x1 PUSH1 0x1 PUSH1 0xA0 SHL SUB SWAP3 DUP4 AND PUSH0 SWAP1 DUP2 MSTORE PUSH1 0x1 PUSH1 0x20 DUP2 DUP2 MSTORE PUSH1 0x40 DUP1 DUP5 KECCAK256 SWAP6 DUP5 MSTORE SWAP5 DUP2 MSTORE DUP5 DUP4 KECCAK256 SWAP4 DUP4 MSTORE SWAP3 DUP4 MSTORE SWAP1 DUP4 SWAP1 KECCAK256 DUP4 MLOAD PUSH1 0xE0 DUP2 ADD DUP6 MSTORE DUP2 SLOAD DUP7 AND DUP2 MSTORE SWAP2 DUP2 ADD SLOAD DUP6 AND SWAP3 DUP3 ADD SWAP3 SWAP1 SWAP3 MSTORE PUSH1 0x2 DUP3 ADD SLOAD SWAP1 SWAP4 AND SWAP2 DUP4 ADD SWAP2 SWAP1 SWAP2 MSTORE PUSH1 0x3 DUP2 ADD SLOAD PUSH1 0x60 DUP4 ADD MSTORE PUSH1 0x4 DUP2 ADD SLOAD PUSH1 0x80 DUP4 ADD MSTORE PUSH1 0x5 ADD SLOAD PUSH1 0xFF DUP1 DUP3 AND ISZERO ISZERO PUSH1 0xA0 DUP5 ADD MSTORE PUSH2 0x100 SWAP1 SWAP2 DIV AND ISZERO ISZERO PUSH1 0xC0 DUP3 ADD MSTORE SWAP1 JUMP JUMPDEST PUSH1 0x40 DUP1 MLOAD DUP3 MLOAD PUSH1 0x1 PUSH1 0x1 PUSH1 0xA0 SHL SUB SWAP1 DUP2 AND DUP3 MSTORE PUSH1 0x20 DUP1 DUP6 ADD MLOAD DUP3 AND SWAP1 DUP4 ADD MSTORE DUP4 DUP4 ADD MLOAD AND SWAP2 DUP2 ADD SWAP2 SWAP1 SWAP2 MSTORE PUSH1 0x60 DUP1 DUP4 ADD MLOAD SWAP1 DUP3 ADD MSTORE PUSH1 0x80 DUP1 DUP4 ADD MLOAD SWAP1 DUP3 ADD MSTORE PUSH1 0xA0 DUP1 DUP4 ADD MLOAD ISZERO ISZERO SWAP1 DUP3 ADD MSTORE PUSH1 0xC0 SWAP2 DUP3 ADD MLOAD ISZERO ISZERO SWAP2 DUP2 ADD SWAP2 SWAP1 SWAP2 MSTORE PUSH1 0xE0 ADD JUMPDEST PUSH1 0x40 MLOAD DUP1 SWAP2 SUB SWAP1 RETURN JUMPDEST PUSH2 0x290 PUSH2 0x253 CALLDATASIZE PUSH1 0x4 PUSH2 0x1DCF JUMP JUMPDEST PUSH1 0x1 PUSH1 0x1 PUSH1 0xA0 SHL SUB SWAP3 SWAP1 SWAP3 AND PUSH0 SWAP1 DUP2 MSTORE PUSH1 0x1 PUSH1 0x20 SWAP1 DUP2 MSTORE PUSH1 0x40 DUP1 DUP4 KECCAK256 SWAP4 DUP4 MSTORE SWAP3 DUP2 MSTORE DUP3 DUP3 KECCAK256 SWAP4 DUP3 MSTORE SWAP3 SWAP1 SWAP3 MSTORE SWAP1 KECCAK256 PUSH1 0x5 ADD SLOAD PUSH2 0x100 SWAP1 DIV PUSH1 0xFF AND SWAP1 JUMP JUMPDEST PUSH1 0x40 MLOAD SWAP1 ISZERO ISZERO DUP2 MSTORE PUSH1 0x20 ADD PUSH2 0x23C JUMP JUMPDEST PUSH2 0x2CA PUSH2 0x2AE CALLDATASIZE PUSH1 0x4 PUSH2 0x1DFF JUMP JUMPDEST PUSH1 0x2 PUSH1 0x20 SWAP1 DUP2 MSTORE PUSH0 SWAP3 DUP4 MSTORE PUSH1 0x40 DUP1 DUP5 KECCAK256 SWAP1 SWAP2 MSTORE SWAP1 DUP3 MSTORE SWAP1 KECCAK256 SLOAD DUP2 JUMP JUMPDEST PUSH1 0x40 MLOAD SWAP1 DUP2 MSTORE PUSH1 0x20 ADD PUSH2 0x23C JUMP JUMPDEST PUSH2 0x2CA PUSH2 0x2E6 CALLDATASIZE PUSH1 0x4 PUSH2 0x1DFF JUMP JUMPDEST PUSH2 0x59D JUMP JUMPDEST PUSH2 0x2FE PUSH2 0x2F9 CALLDATASIZE PUSH1 0x4 PUSH2 0x1E34 JUMP JUMPDEST PUSH2 0x5C7 JUMP JUMPDEST STOP JUMPDEST PUSH2 0x342 PUSH2 0x30E CALLDATASIZE PUSH1 0x4 PUSH2 0x1DCF JUMP JUMPDEST PUSH1 0x1 PUSH1 0x1 PUSH1 0xA0 SHL SUB SWAP3 DUP4 AND PUSH0 SWAP1 DUP2 MSTORE PUSH1 0x1 PUSH1 0x20 SWAP1 DUP2 MSTORE PUSH1 0x40 DUP1 DUP4 KECCAK256 SWAP5 DUP4 MSTORE SWAP4 DUP2 MSTORE DUP4 DUP3 KECCAK256 SWAP3 DUP3 MSTORE SWAP2 SWAP1 SWAP2 MSTORE KECCAK256 PUSH1 0x2 ADD SLOAD AND SWAP1 JUMP JUMPDEST PUSH1 0x40 MLOAD PUSH1 0x1 PUSH1 0x1 PUSH1 0xA0 SHL SUB SWAP1 SWAP2 AND DUP2 MSTORE PUSH1 0x20 ADD PUSH2 0x23C JUMP JUMPDEST PUSH2 0x2CA PUSH2 0x368 CALLDATASIZE PUSH1 0x4 PUSH2 0x1DCF JUMP JUMPDEST PUSH1 0x1 PUSH1 0x1 PUSH1 0xA0 SHL SUB DUP4 AND PUSH0 SWAP1 DUP2 MSTORE PUSH1 0x1 PUSH1 0x20 SWAP1 DUP2 MSTORE PUSH1 0x40 DUP1 DUP4 KECCAK256 DUP6 DUP5 MSTORE DUP3 MSTORE DUP1 DUP4 KECCAK256 DUP5 DUP5 MSTORE SWAP1 SWAP2 MSTORE SWAP1 KECCAK256 PUSH1 0x3 ADD SLOAD SWAP4 SWAP3 POP POP POP JUMP JUMPDEST PUSH2 0x2FE PUSH2 0x3AB CALLDATASIZE PUSH1 0x4 PUSH2 0x1E9A JUMP JUMPDEST PUSH2 0x72A JUMP JUMPDEST PUSH2 0x2FE PUSH2 0x3BE CALLDATASIZE PUSH1 0x4 PUSH2 0x1EB1 JUMP JUMPDEST PUSH2 0x9A2 JUMP JUMPDEST PUSH2 0x431 PUSH2 0x3D1 CALLDATASIZE PUSH1 0x4 PUSH2 0x1DCF JUMP JUMPDEST PUSH1 0x1 PUSH1 0x20 DUP2 DUP2 MSTORE PUSH0 SWAP5 DUP6 MSTORE PUSH1 0x40 DUP1 DUP7 KECCAK256 DUP3 MSTORE SWAP4 DUP6 MSTORE DUP4 DUP6 KECCAK256 SWAP1 MSTORE SWAP1 DUP4 MSTORE SWAP2 KECCAK256 DUP1 SLOAD SWAP2 DUP2 ADD SLOAD PUSH1 0x2 DUP3 ADD SLOAD PUSH1 0x3 DUP4 ADD SLOAD PUSH1 0x4 DUP5 ADD SLOAD PUSH1 0x5 SWAP1 SWAP5 ADD SLOAD PUSH1 0x1 PUSH1 0x1 PUSH1 0xA0 SHL SUB SWAP6 DUP7 AND SWAP6 SWAP4 DUP5 AND SWAP5 SWAP4 SWAP1 SWAP3 AND SWAP3 SWAP1 SWAP2 PUSH1 0xFF DUP1 DUP3 AND SWAP2 PUSH2 0x100 SWAP1 DIV AND DUP8 JUMP JUMPDEST PUSH1 0x40 DUP1 MLOAD PUSH1 0x1 PUSH1 0x1 PUSH1 0xA0 SHL SUB SWAP9 DUP10 AND DUP2 MSTORE SWAP7 DUP9 AND PUSH1 0x20 DUP9 ADD MSTORE SWAP5 SWAP1 SWAP7 AND SWAP4 DUP6 ADD SWAP4 SWAP1 SWAP4 MSTORE PUSH1 0x60 DUP5 ADD SWAP2 SWAP1 SWAP2 MSTORE PUSH1 0x80 DUP4 ADD MSTORE ISZERO ISZERO PUSH1 0xA0 DUP3 ADD MSTORE SWAP1 ISZERO ISZERO PUSH1 0xC0 DUP3 ADD MSTORE PUSH1 0xE0 ADD PUSH2 0x23C JUMP JUMPDEST PUSH2 0x2CA PUSH2 0x487 CALLDATASIZE PUSH1 0x4 PUSH2 0x1EC8 JUMP JUMPDEST PUSH1 0x3 PUSH1 0x20 SWAP1 DUP2 MSTORE PUSH0 SWAP3 DUP4 MSTORE PUSH1 0x40 DUP1 DUP5 KECCAK256 SWAP1 SWAP2 MSTORE SWAP1 DUP3 MSTORE SWAP1 KECCAK256 SLOAD DUP2 JUMP JUMPDEST PUSH2 0x2CA PUSH0 SLOAD DUP2 JUMP JUMPDEST PUSH2 0x2FE PUSH2 0x4B9 CALLDATASIZE PUSH1 0x4 PUSH2 0x1E9A JUMP JUMPDEST PUSH2 0xF8D JUMP JUMPDEST PUSH2 0x290 PUSH2 0x4CC CALLDATASIZE PUSH1 0x4 PUSH2 0x1DCF JUMP JUMPDEST PUSH1 0x1 PUSH1 0x1 PUSH1 0xA0 SHL SUB DUP4 AND PUSH0 SWAP1 DUP2 MSTORE PUSH1 0x1 PUSH1 0x20 SWAP1 DUP2 MSTORE PUSH1 0x40 DUP1 DUP4 KECCAK256 DUP6 DUP5 MSTORE DUP3 MSTORE DUP1 DUP4 KECCAK256 DUP5 DUP5 MSTORE SWAP1 SWAP2 MSTORE SWAP1 KECCAK256 PUSH1 0x5 ADD SLOAD PUSH1 0xFF AND SWAP4 SWAP3 POP POP POP JUMP JUMPDEST PUSH2 0x2FE PUSH2 0x512 CALLDATASIZE PUSH1 0x4 PUSH2 0x1F06 JUMP JUMPDEST PUSH2 0xFC3 JUMP JUMPDEST PUSH2 0x2CA PUSH2 0x525 CALLDATASIZE PUSH1 0x4 PUSH2 0x1DCF JUMP JUMPDEST PUSH1 0x1 PUSH1 0x1 PUSH1 0xA0 SHL SUB DUP4 AND PUSH0 SWAP1 DUP2 MSTORE PUSH1 0x1 PUSH1 0x20 SWAP1 DUP2 MSTORE PUSH1 0x40 DUP1 DUP4 KECCAK256 DUP6 DUP5 MSTORE DUP3 MSTORE DUP1 DUP4 KECCAK256 DUP5 DUP5 MSTORE SWAP1 SWAP2 MSTORE SWAP1 KECCAK256 PUSH1 0x4 ADD SLOAD SWAP4 SWAP3 POP POP POP JUMP JUMPDEST PUSH2 0x342 PUSH2 0x568 CALLDATASIZE PUSH1 0x4 PUSH2 0x1DCF JUMP JUMPDEST PUSH1 0x1 PUSH1 0x1 PUSH1 0xA0 SHL SUB SWAP3 DUP4 AND PUSH0 SWAP1 DUP2 MSTORE PUSH1 0x1 PUSH1 0x20 DUP2 DUP2 MSTORE PUSH1 0x40 DUP1 DUP5 KECCAK256 SWAP6 DUP5 MSTORE SWAP5 DUP2 MSTORE DUP5 DUP4 KECCAK256 SWAP4 DUP4 MSTORE SWAP3 SWAP1 SWAP3 MSTORE SWAP2 SWAP1 SWAP2 KECCAK256 ADD SLOAD AND SWAP1 JUMP JUMPDEST PUSH1 0x1 PUSH1 0x1 PUSH1 0xA0 SHL SUB DUP3 AND PUSH0 SWAP1 DUP2 MSTORE PUSH1 0x2 PUSH1 0x20 SWAP1 DUP2 MSTORE PUSH1 0x40 DUP1 DUP4 KECCAK256 DUP5 DUP5 MSTORE SWAP1 SWAP2 MSTORE SWAP1 KECCAK256 SLOAD JUMPDEST SWAP3 SWAP2 POP POP JUMP JUMPDEST PUSH0 DUP1 SLOAD SWAP1 DUP1 PUSH2 0x5D5 DUP4 PUSH2 0x1FF6 JUMP JUMPDEST SWAP1 SWAP2 SSTORE POP PUSH2 0x5F0 SWAP1 POP PUSH1 0x1 PUSH1 0x1 PUSH1 0xA0 SHL SUB DUP7 AND CALLER ADDRESS DUP6 PUSH2 0x1978 JUMP JUMPDEST PUSH1 0x40 DUP1 MLOAD PUSH1 0xE0 DUP2 ADD DUP3 MSTORE PUSH1 0x1 PUSH1 0x1 PUSH1 0xA0 SHL SUB DUP1 DUP10 AND DUP1 DUP4 MSTORE DUP9 DUP3 AND PUSH1 0x20 DUP1 DUP6 ADD DUP3 DUP2 MSTORE DUP11 DUP6 AND DUP7 DUP9 ADD SWAP1 DUP2 MSTORE PUSH1 0x60 DUP8 ADD DUP11 DUP2 MSTORE PUSH1 0x80 DUP9 ADD DUP13 DUP2 MSTORE DUP11 ISZERO ISZERO PUSH1 0xA0 DUP11 ADD SWAP1 DUP2 MSTORE PUSH0 PUSH1 0xC0 DUP12 ADD DUP2 DUP2 MSTORE DUP10 DUP3 MSTORE PUSH1 0x1 DUP1 DUP10 MSTORE DUP14 DUP4 KECCAK256 DUP4 SLOAD DUP5 MSTORE DUP10 MSTORE DUP14 DUP4 KECCAK256 DUP2 DUP5 MSTORE DUP10 MSTORE DUP14 DUP4 KECCAK256 SWAP13 MLOAD DUP14 SLOAD SWAP1 DUP14 AND PUSH1 0x1 PUSH1 0x1 PUSH1 0xA0 SHL SUB NOT SWAP2 DUP3 AND OR DUP15 SSTORE SWAP8 MLOAD DUP14 DUP3 ADD DUP1 SLOAD SWAP2 DUP15 AND SWAP2 DUP11 AND SWAP2 SWAP1 SWAP2 OR SWAP1 SSTORE SWAP6 MLOAD PUSH1 0x2 DUP1 DUP15 ADD DUP1 SLOAD SWAP3 SWAP1 SWAP14 AND SWAP2 SWAP1 SWAP9 AND OR SWAP1 SWAP11 SSTORE SWAP3 MLOAD PUSH1 0x3 DUP12 ADD SSTORE SWAP1 MLOAD PUSH1 0x4 DUP11 ADD SSTORE MLOAD PUSH1 0x5 SWAP1 SWAP9 ADD DUP1 SLOAD SWAP8 MLOAD ISZERO ISZERO PUSH2 0x100 MUL PUSH2 0xFF00 NOT SWAP10 ISZERO ISZERO SWAP10 SWAP1 SWAP10 AND PUSH2 0xFFFF NOT SWAP1 SWAP9 AND SWAP8 SWAP1 SWAP8 OR SWAP8 SWAP1 SWAP8 OR SWAP1 SWAP6 SSTORE DUP4 DUP7 MSTORE DUP2 MSTORE DUP6 DUP6 KECCAK256 DUP6 SLOAD DUP7 MSTORE SWAP1 MSTORE DUP5 DUP5 KECCAK256 SWAP3 SWAP1 SWAP3 SSTORE SWAP2 SLOAD SWAP3 MLOAD SWAP1 SWAP3 PUSH32 0x989EAA915CBB416EA3D6F9A63B1A3DE51770C7674B11FE21ECDF76B4E1D13910 SWAP2 PUSH2 0x71A SWAP2 DUP2 MSTORE PUSH1 0x20 ADD SWAP1 JUMP JUMPDEST PUSH1 0x40 MLOAD DUP1 SWAP2 SUB SWAP1 LOG3 POP POP POP POP POP POP JUMP JUMPDEST CALLER PUSH0 DUP2 DUP2 MSTORE PUSH1 0x2 PUSH1 0x20 SWAP1 DUP2 MSTORE PUSH1 0x40 DUP1 DUP4 KECCAK256 DUP6 DUP5 MSTORE DUP3 MSTORE DUP1 DUP4 KECCAK256 SLOAD SWAP4 DUP4 MSTORE PUSH1 0x4 DUP3 MSTORE DUP1 DUP4 KECCAK256 DUP6 DUP5 MSTORE SWAP1 SWAP2 MSTORE SWAP1 KECCAK256 SLOAD DUP2 GT PUSH2 0x79B JUMPI PUSH1 0x40 MLOAD PUSH3 0x461BCD PUSH1 0xE5 SHL DUP2 MSTORE PUSH1 0x20 PUSH1 0x4 DUP3 ADD MSTORE PUSH1 0xE PUSH1 0x24 DUP3 ADD MSTORE PUSH14 0x436C61696D20436F6D706C657465 PUSH1 0x90 SHL PUSH1 0x44 DUP3 ADD MSTORE PUSH1 0x64 ADD JUMPDEST PUSH1 0x40 MLOAD DUP1 SWAP2 SUB SWAP1 REVERT JUMPDEST CALLER PUSH0 SWAP1 DUP2 MSTORE PUSH1 0x4 PUSH1 0x20 SWAP1 DUP2 MSTORE PUSH1 0x40 DUP1 DUP4 KECCAK256 DUP6 DUP5 MSTORE SWAP1 SWAP2 MSTORE DUP2 KECCAK256 SLOAD PUSH2 0x7C0 SWAP1 PUSH1 0x1 PUSH2 0x200E JUMP JUMPDEST CALLER PUSH0 SWAP1 DUP2 MSTORE PUSH1 0x1 PUSH1 0x20 SWAP1 DUP2 MSTORE PUSH1 0x40 DUP1 DUP4 KECCAK256 DUP8 DUP5 MSTORE DUP3 MSTORE DUP1 DUP4 KECCAK256 DUP5 DUP5 MSTORE SWAP1 SWAP2 MSTORE SWAP1 KECCAK256 PUSH1 0x4 ADD SLOAD SWAP1 SWAP2 POP TIMESTAMP LT ISZERO PUSH2 0x82A JUMPI PUSH1 0x40 MLOAD PUSH3 0x461BCD PUSH1 0xE5 SHL DUP2 MSTORE PUSH1 0x20 PUSH1 0x4 DUP3 ADD MSTORE PUSH1 0x10 PUSH1 0x24 DUP3 ADD MSTORE PUSH16 0x151A5B5948139BDD081C995858DA1959 PUSH1 0x82 SHL PUSH1 0x44 DUP3 ADD MSTORE PUSH1 0x64 ADD PUSH2 0x792 JUMP JUMPDEST CALLER PUSH0 SWAP1 DUP2 MSTORE PUSH1 0x1 PUSH1 0x20 SWAP1 DUP2 MSTORE PUSH1 0x40 DUP1 DUP4 KECCAK256 DUP7 DUP5 MSTORE DUP3 MSTORE DUP1 DUP4 KECCAK256 DUP5 DUP5 MSTORE SWAP1 SWAP2 MSTORE SWAP1 KECCAK256 PUSH1 0x5 ADD SLOAD PUSH2 0x100 SWAP1 DIV PUSH1 0xFF AND ISZERO PUSH2 0x88E JUMPI PUSH1 0x40 MLOAD PUSH3 0x461BCD PUSH1 0xE5 SHL DUP2 MSTORE PUSH1 0x20 PUSH1 0x4 DUP3 ADD MSTORE PUSH1 0x7 PUSH1 0x24 DUP3 ADD MSTORE PUSH7 0x10DB185A5B5959 PUSH1 0xCA SHL PUSH1 0x44 DUP3 ADD MSTORE PUSH1 0x64 ADD PUSH2 0x792 JUMP JUMPDEST CALLER PUSH0 SWAP1 DUP2 MSTORE PUSH1 0x1 PUSH1 0x20 DUP2 DUP2 MSTORE PUSH1 0x40 DUP1 DUP5 KECCAK256 DUP8 DUP6 MSTORE DUP3 MSTORE DUP1 DUP5 KECCAK256 DUP4 DUP6 MSTORE SWAP1 SWAP2 MSTORE DUP3 KECCAK256 SWAP1 DUP2 ADD SLOAD PUSH1 0x2 SWAP1 SWAP2 ADD SLOAD PUSH1 0x1 PUSH1 0x1 PUSH1 0xA0 SHL SUB SWAP2 DUP3 AND SWAP3 SWAP2 AND SWAP1 DUP4 JUMPDEST DUP6 DUP2 GT PUSH2 0x985 JUMPI CALLER PUSH0 SWAP1 DUP2 MSTORE PUSH1 0x1 PUSH1 0x20 SWAP1 DUP2 MSTORE PUSH1 0x40 DUP1 DUP4 KECCAK256 DUP11 DUP5 MSTORE DUP3 MSTORE DUP1 DUP4 KECCAK256 DUP5 DUP5 MSTORE SWAP1 SWAP2 MSTORE SWAP1 KECCAK256 PUSH1 0x4 ADD SLOAD TIMESTAMP LT PUSH2 0x96E JUMPI CALLER PUSH0 SWAP1 DUP2 MSTORE PUSH1 0x1 PUSH1 0x20 SWAP1 DUP2 MSTORE PUSH1 0x40 DUP1 DUP4 KECCAK256 DUP11 DUP5 MSTORE DUP3 MSTORE DUP1 DUP4 KECCAK256 DUP5 DUP5 MSTORE SWAP1 SWAP2 MSTORE SWAP1 KECCAK256 PUSH1 0x5 DUP2 ADD DUP1 SLOAD PUSH2 0xFF00 NOT AND PUSH2 0x100 OR SWAP1 SSTORE PUSH1 0x3 ADD SLOAD PUSH2 0x93C SWAP1 DUP4 PUSH2 0x200E JUMP JUMPDEST CALLER PUSH0 SWAP1 DUP2 MSTORE PUSH1 0x4 PUSH1 0x20 SWAP1 DUP2 MSTORE PUSH1 0x40 DUP1 DUP4 KECCAK256 DUP12 DUP5 MSTORE SWAP1 SWAP2 MSTORE DUP2 KECCAK256 DUP1 SLOAD SWAP3 SWAP5 POP SWAP1 PUSH2 0x964 DUP4 PUSH2 0x1FF6 JUMP JUMPDEST SWAP2 SWAP1 POP SSTORE POP PUSH2 0x973 JUMP JUMPDEST PUSH2 0x985 JUMP JUMPDEST DUP1 PUSH2 0x97D DUP2 PUSH2 0x1FF6 JUMP JUMPDEST SWAP2 POP POP PUSH2 0x8CA JUMP JUMPDEST POP PUSH2 0x99A PUSH1 0x1 PUSH1 0x1 PUSH1 0xA0 SHL SUB DUP5 AND DUP4 DUP4 PUSH2 0x19E9 JUMP JUMPDEST POP POP POP POP POP POP JUMP JUMPDEST PUSH2 0x100 DUP2 ADD CALLDATALOAD DUP1 PUSH2 0x9E2 JUMPI PUSH1 0x40 MLOAD PUSH3 0x461BCD PUSH1 0xE5 SHL DUP2 MSTORE PUSH1 0x20 PUSH1 0x4 DUP3 ADD MSTORE PUSH1 0xA PUSH1 0x24 DUP3 ADD MSTORE PUSH10 0x436F756E74206973204F PUSH1 0xB0 SHL PUSH1 0x44 DUP3 ADD MSTORE PUSH1 0x64 ADD PUSH2 0x792 JUMP JUMPDEST PUSH0 DUP3 PUSH1 0x40 ADD CALLDATALOAD GT PUSH2 0xA28 JUMPI PUSH1 0x40 MLOAD PUSH3 0x461BCD PUSH1 0xE5 SHL DUP2 MSTORE PUSH1 0x20 PUSH1 0x4 DUP3 ADD MSTORE PUSH1 0x10 PUSH1 0x24 DUP3 ADD MSTORE PUSH16 0x4C6F636B20616D6F756E74206973203 PUSH1 0x84 SHL PUSH1 0x44 DUP3 ADD MSTORE PUSH1 0x64 ADD PUSH2 0x792 JUMP JUMPDEST PUSH1 0x1 DUP2 GT PUSH0 PUSH2 0x2710 PUSH1 0x80 DUP6 ADD CALLDATALOAD GT ISZERO PUSH2 0xA8D JUMPI PUSH1 0x40 MLOAD PUSH3 0x461BCD PUSH1 0xE5 SHL DUP2 MSTORE PUSH1 0x20 PUSH1 0x4 DUP3 ADD MSTORE PUSH1 0x21 PUSH1 0x24 DUP3 ADD MSTORE PUSH32 0x666972737450657263656E746167652067726561746572207468656E20313030 PUSH1 0x44 DUP3 ADD MSTORE PUSH1 0x25 PUSH1 0xF8 SHL PUSH1 0x64 DUP3 ADD MSTORE PUSH1 0x84 ADD PUSH2 0x792 JUMP JUMPDEST PUSH0 DUP1 DUP4 ISZERO PUSH2 0xB06 JUMPI PUSH1 0xC0 DUP7 ADD CALLDATALOAD PUSH2 0xAA5 PUSH1 0x1 DUP8 PUSH2 0x2021 JUMP JUMPDEST PUSH2 0xAAF SWAP2 SWAP1 PUSH2 0x2034 JUMP JUMPDEST PUSH2 0xABD SWAP1 PUSH1 0x80 DUP9 ADD CALLDATALOAD PUSH2 0x200E JUMP JUMPDEST SWAP3 POP PUSH2 0x2710 PUSH2 0xAD4 PUSH1 0xC0 DUP9 ADD CALLDATALOAD PUSH1 0x40 DUP10 ADD CALLDATALOAD PUSH2 0x2034 JUMP JUMPDEST PUSH2 0xADE SWAP2 SWAP1 PUSH2 0x204B JUMP JUMPDEST SWAP2 POP PUSH2 0x2710 PUSH2 0xAF5 PUSH1 0x80 DUP9 ADD CALLDATALOAD PUSH1 0x40 DUP10 ADD CALLDATALOAD PUSH2 0x2034 JUMP JUMPDEST PUSH2 0xAFF SWAP2 SWAP1 PUSH2 0x204B JUMP JUMPDEST SWAP1 POP PUSH2 0xB14 JUMP JUMPDEST POP PUSH1 0x80 DUP6 ADD CALLDATALOAD SWAP2 POP PUSH1 0x40 DUP6 ADD CALLDATALOAD JUMPDEST PUSH2 0x2710 DUP4 LT ISZERO PUSH2 0xB5E JUMPI PUSH1 0x40 MLOAD PUSH3 0x461BCD PUSH1 0xE5 SHL DUP2 MSTORE PUSH1 0x20 PUSH1 0x4 DUP3 ADD MSTORE PUSH1 0x15 PUSH1 0x24 DUP3 ADD MSTORE PUSH21 0x50657263656E74204E6F7420557020546F2031303 PUSH1 0x5C SHL PUSH1 0x44 DUP3 ADD MSTORE PUSH1 0x64 ADD PUSH2 0x792 JUMP JUMPDEST PUSH2 0xB86 CALLER ADDRESS PUSH1 0x40 DUP10 ADD CALLDATALOAD PUSH2 0xB75 PUSH1 0x20 DUP12 ADD DUP12 PUSH2 0x206A JUMP JUMPDEST PUSH1 0x1 PUSH1 0x1 PUSH1 0xA0 SHL SUB AND SWAP3 SWAP2 SWAP1 PUSH2 0x1978 JUMP JUMPDEST PUSH0 DUP1 SLOAD SWAP1 DUP1 PUSH2 0xB94 DUP4 PUSH2 0x1FF6 JUMP JUMPDEST SWAP1 SWAP2 SSTORE POP POP PUSH0 DUP1 SLOAD DUP2 MSTORE PUSH1 0x3 PUSH1 0x20 SWAP1 DUP2 MSTORE PUSH1 0x40 DUP1 DUP4 KECCAK256 SWAP1 DUP10 ADD CALLDATALOAD SWAP3 SWAP1 SWAP2 PUSH2 0xBBD SWAP1 DUP11 ADD DUP11 PUSH2 0x206A JUMP JUMPDEST PUSH1 0x1 PUSH1 0x1 PUSH1 0xA0 SHL SUB AND DUP2 MSTORE PUSH1 0x20 DUP1 DUP3 ADD SWAP3 SWAP1 SWAP3 MSTORE PUSH1 0x40 SWAP1 DUP2 ADD PUSH0 KECCAK256 SWAP3 SWAP1 SWAP3 SSTORE DUP2 MLOAD PUSH1 0xE0 DUP2 ADD SWAP1 SWAP3 MSTORE CALLER DUP3 MSTORE DUP2 DUP2 ADD SWAP1 PUSH2 0xBF8 SWAP1 DUP10 ADD DUP10 PUSH2 0x206A JUMP JUMPDEST PUSH1 0x1 PUSH1 0x1 PUSH1 0xA0 SHL SUB AND DUP2 MSTORE PUSH1 0x20 ADD DUP8 PUSH1 0x20 ADD PUSH1 0x20 DUP2 ADD SWAP1 PUSH2 0xC19 SWAP2 SWAP1 PUSH2 0x206A JUMP JUMPDEST PUSH1 0x1 PUSH1 0x1 PUSH1 0xA0 SHL SUB AND DUP2 MSTORE PUSH1 0x20 ADD DUP3 DUP2 MSTORE PUSH1 0x20 ADD DUP8 PUSH1 0xA0 ADD CALLDATALOAD DUP2 MSTORE PUSH1 0x20 ADD DUP8 PUSH1 0x60 ADD PUSH1 0x20 DUP2 ADD SWAP1 PUSH2 0xC4A SWAP2 SWAP1 PUSH2 0x208A JUMP JUMPDEST ISZERO ISZERO DUP2 MSTORE PUSH0 PUSH1 0x20 SWAP2 DUP3 ADD DUP2 SWAP1 MSTORE CALLER DUP2 MSTORE PUSH1 0x1 DUP1 DUP4 MSTORE PUSH1 0x40 DUP1 DUP4 KECCAK256 DUP4 SLOAD DUP5 MSTORE DUP5 MSTORE DUP1 DUP4 KECCAK256 DUP3 DUP5 MSTORE DUP5 MSTORE SWAP2 DUP3 SWAP1 KECCAK256 DUP5 MLOAD DUP2 SLOAD PUSH1 0x1 PUSH1 0x1 PUSH1 0xA0 SHL SUB NOT SWAP1 DUP2 AND PUSH1 0x1 PUSH1 0x1 PUSH1 0xA0 SHL SUB SWAP3 DUP4 AND OR DUP4 SSTORE SWAP5 DUP7 ADD MLOAD SWAP3 DUP3 ADD DUP1 SLOAD DUP7 AND SWAP4 DUP3 AND SWAP4 SWAP1 SWAP4 OR SWAP1 SWAP3 SSTORE SWAP2 DUP5 ADD MLOAD PUSH1 0x2 DUP4 ADD DUP1 SLOAD SWAP1 SWAP5 AND SWAP2 AND OR SWAP1 SWAP2 SSTORE PUSH1 0x60 DUP3 ADD MLOAD PUSH1 0x3 DUP3 ADD SSTORE PUSH1 0x80 DUP1 DUP4 ADD MLOAD PUSH1 0x4 DUP4 ADD SSTORE PUSH1 0xA0 DUP1 DUP5 ADD MLOAD PUSH1 0x5 SWAP1 SWAP4 ADD DUP1 SLOAD PUSH1 0xC0 SWAP1 SWAP6 ADD MLOAD PUSH2 0xFFFF NOT SWAP1 SWAP6 AND SWAP4 ISZERO ISZERO PUSH2 0xFF00 NOT AND SWAP4 SWAP1 SWAP4 OR PUSH2 0x100 SWAP5 ISZERO ISZERO SWAP5 SWAP1 SWAP5 MUL SWAP4 SWAP1 SWAP4 OR SWAP1 SWAP2 SSTORE SWAP1 DUP8 ADD CALLDATALOAD SWAP1 DUP8 ADD CALLDATALOAD DUP6 ISZERO PUSH2 0xF0D JUMPI PUSH0 DUP1 SLOAD DUP2 MSTORE PUSH1 0x5 PUSH1 0x20 SWAP1 DUP2 MSTORE PUSH1 0x40 DUP1 DUP4 KECCAK256 DUP1 SLOAD PUSH1 0x1 DUP2 DUP2 ADD DUP4 SSTORE SWAP2 DUP6 MSTORE DUP4 DUP6 KECCAK256 PUSH1 0x80 DUP15 ADD CALLDATALOAD SWAP2 ADD SSTORE DUP4 SLOAD DUP5 MSTORE SWAP1 DUP4 KECCAK256 DUP1 SLOAD SWAP2 DUP3 ADD DUP2 SSTORE DUP4 MSTORE SWAP2 KECCAK256 PUSH1 0xC0 DUP11 ADD CALLDATALOAD SWAP2 ADD SSTORE PUSH1 0x2 JUMPDEST DUP8 DUP2 GT PUSH2 0xF0B JUMPI PUSH2 0xD70 PUSH1 0xC0 DUP11 ADD CALLDATALOAD DUP4 PUSH2 0x200E JUMP JUMPDEST SWAP2 POP PUSH2 0x2710 DUP3 GT ISZERO PUSH2 0xDBF JUMPI PUSH2 0xD8A PUSH1 0xC0 DUP11 ADD CALLDATALOAD DUP4 PUSH2 0x2021 JUMP JUMPDEST SWAP2 POP PUSH0 PUSH2 0xD99 DUP4 PUSH2 0x2710 PUSH2 0x2021 JUMP JUMPDEST SWAP1 POP PUSH2 0x2710 PUSH2 0xDAC DUP3 PUSH1 0x40 DUP14 ADD CALLDATALOAD PUSH2 0x2034 JUMP JUMPDEST PUSH2 0xDB6 SWAP2 SWAP1 PUSH2 0x204B JUMP JUMPDEST SWAP6 POP PUSH2 0x2710 SWAP3 POP POP JUMPDEST PUSH2 0xDCD PUSH1 0xE0 DUP11 ADD CALLDATALOAD DUP5 PUSH2 0x200E JUMP JUMPDEST PUSH1 0x40 DUP1 MLOAD PUSH1 0xE0 DUP2 ADD SWAP1 SWAP2 MSTORE CALLER DUP2 MSTORE SWAP1 SWAP4 POP PUSH1 0x20 DUP1 DUP3 ADD SWAP1 PUSH2 0xDF0 SWAP1 DUP13 ADD DUP13 PUSH2 0x206A JUMP JUMPDEST PUSH1 0x1 PUSH1 0x1 PUSH1 0xA0 SHL SUB AND DUP2 MSTORE PUSH1 0x20 ADD DUP11 PUSH1 0x20 ADD PUSH1 0x20 DUP2 ADD SWAP1 PUSH2 0xE11 SWAP2 SWAP1 PUSH2 0x206A JUMP JUMPDEST PUSH1 0x1 PUSH1 0x1 PUSH1 0xA0 SHL SUB AND DUP2 MSTORE PUSH1 0x20 ADD DUP7 DUP2 MSTORE PUSH1 0x20 ADD DUP5 DUP2 MSTORE PUSH1 0x20 ADD DUP11 PUSH1 0x60 ADD PUSH1 0x20 DUP2 ADD SWAP1 PUSH2 0xE3E SWAP2 SWAP1 PUSH2 0x208A JUMP JUMPDEST ISZERO ISZERO DUP2 MSTORE PUSH0 PUSH1 0x20 SWAP2 DUP3 ADD DUP2 SWAP1 MSTORE CALLER DUP2 MSTORE PUSH1 0x1 DUP1 DUP4 MSTORE PUSH1 0x40 DUP1 DUP4 KECCAK256 DUP4 SLOAD DUP5 MSTORE DUP5 MSTORE DUP1 DUP4 KECCAK256 DUP7 DUP5 MSTORE DUP5 MSTORE SWAP2 DUP3 SWAP1 KECCAK256 DUP5 MLOAD DUP2 SLOAD PUSH1 0x1 PUSH1 0x1 PUSH1 0xA0 SHL SUB NOT SWAP1 DUP2 AND PUSH1 0x1 PUSH1 0x1 PUSH1 0xA0 SHL SUB SWAP3 DUP4 AND OR DUP4 SSTORE SWAP5 DUP7 ADD MLOAD SWAP3 DUP3 ADD DUP1 SLOAD DUP7 AND SWAP4 DUP3 AND SWAP4 SWAP1 SWAP4 OR SWAP1 SWAP3 SSTORE SWAP2 DUP5 ADD MLOAD PUSH1 0x2 DUP4 ADD DUP1 SLOAD SWAP1 SWAP5 AND SWAP2 AND OR SWAP1 SWAP2 SSTORE PUSH1 0x60 DUP3 ADD MLOAD PUSH1 0x3 DUP3 ADD SSTORE PUSH1 0x80 DUP3 ADD MLOAD PUSH1 0x4 DUP3 ADD SSTORE PUSH1 0xA0 DUP3 ADD MLOAD PUSH1 0x5 SWAP1 SWAP2 ADD DUP1 SLOAD PUSH1 0xC0 SWAP1 SWAP4 ADD MLOAD PUSH2 0xFFFF NOT SWAP1 SWAP4 AND SWAP2 ISZERO ISZERO PUSH2 0xFF00 NOT AND SWAP2 SWAP1 SWAP2 OR PUSH2 0x100 SWAP3 ISZERO ISZERO SWAP3 SWAP1 SWAP3 MUL SWAP2 SWAP1 SWAP2 OR SWAP1 SSTORE DUP1 PUSH2 0xF03 DUP2 PUSH2 0x1FF6 JUMP JUMPDEST SWAP2 POP POP PUSH2 0xD5B JUMP JUMPDEST POP JUMPDEST CALLER PUSH0 SWAP1 DUP2 MSTORE PUSH1 0x2 PUSH1 0x20 SWAP1 DUP2 MSTORE PUSH1 0x40 DUP1 DUP4 KECCAK256 DUP4 SLOAD DUP5 MSTORE DUP3 MSTORE SWAP1 SWAP2 KECCAK256 DUP9 SWAP1 SSTORE PUSH2 0xF36 SWAP1 DUP10 ADD DUP10 PUSH2 0x206A JUMP JUMPDEST PUSH1 0x1 PUSH1 0x1 PUSH1 0xA0 SHL SUB AND CALLER PUSH1 0x1 PUSH1 0x1 PUSH1 0xA0 SHL SUB AND PUSH32 0x989EAA915CBB416EA3D6F9A63B1A3DE51770C7674B11FE21ECDF76B4E1D13910 PUSH0 SLOAD PUSH1 0x40 MLOAD PUSH2 0xF7B SWAP2 DUP2 MSTORE PUSH1 0x20 ADD SWAP1 JUMP JUMPDEST PUSH1 0x40 MLOAD DUP1 SWAP2 SUB SWAP1 LOG3 POP POP POP POP POP POP POP POP JUMP JUMPDEST CALLER PUSH0 SWAP1 DUP2 MSTORE PUSH1 0x2 PUSH1 0x20 SWAP1 DUP2 MSTORE PUSH1 0x40 DUP1 DUP4 KECCAK256 DUP5 DUP5 MSTORE SWAP1 SWAP2 MSTORE SWAP1 KECCAK256 SLOAD PUSH1 0x1 SUB PUSH2 0xFBA JUMPI PUSH2 0xFB7 DUP2 PUSH2 0x1A1E JUMP JUMPDEST POP JUMP JUMPDEST PUSH2 0xFB7 DUP2 PUSH2 0x72A JUMP JUMPDEST CALLER PUSH0 DUP2 DUP2 MSTORE PUSH1 0x1 PUSH1 0x20 DUP2 DUP2 MSTORE PUSH1 0x40 DUP1 DUP5 KECCAK256 DUP11 DUP6 MSTORE DUP3 MSTORE DUP1 DUP5 KECCAK256 SWAP3 DUP5 MSTORE SWAP2 SWAP1 MSTORE SWAP1 KECCAK256 SLOAD PUSH1 0x1 PUSH1 0x1 PUSH1 0xA0 SHL SUB AND EQ PUSH2 0x1027 JUMPI PUSH1 0x40 MLOAD PUSH3 0x461BCD PUSH1 0xE5 SHL DUP2 MSTORE PUSH1 0x20 PUSH1 0x4 DUP3 ADD MSTORE PUSH1 0x9 PUSH1 0x24 DUP3 ADD MSTORE PUSH9 0x2737BA1037BBB732B9 PUSH1 0xB9 SHL PUSH1 0x44 DUP3 ADD MSTORE PUSH1 0x64 ADD PUSH2 0x792 JUMP JUMPDEST CALLER PUSH0 SWAP1 DUP2 MSTORE PUSH1 0x1 PUSH1 0x20 DUP2 DUP2 MSTORE PUSH1 0x40 DUP1 DUP5 KECCAK256 DUP10 DUP6 MSTORE DUP3 MSTORE DUP1 DUP5 KECCAK256 SWAP3 DUP5 MSTORE SWAP2 SWAP1 MSTORE SWAP1 KECCAK256 PUSH1 0x4 ADD SLOAD DUP5 LT ISZERO PUSH2 0x1090 JUMPI PUSH1 0x40 MLOAD PUSH3 0x461BCD PUSH1 0xE5 SHL DUP2 MSTORE PUSH1 0x20 PUSH1 0x4 DUP3 ADD MSTORE PUSH1 0x12 PUSH1 0x24 DUP3 ADD MSTORE PUSH18 0x2A34B6B29031B0B73A1031329027B63232B9 PUSH1 0x71 SHL PUSH1 0x44 DUP3 ADD MSTORE PUSH1 0x64 ADD PUSH2 0x792 JUMP JUMPDEST CALLER PUSH0 SWAP1 DUP2 MSTORE PUSH1 0x1 PUSH1 0x20 DUP2 DUP2 MSTORE PUSH1 0x40 DUP1 DUP5 KECCAK256 DUP10 DUP6 MSTORE DUP3 MSTORE DUP1 DUP5 KECCAK256 SWAP3 DUP5 MSTORE SWAP2 SWAP1 MSTORE SWAP1 KECCAK256 PUSH1 0x5 ADD SLOAD PUSH2 0x100 SWAP1 DIV PUSH1 0xFF AND ISZERO PUSH2 0x1103 JUMPI PUSH1 0x40 MLOAD PUSH3 0x461BCD PUSH1 0xE5 SHL DUP2 MSTORE PUSH1 0x20 PUSH1 0x4 DUP3 ADD MSTORE PUSH1 0x16 PUSH1 0x24 DUP3 ADD MSTORE PUSH22 0x1D1BDAD95B8810DB185A5B5A5B99C814DD185C9D1959 PUSH1 0x52 SHL PUSH1 0x44 DUP3 ADD MSTORE PUSH1 0x64 ADD PUSH2 0x792 JUMP JUMPDEST CALLER PUSH0 SWAP1 DUP2 MSTORE PUSH1 0x2 PUSH1 0x20 SWAP1 DUP2 MSTORE PUSH1 0x40 DUP1 DUP4 KECCAK256 DUP9 DUP5 MSTORE SWAP1 SWAP2 MSTORE SWAP1 KECCAK256 SLOAD DUP2 ISZERO PUSH2 0x11B1 JUMPI CALLER PUSH0 DUP2 DUP2 MSTORE PUSH1 0x1 PUSH1 0x20 DUP2 DUP2 MSTORE PUSH1 0x40 DUP1 DUP5 KECCAK256 DUP12 DUP6 MSTORE DUP3 MSTORE DUP1 DUP5 KECCAK256 DUP4 DUP6 MSTORE SWAP1 SWAP2 MSTORE SWAP1 SWAP2 KECCAK256 ADD SLOAD PUSH2 0x115E SWAP2 PUSH1 0x1 PUSH1 0x1 PUSH1 0xA0 SHL SUB SWAP1 SWAP2 AND SWAP1 ADDRESS DUP6 PUSH2 0x1978 JUMP JUMPDEST PUSH0 DUP7 DUP2 MSTORE PUSH1 0x3 PUSH1 0x20 SWAP1 DUP2 MSTORE PUSH1 0x40 DUP1 DUP4 KECCAK256 CALLER DUP5 MSTORE PUSH1 0x1 DUP1 DUP5 MSTORE DUP3 DUP6 KECCAK256 DUP12 DUP7 MSTORE DUP5 MSTORE DUP3 DUP6 KECCAK256 DUP2 DUP7 MSTORE DUP5 MSTORE DUP3 DUP6 KECCAK256 ADD SLOAD PUSH1 0x1 PUSH1 0x1 PUSH1 0xA0 SHL SUB AND DUP5 MSTORE SWAP1 SWAP2 MSTORE DUP2 KECCAK256 DUP1 SLOAD DUP5 SWAP3 SWAP1 PUSH2 0x11AB SWAP1 DUP5 SWAP1 PUSH2 0x200E JUMP JUMPDEST SWAP1 SWAP2 SSTORE POP POP JUMPDEST PUSH1 0x1 DUP2 GT DUP1 ISZERO PUSH2 0x11DA JUMPI POP PUSH0 DUP4 PUSH1 0x1 DUP2 MLOAD DUP2 LT PUSH2 0x11D0 JUMPI PUSH2 0x11D0 PUSH2 0x20A5 JUMP JUMPDEST PUSH1 0x20 MUL PUSH1 0x20 ADD ADD MLOAD GT JUMPDEST DUP1 ISZERO PUSH2 0x11FE JUMPI POP PUSH0 DUP4 PUSH0 DUP2 MLOAD DUP2 LT PUSH2 0x11F4 JUMPI PUSH2 0x11F4 PUSH2 0x20A5 JUMP JUMPDEST PUSH1 0x20 MUL PUSH1 0x20 ADD ADD MLOAD GT JUMPDEST ISZERO PUSH2 0x18F1 JUMPI CALLER PUSH0 SWAP1 DUP2 MSTORE PUSH1 0x1 PUSH1 0x20 DUP2 DUP2 MSTORE PUSH1 0x40 DUP1 DUP5 KECCAK256 DUP11 DUP6 MSTORE DUP3 MSTORE DUP1 DUP5 KECCAK256 SWAP3 DUP5 MSTORE SWAP2 SWAP1 MSTORE DUP1 DUP3 KECCAK256 PUSH1 0x4 SWAP1 DUP2 ADD SLOAD PUSH1 0x2 DUP5 MSTORE SWAP2 DUP4 KECCAK256 ADD SLOAD DUP3 SWAP2 DUP3 SWAP2 DUP3 SWAP2 DUP3 SWAP2 PUSH2 0x1246 SWAP2 SWAP1 PUSH2 0x2021 JUMP JUMPDEST SWAP1 POP DUP1 DUP10 LT DUP1 PUSH2 0x1271 JUMPI POP PUSH2 0x2710 DUP9 PUSH0 DUP2 MLOAD DUP2 LT PUSH2 0x1266 JUMPI PUSH2 0x1266 PUSH2 0x20A5 JUMP JUMPDEST PUSH1 0x20 MUL PUSH1 0x20 ADD ADD MLOAD LT ISZERO JUMPDEST ISZERO PUSH2 0x12B5 JUMPI PUSH1 0x40 MLOAD PUSH3 0x461BCD PUSH1 0xE5 SHL DUP2 MSTORE PUSH1 0x20 PUSH1 0x4 DUP3 ADD MSTORE PUSH1 0x14 PUSH1 0x24 DUP3 ADD MSTORE PUSH20 0x2733B0B8101E1027B3B0B8103E1012B2B93937B9 PUSH1 0x61 SHL PUSH1 0x44 DUP3 ADD MSTORE PUSH1 0x64 ADD PUSH2 0x792 JUMP JUMPDEST PUSH0 DUP12 DUP2 MSTORE PUSH1 0x5 PUSH1 0x20 MSTORE PUSH1 0x40 DUP2 KECCAK256 DUP1 SLOAD SWAP1 SWAP2 SWAP1 PUSH2 0x12D3 JUMPI PUSH2 0x12D3 PUSH2 0x20A5 JUMP JUMPDEST SWAP1 PUSH0 MSTORE PUSH1 0x20 PUSH0 KECCAK256 ADD SLOAD DUP9 PUSH0 DUP2 MLOAD DUP2 LT PUSH2 0x12EE JUMPI PUSH2 0x12EE PUSH2 0x20A5 JUMP JUMPDEST PUSH1 0x20 MUL PUSH1 0x20 ADD ADD MLOAD GT DUP1 PUSH2 0x1343 JUMPI POP PUSH0 DUP12 DUP2 MSTORE PUSH1 0x5 PUSH1 0x20 MSTORE PUSH1 0x40 SWAP1 KECCAK256 DUP1 SLOAD PUSH1 0x1 SWAP1 DUP2 LT PUSH2 0x131D JUMPI PUSH2 0x131D PUSH2 0x20A5 JUMP JUMPDEST SWAP1 PUSH0 MSTORE PUSH1 0x20 PUSH0 KECCAK256 ADD SLOAD DUP9 PUSH1 0x1 DUP2 MLOAD DUP2 LT PUSH2 0x1339 JUMPI PUSH2 0x1339 PUSH2 0x20A5 JUMP JUMPDEST PUSH1 0x20 MUL PUSH1 0x20 ADD ADD MLOAD GT JUMPDEST ISZERO PUSH2 0x1385 JUMPI PUSH1 0x40 MLOAD PUSH3 0x461BCD PUSH1 0xE5 SHL DUP2 MSTORE PUSH1 0x20 PUSH1 0x4 DUP3 ADD MSTORE PUSH1 0x12 PUSH1 0x24 DUP3 ADD MSTORE PUSH18 0x496E76616C69642050657263656E74616765 PUSH1 0x70 SHL PUSH1 0x44 DUP3 ADD MSTORE PUSH1 0x64 ADD PUSH2 0x792 JUMP JUMPDEST DUP8 PUSH0 DUP2 MLOAD DUP2 LT PUSH2 0x1397 JUMPI PUSH2 0x1397 PUSH2 0x20A5 JUMP JUMPDEST PUSH1 0x20 MUL PUSH1 0x20 ADD ADD MLOAD SWAP3 POP DUP8 PUSH0 DUP2 MLOAD DUP2 LT PUSH2 0x13B3 JUMPI PUSH2 0x13B3 PUSH2 0x20A5 JUMP JUMPDEST PUSH1 0x20 MUL PUSH1 0x20 ADD ADD MLOAD DUP5 PUSH2 0x13C6 SWAP2 SWAP1 PUSH2 0x200E JUMP JUMPDEST SWAP4 POP DUP2 PUSH2 0x13D2 DUP2 PUSH2 0x1FF6 JUMP JUMPDEST SWAP3 POP POP PUSH2 0x2710 PUSH1 0x3 PUSH0 DUP14 DUP2 MSTORE PUSH1 0x20 ADD SWAP1 DUP2 MSTORE PUSH1 0x20 ADD PUSH0 KECCAK256 PUSH0 PUSH1 0x1 PUSH0 CALLER PUSH1 0x1 PUSH1 0x1 PUSH1 0xA0 SHL SUB AND PUSH1 0x1 PUSH1 0x1 PUSH1 0xA0 SHL SUB AND DUP2 MSTORE PUSH1 0x20 ADD SWAP1 DUP2 MSTORE PUSH1 0x20 ADD PUSH0 KECCAK256 PUSH0 DUP16 DUP2 MSTORE PUSH1 0x20 ADD SWAP1 DUP2 MSTORE PUSH1 0x20 ADD PUSH0 KECCAK256 PUSH0 PUSH1 0x1 DUP2 MSTORE PUSH1 0x20 ADD SWAP1 DUP2 MSTORE PUSH1 0x20 ADD PUSH0 KECCAK256 PUSH1 0x1 ADD PUSH0 SWAP1 SLOAD SWAP1 PUSH2 0x100 EXP SWAP1 DIV PUSH1 0x1 PUSH1 0x1 PUSH1 0xA0 SHL SUB AND PUSH1 0x1 PUSH1 0x1 PUSH1 0xA0 SHL SUB AND PUSH1 0x1 PUSH1 0x1 PUSH1 0xA0 SHL SUB AND DUP2 MSTORE PUSH1 0x20 ADD SWAP1 DUP2 MSTORE PUSH1 0x20 ADD PUSH0 KECCAK256 SLOAD DUP5 PUSH2 0x146D SWAP2 SWAP1 PUSH2 0x2034 JUMP JUMPDEST PUSH2 0x1477 SWAP2 SWAP1 PUSH2 0x204B JUMP JUMPDEST CALLER PUSH0 SWAP1 DUP2 MSTORE PUSH1 0x1 PUSH1 0x20 SWAP1 DUP2 MSTORE PUSH1 0x40 DUP1 DUP4 KECCAK256 DUP16 DUP5 MSTORE DUP3 MSTORE DUP1 DUP4 KECCAK256 DUP7 DUP5 MSTORE SWAP1 SWAP2 MSTORE SWAP1 KECCAK256 PUSH1 0x3 ADD DUP2 SWAP1 SSTORE SWAP5 POP JUMPDEST PUSH2 0x2710 DUP5 LT ISZERO PUSH2 0x18CE JUMPI DUP8 PUSH1 0x1 DUP2 MLOAD DUP2 LT PUSH2 0x14BE JUMPI PUSH2 0x14BE PUSH2 0x20A5 JUMP JUMPDEST PUSH1 0x20 MUL PUSH1 0x20 ADD ADD MLOAD SWAP3 POP DUP8 PUSH1 0x1 DUP2 MLOAD DUP2 LT PUSH2 0x14DB JUMPI PUSH2 0x14DB PUSH2 0x20A5 JUMP JUMPDEST PUSH1 0x20 MUL PUSH1 0x20 ADD ADD MLOAD DUP5 PUSH2 0x14EE SWAP2 SWAP1 PUSH2 0x200E JUMP JUMPDEST SWAP4 POP PUSH2 0x2710 DUP5 GT ISZERO PUSH2 0x1536 JUMPI DUP8 PUSH1 0x1 DUP2 MLOAD DUP2 LT PUSH2 0x150D JUMPI PUSH2 0x150D PUSH2 0x20A5 JUMP JUMPDEST PUSH1 0x20 MUL PUSH1 0x20 ADD ADD MLOAD DUP5 PUSH2 0x1520 SWAP2 SWAP1 PUSH2 0x2021 JUMP JUMPDEST SWAP4 POP PUSH2 0x152E DUP5 PUSH2 0x2710 PUSH2 0x2021 JUMP JUMPDEST SWAP3 POP PUSH2 0x2710 SWAP4 POP JUMPDEST PUSH2 0x2710 PUSH1 0x3 PUSH0 DUP14 DUP2 MSTORE PUSH1 0x20 ADD SWAP1 DUP2 MSTORE PUSH1 0x20 ADD PUSH0 KECCAK256 PUSH0 PUSH1 0x1 PUSH0 CALLER PUSH1 0x1 PUSH1 0x1 PUSH1 0xA0 SHL SUB AND PUSH1 0x1 PUSH1 0x1 PUSH1 0xA0 SHL SUB AND DUP2 MSTORE PUSH1 0x20 ADD SWAP1 DUP2 MSTORE PUSH1 0x20 ADD PUSH0 KECCAK256 PUSH0 DUP16 DUP2 MSTORE PUSH1 0x20 ADD SWAP1 DUP2 MSTORE PUSH1 0x20 ADD PUSH0 KECCAK256 PUSH0 PUSH1 0x1 DUP2 MSTORE PUSH1 0x20 ADD SWAP1 DUP2 MSTORE PUSH1 0x20 ADD PUSH0 KECCAK256 PUSH1 0x1 ADD PUSH0 SWAP1 SLOAD SWAP1 PUSH2 0x100 EXP SWAP1 DIV PUSH1 0x1 PUSH1 0x1 PUSH1 0xA0 SHL SUB AND PUSH1 0x1 PUSH1 0x1 PUSH1 0xA0 SHL SUB AND PUSH1 0x1 PUSH1 0x1 PUSH1 0xA0 SHL SUB AND DUP2 MSTORE PUSH1 0x20 ADD SWAP1 DUP2 MSTORE PUSH1 0x20 ADD PUSH0 KECCAK256 SLOAD DUP5 PUSH2 0x15CE SWAP2 SWAP1 PUSH2 0x2034 JUMP JUMPDEST PUSH2 0x15D8 SWAP2 SWAP1 PUSH2 0x204B JUMP JUMPDEST SWAP5 POP DUP2 PUSH2 0x15E4 DUP2 PUSH2 0x1FF6 JUMP JUMPDEST SWAP3 POP POP DUP2 DUP7 LT ISZERO PUSH2 0x18A2 JUMPI PUSH1 0x40 MLOAD DUP1 PUSH1 0xE0 ADD PUSH1 0x40 MSTORE DUP1 CALLER PUSH1 0x1 PUSH1 0x1 PUSH1 0xA0 SHL SUB AND DUP2 MSTORE PUSH1 0x20 ADD PUSH1 0x1 PUSH0 CALLER PUSH1 0x1 PUSH1 0x1 PUSH1 0xA0 SHL SUB AND PUSH1 0x1 PUSH1 0x1 PUSH1 0xA0 SHL SUB AND DUP2 MSTORE PUSH1 0x20 ADD SWAP1 DUP2 MSTORE PUSH1 0x20 ADD PUSH0 KECCAK256 PUSH0 DUP15 DUP2 MSTORE PUSH1 0x20 ADD SWAP1 DUP2 MSTORE PUSH1 0x20 ADD PUSH0 KECCAK256 PUSH0 PUSH1 0x1 DUP2 MSTORE PUSH1 0x20 ADD SWAP1 DUP2 MSTORE PUSH1 0x20 ADD PUSH0 KECCAK256 PUSH1 0x1 ADD PUSH0 SWAP1 SLOAD SWAP1 PUSH2 0x100 EXP SWAP1 DIV PUSH1 0x1 PUSH1 0x1 PUSH1 0xA0 SHL SUB AND PUSH1 0x1 PUSH1 0x1 PUSH1 0xA0 SHL SUB AND DUP2 MSTORE PUSH1 0x20 ADD PUSH1 0x1 PUSH0 CALLER PUSH1 0x1 PUSH1 0x1 PUSH1 0xA0 SHL SUB AND PUSH1 0x1 PUSH1 0x1 PUSH1 0xA0 SHL SUB AND DUP2 MSTORE PUSH1 0x20 ADD SWAP1 DUP2 MSTORE PUSH1 0x20 ADD PUSH0 KECCAK256 PUSH0 DUP15 DUP2 MSTORE PUSH1 0x20 ADD SWAP1 DUP2 MSTORE PUSH1 0x20 ADD PUSH0 KECCAK256 PUSH0 PUSH1 0x1 DUP2 MSTORE PUSH1 0x20 ADD SWAP1 DUP2 MSTORE PUSH1 0x20 ADD PUSH0 KECCAK256 PUSH1 0x2 ADD PUSH0 SWAP1 SLOAD SWAP1 PUSH2 0x100 EXP SWAP1 DIV PUSH1 0x1 PUSH1 0x1 PUSH1 0xA0 SHL SUB AND PUSH1 0x1 PUSH1 0x1 PUSH1 0xA0 SHL SUB AND DUP2 MSTORE PUSH1 0x20 ADD DUP7 DUP2 MSTORE PUSH1 0x20 ADD PUSH1 0x1 PUSH0 CALLER PUSH1 0x1 PUSH1 0x1 PUSH1 0xA0 SHL SUB AND PUSH1 0x1 PUSH1 0x1 PUSH1 0xA0 SHL SUB AND DUP2 MSTORE PUSH1 0x20 ADD SWAP1 DUP2 MSTORE PUSH1 0x20 ADD PUSH0 KECCAK256 PUSH0 DUP15 DUP2 MSTORE PUSH1 0x20 ADD SWAP1 DUP2 MSTORE PUSH1 0x20 ADD PUSH0 KECCAK256 PUSH0 DUP10 DUP2 MSTORE PUSH1 0x20 ADD SWAP1 DUP2 MSTORE PUSH1 0x20 ADD PUSH0 KECCAK256 PUSH1 0x4 ADD SLOAD DUP2 MSTORE PUSH1 0x20 ADD PUSH1 0x1 PUSH0 CALLER PUSH1 0x1 PUSH1 0x1 PUSH1 0xA0 SHL SUB AND PUSH1 0x1 PUSH1 0x1 PUSH1 0xA0 SHL SUB AND DUP2 MSTORE PUSH1 0x20 ADD SWAP1 DUP2 MSTORE PUSH1 0x20 ADD PUSH0 KECCAK256 PUSH0 DUP15 DUP2 MSTORE PUSH1 0x20 ADD SWAP1 DUP2 MSTORE PUSH1 0x20 ADD PUSH0 KECCAK256 PUSH0 PUSH1 0x1 DUP2 MSTORE PUSH1 0x20 ADD SWAP1 DUP2 MSTORE PUSH1 0x20 ADD PUSH0 KECCAK256 PUSH1 0x5 ADD PUSH0 SWAP1 SLOAD SWAP1 PUSH2 0x100 EXP SWAP1 DIV PUSH1 0xFF AND ISZERO ISZERO DUP2 MSTORE PUSH1 0x20 ADD PUSH0 ISZERO ISZERO DUP2 MSTORE POP PUSH1 0x1 PUSH0 CALLER PUSH1 0x1 PUSH1 0x1 PUSH1 0xA0 SHL SUB AND PUSH1 0x1 PUSH1 0x1 PUSH1 0xA0 SHL SUB AND DUP2 MSTORE PUSH1 0x20 ADD SWAP1 DUP2 MSTORE PUSH1 0x20 ADD PUSH0 KECCAK256 PUSH0 DUP14 DUP2 MSTORE PUSH1 0x20 ADD SWAP1 DUP2 MSTORE PUSH1 0x20 ADD PUSH0 KECCAK256 PUSH0 DUP5 DUP2 MSTORE PUSH1 0x20 ADD SWAP1 DUP2 MSTORE PUSH1 0x20 ADD PUSH0 KECCAK256 PUSH0 DUP3 ADD MLOAD DUP2 PUSH0 ADD PUSH0 PUSH2 0x100 EXP DUP2 SLOAD DUP2 PUSH1 0x1 PUSH1 0x1 PUSH1 0xA0 SHL SUB MUL NOT AND SWAP1 DUP4 PUSH1 0x1 PUSH1 0x1 PUSH1 0xA0 SHL SUB AND MUL OR SWAP1 SSTORE POP PUSH1 0x20 DUP3 ADD MLOAD DUP2 PUSH1 0x1 ADD PUSH0 PUSH2 0x100 EXP DUP2 SLOAD DUP2 PUSH1 0x1 PUSH1 0x1 PUSH1 0xA0 SHL SUB MUL NOT AND SWAP1 DUP4 PUSH1 0x1 PUSH1 0x1 PUSH1 0xA0 SHL SUB AND MUL OR SWAP1 SSTORE POP PUSH1 0x40 DUP3 ADD MLOAD DUP2 PUSH1 0x2 ADD PUSH0 PUSH2 0x100 EXP DUP2 SLOAD DUP2 PUSH1 0x1 PUSH1 0x1 PUSH1 0xA0 SHL SUB MUL NOT AND SWAP1 DUP4 PUSH1 0x1 PUSH1 0x1 PUSH1 0xA0 SHL SUB AND MUL OR SWAP1 SSTORE POP PUSH1 0x60 DUP3 ADD MLOAD DUP2 PUSH1 0x3 ADD SSTORE PUSH1 0x80 DUP3 ADD MLOAD DUP2 PUSH1 0x4 ADD SSTORE PUSH1 0xA0 DUP3 ADD MLOAD DUP2 PUSH1 0x5 ADD PUSH0 PUSH2 0x100 EXP DUP2 SLOAD DUP2 PUSH1 0xFF MUL NOT AND SWAP1 DUP4 ISZERO ISZERO MUL OR SWAP1 SSTORE POP PUSH1 0xC0 DUP3 ADD MLOAD DUP2 PUSH1 0x5 ADD PUSH1 0x1 PUSH2 0x100 EXP DUP2 SLOAD DUP2 PUSH1 0xFF MUL NOT AND SWAP1 DUP4 ISZERO ISZERO MUL OR SWAP1 SSTORE POP SWAP1 POP POP PUSH2 0x14A1 JUMP JUMPDEST CALLER PUSH0 SWAP1 DUP2 MSTORE PUSH1 0x1 PUSH1 0x20 SWAP1 DUP2 MSTORE PUSH1 0x40 DUP1 DUP4 KECCAK256 DUP15 DUP5 MSTORE DUP3 MSTORE DUP1 DUP4 KECCAK256 DUP6 DUP5 MSTORE SWAP1 SWAP2 MSTORE SWAP1 KECCAK256 PUSH1 0x3 ADD DUP6 SWAP1 SSTORE PUSH2 0x14A1 JUMP JUMPDEST POP CALLER PUSH0 SWAP1 DUP2 MSTORE PUSH1 0x2 PUSH1 0x20 SWAP1 DUP2 MSTORE PUSH1 0x40 DUP1 DUP4 KECCAK256 DUP14 DUP5 MSTORE SWAP1 SWAP2 MSTORE SWAP1 KECCAK256 DUP2 SWAP1 SSTORE SWAP4 POP POP POP POP JUMPDEST CALLER PUSH0 SWAP1 DUP2 MSTORE PUSH1 0x1 PUSH1 0x20 DUP2 DUP2 MSTORE PUSH1 0x40 DUP1 DUP5 KECCAK256 DUP11 DUP6 MSTORE DUP3 MSTORE DUP1 DUP5 KECCAK256 DUP4 DUP6 MSTORE SWAP1 SWAP2 MSTORE SWAP1 SWAP2 KECCAK256 PUSH1 0x4 ADD DUP7 SWAP1 SSTORE DUP2 GT ISZERO PUSH2 0x99A JUMPI PUSH1 0x2 JUMPDEST DUP2 DUP2 GT PUSH2 0x196F JUMPI PUSH2 0x1934 DUP6 DUP8 PUSH2 0x200E JUMP JUMPDEST CALLER PUSH0 SWAP1 DUP2 MSTORE PUSH1 0x1 PUSH1 0x20 SWAP1 DUP2 MSTORE PUSH1 0x40 DUP1 DUP4 KECCAK256 DUP12 DUP5 MSTORE DUP3 MSTORE DUP1 DUP4 KECCAK256 DUP6 DUP5 MSTORE SWAP1 SWAP2 MSTORE SWAP1 KECCAK256 PUSH1 0x4 ADD DUP2 SWAP1 SSTORE SWAP6 POP DUP1 PUSH2 0x1967 DUP2 PUSH2 0x1FF6 JUMP JUMPDEST SWAP2 POP POP PUSH2 0x1923 JUMP JUMPDEST POP POP POP POP POP POP POP JUMP JUMPDEST PUSH1 0x40 MLOAD PUSH1 0x1 PUSH1 0x1 PUSH1 0xA0 SHL SUB DUP1 DUP6 AND PUSH1 0x24 DUP4 ADD MSTORE DUP4 AND PUSH1 0x44 DUP3 ADD MSTORE PUSH1 0x64 DUP2 ADD DUP3 SWAP1 MSTORE PUSH2 0x19E3 SWAP1 DUP6 SWAP1 PUSH4 0x23B872DD PUSH1 0xE0 SHL SWAP1 PUSH1 0x84 ADD JUMPDEST PUSH1 0x40 DUP1 MLOAD PUSH1 0x1F NOT DUP2 DUP5 SUB ADD DUP2 MSTORE SWAP2 SWAP1 MSTORE PUSH1 0x20 DUP2 ADD DUP1 MLOAD PUSH1 0x1 PUSH1 0x1 PUSH1 0xE0 SHL SUB AND PUSH1 0x1 PUSH1 0x1 PUSH1 0xE0 SHL SUB NOT SWAP1 SWAP4 AND SWAP3 SWAP1 SWAP3 OR SWAP1 SWAP2 MSTORE PUSH2 0x1B59 JUMP JUMPDEST POP POP POP POP JUMP JUMPDEST PUSH1 0x40 MLOAD PUSH1 0x1 PUSH1 0x1 PUSH1 0xA0 SHL SUB DUP4 AND PUSH1 0x24 DUP3 ADD MSTORE PUSH1 0x44 DUP2 ADD DUP3 SWAP1 MSTORE PUSH2 0x1A19 SWAP1 DUP5 SWAP1 PUSH4 0xA9059CBB PUSH1 0xE0 SHL SWAP1 PUSH1 0x64 ADD PUSH2 0x19AC JUMP JUMPDEST POP POP POP JUMP JUMPDEST CALLER PUSH0 SWAP1 DUP2 MSTORE PUSH1 0x1 PUSH1 0x20 DUP2 DUP2 MSTORE PUSH1 0x40 DUP1 DUP5 KECCAK256 DUP6 DUP6 MSTORE DUP3 MSTORE DUP1 DUP5 KECCAK256 DUP4 DUP6 MSTORE SWAP1 SWAP2 MSTORE SWAP1 SWAP2 KECCAK256 PUSH1 0x5 ADD SLOAD PUSH2 0x100 SWAP1 DIV PUSH1 0xFF AND ISZERO PUSH2 0x1A83 JUMPI PUSH1 0x40 MLOAD PUSH3 0x461BCD PUSH1 0xE5 SHL DUP2 MSTORE PUSH1 0x20 PUSH1 0x4 DUP3 ADD MSTORE PUSH1 0x7 PUSH1 0x24 DUP3 ADD MSTORE PUSH7 0x10DB185A5B5959 PUSH1 0xCA SHL PUSH1 0x44 DUP3 ADD MSTORE PUSH1 0x64 ADD PUSH2 0x792 JUMP JUMPDEST CALLER PUSH0 SWAP1 DUP2 MSTORE PUSH1 0x1 PUSH1 0x20 SWAP1 DUP2 MSTORE PUSH1 0x40 DUP1 DUP4 KECCAK256 DUP6 DUP5 MSTORE DUP3 MSTORE DUP1 DUP4 KECCAK256 DUP5 DUP5 MSTORE SWAP1 SWAP2 MSTORE SWAP1 KECCAK256 PUSH1 0x4 ADD SLOAD TIMESTAMP GT PUSH2 0x1AF6 JUMPI PUSH1 0x40 MLOAD PUSH3 0x461BCD PUSH1 0xE5 SHL DUP2 MSTORE PUSH1 0x20 PUSH1 0x4 DUP3 ADD MSTORE PUSH1 0x18 PUSH1 0x24 DUP3 ADD MSTORE PUSH32 0x52656C656173652054696D65204E6F7420526561636865640000000000000000 PUSH1 0x44 DUP3 ADD MSTORE PUSH1 0x64 ADD PUSH2 0x792 JUMP JUMPDEST CALLER PUSH0 SWAP1 DUP2 MSTORE PUSH1 0x1 PUSH1 0x20 DUP2 DUP2 MSTORE PUSH1 0x40 DUP1 DUP5 KECCAK256 DUP7 DUP6 MSTORE DUP3 MSTORE DUP1 DUP5 KECCAK256 DUP6 DUP6 MSTORE SWAP1 SWAP2 MSTORE SWAP1 SWAP2 KECCAK256 SWAP1 DUP2 ADD SLOAD PUSH1 0x2 DUP3 ADD SLOAD PUSH1 0x3 DUP4 ADD SLOAD PUSH1 0x5 SWAP1 SWAP4 ADD DUP1 SLOAD PUSH2 0xFF00 NOT AND PUSH2 0x100 OR SWAP1 SSTORE PUSH1 0x1 PUSH1 0x1 PUSH1 0xA0 SHL SUB SWAP2 DUP3 AND SWAP3 SWAP2 AND SWAP1 PUSH2 0x1B52 DUP4 DUP4 DUP4 PUSH2 0x19E9 JUMP JUMPDEST POP POP POP POP POP JUMP JUMPDEST PUSH0 PUSH2 0x1BAD DUP3 PUSH1 0x40 MLOAD DUP1 PUSH1 0x40 ADD PUSH1 0x40 MSTORE DUP1 PUSH1 0x20 DUP2 MSTORE PUSH1 0x20 ADD PUSH32 0x5361666545524332303A206C6F772D6C6576656C2063616C6C206661696C6564 DUP2 MSTORE POP DUP6 PUSH1 0x1 PUSH1 0x1 PUSH1 0xA0 SHL SUB AND PUSH2 0x1C2A SWAP1 SWAP3 SWAP2 SWAP1 PUSH4 0xFFFFFFFF AND JUMP JUMPDEST DUP1 MLOAD SWAP1 SWAP2 POP ISZERO PUSH2 0x1A19 JUMPI DUP1 DUP1 PUSH1 0x20 ADD SWAP1 MLOAD DUP2 ADD SWAP1 PUSH2 0x1BCB SWAP2 SWAP1 PUSH2 0x20B9 JUMP JUMPDEST PUSH2 0x1A19 JUMPI PUSH1 0x40 MLOAD PUSH3 0x461BCD PUSH1 0xE5 SHL DUP2 MSTORE PUSH1 0x20 PUSH1 0x4 DUP3 ADD MSTORE PUSH1 0x2A PUSH1 0x24 DUP3 ADD MSTORE PUSH32 0x5361666545524332303A204552433230206F7065726174696F6E20646964206E PUSH1 0x44 DUP3 ADD MSTORE PUSH10 0x1BDD081CDD58D8D95959 PUSH1 0xB2 SHL PUSH1 0x64 DUP3 ADD MSTORE PUSH1 0x84 ADD PUSH2 0x792 JUMP JUMPDEST PUSH1 0x60 PUSH2 0x1C38 DUP5 DUP5 PUSH0 DUP6 PUSH2 0x1C40 JUMP JUMPDEST SWAP5 SWAP4 POP POP POP POP JUMP JUMPDEST PUSH1 0x60 DUP3 SELFBALANCE LT ISZERO PUSH2 0x1CA1 JUMPI PUSH1 0x40 MLOAD PUSH3 0x461BCD PUSH1 0xE5 SHL DUP2 MSTORE PUSH1 0x20 PUSH1 0x4 DUP3 ADD MSTORE PUSH1 0x26 PUSH1 0x24 DUP3 ADD MSTORE PUSH32 0x416464726573733A20696E73756666696369656E742062616C616E636520666F PUSH1 0x44 DUP3 ADD MSTORE PUSH6 0x1C8818D85B1B PUSH1 0xD2 SHL PUSH1 0x64 DUP3 ADD MSTORE PUSH1 0x84 ADD PUSH2 0x792 JUMP JUMPDEST PUSH0 DUP1 DUP7 PUSH1 0x1 PUSH1 0x1 PUSH1 0xA0 SHL SUB AND DUP6 DUP8 PUSH1 0x40 MLOAD PUSH2 0x1CBC SWAP2 SWAP1 PUSH2 0x20F6 JUMP JUMPDEST PUSH0 PUSH1 0x40 MLOAD DUP1 DUP4 SUB DUP2 DUP6 DUP8 GAS CALL SWAP3 POP POP POP RETURNDATASIZE DUP1 PUSH0 DUP2 EQ PUSH2 0x1CF6 JUMPI PUSH1 0x40 MLOAD SWAP2 POP PUSH1 0x1F NOT PUSH1 0x3F RETURNDATASIZE ADD AND DUP3 ADD PUSH1 0x40 MSTORE RETURNDATASIZE DUP3 MSTORE RETURNDATASIZE PUSH0 PUSH1 0x20 DUP5 ADD RETURNDATACOPY PUSH2 0x1CFB JUMP JUMPDEST PUSH1 0x60 SWAP2 POP JUMPDEST POP SWAP2 POP SWAP2 POP PUSH2 0x1D0C DUP8 DUP4 DUP4 DUP8 PUSH2 0x1D17 JUMP JUMPDEST SWAP8 SWAP7 POP POP POP POP POP POP POP JUMP JUMPDEST PUSH1 0x60 DUP4 ISZERO PUSH2 0x1D85 JUMPI DUP3 MLOAD PUSH0 SUB PUSH2 0x1D7E JUMPI PUSH1 0x1 PUSH1 0x1 PUSH1 0xA0 SHL SUB DUP6 AND EXTCODESIZE PUSH2 0x1D7E JUMPI PUSH1 0x40 MLOAD PUSH3 0x461BCD PUSH1 0xE5 SHL DUP2 MSTORE PUSH1 0x20 PUSH1 0x4 DUP3 ADD MSTORE PUSH1 0x1D PUSH1 0x24 DUP3 ADD MSTORE PUSH32 0x416464726573733A2063616C6C20746F206E6F6E2D636F6E7472616374000000 PUSH1 0x44 DUP3 ADD MSTORE PUSH1 0x64 ADD PUSH2 0x792 JUMP JUMPDEST POP DUP2 PUSH2 0x1C38 JUMP JUMPDEST PUSH2 0x1C38 DUP4 DUP4 DUP2 MLOAD ISZERO PUSH2 0x1D9A JUMPI DUP2 MLOAD DUP1 DUP4 PUSH1 0x20 ADD REVERT JUMPDEST DUP1 PUSH1 0x40 MLOAD PUSH3 0x461BCD PUSH1 0xE5 SHL DUP2 MSTORE PUSH1 0x4 ADD PUSH2 0x792 SWAP2 SWAP1 PUSH2 0x2111 JUMP JUMPDEST DUP1 CALLDATALOAD PUSH1 0x1 PUSH1 0x1 PUSH1 0xA0 SHL SUB DUP2 AND DUP2 EQ PUSH2 0x1DCA JUMPI PUSH0 DUP1 REVERT JUMPDEST SWAP2 SWAP1 POP JUMP JUMPDEST PUSH0 DUP1 PUSH0 PUSH1 0x60 DUP5 DUP7 SUB SLT ISZERO PUSH2 0x1DE1 JUMPI PUSH0 DUP1 REVERT JUMPDEST PUSH2 0x1DEA DUP5 PUSH2 0x1DB4 JUMP JUMPDEST SWAP6 PUSH1 0x20 DUP6 ADD CALLDATALOAD SWAP6 POP PUSH1 0x40 SWAP1 SWAP5 ADD CALLDATALOAD SWAP4 SWAP3 POP POP POP JUMP JUMPDEST PUSH0 DUP1 PUSH1 0x40 DUP4 DUP6 SUB SLT ISZERO PUSH2 0x1E10 JUMPI PUSH0 DUP1 REVERT JUMPDEST PUSH2 0x1E19 DUP4 PUSH2 0x1DB4 JUMP JUMPDEST SWAP5 PUSH1 0x20 SWAP4 SWAP1 SWAP4 ADD CALLDATALOAD SWAP4 POP POP POP JUMP JUMPDEST DUP1 ISZERO ISZERO DUP2 EQ PUSH2 0xFB7 JUMPI PUSH0 DUP1 REVERT JUMPDEST PUSH0 DUP1 PUSH0 DUP1 PUSH0 DUP1 PUSH1 0xC0 DUP8 DUP10 SUB SLT ISZERO PUSH2 0x1E49 JUMPI PUSH0 DUP1 REVERT JUMPDEST PUSH2 0x1E52 DUP8 PUSH2 0x1DB4 JUMP JUMPDEST SWAP6 POP PUSH2 0x1E60 PUSH1 0x20 DUP9 ADD PUSH2 0x1DB4 JUMP JUMPDEST SWAP5 POP PUSH2 0x1E6E PUSH1 0x40 DUP9 ADD PUSH2 0x1DB4 JUMP JUMPDEST SWAP4 POP PUSH1 0x60 DUP8 ADD CALLDATALOAD SWAP3 POP PUSH1 0x80 DUP8 ADD CALLDATALOAD SWAP2 POP PUSH1 0xA0 DUP8 ADD CALLDATALOAD PUSH2 0x1E8C DUP2 PUSH2 0x1E27 JUMP JUMPDEST DUP1 SWAP2 POP POP SWAP3 SWAP6 POP SWAP3 SWAP6 POP SWAP3 SWAP6 JUMP JUMPDEST PUSH0 PUSH1 0x20 DUP3 DUP5 SUB SLT ISZERO PUSH2 0x1EAA JUMPI PUSH0 DUP1 REVERT JUMPDEST POP CALLDATALOAD SWAP2 SWAP1 POP JUMP JUMPDEST PUSH0 PUSH2 0x120 DUP3 DUP5 SUB SLT ISZERO PUSH2 0x1EC2 JUMPI PUSH0 DUP1 REVERT JUMPDEST POP SWAP2 SWAP1 POP JUMP JUMPDEST PUSH0 DUP1 PUSH1 0x40 DUP4 DUP6 SUB SLT ISZERO PUSH2 0x1ED9 JUMPI PUSH0 DUP1 REVERT JUMPDEST DUP3 CALLDATALOAD SWAP2 POP PUSH2 0x1EE9 PUSH1 0x20 DUP5 ADD PUSH2 0x1DB4 JUMP JUMPDEST SWAP1 POP SWAP3 POP SWAP3 SWAP1 POP JUMP JUMPDEST PUSH4 0x4E487B71 PUSH1 0xE0 SHL PUSH0 MSTORE PUSH1 0x41 PUSH1 0x4 MSTORE PUSH1 0x24 PUSH0 REVERT JUMPDEST PUSH0 DUP1 PUSH0 DUP1 PUSH0 PUSH1 0xA0 DUP7 DUP9 SUB SLT ISZERO PUSH2 0x1F1A JUMPI PUSH0 DUP1 REVERT JUMPDEST DUP6 CALLDATALOAD SWAP5 POP PUSH1 0x20 DUP1 DUP8 ADD CALLDATALOAD SWAP5 POP PUSH1 0x40 DUP8 ADD CALLDATALOAD SWAP4 POP PUSH1 0x60 DUP8 ADD CALLDATALOAD PUSH8 0xFFFFFFFFFFFFFFFF DUP1 DUP3 GT ISZERO PUSH2 0x1F47 JUMPI PUSH0 DUP1 REVERT JUMPDEST DUP2 DUP10 ADD SWAP2 POP DUP10 PUSH1 0x1F DUP4 ADD SLT PUSH2 0x1F5A JUMPI PUSH0 DUP1 REVERT JUMPDEST DUP2 CALLDATALOAD DUP2 DUP2 GT ISZERO PUSH2 0x1F6C JUMPI PUSH2 0x1F6C PUSH2 0x1EF2 JUMP JUMPDEST DUP1 PUSH1 0x5 SHL PUSH1 0x40 MLOAD PUSH1 0x1F NOT PUSH1 0x3F DUP4 ADD AND DUP2 ADD DUP2 DUP2 LT DUP6 DUP3 GT OR ISZERO PUSH2 0x1F91 JUMPI PUSH2 0x1F91 PUSH2 0x1EF2 JUMP JUMPDEST PUSH1 0x40 MSTORE SWAP2 DUP3 MSTORE DUP5 DUP3 ADD SWAP3 POP DUP4 DUP2 ADD DUP6 ADD SWAP2 DUP13 DUP4 GT ISZERO PUSH2 0x1FAE JUMPI PUSH0 DUP1 REVERT JUMPDEST SWAP4 DUP6 ADD SWAP4 JUMPDEST DUP3 DUP6 LT ISZERO PUSH2 0x1FCC JUMPI DUP5 CALLDATALOAD DUP5 MSTORE SWAP4 DUP6 ADD SWAP4 SWAP3 DUP6 ADD SWAP3 PUSH2 0x1FB3 JUMP JUMPDEST SWAP10 SWAP13 SWAP9 SWAP12 POP SWAP7 SWAP10 PUSH1 0x80 ADD CALLDATALOAD SWAP8 SWAP7 POP POP POP POP POP POP POP JUMP JUMPDEST PUSH4 0x4E487B71 PUSH1 0xE0 SHL PUSH0 MSTORE PUSH1 0x11 PUSH1 0x4 MSTORE PUSH1 0x24 PUSH0 REVERT JUMPDEST PUSH0 PUSH1 0x1 DUP3 ADD PUSH2 0x2007 JUMPI PUSH2 0x2007 PUSH2 0x1FE2 JUMP JUMPDEST POP PUSH1 0x1 ADD SWAP1 JUMP JUMPDEST DUP1 DUP3 ADD DUP1 DUP3 GT ISZERO PUSH2 0x5C1 JUMPI PUSH2 0x5C1 PUSH2 0x1FE2 JUMP JUMPDEST DUP2 DUP2 SUB DUP2 DUP2 GT ISZERO PUSH2 0x5C1 JUMPI PUSH2 0x5C1 PUSH2 0x1FE2 JUMP JUMPDEST DUP1 DUP3 MUL DUP2 ISZERO DUP3 DUP3 DIV DUP5 EQ OR PUSH2 0x5C1 JUMPI PUSH2 0x5C1 PUSH2 0x1FE2 JUMP JUMPDEST PUSH0 DUP3 PUSH2 0x2065 JUMPI PUSH4 0x4E487B71 PUSH1 0xE0 SHL PUSH0 MSTORE PUSH1 0x12 PUSH1 0x4 MSTORE PUSH1 0x24 PUSH0 REVERT JUMPDEST POP DIV SWAP1 JUMP JUMPDEST PUSH0 PUSH1 0x20 DUP3 DUP5 SUB SLT ISZERO PUSH2 0x207A JUMPI PUSH0 DUP1 REVERT JUMPDEST PUSH2 0x2083 DUP3 PUSH2 0x1DB4 JUMP JUMPDEST SWAP4 SWAP3 POP POP POP JUMP JUMPDEST PUSH0 PUSH1 0x20 DUP3 DUP5 SUB SLT ISZERO PUSH2 0x209A JUMPI PUSH0 DUP1 REVERT JUMPDEST DUP2 CALLDATALOAD PUSH2 0x2083 DUP2 PUSH2 0x1E27 JUMP JUMPDEST PUSH4 0x4E487B71 PUSH1 0xE0 SHL PUSH0 MSTORE PUSH1 0x32 PUSH1 0x4 MSTORE PUSH1 0x24 PUSH0 REVERT JUMPDEST PUSH0 PUSH1 0x20 DUP3 DUP5 SUB SLT ISZERO PUSH2 0x20C9 JUMPI PUSH0 DUP1 REVERT JUMPDEST DUP2 MLOAD PUSH2 0x2083 DUP2 PUSH2 0x1E27 JUMP JUMPDEST PUSH0 JUMPDEST DUP4 DUP2 LT ISZERO PUSH2 0x20EE JUMPI DUP2 DUP2 ADD MLOAD DUP4 DUP3 ADD MSTORE PUSH1 0x20 ADD PUSH2 0x20D6 JUMP JUMPDEST POP POP PUSH0 SWAP2 ADD MSTORE JUMP JUMPDEST PUSH0 DUP3 MLOAD PUSH2 0x2107 DUP2 DUP5 PUSH1 0x20 DUP8 ADD PUSH2 0x20D4 JUMP JUMPDEST SWAP2 SWAP1 SWAP2 ADD SWAP3 SWAP2 POP POP JUMP JUMPDEST PUSH1 0x20 DUP2 MSTORE PUSH0 DUP3 MLOAD DUP1 PUSH1 0x20 DUP5 ADD MSTORE PUSH2 0x212F DUP2 PUSH1 0x40 DUP6 ADD PUSH1 0x20 DUP8 ADD PUSH2 0x20D4 JUMP JUMPDEST PUSH1 0x1F ADD PUSH1 0x1F NOT AND SWAP2 SWAP1 SWAP2 ADD PUSH1 0x40 ADD SWAP3 SWAP2 POP POP JUMP INVALID LOG2 PUSH5 0x6970667358 0x22 SLT KECCAK256 AND JUMPDEST GAS 0xEC PUSH1 0xC1 CALLDATACOPY SWAP1 KECCAK256 PUSH13 0xD6459D5C71743B625261F9B43D 0xF6 0x29 0xBC PUSH32 0xF9D61432B064736F6C6343000814003300000000000000000000000000000000 "
		},
		"gasEstimates": {
			"creation": {
				"codeDepositCost": "1713800",
				"executionCost": "1797",
				"totalCost": "1715597"
			},
			"external": {
				"Lock((address,address,uint256,bool,uint256,uint256,uint256,uint256,uint256))": "infinite",
				"LockedTokens(address,uint256,uint256)": "13541",
				"Release(uint256)": "infinite",
				"_vestingClaim(uint256)": "infinite",
				"amount(address,uint256,uint256)": "2794",
				"beneficiary(address,uint256,uint256)": "2793",
				"changeReleaseTimeAndSpread(uint256,uint256,uint256,uint256[],uint256)": "infinite",
				"cycleCountPerID(address,uint256)": "2677",
				"getClaimed(address,uint256,uint256)": "2799",
				"getLockCount(address,uint256)": "2740",
				"getTransaction(address,uint256,uint256)": "13898",
				"id()": "2382",
				"isLiquidity(address,uint256,uint256)": "2783",
				"launchLock(address,address,address,uint256,uint256,bool)": "infinite",
				"releaseTime(address,uint256,uint256)": "2815",
				"token(address,uint256,uint256)": "2864",
				"totalTokenAmount(uint256,address)": "2681"
			},
			"internal": {
				"_normalClaim(uint256)": "infinite"
			}
		},
		"methodIdentifiers": {
			"Lock((address,address,uint256,bool,uint256,uint256,uint256,uint256,uint256))": "8e6509c9",
			"LockedTokens(address,uint256,uint256)": "96480d04",
			"Release(uint256)": "cf95d1fe",
			"_vestingClaim(uint256)": "84abacb4",
			"amount(address,uint256,uint256)": "6cfa2d9a",
			"beneficiary(address,uint256,uint256)": "5f4455fb",
			"changeReleaseTimeAndSpread(uint256,uint256,uint256,uint256[],uint256)": "e5205906",
			"cycleCountPerID(address,uint256)": "37d1bf92",
			"getClaimed(address,uint256,uint256)": "1a38f4a7",
			"getLockCount(address,uint256)": "43edd3c5",
			"getTransaction(address,uint256,uint256)": "0a64cc6a",
			"id()": "af640d0f",
			"isLiquidity(address,uint256,uint256)": "e3c36941",
			"launchLock(address,address,address,uint256,uint256,bool)": "569511e3",
			"releaseTime(address,uint256,uint256)": "eaf60c8b",
			"token(address,uint256,uint256)": "fde8e727",
			"totalTokenAmount(uint256,address)": "9bc59d83"
		}
	},
	"abi": [
		{
			"anonymous": false,
			"inputs": [
				{
					"indexed": true,
					"internalType": "address",
					"name": "user",
					"type": "address"
				},
				{
					"indexed": true,
					"internalType": "address",
					"name": "token",
					"type": "address"
				},
				{
					"indexed": false,
					"internalType": "uint256",
					"name": "ID",
					"type": "uint256"
				}
			],
			"name": "Locked",
			"type": "event"
		},
		{
			"inputs": [
				{
					"components": [
						{
							"internalType": "address",
							"name": "Token",
							"type": "address"
						},
						{
							"internalType": "address",
							"name": "Beneficiary",
							"type": "address"
						},
						{
							"internalType": "uint256",
							"name": "amount",
							"type": "uint256"
						},
						{
							"internalType": "bool",
							"name": "liquidity",
							"type": "bool"
						},
						{
							"internalType": "uint256",
							"name": "FirstPercent",
							"type": "uint256"
						},
						{
							"internalType": "uint256",
							"name": "firstReleaseTime",
							"type": "uint256"
						},
						{
							"internalType": "uint256",
							"name": "cyclePercent",
							"type": "uint256"
						},
						{
							"internalType": "uint256",
							"name": "cyclereleaseTime",
							"type": "uint256"
						},
						{
							"internalType": "uint256",
							"name": "cycleCount",
							"type": "uint256"
						}
					],
					"internalType": "struct TokenTimeLock.inputs",
					"name": "Inputs",
					"type": "tuple"
				}
			],
			"name": "Lock",
			"outputs": [],
			"stateMutability": "nonpayable",
			"type": "function"
		},
		{
			"inputs": [
				{
					"internalType": "address",
					"name": "",
					"type": "address"
				},
				{
					"internalType": "uint256",
					"name": "",
					"type": "uint256"
				},
				{
					"internalType": "uint256",
					"name": "",
					"type": "uint256"
				}
			],
			"name": "LockedTokens",
			"outputs": [
				{
					"internalType": "address",
					"name": "owner",
					"type": "address"
				},
				{
					"internalType": "address",
					"name": "Token",
					"type": "address"
				},
				{
					"internalType": "address",
					"name": "Beneficiary",
					"type": "address"
				},
				{
					"internalType": "uint256",
					"name": "amount",
					"type": "uint256"
				},
				{
					"internalType": "uint256",
					"name": "releaseTime",
					"type": "uint256"
				},
				{
					"internalType": "bool",
					"name": "liquidity",
					"type": "bool"
				},
				{
					"internalType": "bool",
					"name": "Claimed",
					"type": "bool"
				}
			],
			"stateMutability": "view",
			"type": "function"
		},
		{
			"inputs": [
				{
					"internalType": "uint256",
					"name": "index",
					"type": "uint256"
				}
			],
			"name": "Release",
			"outputs": [],
			"stateMutability": "nonpayable",
			"type": "function"
		},
		{
			"inputs": [
				{
					"internalType": "uint256",
					"name": "index",
					"type": "uint256"
				}
			],
			"name": "_vestingClaim",
			"outputs": [],
			"stateMutability": "nonpayable",
			"type": "function"
		},
		{
			"inputs": [
				{
					"internalType": "address",
					"name": "owner_",
					"type": "address"
				},
				{
					"internalType": "uint256",
					"name": "Id",
					"type": "uint256"
				},
				{
					"internalType": "uint256",
					"name": "index",
					"type": "uint256"
				}
			],
			"name": "amount",
			"outputs": [
				{
					"internalType": "uint256",
					"name": "",
					"type": "uint256"
				}
			],
			"stateMutability": "view",
			"type": "function"
		},
		{
			"inputs": [
				{
					"internalType": "address",
					"name": "owner_",
					"type": "address"
				},
				{
					"internalType": "uint256",
					"name": "index",
					"type": "uint256"
				},
				{
					"internalType": "uint256",
					"name": "vIndex",
					"type": "uint256"
				}
			],
			"name": "beneficiary",
			"outputs": [
				{
					"internalType": "address",
					"name": "",
					"type": "address"
				}
			],
			"stateMutability": "view",
			"type": "function"
		},
		{
			"inputs": [
				{
					"internalType": "uint256",
					"name": "index",
					"type": "uint256"
				},
				{
					"internalType": "uint256",
					"name": "newTime",
					"type": "uint256"
				},
				{
					"internalType": "uint256",
					"name": "newCycleGap",
					"type": "uint256"
				},
				{
					"internalType": "uint256[]",
					"name": "newPercentages",
					"type": "uint256[]"
				},
				{
					"internalType": "uint256",
					"name": "additionalAmount",
					"type": "uint256"
				}
			],
			"name": "changeReleaseTimeAndSpread",
			"outputs": [],
			"stateMutability": "nonpayable",
			"type": "function"
		},
		{
			"inputs": [
				{
					"internalType": "address",
					"name": "",
					"type": "address"
				},
				{
					"internalType": "uint256",
					"name": "",
					"type": "uint256"
				}
			],
			"name": "cycleCountPerID",
			"outputs": [
				{
					"internalType": "uint256",
					"name": "",
					"type": "uint256"
				}
			],
			"stateMutability": "view",
			"type": "function"
		},
		{
			"inputs": [
				{
					"internalType": "address",
					"name": "owner_",
					"type": "address"
				},
				{
					"internalType": "uint256",
					"name": "index",
					"type": "uint256"
				},
				{
					"internalType": "uint256",
					"name": "vIndex",
					"type": "uint256"
				}
			],
			"name": "getClaimed",
			"outputs": [
				{
					"internalType": "bool",
					"name": "",
					"type": "bool"
				}
			],
			"stateMutability": "view",
			"type": "function"
		},
		{
			"inputs": [
				{
					"internalType": "address",
					"name": "owner",
					"type": "address"
				},
				{
					"internalType": "uint256",
					"name": "index",
					"type": "uint256"
				}
			],
			"name": "getLockCount",
			"outputs": [
				{
					"internalType": "uint256",
					"name": "",
					"type": "uint256"
				}
			],
			"stateMutability": "view",
			"type": "function"
		},
		{
			"inputs": [
				{
					"internalType": "address",
					"name": "owner_",
					"type": "address"
				},
				{
					"internalType": "uint256",
					"name": "index",
					"type": "uint256"
				},
				{
					"internalType": "uint256",
					"name": "vIndex",
					"type": "uint256"
				}
			],
			"name": "getTransaction",
			"outputs": [
				{
					"components": [
						{
							"internalType": "address",
							"name": "owner",
							"type": "address"
						},
						{
							"internalType": "address",
							"name": "Token",
							"type": "address"
						},
						{
							"internalType": "address",
							"name": "Beneficiary",
							"type": "address"
						},
						{
							"internalType": "uint256",
							"name": "amount",
							"type": "uint256"
						},
						{
							"internalType": "uint256",
							"name": "releaseTime",
							"type": "uint256"
						},
						{
							"internalType": "bool",
							"name": "liquidity",
							"type": "bool"
						},
						{
							"internalType": "bool",
							"name": "Claimed",
							"type": "bool"
						}
					],
					"internalType": "struct TokenTimeLock.Locks",
					"name": "",
					"type": "tuple"
				}
			],
			"stateMutability": "view",
			"type": "function"
		},
		{
			"inputs": [],
			"name": "id",
			"outputs": [
				{
					"internalType": "uint256",
					"name": "",
					"type": "uint256"
				}
			],
			"stateMutability": "view",
			"type": "function"
		},
		{
			"inputs": [
				{
					"internalType": "address",
					"name": "owner_",
					"type": "address"
				},
				{
					"internalType": "uint256",
					"name": "index",
					"type": "uint256"
				},
				{
					"internalType": "uint256",
					"name": "vIndex",
					"type": "uint256"
				}
			],
			"name": "isLiquidity",
			"outputs": [
				{
					"internalType": "bool",
					"name": "",
					"type": "bool"
				}
			],
			"stateMutability": "view",
			"type": "function"
		},
		{
			"inputs": [
				{
					"internalType": "address",
					"name": "owner",
					"type": "address"
				},
				{
					"internalType": "address",
					"name": "token_",
					"type": "address"
				},
				{
					"internalType": "address",
					"name": "beneficiary_",
					"type": "address"
				},
				{
					"internalType": "uint256",
					"name": "releaseTime_",
					"type": "uint256"
				},
				{
					"internalType": "uint256",
					"name": "amount_",
					"type": "uint256"
				},
				{
					"internalType": "bool",
					"name": "_liquidity",
					"type": "bool"
				}
			],
			"name": "launchLock",
			"outputs": [],
			"stateMutability": "nonpayable",
			"type": "function"
		},
		{
			"inputs": [
				{
					"internalType": "address",
					"name": "owner_",
					"type": "address"
				},
				{
					"internalType": "uint256",
					"name": "index",
					"type": "uint256"
				},
				{
					"internalType": "uint256",
					"name": "vIndex",
					"type": "uint256"
				}
			],
			"name": "releaseTime",
			"outputs": [
				{
					"internalType": "uint256",
					"name": "",
					"type": "uint256"
				}
			],
			"stateMutability": "view",
			"type": "function"
		},
		{
			"inputs": [
				{
					"internalType": "address",
					"name": "owner_",
					"type": "address"
				},
				{
					"internalType": "uint256",
					"name": "index",
					"type": "uint256"
				},
				{
					"internalType": "uint256",
					"name": "vIndex",
					"type": "uint256"
				}
			],
			"name": "token",
			"outputs": [
				{
					"internalType": "address",
					"name": "",
					"type": "address"
				}
			],
			"stateMutability": "view",
			"type": "function"
		},
		{
			"inputs": [
				{
					"internalType": "uint256",
					"name": "",
					"type": "uint256"
				},
				{
					"internalType": "address",
					"name": "",
					"type": "address"
				}
			],
			"name": "totalTokenAmount",
			"outputs": [
				{
					"internalType": "uint256",
					"name": "",
					"type": "uint256"
				}
			],
			"stateMutability": "view",
			"type": "function"
		}
	]
}